:020000040800F2
:10000000F05C002031030008D75A0008F5440008CE
:10001000D55A0008250C0008FF6900080000000000
:100020000000000000000000000000007102000855
:10003000331F000800000000CD020008C161000865
:100040004B0300084B0300084B0300084B03000858
:100050004B0300084B0300084B0300084B03000848
:100060004B0300084B0300084B030008ED1A00087F
:10007000F91A0008051B0008111B00084B030008B3
:100080001D1B00084B0300084B0300084B0300082E
:10009000510C00084B0300084B0300084B030008F9
:1000A0004B0300084B0300084B0300084B030008F8
:1000B000956200084B0300084B0300084B0300083F
:1000C0004B0300084B0300084B0300084B030008D8
:1000D0004B03000889680008DD68000835690008DE
:1000E0004B0300084B0300084B0300084B030008B8
:1000F0004B0300084B0300084B030008291B0008B2
:100100004B0300084B0300084B0300084B03000897
:10011000756500088D6500084B0300084B03000857
:100120004B0300084B030008351B00084B03000875
:100130004B0300084B0300084B0300084B03000867
:10014000250D00084B0300084B0300084B03000873
:100150004B0300084B0300084B0300084B03000847
:100160004B0300084B0300084B0300084B03000837
:100170004B0300084B0300084B030008000000007D
:100180004B0300084B03000800F002F800F060F891
:100190000AA090E8000C82448344AAF10107DA45E2
:1001A00001D100F055F8AFF2090EBAE80F0013F0D4
:1001B000010F18BFFB1A43F001031847500A010052
:1001C000700A01000A444FF0000C10F8013B13F0D4
:1001D000070408BF10F8014B1D1108BF10F8015BA0
:1001E000641E05D010F8016B641E01F8016BF9D193
:1001F00013F0080F1EBF10F8014BAD1C0C1B09D1EA
:100200006D1E58BF01F801CBFAD505E014F8016B5B
:1002100001F8016B6D1EF9D59142D6D370470000ED
:100220000023002400250026103A28BF78C1FBD8FF
:10023000520728BF30C148BF0B6070471FB50EF092
:1002400078F99DE8030000F03FFA1FBD10B510BD1E
:1002500000F0A6FA1146FFF7F1FF09F017FE00F0D3
:10026000C4FA03B4FFF7F2FF03BC00F0F5FA000094
:100270002C4B19680868B0E8F04F80F30988BFF389
:100280006F8F4FF0000080F311887047000000006E
:1002900008480068006880F308884FF0000080F389
:1002A000148862B661B6BFF34F8FBFF36F8F00DF64
:1002B00000BF00BF08ED00E0DFF80C00016841F46A
:1002C00070010160704700BF88ED00E0EFF3098026
:1002D000BFF36F8F134B1A681EF0100F08BF20ED8D
:1002E000108A20E9F04F106009B44FF0500080F3FD
:1002F0001188BFF34F8FBFF36F8F0DF089F84FF068
:10030000000080F3118809BC19680868B0E8F04F54
:100310001EF0100F08BFB0EC108A80F30988BFF3FD
:100320006F8F704768000020EFF305807047000072
:100330000948804709480047FEE7FEE7FEE7FEE779
:10034000FEE7FEE7FEE7FEE7FEE7FEE704480549B5
:10035000054A064B704700007962000889010008D1
:10036000F0560020F05C0020F0580020F0580020EB
:1003700070B5064600F08CF9056806F10B0020F018
:100380000704B4429CBF002070BD2B466A68BAB116
:100390001068A04210D304F1080188423CBF5068A5
:1003A000586007D35168101941601168091B01603A
:1003B00058601460101D70BD13465268002AE7D1C2
:1003C0002146284600F06CF90028DED170BD70B5DA
:1003D0000446051F00F05CF90068002C14BF446857
:1003E00070BD002C18BFAC423CBF20466468F8D3F7
:1003F00001680A18AA4218BF456003D12A68054659
:100400001144016028684119A1421CBF6C6070BD95
:100410006168696021680844286070BD53EA020C75
:1004200000F069802DE9F04B4FF00006002B1FBF54
:10043000B3FA83F503FA05F424FA05F65E4012BF19
:100440001643B2FA82F502FA05F4C5F120051EBF83
:1004500022FA05FC44EA0C04203556EA044C4FEA23
:10046000144418BF641C4FF000084FF0000990427C
:1004700071EB030C39D3002919BFB1FA81F701FAE6
:1004800007F6B0FA80F700FA07F6C7F120071EBF9B
:1004900020FA07FC46EA0C062037B6FBF4FCA7EB73
:1004A0000507103F07F01F0BCBF120060CFA0BFBE2
:1004B0002CFA06F644BFB3460026202FA4BF5E46A2
:1004C0004FF0000B5BEA060C08BF4FF0010B19EB75
:1004D0000B09ABFB027C48EB0608C01B06FB02CCF9
:1004E0000BFB03CC71EB0C01C1E70B460246414606
:1004F0004846BDE8F08B13B54FF000004FF0000107
:10050000AFF30080BDE81C407047032A40F2308002
:1005100010F0030C00F0158011F8013BBCF1020F44
:10052000624498BF11F801CB00F8013B38BF11F8C5
:10053000013BA2F1040298BF00F801CB38BF00F8DC
:10054000013B11F0030300F02580083AC0F0088059
:1005500051F8043B083A51F804CBA0E80810F5E73D
:10056000121D5CBF51F8043B40F8043BAFF3008020
:10057000D20724BF11F8013B11F801CB48BF11F895
:10058000012B24BF00F8013B00F801CB48BF00F865
:10059000012B704710B5203AC0F00B80B1E818501D
:1005A000203AA0E81850B1E81850A0E81850BFF45D
:1005B000F5AF5FEA027C24BFB1E81850A0E81850FC
:1005C00044BF18C918C0BDE810405FEA827C24BF50
:1005D00051F8043B40F8043B08BF7047D20728BFDE
:1005E00031F8023B48BF11F8012B28BF20F8023B2D
:1005F00048BF00F8012B70474FF000020429C0F0FB
:10060000128010F0030C00F01B80CCF1040CBCF144
:10061000020F18BF00F8012BA8BF20F8022BA1EB96
:100620000C0100F00DB85FEAC17C24BF00F8012B7B
:1006300000F8012B48BF00F8012B70474FF0000273
:1006400000B5134694469646203922BFA0E80C50C8
:10065000A0E80C50B1F12001BFF4F7AF090728BFA3
:10066000A0E80C5048BF0CC05DF804EB890028BF1F
:1006700040F8042B08BF704748BF20F8022B11F048
:10068000804F18BF00F8012B7047704770477047C4
:100690000048704794560020704770477047704775
:1006A00038B504460A4600206946AFF300800028AA
:1006B00008BF38BD02460099204600F04FF80120DF
:1006C00038BD012000F064B8F8B5AFF300800546EE
:1006D00000200C46102000BF0646A819A0420DD9E4
:1006E000324669460020AFF30080070008BF00F0E3
:1006F0004FF80098A04218BF0546C419FFF7C8FF7D
:1007000005600746F01D20F007004619284600F056
:100710000AF8B44208BFF8BDA21B31463868BDE8EC
:10072000F84000F01BB800210160C0E901107047DB
:100730001020704710B500F00DF8006810BD10B51E
:10074000044600F007F8046010BD00000048704740
:100750008C560020004870478C56002003464068A5
:100760008C46002818BF88423CBF03464068F8D337
:1007700018681844884207D00CF1030020F00700E5
:10078000001D411A521A0146081D0A60FFF71FBEDC
:1007900010B500F039F8BDE8104000F02FB87047F0
:1007A0007546FFF7D3FFAE4605006946534620F075
:1007B0000700854618B020B5FFF7C8FDBDE820400A
:1007C0004FF000064FF000074FF000084FF0000B0D
:1007D00021F00701AC46ACE8C009ACE8C009ACE8C0
:1007E000C009ACE8C0098D46704710B50446AFF3A8
:1007F00000802046BDE81040FFF733BD002801D03F
:1008000000F02AB87047000010B5012805D000217B
:1008100003A000F027F8012010BD09A1F8E70000AF
:1008200053494752544D454D3A204F7574206F66D9
:100830002068656170206D656D6F72790000000041
:100840003A2048656170206D656D6F727920636F25
:10085000727275707465640001491820ABBEFEE7C2
:100860002600020070B505460C460A2000E06D1C0B
:1008700000F011F835B128780028F8D102E0641CA6
:1008800000F009F814B120780028F8D1BDE87040D4
:100890000A20AFF3008008B569468DF800000320F8
:1008A000ABBE08BD464910B54A6822F440324A60E2
:1008B0004A6843681A434A6001684A6822F48072B1
:1008C0004A6001684A68036942EA03224A60016893
:1008D0004A6822F040724A6001684A6883681A4395
:1008E0004A6001688A6822F400628A6001688A6846
:1008F000C3681A438A60816A6FF07062D1420168EE
:100900008A6822F070628A6001688A680CD0836A03
:100910001A438A6001688A6822F040528A6001683E
:100920008A68C36A1A4301E022F040528A60016873
:100930008A6822F002028A6001688A68037E42EABD
:1009400043028A6090F82010002901684A680FD09D
:1009500042F400624A6001684A6822F460424A60D8
:1009600001684A68174C436A04EB43331A4301E0B9
:1009700022F400624A600168CA6A22F47002CA6204
:100980000168CA6A838B104C04EB03531A43CA6292
:1009900001688A6822F400728A6001688A6890F8A7
:1009A000303042EA43228A6001688A6822F4806219
:1009B0008A6001688A68406942EA8020886010BDC8
:1009C0000023014000E0FFFF0000F0FF704700003F
:1009D00030B50C4605000CD0022C0AD90548A11EE2
:1009E0000288284601F022FB291901F8020D000AAD
:1009F000487030BDB401002030B50C4605000AD067
:100A0000022C08D9601E81B2FF22284601F024FB87
:100A1000291901F8010C30BD2DE9FE4F1546DDE91D
:100A20000C9A0E4607460C221C466946104604F0F6
:100A3000B5FCBDF80080BDF802C0BDF80430BDF8BB
:100A40000620BDF80810BDF80A00A4F80080A9F837
:100A500000C0AAF800303A8031802880BDE8FE8FBF
:100A600038B5194807F070FE07F0E2FA164807F0AB
:100A7000A3FA044607F0DCFA24BB01208DF800003D
:100A80000146114A684607F0EDFE07F0D1FA0E481C
:100A900005F08EF900208DF800000B4A0121684610
:100AA00007F0E0FE07F0C4FA074805F057F9022006
:100AB0008DF80000044A0121684607F0D3FE044681
:100AC00007F0B6FA204638BD105000201CB51F496B
:100AD0001F48CDE900011F4B1F4A20492048FFF75E
:100AE0009BFF204900230C461A46A01C09F040FA3F
:100AF000B4F90400B6EE001A00EE100A1648F8EE3B
:100B0000C00AB0F9000000EE100AB8EEC00A03F007
:100B100099FEBDEEC00AB6EE001A10EE100AA080D3
:100B2000B4F9060000EE100A0C48F8EEC00AB0F95D
:100B3000000000EE100AB8EEC00A03F083FEBDEE1E
:100B4000C00A10EE100AE0801CBD00001200002058
:100B5000100000200E0000200C0000200A000020E1
:100B60000800002000000020016FB1F5803F02DB8B
:100B7000A1F5803103E0002902DC01F58031016735
:100B80007047000010B5044604F02EFA94F8860071
:100B9000012804D1084840688078012803D0BDE8C6
:100BA000104004F0A7BA0549206F09688860BDE8C5
:100BB000104004F0A3BA000014000020C40200207A
:100BC00010B5044604F010FA94F88600012804D108
:100BD000084840688078012803D0BDE8104004F040
:100BE00089BA0549206F09688860BDE8104004F0A3
:100BF000BBBA000014000020C4020020074802F025
:100C000056FBFFF763FF04F021F8054804F0C0FF2E
:100C100009F0BEF8012009F057FCEFE77009002049
:100C200014000020FEE7000000B58BB0684600F01D
:100C3000CFF86946054801F0A7FC0221034801F0FE
:100C400023FC024801F0B8FF0BB000BD0C090020E6
:100C5000014801F094BD00000C090020A0F580724D
:100C6000413A27D00022A0F50073023B25D0A0F521
:100C70000073013B26D0A0F50073033B27D0B0F5ED
:100C8000017F29D0B0F5407F12D0A0F54072013A23
:100C90000ED0A0F54072023A0AD0A0F54072033A95
:100CA00006D0B0F5417F03D0A0F54072053A19D1C6
:100CB00003F032BD0C4804F0EBBA0C4840680270F7
:100CC0000A480DE00A4840680270094808E00948EF
:100CD00040680270074803E0074840680270064811
:100CE00004F034B970470000284B002000040020B5
:100CF000E40300201C0400203804002000B58BB061
:100D0000684600F065F86946054801F03DFC02219F
:100D1000034801F0B9FB024801F04EFF0BB000BDE3
:100D200034090020014801F02ABD000034090020E8
:100D300010B5A0F50072FF3A17D0A0F58072FF3A07
:100D400013D00021A0F50072013A14D0A0F5007272
:100D5000023A21D1184C60680170204604F05EF818
:100D6000164890F82A00C0B11DE00A46BDE81040C0
:100D7000134901F031BA134C60680170204604F049
:100D80004DF8114890F82A00002805D12068B0F9E4
:100D90000A20C1681144C16010BD2068B0F90A2062
:100DA000C1681144C160094C20780028F4D104F0D6
:100DB00055FA0120207010BDF452002090520020FE
:100DC00078500020BC52002064520020C80000204F
:100DD0000021016041608160C160016101224161C7
:100DE000C0E90612C0E908217047000010B5124A98
:100DF000016891420DD1114B00211C46A3F11C0248
:100E000001F049FC0D4821461C380068FFF726FF19
:100E100010BD0B4A9142FBD1084B002124331C46E4
:100E2000A3F11C0201F037FC044821460830006899
:100E3000FFF77EFF10BD000000640040284B00203B
:100E40000068004038B50B46164C0168A14201D13C
:100E5000154904E0154CA14222D1134920310B6001
:100E600000238B60CB6008230B6113881B0A0B7671
:100E700013784B7653881B0A8B769378CB769388BE
:100E80001B0A0B7713794B77D3881B0A8B779279E0
:100E9000CA776B4601F1180201F008FB002800D068
:100EA000012038BD00640040544B00200068004021
:100EB00038B50B46144C0168A14201D1134904E036
:100EC000134CA1421ED1114920310B6000238B60CD
:100ED000CB6008230B6113780B7653784B769378AD
:100EE0008B76D378CB7613790B7753794B779379CD
:100EF0008B77D279CA776B4601F1180201F0D6FAE6
:100F0000002800D0012038BD00640040544B002070
:100F1000006800402DE9F05FFB4A2DED068B10784C
:100F20009FEDFA1AFA49DFEDFB0ADFF8EC83DFF8F0
:100F3000EC9346F6D9579FEDFA9BB0EE008A9FEDF1
:100F4000FAABD1F800C0FA4CFA4DD8F800104FF0C7
:100F5000010B4FF47A7A002620B1012872D00228C2
:100F600071D02DE253789FEDF40AF148022BB0F9CD
:100F700032201FD0E948092B00687AD0042B6ED0AC
:100F8000062B13D0032B6BD0EA48DFF8B0C34FF425
:100F90007A6EC068DCF804C000F1C802A0F1C80194
:100FA000052B7CD0072B7BD00A2BFCD026826682B7
:100FB000A68205E2B1F9060000EE900AF8EEE01A0A
:100FC00000EE902AF8EEE00A61EEA00AC0EE801A68
:100FD000FDEEE10A10EE900A2082B1F9040000EE65
:100FE000900AF8EEE01A00EE902AF8EEE00A61EEC0
:100FF000A00AC0EE801ABDEEE10A10EE100A60826F
:10100000B1F9000000EE100AB8EEC00AC0EE010A05
:1010100000EE102AB8EEC00A20EE800ABDEEC00A2B
:1010200010EE100AA082216D00208847AE60D8F82B
:101030000000B0F9100010F5257F05D0B0F5257F30
:101040000FD0BDE186E18EE1B4F93200411C61862A
:1010500042F21071884284DB6186B1E109E048E028
:10106000A4E0B4F93200411E61860028A1DC668646
:10107000A6E1BCF9051000EE101AB8EEC00ADFEDCB
:10108000B00A20EE200ABDEEC00A10EE101A21822E
:10109000BCF9031000EE101AB8EEC00A01E0E4E05B
:1010A0000CE120EE200ABDEEC00A10EE101A61829B
:1010B000A6820068C08A381A0CF0DFFE53EC192BA8
:1010C0000CF006FF0CF030FC00EE100A20EE080ACF
:1010D00010EE100A0DF0BCF953EC1A2B0CF0F8FED0
:1010E0000CF022FCE061924800F0D4FB0120216D5D
:1010F000B9E0B1F9062001EE102AB8EEC11A21EECE
:10110000201AC1EE001ABDEEE11A11EE102A228259
:10111000B1F9041001EE101AB8EEC11A61EE200AFE
:1011200080EE801ABDEEC10A10EE101A6182A98805
:10113000A1820068C08A381A0CF09FFE53EC192B6C
:101140000CF0C6FE0CF0F0FB00EE100A20EE080AD0
:1011500010EE100A0DF07CF953EC1A2B0CF0B8FECF
:101160000CF0E2FBE061724800F094FB216D01207D
:101170008847D8F80000B0F9100010F5257F03D09B
:10118000B0F5257F0AD01BE1B5F90400411CA98008
:1011900041F65831884200DBA98011E1B5F904001D
:1011A000411EA980002800DCAE8009E1B1F90630BB
:1011B00000EE903AB8EEE01A00EE902AF8EEE00A5F
:1011C00061EE200A80EE801AFDEEC10A10EE903A20
:1011D0002382B1F9041000EE901AB8EEE01A00EE86
:1011E000902AF8EEE00A61EE200A80EE801ABDEE49
:1011F000C10A10EE101A61820068C08A00EE100A5F
:10120000B8EE400ADFED4F0A4F4809F03BFBBDEE58
:10121000C00A10EE100AA082D9F800000068C08A47
:10122000381A0CF02AFE53EC192B0CF051FE0CF07E
:101230007BFB00EE100A20EE080A10EE100A0DF0FB
:1012400007F953EC1A2B0CF043FE0CF06DFBE06138
:10125000374800F01FFBD9F800004068807800B9DB
:10126000A682216D00208847AAE0BCF80230BCF8B5
:101270000080A3EB0803092B12DB40F6B833984239
:1012800002D885F801B002E0504500D36E7095F9A0
:10129000010010B1012803D101E0EA6000E0E9603B
:1012A0009CF82700042802D19CF8280018B1A682D7
:1012B0002682668284E0A4F814E0F9E79CF82730DF
:1012C000042B02D19CF828308BB1A682268266823C
:1012D000BCF80230BCF800C0A3EB0C03092B6FDB99
:1012E00040F6B833984205D885F802B005E0A4F876
:1012F00014E0EBE7504500D3AE7095F9020010B151
:1013000001285DD124E021E03100002000002544C7
:10131000D05000200000FA451400002044030020B3
:10132000000000000000F03E4AD8124DFB210940A9
:101330004401002098010020000025C41C02002068
:101340000000C8C300B2DB4604060020EA6037E0B4
:10135000E96035E0BCF803002082BCF8050060823B
:10136000BCF807002BE0B1F9060000EE100AB8EE59
:10137000C00A20EE200AC0EE011ABDEEE10A10EE0E
:10138000100A2082B1F9040000EE100AB8EEC00A7B
:1013900020EE200AC0EE011ABDEEE10A10EE100A9E
:1013A0006082B1F9000000EE100AB8EEC00AC0EE8B
:1013B000011A21EEA00ABDEEC00A10EE100AA082AA
:1013C000454881688A780521012A01D029707BE08F
:1013D00040684FF4FA73DFF8048190F831C090F858
:1013E00032009A00844501D0572815D0844501D099
:1013F00041281DD0844501D0532826D0844501D0F2
:1014000044282ED02878012808D0022812D0042899
:1014100029D003281BD057E085F800B0B5F806C0E6
:101420000CF10100E8809C4518D2A4F8108027E058
:1014300002202870B5F806C00CF10100E8809C4538
:101440000CD22682A4F812801BE003202870E888C2
:1014500000F1010CA5F806C098420FD32970EE8068
:1014600032E004202870E88800F1010CA5F806C0DD
:101470009842F3D22682A4F812A002E0A4F810A0A9
:101480006682A282D9F800000068C08A381A0CF07F
:10149000F4FC53EC192B0CF01BFD0CF045FA00EE9C
:1014A000100A20EE080A10EE100A0CF0D1FF53ECDF
:1014B0001A2B0CF00DFD0CF037FAE061084800F033
:1014C000E9F9216D01208847BDEC068BBDE8F05F8E
:1014D000034800F027BA00001C02002018FCFFFFA0
:1014E00044010020FFF716FD012008F0EDFFF9E7A9
:1014F00008B1012802D1024981F834007047000088
:1015000044010020014981F8300070474401002067
:101510002DE9F04104462DED028B2E4A2E492F482D
:1015200003F04FFD2E4A2F492F4803F04AFD2F4A62
:101530002F49304803F045FD2F4A3049304803F029
:1015400040FD304F9FED308ADFED308A002540F6B8
:10155000B83642F2283800BF05EBC50000EB40006A
:1015600007EB8000B0EE481AF0EE680AB2EE040A0B
:1015700033464246032104F0AFFA6D1CEDB2042D50
:10158000EAD3F0EE480A9FED220AB0EE601A00237B
:10159000324603211F4804F09FFA10482060124889
:1015A00060601448A0601648E0601B4842F6E061A5
:1015B0004068001DE0634FF4FA50E0862187002167
:1015C00084F83410322184F830106086BDEC028B30
:1015D000BDE8F08125000020F0030020E403002096
:1015E000280000200C040020000400202B00002014
:1015F000280400201C0400202E00002044040020A9
:10160000380400205404002000000000CDCCCC3E63
:101610009A99993E040600201C02002010B5044649
:10162000B0F9200000EE100A2B48F8EEC00A00685E
:10163000B0F9020000EE100A2848B8EEC00A08F01F
:1016400079FFBDEEC00A10EE100A2085B4F9220021
:1016500000EE100A2248F8EEC00A0068B0F9020055
:1016600000EE100A1D48B8EEC00A6C3008F062FFA8
:10167000BDEEC00A10EE100A6085B4F9240000EE39
:10168000100A1848F8EEC00A0068B0F9020000EE2F
:10169000100A1248B8EEC00AD83008F04BFFBDEE71
:1016A000C00A10EE100AA085B4F9260000EE100A58
:1016B0000D48F8EEC00A0068B0F9020000EE100A0A
:1016C0000A48B8EEC00A08F035FFBDEEC00A10EEB9
:1016D000100AE08510BD0000E4030020540400203F
:1016E000000400201C04002038040020980500207D
:1016F000FCB53749B0F92840364EC96B9FED361A14
:10170000B1F90010ADF8004000EE101AB0F92A301F
:10171000ADF80230B8EEC00AB0F92C20ADF80420C4
:1017200010EE105AB0F92E10ADF80610B54201DDDA
:10173000B0EE410A10EE105AC0EE010A274FBD422A
:1017400001DA60EEA00A10EE105A9FED250AB542AC
:1017500001DA20EE800A002C00DC6442002B00DC61
:101760005B422344002A00DC52421A44002900DC78
:101770004942114400EE901AF8EEE00A80EE201A79
:10178000F4EEC00AF1EE10FA14DB00214FEA0D026C
:1017900032F9113000EE103AB8EEC00A20EE010A1C
:1017A000BDEEC00A10EE103A22F81130491CC9B241
:1017B0000429EDD3BDF800100185BDF80210418564
:1017C000BDF804108185BDF80610C185FCBD000080
:1017D0004401002000007042000070420000C84137
:1017E0000000FA4630B58C18E5180584551A1D44DA
:1017F000891A458419448184191BC18430BD30B5D0
:10180000B0F91030002B01DD194600E05942B0F963
:101810001220002A01DD144600E054420D19B0F9EF
:101820001410002901DD0C4600E04C422C44058FC9
:1018300024B2A5420ADA00EE105AF8EE400A00EE91
:10184000104AB8EEC01A80EE810A01E0B7EE000A35
:1018500000EE903AF8EEE00A60EE800AFDEEE00A53
:1018600010EE903A00EE902A0382F8EEE00A60EE65
:10187000800AFDEEE00A10EE902A00EE901A4282F5
:10188000F8EEE00A20EE800ABDEEC00A10EE101A53
:10189000818230BD70B504462DED028BC5692846A6
:1018A0000CF0D6FD41EC100B05F052FE51EC100B84
:1018B0000CF03AF808EE100A28460CF0C9FD41EC8D
:1018C000100B05F0E1FD51EC100B0CF02DF800EEC3
:1018D000100AB4F91000B4F9121000EE900AF8EEF4
:1018E000E00A20EE201A00EE901AF8EEE00A08EE68
:1018F000601AFDEEC10A10EE902A00EE900A2282D4
:10190000F8EEE00A28EE201A00EE901AF8EEE00A4F
:1019100000EE201ABDEEC10A10EE100A6082BDEC86
:10192000028B70BD7CB50446806803F039FBE0682B
:1019300003F036FB206803F033FB606803F030FBF4
:10194000A0684FF40075406881780020A1B1E1687B
:101950004968897881B121684968897861B161688D
:101960004968897841B1012184F83A1020494968D1
:101970008978012909D001E084F83A00ADF8000027
:10198000ADF80200ADF8040022E0B4F91010B4F98B
:101990001220B4F914302046FFF724FF2046FFF749
:1019A0002EFF2046FFF73AFE124880688078012813
:1019B00016D04FF4FA6060864000E086208DADF8C6
:1019C0000000608DADF80200A08DADF80400E08D40
:1019D000ADF806006A4629460748FFF733FA7CBD92
:1019E0004FF4FA5060862046FFF782FEE6E70000DB
:1019F000140000201C0200200C09002008B101285E
:101A000002D1024981F835007047000044010020EE
:101A10002E4D2F4C2F4E304FDFF8C0B04FF4804882
:101A20004FF400594FF4006A95F83A0001280AD0A3
:101A300000224146584601F006FC00BF94F82200FF
:101A4000012808D00BE04146584601F0F5FB642020
:101A500008F03AFDF2E794F8270001281CD0002294
:101A60004946584601F0EFFB96F8860001281BD046
:101A700000225146584601F0E6FB00BF97F82200CD
:101A8000012819D000224FF48061584601F0DBFB99
:101A9000012008F019FDC7E74946584601F0CCFB84
:101AA000642008F011FDDFE75146584601F0C4FB01
:101AB000642008F009FDE1E74FF48061584601F029
:101AC000BBFB642008F000FDE2E7000044010020B9
:101AD0007850002044030020D0500020000802402D
:101AE0000021014801F000B95C090020014801F023
:101AF00043B900009C0B0020014801F03DB90000F3
:101B00007C0D0020014801F037B900003C0B00209B
:101B1000014801F031B900001C0D0020014801F01E
:101B20002BB90000BC0C0020014801F025B90000D1
:101B3000FC0B0020014801F01FB900005C0C0020E4
:101B40002DE9F04F85680024099E802D18D0894D1D
:101B5000C563894D456490F83450012D15D0012599
:101B600080F8345090F83550012D10D0002180F8C5
:101B700034100224002180F834102046BDE8F08F94
:101B80004FF4807141650120F8E70220F6E7022555
:101B900080F835500025456505682F6847F4802793
:101BA0002F6005682B6103685E608368402B0368C3
:101BB0002AD099600168CA60714D704E704FDFF88D
:101BC000BC81DFF8B891DFF8B8A1DFF8B4B1EA144E
:101BD000DFF8A8E10168183630379302A9F1480907
:101BE0000AF1600A0BF1180BAEF1300E4FF0006CE9
:101BF00041452DD9A94205D0494503D0514501D0D1
:101C0000B14205D1202220E09A600268D160D3E77A
:101C100059451AD0714518D0594D7835A94214D07C
:101C2000564D3035A94210D0B9420BD0534A183A1C
:101C3000914207D0524A9032914203D04F4A4832E3
:101C4000914201D11A4600E062464C494C392EE0DF
:101C5000DFF82C8108F1A80841452AD9A94205D00E
:101C6000494503D0514501D0B14201D120221CE0A9
:101C700059451AD0714518D0414D7835A94214D034
:101C80003E4D3035A94210D0B9420BD03B4A183AEC
:101C9000914207D03A4A9032914203D0374A4832B3
:101CA000914201D11A4600E06246344950390A6037
:101CB0005AE0DFF8CC8008F1480841452AD9A9420A
:101CC00005D0494503D0514501D0B14201D1202270
:101CD0001CE059451AD0714518D0294D7835A942D4
:101CE00014D0264D3035A94210D0B9420BD0234A2A
:101CF000183A914207D0224A9032914203D01F4AAB
:101D00004832914201D11A4600E062461C4910391E
:101D1000CA6029E0A94205D0494503D0514501D008
:101D2000B14201D120221CE059451AD0714518D08A
:101D3000134D7835A94214D0104D3035A94210D03A
:101D4000B9420BD00D4A183A914207D00C4A903252
:101D5000914203D0094A4832914201D11A4600E02B
:101D60006246074910398A6001680A6842F0010238
:101D70000A60FFE6B58D0008E18D00085864024056
:101D80001060024001681823CAB2103AB2FBF3F2A5
:101D9000054B6FF30901032A9B5CC36500D9091D3C
:101DA000816508467047000028E6000810B5014626
:101DB00000208B698A6A4FF0C07453B1B3F5005F9D
:101DC00015D072B1012A0CD0022A0AD0032A09D1F7
:101DD00004E01AB1012A06D0022A03D1C96AC90156
:101DE00000D5012010BDC96AA142FAD010BD002A59
:101DF000F7D0012AF2D0022AF3D0032AF3D010BD83
:101E000030B50468256825F4802525600468636082
:101E10008368402B036803D099600068C26030BDBE
:101E20009A600068C16030BD70B590F834500024ED
:101E3000012D0CD0012580F8345090F83560002534
:101E4000012E06D080F834500224204670BD0220B6
:101E500070BD022680F83560456505682E6826F459
:101E600080262E6005686B608368402B036808D06D
:101E700099600168CA600068016841F00101016071
:101E8000E3E79A600268D160F5E7000010B5044608
:101E9000408B2821B0FBF1F201FB1202401C608351
:101EA0002068E168142A0068B0F9020000EE100A08
:101EB000B8EEC00A02D3DFED0C0A01E0DFED0B0A39
:101EC000084608F037FBBDEEC00A216810EE100A84
:101ED0000881608B282806D1A08B401CA08300209D
:101EE00060832083207510BD00409C4500409CC548
:101EF00010B503F0FDFDFEF769FDFFF7F1FD04F0FD
:101F0000CFFC04F0F7FC04F021FD04F03DFD04F0EB
:101F100059FDFEF789FEBDE81040FEF7EFBE0168EF
:101F20000A68D20604D5C968C90601D50BF074B891
:101F30007047704710B590F82A2000210123AAB1FC
:101F4000012A2AD0032A28D0022A0ED11C4802686E
:101F50001268D16000680068416119482C3002683D
:101F60001268D16000680068416110BD02681268A3
:101F70005469D268A21A00D5524240F2DC54A242FF
:101F800008DB028B541C0483DC2A01D3037510BDCB
:101F9000818310BD0183017510BD0268B0F9224034
:101FA0001268B2F90220121B00D55242B2F5FA7F34
:101FB000F0DB018B4A1C0283DC29E7D210BD000054
:101FC0006452002070470000044A00F57A701060E7
:101FD000101D01F57A710160704700003404004063
:101FE00070B50446002044F8741B054644F80C09FB
:101FF0000D4EA060A077207520826082A076E082DE
:102000002083683C06E000BF03F074F828466D1C8E
:10201000B04204D220680068807C0028F4D1206897
:102020000068C08A206770BDA086010010B558B155
:10203000084C491E0BD310F8013B5340DBB234F877
:10204000133083EA1222F4E74FF6FF7010BD1046FA
:1020500010BD00009407010810B5064C04E000BF55
:1020600010F8013B5340E25C491E89B2F8D2104699
:1020700010BD00009406010800F004F8012008F0EB
:1020800023FAF9E72DE9F0472DED028B02F0ACFFC2
:10209000484C01274FF000082068406880780128EC
:1020A00020D084F88680444E307800287DD1707826
:1020B000424D022819D0092817D041499FED418B84
:1020C000DFF8089103281AD0062826D0072824D044
:1020D0000A2822D0052828D0082826D0042837D05E
:1020E000A8B356E084F88670DDE746F6D95020673D
:1020F0003048FEF739FD2F48FEF744FD46E00868FA
:10210000B0F900000BF0B9FE53EC182B0BF0E0FE19
:102110000BF084FE216F08442067688818B9B9F96C
:102120000000C00020676F8027E0288810B9B9F947
:102130000000206726482F8026490068B0F8150067
:102140002067096888601B4803F054F81EE01BE014
:10215000A88818B9B9F90000C0002067AF800868E6
:10216000B0F900000BF089FE53EC182B0BF0B0FE19
:102170000BF054FE216F084420670E48FEF7F4FC74
:102180000C48FEF71DFD01E002F0B4FF7078032853
:1021900004D0A5F802807078042804D0A5F8048043
:1021A0007078052801D0A5F80080BDEC028BBDE851
:1021B000F08700004403002031000020AC01002023
:1021C000140000200AD7A3703D0AB7BF000000200A
:1021D000D0500020C402002010B50023F1281BD0ED
:1021E000A0F58070FF383BD0012830D0B0F5807F5B
:1021F00011D110780002C88254782043C8829078A8
:1022000000020883D4782043088390790875D07938
:10221000487581F8203010BD10780002088054788D
:1022200020430880907800024880D478204348807A
:102230001079000248815479204348819079000246
:102240008881D2791043888181F8203018E0107994
:1022500008725079887490794872D079C87410BD2A
:10226000907800028883D478204388831079000214
:10227000C88354792043C88390798876D079C8760A
:1022800081F8253010BD000078B50024009490F846
:102290003C20012A19D0012280F83C200A6807233B
:1022A0000568092A13D9EE680A3A02EB4202934004
:1022B0009E43EE600B788A680A3B03EB43039A4027
:1022C0000368DD682A43DA6010E0022078BD2E69D9
:1022D00002EB420293409E432E610B788A6803EB27
:1022E00043039A4003681D692A431A614A681F2301
:1022F000072A13D205686E6B521E02EB82029340CE
:102300009E436E630B790A885B1E92B203EB8303D4
:102310009A4003685D6B2A435A6327E005680D2ADB
:1023200012D22E6BD21F02EB820293409E432E6389
:102330000B790A88DB1F92B203EB83039A40036890
:102340001D6B2A431A6311E0EE6A0D3A02EB82021A
:1023500093409E43EE620B790A880D3B92B203EBE9
:1023600083039A400368DD6A2A43DA62164B0568E4
:10237000144A9D4206D10D68122D03D1556845F4CB
:102380008005556005689D4218D10B68102B01D05F
:10239000112B13D1536843F40003536009681029CB
:1023A0000CD10A490A4A0968B1FBF2F101EB81013B
:1023B000490000E0491E00910029FBD180F83C4013
:1023C000002078BD0023014000200140640000206F
:1023D00040420F0070B504004FF0000503D0206CA0
:1023E000002610B107E0012070BD204600F01CF867
:1023F000666484F83C60206CC00610D4206C20F425
:10240000885040F0020020642046FEF74BFA6664D4
:10241000206C20F0020040F00100206400E0012563
:1024200084F83C60284670BD10B586B0044614217F
:102430006846FEF703F91149206888421CD110480C
:102440000021026842F480720260006800F480702B
:1024500005900B481438026842F0040202600068DC
:1024600000F004000590012000900320CDE9010157
:102470006946044800F004FE06B010BD002001408B
:10248000443802400008024090F82020012A07D07A
:10249000022A05D0416A41F480214162012070473F
:1024A000006842690A43426100207047F0B590F825
:1024B00020500468A468012D05D0022D03D0416A84
:1024C00041F480215DE014F0406F01D1E50055D565
:1024D000C4F30164022C03D9416A41F4000150E0C5
:1024E0000125A5401D608D684FF4C0739DB1CE6875
:1024F00035434E6845EAC605066803EB0417F551F7
:102500004FF4C275076805EB04150E697E51097D0D
:10251000012905D009E00E88CD6845EA4655EBE76C
:1025200001684E5946F480764E511179D579567925
:1025300041EA056195792D0445EA062529434FF4C2
:10254000C676056806EB0416A9511178D57841EADC
:102550000561957852782D0445EA022211434FF423
:10256000C475026805EB04155151006803EB0411B2
:10257000425842F0010242500020F0BD416A41F44D
:10258000001141620120F0BD10B590F82020012A11
:1025900007D0022A05D0416A41F48021416201201E
:1025A00010BD3B48D0F8002242F00102C0F80022E2
:1025B000D0F8002222F47C52C0F80022D0F8002289
:1025C0004B6A42EA0322C0F800220A7D02F01F0390
:1025D00001229A40D0F81C329343C0F81C32CB69D8
:1025E000B3B9D0F80C329343C0F80C328C894B68E5
:1025F00064F31F434C6900EBC404C4F840320C89F7
:102600000B6864F31F434C6900EBC404C4F8443204
:10261000CB69012B16D1D0F80C321343C0F80C3221
:102620000C884B6864F31F434C6900EBC404C4F886
:1026300040320C89CB6864F31F434C6900EBC4043F
:10264000C4F844328B69002BD0F804320ED0134307
:10265000C0F804320B69002BD0F8143208D01343B1
:10266000C0F81432096A012904D008E09343EFE767
:102670009343F5E7D0F81C121143C0F81C12D0F8B0
:10268000001221F00101C0F80012002010BD00006E
:1026900000640040704730B590F82040012C05D010
:1026A000022C03D0416A41F480215DE004680029D6
:1026B00055D02469A40754D04FF4D874056804EBAE
:1026C00001142D5915F00405956005682D594ED05B
:1026D000ED08556005682C5904F00204D4604FF4ED
:1026E000DA74056804EB01142D5905F00F05156126
:1026F00005682D59C5F30725956105682C59240CEB
:1027000054614FF4DC72046802EB0112A4581C708F
:102710000468A458240A5C700468A458240C9C70B3
:102720000468A258120EDA704FF4DE72046802EBED
:102730000112A4581C710468A458240A5C7104682E
:10274000A458240C9C710468A258120EDA71006817
:1027500081B1016941F020010161002030BDE468D0
:10276000A8E7416A41F400114162012030BD6D0DBE
:102770001560AFE7C16841F02001C160EDE72DE9C8
:10278000F05F0546006800244669D0F80490876829
:10279000D0F80CB0D0F810A0D0F81880F10748D0CD
:1027A000F90714D001218160B80703D5284600F04D
:1027B00030FA0CE0780702D54FF4006407E03807E0
:1027C00002D54FF4805402E0284600F021FAF805C3
:1027D00016D529684FF480708860B80503D528465F
:1027E00000F019FA0CE0780502D544F4005407E033
:1027F000380502D544F4804402E0284600F00AFA85
:10280000F80316D529684FF480308860B80303D5E3
:10281000284600F002FA0CE0780302D544F40044A4
:1028200007E0380302D544F4803402E0284600F083
:10283000F3F9300707D55FEACB6004D5296810208B
:1028400044F40074C86070074FF0080707D55FEACA
:102850000B7004D52868C760284600F099F9B007C6
:1028600006D52868C068800702D0284600F092F993
:10287000700607D55FEACA6004D52968102044F4C1
:1028800080640861B00607D55FEA0A7004D528683D
:102890000761284600F08CF9F00606D52868006923
:1028A000800702D0284600F084F9B00308D55FEA1B
:1028B000C96005D5296810204860284600F07AF9DB
:1028C000F00307D55FEA097004D5286847602846F9
:1028D00000F0A4F9300446D55FEA497040D5F00510
:1028E00004D55FEAC87001D044F00104B00504D5F6
:1028F0005FEA887001D544F00204700504D55FEAF0
:10290000487001D544F00404300529D518F0700F43
:1029100026D008F07000402815D006DC102809D019
:1029200020280AD0302816D10AE050280ED060287E
:1029300011D10EE044F008040DE044F010040AE068
:1029400044F0200407E044F0400404E044F0800434
:1029500001E044F480742868816921F0700181618C
:10296000296804204860002C05D0686A204368620A
:102970002846FFF78FFEBDE8F09F70B5040003D036
:1029800094F8200010B104E0012070BD204600F052
:1029900081F82068016821F00201016000F058FC14
:1029A0000546052604E000F053FC401B0A2811D818
:1029B000206840688007F6D42068016841F0010172
:1029C000016000F045FC05460BE000F041FC401BB7
:1029D0000A2806D9606A40F40030606284F82060FA
:1029E000D2E720684068C007EFD0207E0128206829
:1029F00001683DD021F080010160607E01282068DF
:102A0000016838D021F040010160A07E01282068D3
:102A1000016833D021F020010160E07E01282068A8
:102A200001682ED041F010010160207F012820684C
:102A3000016829D021F008010160607F0128206829
:102A4000016824D021F004010160D4E902010843A7
:102A5000D4E90412114308436168491E0843216800
:102A6000C86100206062012084F82000002070BD51
:102A700041F08001C0E741F04001C5E741F020018D
:102A8000CAE721F01001CFE741F00801D4E741F097
:102A90000401D9E7F0B587B0044614216846FDF774
:102AA000CDFD364B3648DFF8D0E01968D4F800C0C9
:102AB000334A03250226092710300024491CF44517
:102AC00022D11960012907D1016841F0007101602C
:102AD000006800F000700590106840F00800106079
:102AE0001068CDE9005600F00800CDE90470694691
:102AF0002448CDE9024500F0C3FA00221146142013
:102B000000F062FC142032E0DFF87CE0F44530D1C4
:102B1000D0F800C04CF0806CC0F800C0D0F800C005
:102B200001290CF0806CCDF814C0196007D1016840
:102B300041F000710160006800F0007005901068BD
:102B400040F002001060106802AB00F00200059037
:102B50006020CDE9000683E8B00069460B4800F02C
:102B60008FFA00221146402000F02EFC402000F099
:102B70001DFC07B0F0BD00000064004054000020C0
:102B800030380240000C024000680040000402405F
:102B900070470000044A0168914202D0034A914202
:102BA00001D1FEF723B9704700640040006800407F
:102BB000704770477047000070B5044690F82000D9
:102BC000012804D0606A40F40020606218E002200E
:102BD00084F820002068016821F00101016000F004
:102BE00037FB05460EE000BF00F032FB401B0A2811
:102BF00008D9606A40F400306062052084F8200043
:102C0000012070BD20684068C007EDD1606270BDD2
:102C1000704770477047704770477047704770B58E
:102C20004379012B1AD001264671022303710568EE
:102C30002C6840F6FE7393409C43D1E900310B436E
:102C4000934023432B6001680B68C0249440A34346
:102C50000B60067100214171084670BD022070BDF5
:102C600070B5040003D02079002510B105E00120E3
:102C700070BD6571204600F007F8022020712561C3
:102C800001202071002070BD10B586B004461421CB
:102C90006846FDF7D3FC1149206888421CD11048D2
:102CA0000021026842F000520260006800F000500B
:102CB00005900B481038026842F00102026000687B
:102CC00000F001000590102000900320CDE90101E3
:102CD0006946044800F0D4F906B010BD0074004005
:102CE000403802400000024030B54279012A16D037
:102CF000012242710223037103681D6802FA01F484
:102D000025431D60002901680B680AD00C6803F494
:102D1000802304F46014B3F5802F0FD015E0022057
:102D200030BD0C6803F0040304F03804042B0CD10C
:102D3000382C0AD14B6843F0010305E0B4F5601F5D
:102D400003D14B6843F002034B60027100214171D3
:102D5000084630BD90F83510022903D08021416526
:102D600001207047052180F835100068016821F0C6
:102D700001010160002070472DE9F84304464FF03F
:102D80000009CDF8009063484FF41651A56D006816
:102D9000B0FBF1F72E6894F85C10082000FA01F1FE
:102DA00031420FD021680A6852070BD50A6822F019
:102DB00004020A6094F85C108840A860606D40F0DE
:102DC0000100606594F85C104FF0010808FA01F00A
:102DD000304208D021684969090604D5A860606DB1
:102DE00040F00200606594F85C1004208840304296
:102DF00008D021680968890704D5A860606D40F093
:102E00000400606594F85C1010208840304218D0AF
:102E100021680968090714D5A8602068016849037A
:102E200004D50068000308D5A16C07E00168C90556
:102E300003D4016821F008010160216C09B120462A
:102E4000884794F85C1020208840304231D02168B7
:102E50000968C9062DD5A86094F8350005282068B2
:102E6000016806D0490347D5006800031DD4616C92
:102E70001CE021F0160101602068416921F0800109
:102E80004161206C08B9A06C20B12068016821F074
:102E90000801016094F85C103F208840A86084F825
:102EA000349084F83580216D1FE0E16B09B1204634
:102EB0008847606D00282BD0606DC00714D00520B6
:102EC00084F835002068016821F001010160009854
:102ED000401C0090B84203D820680068C007F6D1B3
:102EE00084F8349084F83580E16C002910D001B06A
:102EF0002046BDE8F04308470168C905D5D40168FC
:102F000021F01001016084F8349084F83580CCE71A
:102F1000BDE8F883640000202DE9F041044600F08C
:102F200097F906465CB1002584F83450022084F8F5
:102F300035002068016821F0010101600DE00120E9
:102F4000BDE8F08100F084F9801B052805D9202018
:102F50006065032084F83500F2E720680068C00748
:102F6000F0D12268116820480140D4E901031843D8
:102F7000D4E903363343184363691843A3691843FC
:102F8000E3691843236A18430843616A042903D19B
:102F9000D4E90B1319430843106020684069666A3E
:102FA00020F0070130460E43012704280CD1A06A07
:102FB0000643E06A40B12046FEF7F8FE20B140200B
:102FC000606584F83570BAE7206846612046FEF7F0
:102FD000D9FE94F85C203F2191408160656584F8BA
:102FE00035700020ACE700003F8010F02DE9F04183
:102FF0000446866D90F83400002501280DD001208C
:1030000084F8340094F835700020012F07D084F83C
:10301000340002252846BDE8F0810220FBE70227A4
:1030200084F8357060652046FEF7EAFE94F85C107F
:103030003F208840B0602068016841F016010160BF
:10304000206C20B12068016841F00801016020680F
:10305000016841F001010160DCE7000070B5044641
:1030600000F0F6F80546601C02D0044800780444DD
:1030700000F0EEF8401BA042FAD370BD58000020CB
:103080002DE9F84F00224FF0010803254FF00F0EF5
:103090000B6808FA02F42340A3426ED14E68012E59
:1030A00005D0022E03D0112E01D0122E12D1866827
:1030B0004FEA420C05FA0CF7BE43CF6807FA0CF74B
:1030C000374387604668A6430C79C4F300149440E4
:1030D00034434460C668570005FA07FC8C6826EA4A
:1030E0000C06BC403443C4604C68022C01D0122C46
:1030F00013D1D40800EB8404A346D4F820905407DD
:103100004FEAD46A0EFA0AF629EA06090E6906FAA7
:103110000AF646EA0906CBF8206006680C7926EA2A
:103120000C0604F00304BC40344304604C68E40023
:1031300065D5364C266846F480462660246822F021
:10314000030604F480440094314C3444A446D4F87B
:1031500008489607370F0EFA07F6B4432D4EB042D3
:1031600001D1002624E02C4EB04201D101261FE0FF
:103170002A4EB04202D102261AE040E0284EB04268
:1031800001D1032614E0274EB04201D104260FE0FE
:10319000254EB04201D105260AE0244EB04201D1AD
:1031A000062605E0224EB04201D1072600E008269F
:1031B000BE402643CCF808681E4E34684F689C43D6
:1031C000FF0300D51C4334601A4C241D26684F6849
:1031D0009E43BF0300D51E432660164E0836346852
:1031E0004F689C43FF0200D51C433460114E0C36DF
:1031F00034684F689C43BF0200D51C433460521CA6
:10320000102AFFF445AFBDE8F88F000044380240B3
:10321000003001400000024000040240000802406B
:10322000000C02400010024000140240001802404E
:10323000001C0240003C0140426931EA020200D118
:103240000904816170470AB1816170470904FBE795
:1032500001488068704700005800002070B50400E5
:1032600011D021684CF6CC400860216845F25550D9
:103270000860D4E9000141602168A0688860FFF718
:10328000E7FF054609E0012070BD00BFFFF7E0FF42
:10329000401B302801D9032070BD2068C068002879
:1032A000F4D121684AF6AA200860002070BD0068A9
:1032B0004AF6AA2101600020704700000248816898
:1032C0000278114481607047580000200B4810B507
:1032D000016841F400710160016841F4806101609E
:1032E000016841F480710160032000F08DF8002036
:1032F00000F006F800F03EF8002010BD003C02404F
:1033000010B5014688B000221C2000F05DF81C209A
:1033100000F04CF814480024016841F001010160FC
:10332000006805A900F001000690684600F018F951
:1033300000F036F90D494000B0FBF1F10C484FF0B8
:103340008042491E026040F2E732C0E90324C0E92E
:10335000011400F099FB10B1012008B010BD044821
:1033600000F0D0FBF9E700004038024040420F0077
:10337000DC0D00200C4882B0016841F480410160FE
:10338000006800F4804000900748001F016841F089
:10339000805101600068002200F0805000900F21F1
:1033A000901E02B000F010B844380240002809DB3B
:1033B00000F01F02012191404009800000F1E0204F
:1033C000C0F8001170470000F0B40E4B1B680C46AB
:1033D000C3F30223C3F10705042D00D90425191DE9
:1033E000072901D2002300E0DB1E012606FA05F1C1
:1033F000491E214099409E40761E16403143F0BC44
:1034000003F004BC0CED00E0064900F00702086878
:103410004FF6FF03184040EA0220034A10430860B9
:10342000704700000CED00E00000FA052DE9F047C0
:103430000E46050065D0DFF81481D8F80000F7B219
:1034400000F00F00B04207D288F80070D8F80000F2
:1034500000F00F00B04254D128683D4C810712D5CE
:10346000400703D5206840F4E0502060287800072A
:1034700003D5206840F4604020602068A96820F0EF
:10348000F000084320602878C0072DD030496868D4
:103490000839012812D0022813D0032811D0096856
:1034A000890700292DDA216821F0030101432160F9
:1034B000FFF7CEFE814641F2883A0EE009688903A3
:1034C000EFE709688901ECE7FFF7C2FEA0EB09010D
:1034D000514502D90320BDE8F0872068696800F0F3
:1034E0000C00B0EB810FEFD1D8F80010404601F08E
:1034F0000F01B14207D90770006800F00F00B04219
:1035000001D00120E7E72878400705D52068E96861
:1035100020F4E050084320602878000706D5206892
:10352000296920F4604040EAC100206000F058F8AA
:103530002168084AC1F30311515CC840064908607C
:1035400006480068FFF7DCFE0020C4E7003C0240AC
:103550000838024030E60008640000205C000020CB
:103560000F2202600C4A136803F0030343601368E0
:1035700003F0F0038360136803F4E053C360126840
:103580004FF4E05303EAD20202610448006800F0FD
:103590000F0008607047000008380240003C0240FD
:1035A0000448054900680968044AC1F38221515C56
:1035B000C8407047640000200838024040E6000818
:1035C0000448054900680968044AC1F34231515C66
:1035D000C8407047640000200838024040E60008F8
:1035E000154810B5006810F00C02144813D01449A7
:1035F000042A0FD0082A0ED10F4C241F22682368FA
:1036000002F03F025B0207D52068C0F38810A0FBE0
:10361000010106E0084610BD2168C1F38811A1FB35
:1036200000010023FCF7FAFE2168C1F30141491CA7
:103630004900B0FBF1F010BD083802400024F4004E
:1036400040787D012DE9F84F04006ED02078DFF836
:103650003C93C007A9F104054AD009F104000168B0
:10366000C1F38101012908D00068C0F3810002285C
:103670000AD1D9F80000400206D52868800337D562
:1036800060680028E1D033E06068B0F5803F10D07A
:10369000B0F5A02F286810D020F48030286028686A
:1036A00020F4802028606068A8B1FFF7D1FD0646AD
:1036B0000DE0286840F48030F4E740F48020286072
:1036C000F7E700BFFFF7C4FD801B642873D82868A4
:1036D0008003F7D50CE0FFF7BBFD064605E000BF11
:1036E000FFF7B6FD801B6428F0D828688003F7D464
:1036F0002078DFF89C8280074FF0000A3ED5A3486F
:10370000001D016811F00C0F08D00068C0F38100A3
:1037100002280BD1D9F80000400207D4286880079E
:1037200016D5E068012800D112E02BE1E068B8B1BD
:103730000120C8F80000FFF78BFD064605E000BF3A
:10374000FFF786FD801B0228C0D828688007F7D5C0
:103750002868216920F0F80040EAC10028600DE0E7
:10376000C8F800A0FFF774FD064604E0FFF770FDFF
:10377000801B02281FD828688007F7D4207800070C
:1037800022D5824E83486169703671B10121016092
:10379000FFF75EFD074604E0FFF75AFDC01B022855
:1037A00009D830688007F7D50EE0C0F800A0FFF711
:1037B0004FFD074605E082E0FFF74AFDC01B0228E7
:1037C0007DD830688007F7D42078400768D5DFF8C7
:1037D000BCB100270BF13C0BDBF80000C0000BD4A0
:1037E000DBF8001041F08051CBF80010DBF800004E
:1037F000012700F080500090674E3068C00510D45B
:10380000306840F480703060FFF722FD009005E0E2
:10381000FFF71EFD0099401A022850D83068C005F5
:10382000F6D55A4EA0686C3601280FD005283068AE
:1038300010D020F001003060306820F004003060CB
:10384000A068B8B1FFF704FD00900FE0306840F0C9
:103850000100F4E740F004003060F7E7FFF7F8FC00
:103860000099411A41F28830814266D83068800759
:10387000F4D50EE0FFF7ECFC009007E0FFF7E8FC62
:103880000099411A41F28830814256D83068800749
:10389000F4D42FB1DBF8001021F08051CBF80010E8
:1038A000A069C8B33949091D0968C1F3810102291A
:1038B0004AD00228504607D0C8F8600000E03CE03B
:1038C000FFF7C6FC04463BE04746C8F86000FFF738
:1038D000BFFC064605E000BFFFF7BAFC801B0228CC
:1038E0002BD828688001F7D4D4E907010843A16ADE
:1038F0002A4A490802EB0141626A41EA82110843FF
:1039000094F82C1040EA0161C9F8001001203866D3
:10391000FFF79EFC044606E036E000BFFFF798FC88
:10392000001B022809D828688001F7D52CE000BFC9
:10393000FFF78EFC001B022802D90320BDE8F88F98
:1039400028688001F4D41FE00128F7D0D9F80000DE
:10395000E26900F48001914214D1226A00F03F0133
:1039600091420FD147F6C071626A0140914209D17C
:10397000A26A00F44031914204D1E16A00F0706023
:10398000884201D00120D9E70020D7E7043802405F
:1039900000004742800E4742007000400000FFFFD9
:1039A0007047704710B590F83C20012A22D00122C0
:1039B00080F83C20CA688C6822F4407222434C682C
:1039C00022F4806222430C6822F4006222430C69D4
:1039D00022F4805222434C6922F400522243C969E6
:1039E000002322F480420A4301684A6480F83C3094
:1039F000002010BD022010BD70B590F83C20012AB7
:103A000032D0012480F83C40022280F83D20036837
:103A10005A689D6822F070060A6832435A60134B58
:103A200002689A4214D0B2F1804F11D0104B9A42E2
:103A30000ED0104B9A420BD00F4B9A4208D00F4B2E
:103A40009A4205D00E4B9A4202D00E4B9A4204D1B4
:103A5000496825F080031943916080F83D400021BA
:103A600080F83C10084670BD022070BD0000014087
:103A70000004004000080040000C00400004014029
:103A8000004001400018004010B5040003D094F835
:103A90003D0010B107E0012010BD002084F83C007B
:103AA000204600F00DF8022084F83D00211D20681A
:103AB00002F0F6FB012084F83D00002010BD00005C
:103AC00008B500680C49884208D10C48016841F0EB
:103AD00001010160006800F001000BE00849884224
:103AE00009D10648001F016841F002010160006829
:103AF00000F00200009008BD000001404438024080
:103B0000000400400168CA6842F00102CA6000680F
:103B1000816801F00701062903D0016841F0010125
:103B200001600020704770B5044690F83C00012801
:103B300017D0012584F83C50022084F83D0020680D
:103B4000826822F0770222F47F428260086850285F
:103B500030D00DDC20284DD005DC98B310283BD1A7
:103B600048E0022070BD302844D0402834D139E0EC
:103B7000602828D0702806D0B0F5805F2CD0B0F532
:103B8000005F29D10AE0CB68D1E90121206802F069
:103B9000F8FB2068816841F0770109E0CB68D1E942
:103BA0000121206802F0EDFB2068816841F480412A
:103BB000816011E0CA684968206802F0B7FC5021B2
:103BC000206807E016E0CA684968206802F0BFFC78
:103BD0006021206802F0DFFB84F83D50002084F86B
:103BE0003C0070BDCA684968206802F09FFC402113
:103BF0002068EFE7226801461046EBE7704770B592
:103C00000446006801694FF00005C943890715D4CF
:103C1000C168C943890711D4E91E016101202077D9
:103C2000206880698007204602D0FFF7E7FF04E0A4
:103C300000F0DAF8204600F05CF925772068016989
:103C4000C943490717D4C168C943490713D46FF062
:103C500004010161022020772068806910F4407F10
:103C6000204602D0FFF7CAFF04E000F0BDF820466E
:103C700000F03FF9257720680169C943090716D488
:103C8000C168C943090712D46FF00801016104201B
:103C900020772068C0698007204602D0FFF7AEFF7A
:103CA00004E000F0A1F8204600F023F92577206811
:103CB0000169C943C90617D4C168C943C90613D4E9
:103CC0006FF010010161082020772068C06910F4AE
:103CD000407F204602D0FFF791FF04E000F084F817
:103CE000204600F006F9257720680169C943C90715
:103CF00008D1C168C943C90704D1891E01612046A2
:103D000000F01AF920680169C943090609D4C1689D
:103D1000C943090605D46FF0800101612046FFF711
:103D20003FFE20680169C943490609D4C168C943F7
:103D3000490605D46FF040010161204600F003F907
:103D400020680169C94389060BD4C168C943890643
:103D500007D46FF0200101612046BDE87040FFF7F5
:103D600020BE70BD10B586B0044614216846FCF72D
:103D700065FC2368174C002117480222A34211D189
:103D8000036843F010030360006800F01000059022
:103D900090020090CDE901210120CDE90310694690
:103DA0000E4812E00E4CA34211D1036843F0010308
:103DB0000360006800F001000590C0200090CDE98C
:103DC0000121CDE9031269460648FFF759F906B00B
:103DD00010BD0000000001403038024000100240D9
:103DE0000004004000000240704770B5044690F89F
:103DF0003C000D4601280DD0012684F83C600220CD
:103E000084F83D0042B1042A18D0082A2AD00C2A8E
:103E10004DD139E0022070BD206802F0C5FA20685B
:103E2000816941F0080181612068816921F0040104
:103E30008161206881692A69114311E0206802F0DC
:103E4000E3FA2068816941F4006181612068816939
:103E500021F480618161206881692A6941EA022137
:103E6000816124E0206802F005FB2068C16941F00F
:103E70000801C1612068C16921F00401C1612068A5
:103E8000C1692A69114311E0206802F027FB20680C
:103E9000C16941F40061C1612068C16921F4806198
:103EA000C1612068C1692A6941EA0221C16184F8BF
:103EB0003D60002084F83C0070BD10B5040003D0C4
:103EC00094F83D0010B107E0012010BD002084F8F7
:103ED0003C00204600F00CF8022084F83D00211D33
:103EE000206802F0DDF9012084F83D00002010BDBB
:103EF0007047704710B504460068012202F034FA9A
:103F00000B492068884202D00A49884203D1416C9B
:103F100041F4004141642068816801F007010629ED
:103F200003D0016841F001010160002010BD0000D4
:103F300000000140000401400068B0F1804F01D151
:103F4000FFF7BCB9704770477047000070B5026852
:103F500004461068D168536910F00F0F52D003F077
:103F6000010501F490762E435FD0C20705D0CA0543
:103F700003D5E26B42F00102E263420705D5DA079E
:103F800003D0E26B42F00202E263820705D5DA0752
:103F900003D0E26B42F00402E263020707D501F0AE
:103FA00020022A4303D0E26B42F00802E263E26B94
:103FB000002A33D0800604D5880602D5204602F0B8
:103FC00051FB20684069E16BC0F38010090700D401
:103FD00028B3204602F02FFB2068416949061AD514
:103FE000416921F040014161606BA0B11B4901654D
:103FF000606BFEF7AFFE002810D0606B016DBDE86E
:1040000070400847830610D58B060ED52046BDE8C4
:10401000704002F027BB2046FFF796FF70BD204698
:10402000FFF792FF0020E06370BD030606D50B0684
:1040300004D52046BDE8704002F0F4BB4006F3D53D
:104040004806F1D5D168204621F04001D1602021F9
:1040500084F8391000F04CFA70BD0000A565000826
:1040600070B5040004D094F83900002510B106E0C2
:10407000012070BD84F83850204600F023F8242039
:1040800084F839002068C16821F40051C1602046DD
:1040900002F034FB2068016921F49041016120683D
:1040A000416921F02A0141612068C16841F4005151
:1040B000C160E563202084F8390084F83A000020CC
:1040C00070BD00002DE9F04F87B005461421684609
:1040D000FCF7B4FAD748DFF858830221D5F800C0BE
:1040E000D44A103803260123DFF84CE300248F065E
:1040F0004FF0080B4FF480694FF4807AC44535D1F6
:10410000D2F800C04CF4002CC2F800C0126802F4CF
:1041100000220592026842F0010202600068CDE9C7
:10412000006100F00100CDE904B0CDE90236694636
:104130007046FEF7A5FFC24EC0483060C6E9017464
:10414000C6E903497461C6E9064A346230467462BE
:10415000FEF7E2FE08B1FDF735FF6E63002211465F
:104160003420B563FFF730F9342076E0DFF8D482ED
:10417000C44578D1D2F800C04CF4801CC2F800C00D
:10418000126802F480120592026842F00402026092
:10419000026802F004020592026842F0080202601E
:1041A0000068984600F0080005904FF48050009099
:1041B0000220CDE90103CDE9036B6946A248FEF771
:1041C0005FFF042000900220CDE90108CDE9036BD8
:1041D00069469E48FEF754FFDFF86482974908F16C
:1041E00060084046303902C0BB46E0E802745646DB
:1041F000E0E803494FF4403740F8044C80E8D00031
:104200004046C8F82440FEF787FE08B1FDF7DAFE05
:10421000C5F83480C8F83850DFF82482874908F19F
:10422000C00840467831E0E8021B4021A0E81202B5
:1042300010C080E8D0004046C8F82440FEF76CFE6D
:1042400008B1FDF7BFFEC5F83080002211463520C9
:10425000C8F83850FFF7B8F83520FFF7A7F807B0CF
:10426000BDE8F08FFFE77A4B4FF007089C4536D149
:10427000704A121D136843F010031360126802F0B5
:1042800010020592026842F001020260006800F02C
:10429000010005904FF4C0608DE8530169467046F7
:1042A000FEF7EEFE6C4E6B483060C6E90174C6E95D
:1042B00003497461C6E9064A4FF48030C6E9080430
:1042C0003046FEF729FE08B1FDF77CFE6E63002242
:1042D00011462520B563FFF777F82520BDE75F4B32
:1042E0009C454BD1136843F400331360126802F409
:1042F00000320592026842F001020260026802F098
:1043000001020592026842F0080202600068CDF8DE
:1043100000B000F00800CDE90480CDE902468B46EC
:10432000019169467046FEF7ABFE2020CDE9000BF7
:1043300002AB694683E850014448FEF7A1FE464EB1
:104340003E48603648303060C6E90174C6E903492A
:104350007461C6E9064A4FF44030C6E908043046A5
:10436000FEF7DAFD08B1FDF72DFE6E63002211465F
:104370002620B563FFF728F826206EE7384B9C45CA
:104380007FF46DAF136843F480231360126802F466
:1043900080220592026842F002020260006800F08A
:1043A000020005904FF440608DE8530169462D48A6
:1043B000FEF766FEDFF8A080204908F1C0084046FD
:1043C0001831E0E8021740214E4652C04FF4003940
:1043D00040F81449BB46C0F82090C0E9064A404660
:1043E000C8F82440FEF798FD08B1FDF7EBFD13482F
:1043F0001D4FC5F830801838C8F838503860C7E904
:1044000001B4C7E903467C61C7E9064AC7E90894D5
:104410003846FEF781FD08B1FDF7D4FD6F63002239
:1044200011462720BD63FEF7CFFF272015E70000C8
:10443000004C004040380240000002404060024012
:104440003C0B00200050004000080240000C0240DD
:1044500000100140406402405C0C00200044004019
:1044600000480040000402407C0D0020704700001E
:1044700070B5044690F83900202830D169B362B392
:1044800094F8380001282AD0012084F838002162ED
:10449000A284E2840025E563212084F83900236B9F
:1044A0001048D863236B10481864236B0F48D864F6
:1044B000206B134605652668206B321DFEF796FDBE
:1044C00021686FF04000086084F838502068416926
:1044D00041F080014161002070BD012070BD0220CB
:1044E00070BD0000FF6500082D660008B565000876
:1044F00070477047FEE7000070B50D4C0025C4F80A
:10450000B4520C48016821F040410160016841F05B
:1045100080410160C4F8BC52022004F52D7404F0FF
:104520003DFC01202060022004F038FC256070BDB5
:10453000008040420004024070B50D4C0025C4F8D4
:10454000B4520C48016821F040410160016841F01B
:10455000804101600126C4F8BC62022004F52D747C
:1045600004F01CFC2660022004F018FC256070BDDD
:1045700000804042000402402DE9F0478146164881
:104580000024016821F04041016001680160134E80
:10459000254627464FF00108C6F8B472022004F001
:1045A000FDFBC6F8B4826006040ED6F83C0208B1E2
:1045B000641CE4B2012004F0F1FB6D1CEDB2082D87
:1045C000EAD3B9F1000F04D0FFF796FF2046BDE80B
:1045D000F087FFF7B1FFF9E7000402400080404296
:1045E0002DE9F04106461448016821F04041016080
:1045F000016841F080410160104C0027C4F8B4729A
:104600003D464FF00108F009C4F8BC027006060EE2
:10461000022004F0C3FBC4F8B482022004F0BEFB05
:10462000C4F8B472022004F0B9FB6D1CEDB2082D81
:10463000E9D3BDE8F0810000000402400080404260
:1046400070B50D48016821F040410160016841F0FA
:1046500080410160094C0120C4F8BC02C4F8B402D6
:10466000042004F52D7404F099FB0025A5600420B6
:1046700004F094FB256070BD0004024000804042BD
:104680000E4810B5016821F040410160016841F019
:10469000804101600A4C0020C4F8B402C4F8BC0296
:1046A000042004F52D7404F079FB01202060A06043
:1046B000BDE81040042004F071BB0000000402407B
:1046C0000080404270B512480024016821F040414A
:1046D0000160016801600F4D0126C5F8BC623046DB
:1046E00004F05CFBC5F8B462012004F057FB07E05E
:1046F000641CE4B2FA2C03D9FFF7C2FF012070BD9D
:10470000D5F83C020028F3D1C5F8B40270BD000012
:104710000004024000804042F0B5464A0024A0F563
:104720004070936806289C806BD2DFE800F0190384
:10473000336B6A6F50680388438050680B888381AD
:104740008B7880F82130B1F803304384B1F805301C
:104750000380506810F8313F4370C97901704EE012
:1047600050680B88838050684B88C3818B88038294
:104770008B7980F82730C97980F820102E49096894
:104780004B7A012B3BD1097B012938D1042180F8D8
:10479000271034E027480B78DFF8A0C0001F284F0F
:1047A000012B02D0022B14D025E05668D1F801303D
:1047B00073611D461F4B1B1F65451B7801DB9B1E4C
:1047C00002E0BD4201DC5B1C0370C87986F8300052
:1047D00011E05368D1F801509D61654502DB4578D1
:1047E000AD1E04E05D69BD4202DC45786D1C45707C
:1047F000C87983F830005068B1F801108181906861
:104800008480F0BD50680968C161F8E750680B7892
:1048100000F8283F4A7842708A788270CA78C2705D
:104820000A7902714A7942718A798271C979C171B2
:10483000F0BD00001C020020140000200000E44134
:104840000000DC41F7EE001A21EE000A31EEC11A39
:1048500001EE200A704700002DED048B9FEDD98BEF
:10486000DA4CDB4FDB4D4FF40058D84801F002F929
:10487000287820B1D8484068807848B10AE040F6EE
:104880007830608041F2EB50A08141F6C870208002
:1048900001202870787806280CD008284FD00A28E4
:1048A0005AD0052879D0002872D0072871D0022864
:1048B00070D004E1C8480668B6F9020009F0DDFAD4
:1048C0009FEDC69B53EC192B09F002FB09F0A6FAE9
:1048D0006188421862809246B6F9000009F0CDFA6C
:1048E00053EC192B09F0F4FA09F098FA21884218D0
:1048F00022809346B6F9060009F0BFFA53EC192B53
:1049000009F0E6FA09F08AFAA1894218A2819146D3
:10491000B6F9040009F0B1FA53EC192B09F0D8FAF2
:1049200009F07CFA61890144AE486181A0F87AA05F
:10493000A0F878B0A0F88090A0F87E102BE0AA48EC
:104940000068B0F80B10618030F8091F21800189E0
:10495000A181C0886081B2E028896421B0FBF1F2B6
:1049600001FB1201401C2881608860802088322968
:1049700006D30A382080A089A08160890A3091E09E
:104980000A302080A089A08160890A388AE004E08A
:104990008AE09BE0A7E001208FE0934890F8221086
:1049A000012936D08C480668B6F9020009F065FA8C
:1049B00053EC182B09F08CFA09F030FAA18908445D
:1049C000A081B6F9000009F058FA53EC182B09F051
:1049D0007FFA09F023FA618908446081B6F906007C
:1049E00009F04BFA53EC182B09F072FA09F016FA99
:1049F000618808446080B6F9040009F03EFA53EC7F
:104A0000182B09F065FA09F009FA2188084420807A
:104A1000C1E70668B07B28B1B6F80B006080B6F835
:104A200009001BE06C48D0F80090B9F9020009F0C9
:104A300024FA53EC182B09F04BFA09F0EFF96188CE
:104A400008446080B9F9000009F017FA53EC182BFC
:104A500009F03EFA09F0E2F9218808442080307D0F
:104A600028B1B6F81100A081B6F80F001AE05A4834
:104A70000668B6F9060009F000FA53EC182B09F0A5
:104A800027FA09F0CBF9A1890844A081B6F90400FE
:104A900009F0F3F953EC182B09F01AFA09F0BEF9F2
:104AA00061890844608176E7208B6080E08A2080FD
:104AB000E08BA081A08B608100202072A074B4F9EB
:104AC0000A0040451FDBA0F5005020E03F4802F0FF
:104AD0003DF83E4801F028F83C4802F059F83B48C0
:104AE00001F03CF857E741F2EB50608041F6C870A6
:104AF000208040F67830A08141F656206081012068
:104B00002072A07404E0002802DA00F500506081F1
:104B1000B4F90C0040F67A51884203DA40F60411E9
:104B2000884200DCA181B4F90000404502DBA0F519
:104B3000005003E0002802DA00F500502080B4F9AC
:104B4000021041F63800814203DA41F20B20814223
:104B500000DC6080B4F90A0040F2DB51A0F6B342F9
:104B60008A4203D240F6B240608108E0B5F90410F1
:104B7000884204DC41F28E22904200DB6181B4F96C
:104B80000000B5F90210884204DBB0F5F36F01DCD8
:104B9000218008E040F20361A0F5F360884202D86A
:104BA00040F69B5020807878072803D0052801D054
:104BB0000120E880054800F019F8042005F084FC85
:104BC00053E600007B14AE47E17A74BF78500020B2
:104BD00031000020B601002014000020FCA9F1D211
:104BE0004D6280BF44030020D050002000B50188F2
:104BF00089B0090A8DF8001001788DF801104188FC
:104C000008AB090A8DF8021081788DF803104189EC
:104C10006A46090A8DF80410817A8DF80510818999
:104C2000090A8DF80610007B8DF80700F12002902C
:104C30000020049005900820069002A90248FDF784
:104C400035FC09B000BD0000340900202DE9F05FFB
:104C5000694C206806F0D2F9206803F00EF920684C
:104C600003F056F92668654FF07A357BA84204D0E8
:104C7000022D02D1397849423970A84204D0012D61
:104C800002D178784042787060685D495D4A8478E6
:104C900002205D4B4FF0000C012C0CD05B4C84F8D3
:104CA00009C084F813C082F82A0083F82A0081F82A
:104CB00001C0BDE8F09F96F809800124DFF850B1EB
:104CC0004FF0030A4FF42579B8F1020F22D00A27DA
:104CD000B8F1030F49D0B8F1010FEAD10524DFF88C
:104CE00034914FF00708032D5BD0012D65D0022DC4
:104CF000DFD14C7082F82AC083F82AC0B07C032828
:104D000078D00128D5D1186800684169A1F5104113
:104D10004161CEE782F82A0083F82A00327B012A1B
:104D20000CD0022A0DD0032AC3D1B8784870B6F946
:104D30001000584514D187F802A0BAE70420487043
:104D4000B7E74870B07C032801D00128B1D181F8C1
:104D500001C0642005F0B8FB84F3138801F066FFFE
:104D60004845A6D10920B870A3E7012D23D0032D13
:104D700003D0022D9DD108241BE006254D70B6F905
:104D80001010494503D182F82A4083F82A40B6F929
:104D9000101059458DD100BF82F82A0083F82A00EF
:104DA00087E7D9F800506D78012D02D0022D02D08E
:104DB0000AE04C70F0E74F70EEE7174D4C706D68ED
:104DC00095F82750042D02D081F80180E4E782F89D
:104DD0002AA083F82AA0D9F800004078012805D03D
:104DE000022805D081F8018063E703E04C7060E79A
:104DF0004F705EE7106887E714000020C0010020B4
:104E00003100002064520020905200207850002091
:104E10006CFDFFFFD05000201C02002030B504685C
:104E20001C49238811F81C2F22800468120222805A
:104E30004D7804682A43228004688A786280046876
:104E400012026280CD7804682A43628004680A797D
:104E5000A28004681202A2804D7904682A43A280CD
:104E600002688979D18002681188C91A09B2518112
:104E7000006801F58052B2F5005F09D9002901DD13
:104E8000012201E04FF0FF32524201EB42314181F9
:104E900030BD0000304B0020426811784B1C13706D
:104EA00042685378994205D3002191704068417857
:104EB0000170704701209070704770B50446016022
:104EC000084615462021FBF7B9FB00206560A87055
:104ED000626819211170626851702081216808820E
:104EE00021680880216848612168C86170BD0000A0
:104EF00000B589B0020A8DF800208DF80100080A7B
:104F00008DF802000F488DF8031008AB017A8DF878
:104F10000410817C8DF80510417A8DF80610C07C54
:104F20008DF807004FF40070029000200490059067
:104F3000082006906A4602A90348FDF7B7FA09B0AF
:104F400000BD0000785000203409002010B513493E
:104F5000036811F81C2F1A80036812021A804C781B
:104F6000036822431A8003688A785A800368120211
:104F70005A80CC78036822435A8003680A799A8061
:104F8000036812029A804C79036822439A8002686F
:104F90008979D18040680021017010BD0C4B002040
:104FA000426811784B1C137042685378994205D3BC
:104FB0000021917040684178017070470120907025
:104FC000704770B504460160084615460E21FBF790
:104FD00013FB00206560A870626819211170626877
:104FE0005170208170BD00000848426811784B1C48
:104FF000137042685378994204D3137040680021BB
:10500000817070470120907070470000C40200203A
:1050100010B5DFED210A4FF47A732DED028BB0EE5F
:10502000601A9FED1E0A5A0003211D4800F054FD2E
:105030009FED1C8A1A4841F28834B0EE001AF0EE57
:10504000480A9FED190A0023224603216C3000F024
:1050500043FD1348B0EE001AF0EE480AB9EE040A18
:10506000002322460321D83000F036FD10490F48B6
:10507000104A114B81E80D0003688360B0F90430D9
:10508000C36019201070507000209070C8600861D3
:10509000BDEC028B10BD0000000000009A9999BF82
:1050A000205100206F12833A666666BFCC03002051
:1050B000C40200201C0000201F00002070B50B4C13
:1050C000A121002521736573A573E5732074000A7F
:1050D0006074A574E57404F10C0240F241110448B7
:1050E000FBF7E6FEE560256170BD0000C40200200C
:1050F0000C0900200020FFF7E1BF000010B5184C9C
:105100001648216880888880206890ED020AC08A4D
:10511000F8EE400A00EE100A1248B8EE400A05F018
:10512000B1FBBDEEC00A206880ED030A2068F8EEEE
:10513000C00AB0F9040000EE100A0A48B8EEC00A2E
:105140006C3805F0F7F9BDEEC00A216810EE100AC0
:1051500000B20882BDE81040FFF7B0BF0000002099
:10516000C40200208C51002070B51C481D4C2DED50
:10517000028BB0F904501A4890ED008A20688068CC
:1051800008F092FE9FED180B53EC102B08F0A0FED8
:1051900008F0CAFB00EE900AB0EE480A144805F089
:1051A000ABFABDEEC00A206880ED030AF8EEC00A33
:1051B00000EE105A0E48B8EEC00AD83805F0BAF919
:1051C000BDEEC00A216810EE100A00B20882BDECE4
:1051D000028BBDE87040FFF771BF000000000020A7
:1051E000EC000020C4020020000000000000C03FCE
:1051F000F851002070B5174C15482168B0F90450DB
:10520000B0F9000091ED020AF8EE400A00EE100A33
:105210001148B8EEC00A05F06FFABDEEC00A20686A
:1052200080ED030AF8EEC00A00EE105A0A48B8EE04
:10523000C00AD83805F07EF9BDEEC00A216810EE2C
:10524000100A00B20882BDE87040FFF737BF0000C7
:1052500000000020C4020020F851002070B50A4C64
:105260008820002520736573A573E5732574657424
:10527000A574E57404F10C0240F241110348FBF7F8
:1052800017FEE560256170BDC40200200C090020F6
:1052900010B52E49027800234C68942A23703BD025
:1052A00018DC302A03D0312A01D0322A11D18B6880
:1052B00082781A708B68C2785A708B6802799A70FB
:1052C0008B684279DA708B6882791A718968C07943
:1052D000487110BDA12A01D0A22AFAD10B684278E8
:1052E0009A74C2780B6812029A82847822439A8256
:1052F00042799A800B6812029A8004790B682243E3
:105300009A80C3790A684FF6FF7101EA0321D182BE
:1053100080790143D18210BD0B68C2791A600B6895
:1053200012021A6084790B6822431A600B68120219
:105330001A6044790B6822431A600B6812021A60E3
:105340000968007902430A6010BD0000C402002011
:1053500070B50546FFF774F90F4C20784006000E33
:10536000FFF73EF9FFF7AEF92846FFF739F9FFF7E7
:10537000A9F9FFF765F92078012101EB4000C0B2DF
:10538000FFF72EF9FFF79EF90020FFF7F5F8044626
:10539000FFF776F9204670BD400100202DE9F0416D
:1053A00016460D460746FFF74BF9134C207840068A
:1053B000000EFFF715F9FFF785F93846FFF710F9EA
:1053C000FFF780F9FFF73CF92078012101EB40005D
:1053D000C0B2FFF705F9FFF775F9002406E00120D8
:1053E000FFF7CAF8641C05F8010BE4B2B442F6D327
:1053F000BDE8F041FFF744B9400100207FB500242B
:1054000015480094019402941249039401604FF4EA
:105410008031C0E901140461047680F820400F490E
:10542000C0E90A140125C561C46080F830404561B7
:10543000FCF7D0FF08B1FCF7C5FD0A20CDE9000557
:10544000694602940448FCF71FFF002801D0FCF7CE
:10545000B9FD7FBD00200140C40800200100000FFD
:10546000104810B50E4901600321416000214FF43E
:1054700000228160C0E903124FF4401242610176BC
:1054800041768176C176017701214177FDF775FA82
:10549000002803D0BDE81040FCF794BD10BD00000B
:1054A000006400400C090020104810B50E4901604E
:1054B0000321416000214FF400228160C0E9031202
:1054C0004FF440124261017641768176C1760177D0
:1054D00001214177FDF751FA002803D0BDE81040C3
:1054E000FCF770BD10BD00000068004034090020CA
:1054F0001CB500240C4900940A4801940860084631
:10550000FDF7AEFB08B1FCF75DFD0220CDE90040E0
:10551000002269460448FDF782FB002801D0FCF711
:1055200051FD1CBD007400405C090020254808B5F1
:10553000016841F400110160016801F4001100915B
:10554000016841F4800101600068002200F48000DD
:10555000009011460B20FDF737FF0B20FDF726FFCB
:10556000002211460C20FDF72FFF0C20FDF71EFF37
:10557000002211460D20FDF727FF0D20FDF716FF35
:10558000002211460E20FDF71FFF0E20FDF70EFF33
:10559000002211461020FDF717FF1020FDF706FF2F
:1055A000002211462F20FDF70FFF2F20FDF7FEFEF2
:1055B000002211463A20FDF707FFBDE808403A20D7
:1055C000FDF7F4BE3038024010B5B8B01C222C49AB
:1055D0006846FAF7DFFF0021684604F081FF294C96
:1055E00027491C2220601C3107A8FAF7D3FF0021AD
:1055F00007A804F075FF224960601C2238310EA80C
:10560000FAF7C8FF00210EA804F06AFF1C49A06049
:105610001C22543115A8FAF7BDFF002115A804F08B
:105620005FFF1749E0601C2270311CA8FAF7B2FF37
:1056300000211CA804F054FF114920611C228C3168
:1056400023A8FAF7A7FF002123A804F049FF0C497B
:1056500060611C22A8312AA8FAF79CFF00212AA821
:1056600004F03EFF0649A0611C22C43131A8FAF7BC
:1056700091FF002131A804F033FFE06138B010BD84
:1056800048E50008340000202DE9F04F87B01421D0
:105690006846FAF7D3FF43480024016841F004014B
:1056A0000160016801F004010591016841F0800189
:1056B0000160016801F080010591016841F001017C
:1056C0000160016801F001010591016841F01001DC
:1056D0000160016801F010010591016841F00201CB
:1056E0000160016801F002010591016841F00801C3
:1056F00001600068DFF8B09000F008004FF4D84572
:105700000590012229464846FDF79DFD002208210B
:105710004846FDF798FDDFF894A00022242150466A
:10572000FDF791FDDFF888B04FF42047012239469C
:105730005846FDF788FD4FF40078012241461D4888
:10574000FDF781FD00950125CDE9015469464846E4
:105750000394FDF795FC08200326CDE90005CDE96B
:10576000024669464846FDF78BFC2420CDE900053A
:10577000CDE9024669465046FDF782FC0097039644
:10578000CDE9015469465846FDF77AFCCDF8008012
:10579000CDE90154694607480394FDF771FC07B051
:1057A000BDE8F08F3038024000080240000002409F
:1057B00000040240000C0240094810B5074901608E
:1057C0000021416040F6FF718160FDF747FD002830
:1057D00003D0BDE81040FCF7F5BB10BD0030004021
:1057E0007009002010B596B000240F941094119405
:1057F000129413941C2108A81494FAF71FFF202177
:105800006846FAF71BFF29482749016040F61F51F7
:10581000C0E9011440F2E731C0E903144461846136
:10582000FEF732F908B1FCF7CDFB4FF480500F9032
:105830000FA91E48FEF777F908B1FCF7C3FB1B4818
:10584000FEF73BFB08B1FCF7BDFB139413A9174807
:105850001494FEF7D1F808B1FCF7B4FB6020CDE951
:1058600008040A940B940C940D94042208A90F4880
:105870000E94FEF7BAFA08B1FCF7A4FB00944FF4BB
:105880000050CDE90440029401940394694607480E
:105890000794FEF787F808B1FCF794FB0348FEF77E
:1058A00061FA16B010BD0000000001407C09002024
:1058B00010B58EB000240794089409940A940B94B0
:1058C0001C2168460C94FAF7B9FE22482049016071
:1058D0005321C0E9011440F6C311C0E903148461E7
:1058E000FEF7D2F808B1FCF76DFB4FF4805007903B
:1058F00007A91848FEF717F908B1FCF763FB15482C
:10590000FEF7DBFA08B1FCF75DFB0B940BA911481D
:105910000C94FEF771F808B1FCF754FB6020CDE958
:1059200000040294002269460A480494FEF75DFAD6
:1059300008B1FCF747FB042269460648FEF755FA12
:1059400008B1FCF73FFB0348FEF70CFA0EB010BDA0
:1059500000040040BC0900200C4810B50A49016051
:105960004FF4E1314160002181600C22C160C0E947
:1059700004128161C161FEF773FB002803D0BDE80A
:105980001040FCF71FBB10BD004C0040FC0900207C
:105990000C4810B50A4901604FF4E1314160002123
:1059A00081600C22C160C0E904128161C161FEF70F
:1059B00057FB002803D0BDE81040FCF703BB10BD27
:1059C000005000403C0A00200C4810B50A49016014
:1059D0004FF4E1314160002181600C22C160C0E9D7
:1059E00004128161C161FEF73BFB002803D0BDE8D2
:1059F0001040FCF7E7BA10BD001001407C0A0020FF
:105A00000C4810B50A4901600B49416000218160D2
:105A10000C22C160C0E904128161C161FEF720FB64
:105A2000002803D0BDE81040FCF7CCBA10BD000040
:105A300000440040BC0A0020A08601000C4810B5BC
:105A40000A4901604FF4E1214160002181600C228C
:105A5000C160C0E904128161C161FEF701FB002849
:105A600003D0BDE81040FCF7ADBA10BD00480040BF
:105A7000FC0A002030B590F8201019234A1C80F849
:105A8000202000220124192904D380F8222080F844
:105A9000203001E080F8224090F825104D1C80F85D
:105AA0002550192904D380F8272080F8253030BDEF
:105AB00080F8274030BD002120F8081B192220F86B
:105AC000061C418081800276427681764277827719
:105AD000C1777047FEE7704730B4034C4466034C0F
