:020000040800F2
:10000000005D0020310300081B5C00089D450008CE
:10001000195C0008250C00084F6B00080000000068
:100020000000000000000000000000007102000855
:10003000C71F000800000000CD020008116300087F
:100040004B0300084B0300084B0300084B03000858
:100050004B0300084B0300084B0300084B03000848
:100060004B0300084B0300084B030008811B0008EA
:100070008D1B0008991B0008A51B00084B030008F6
:10008000B11B00084B0300084B0300084B0300089A
:10009000510C00084B0300084B0300084B030008F9
:1000A0004B0300084B0300084B0300084B030008F8
:1000B000E56300084B0300084B0300084B030008EE
:1000C0004B0300084B0300084B0300084B030008D8
:1000D0004B030008D96900082D6A0008856A0008EA
:1000E0004B0300084B0300084B0300084B030008B8
:1000F0004B0300084B0300084B030008BD1B00081E
:100100004B0300084B0300084B0300084B03000897
:10011000C5660008DD6600084B0300084B030008B5
:100120004B0300084B030008C91B00084B030008E1
:100130004B0300084B0300084B0300084B03000867
:10014000250D00084B0300084B0300084B03000873
:100150004B0300084B0300084B0300084B03000847
:100160004B0300084B0300084B0300084B03000837
:100170004B0300084B0300084B030008000000007D
:100180004B0300084B03000800F002F800F060F891
:100190000AA090E8000C82448344AAF10107DA45E2
:1001A00001D100F055F8AFF2090EBAE80F0013F0D4
:1001B000010F18BFFB1A43F001031847E80B0100B9
:1001C000080C01000A444FF0000C10F8013B13F03A
:1001D000070408BF10F8014B1D1108BF10F8015BA0
:1001E000641E05D010F8016B641E01F8016BF9D193
:1001F00013F0080F1EBF10F8014BAD1C0C1B09D1EA
:100200006D1E58BF01F801CBFAD505E014F8016B5B
:1002100001F8016B6D1EF9D59142D6D370470000ED
:100220000023002400250026103A28BF78C1FBD8FF
:10023000520728BF30C148BF0B6070471FB50EF092
:1002400044FA9DE8030000F03FFA1FBD10B510BD51
:1002500000F0A6FA1146FFF7F1FF09F0BFFE00F02B
:10026000C4FA03B4FFF7F2FF03BC00F0F5FA000094
:100270002C4B19680868B0E8F04F80F30988BFF389
:100280006F8F4FF0000080F311887047000000006E
:1002900008480068006880F308884FF0000080F389
:1002A000148862B661B6BFF34F8FBFF36F8F00DF64
:1002B00000BF00BF08ED00E0DFF80C00016841F46A
:1002C00070010160704700BF88ED00E0EFF3098026
:1002D000BFF36F8F134B1A681EF0100F08BF20ED8D
:1002E000108A20E9F04F106009B44FF0500080F3FD
:1002F0001188BFF34F8FBFF36F8F0DF04DF94FF0A3
:10030000000080F3118809BC19680868B0E8F04F54
:100310001EF0100F08BFB0EC108A80F30988BFF3FD
:100320006F8F704768000020EFF305807047000072
:100330000948804709480047FEE7FEE7FEE7FEE779
:10034000FEE7FEE7FEE7FEE7FEE7FEE704480549B5
:10035000054A064B70470000C96300088901000880
:1003600000570020005D00200059002000590020A7
:1003700070B5064600F08CF9056806F10B0020F018
:100380000704B4429CBF002070BD2B466A68BAB116
:100390001068A04210D304F1080188423CBF5068A5
:1003A000586007D35168101941601168091B01603A
:1003B00058601460101D70BD13465268002AE7D1C2
:1003C0002146284600F06CF90028DED170BD70B5DA
:1003D0000446051F00F05CF90068002C14BF446857
:1003E00070BD002C18BFAC423CBF20466468F8D3F7
:1003F00001680A18AA4218BF456003D12A68054659
:100400001144016028684119A1421CBF6C6070BD95
:100410006168696021680844286070BD53EA020C75
:1004200000F069802DE9F04B4FF00006002B1FBF54
:10043000B3FA83F503FA05F424FA05F65E4012BF19
:100440001643B2FA82F502FA05F4C5F120051EBF83
:1004500022FA05FC44EA0C04203556EA044C4FEA23
:10046000144418BF641C4FF000084FF0000990427C
:1004700071EB030C39D3002919BFB1FA81F701FAE6
:1004800007F6B0FA80F700FA07F6C7F120071EBF9B
:1004900020FA07FC46EA0C062037B6FBF4FCA7EB73
:1004A0000507103F07F01F0BCBF120060CFA0BFBE2
:1004B0002CFA06F644BFB3460026202FA4BF5E46A2
:1004C0004FF0000B5BEA060C08BF4FF0010B19EB75
:1004D0000B09ABFB027C48EB0608C01B06FB02CCF9
:1004E0000BFB03CC71EB0C01C1E70B460246414606
:1004F0004846BDE8F08B13B54FF000004FF0000107
:10050000AFF30080BDE81C407047032A40F2308002
:1005100010F0030C00F0158011F8013BBCF1020F44
:10052000624498BF11F801CB00F8013B38BF11F8C5
:10053000013BA2F1040298BF00F801CB38BF00F8DC
:10054000013B11F0030300F02580083AC0F0088059
:1005500051F8043B083A51F804CBA0E80810F5E73D
:10056000121D5CBF51F8043B40F8043BAFF3008020
:10057000D20724BF11F8013B11F801CB48BF11F895
:10058000012B24BF00F8013B00F801CB48BF00F865
:10059000012B704710B5203AC0F00B80B1E818501D
:1005A000203AA0E81850B1E81850A0E81850BFF45D
:1005B000F5AF5FEA027C24BFB1E81850A0E81850FC
:1005C00044BF18C918C0BDE810405FEA827C24BF50
:1005D00051F8043B40F8043B08BF7047D20728BFDE
:1005E00031F8023B48BF11F8012B28BF20F8023B2D
:1005F00048BF00F8012B70474FF000020429C0F0FB
:10060000128010F0030C00F01B80CCF1040CBCF144
:10061000020F18BF00F8012BA8BF20F8022BA1EB96
:100620000C0100F00DB85FEAC17C24BF00F8012B7B
:1006300000F8012B48BF00F8012B70474FF0000273
:1006400000B5134694469646203922BFA0E80C50C8
:10065000A0E80C50B1F12001BFF4F7AF090728BFA3
:10066000A0E80C5048BF0CC05DF804EB890028BF1F
:1006700040F8042B08BF704748BF20F8022B11F048
:10068000804F18BF00F8012B7047704770477047C4
:1006900000487047A4560020704770477047704765
:1006A00038B504460A4600206946AFF300800028AA
:1006B00008BF38BD02460099204600F04FF80120DF
:1006C00038BD012000F064B8F8B5AFF300800546EE
:1006D00000200C46102000BF0646A819A0420DD9E4
:1006E000324669460020AFF30080070008BF00F0E3
:1006F0004FF80098A04218BF0546C419FFF7C8FF7D
:1007000005600746F01D20F007004619284600F056
:100710000AF8B44208BFF8BDA21B31463868BDE8EC
:10072000F84000F01BB800210160C0E901107047DB
:100730001020704710B500F00DF8006810BD10B51E
:10074000044600F007F8046010BD00000048704740
:100750009C560020004870479C5600200346406885
:100760008C46002818BF88423CBF03464068F8D337
:1007700018681844884207D00CF1030020F00700E5
:10078000001D411A521A0146081D0A60FFF71FBEDC
:1007900010B500F039F8BDE8104000F02FB87047F0
:1007A0007546FFF7D3FFAE4605006946534620F075
:1007B0000700854618B020B5FFF7C8FDBDE820400A
:1007C0004FF000064FF000074FF000084FF0000B0D
:1007D00021F00701AC46ACE8C009ACE8C009ACE8C0
:1007E000C009ACE8C0098D46704710B50446AFF3A8
:1007F00000802046BDE81040FFF733BD002801D03F
:1008000000F02AB87047000010B5012805D000217B
:1008100003A000F027F8012010BD09A1F8E70000AF
:1008200053494752544D454D3A204F7574206F66D9
:100830002068656170206D656D6F72790000000041
:100840003A2048656170206D656D6F727920636F25
:10085000727275707465640001491820ABBEFEE7C2
:100860002600020070B505460C460A2000E06D1C0B
:1008700000F011F835B128780028F8D102E0641CA6
:1008800000F009F814B120780028F8D1BDE87040D4
:100890000A20AFF3008008B569468DF800000320F8
:1008A000ABBE08BD464910B54A6822F440324A60E2
:1008B0004A6843681A434A6001684A6822F48072B1
:1008C0004A6001684A68036942EA03224A60016893
:1008D0004A6822F040724A6001684A6883681A4395
:1008E0004A6001688A6822F400628A6001688A6846
:1008F000C3681A438A60816A6FF07062D1420168EE
:100900008A6822F070628A6001688A680CD0836A03
:100910001A438A6001688A6822F040528A6001683E
:100920008A68C36A1A4301E022F040528A60016873
:100930008A6822F002028A6001688A68037E42EABD
:1009400043028A6090F82010002901684A680FD09D
:1009500042F400624A6001684A6822F460424A60D8
:1009600001684A68174C436A04EB43331A4301E0B9
:1009700022F400624A600168CA6A22F47002CA6204
:100980000168CA6A838B104C04EB03531A43CA6292
:1009900001688A6822F400728A6001688A6890F8A7
:1009A000303042EA43228A6001688A6822F4806219
:1009B0008A6001688A68406942EA8020886010BDC8
:1009C0000023014000E0FFFF0000F0FF704700003F
:1009D00030B50C4605000CD0022C0AD90548A11EE2
:1009E0000288284601F06CFB291901F8020D000A63
:1009F000487030BDBC01002030B50C4605000AD05F
:100A0000022C08D9601E81B2FF22284601F06EFB3D
:100A1000291901F8010C30BD2DE9FE4F1546DDE91D
:100A20000C9A0E4607460C221C466946104604F0F6
:100A300057FDBDF80080BDF802C0BDF80430BDF818
:100A40000620BDF80810BDF80A00A4F80080A9F837
:100A500000C0AAF800303A8031802880BDE8FE8FBF
:100A600038B5194807F018FF07F08AFB164807F059
:100A70004BFB044607F084FB24BB01208DF80000EB
:100A80000146114A684607F095FF07F079FB0E48CA
:100A900005F030FA00208DF800000B4A012168466D
:100AA00007F088FF07F06CFB074805F0F9F9022012
:100AB0008DF80000044A0121684607F07BFF0446D8
:100AC00007F05EFB204638BD205000201CB51F49B2
:100AD0001F48CDE900011F4B1F4A20492048FFF75E
:100AE0009BFF204900230C461A46A01C09F0E8FA97
:100AF000B4F90400B6EE001A00EE100A1648F8EE3B
:100B0000C00AB0F9000000EE100AB8EEC00A03F007
:100B100021FFBDEEC00AB6EE001A10EE100AA0804A
:100B2000B4F9060000EE100A0C48F8EEC00AB0F95D
:100B3000000000EE100AB8EEC00A03F00BFFBDEE95
:100B4000C00A10EE100AE0801CBD00001200002058
:100B5000100000200E0000200C0000200A000020E1
:100B60000800002000000020016FB1F5803F02DB8B
:100B7000A1F5803103E0002902DC01F58031016735
:100B80007047000010B5044604F0B8FA94F88600E7
:100B9000012804D1084840688078012803D0BDE8C6
:100BA000104004F031BB0549206F09688860BDE83A
:100BB000104004F02DBB000014000020D0020020E3
:100BC00010B5044604F09AFA94F88600012804D17E
:100BD000084840688078012803D0BDE8104004F040
:100BE00013BB0549206F09688860BDE8104004F018
:100BF00045BB000014000020D0020020074802F08E
:100C0000AAFBFFF763FF04F07BF8054805F062F8E4
:100C100009F066F9012009F01BFDEFE77C090020CF
:100C200014000020FEE7000000B58BB0684600F01D
:100C3000CFF86946054801F0FBFC0221034801F0AA
:100C400077FC024802F00CF80BB000BD1809002038
:100C5000014801F0E8BD000018090020A0F58072ED
:100C6000413A27D00022A0F50073023B25D0A0F521
:100C70000073013B26D0A0F50073033B27D0B0F5ED
:100C8000017F29D0B0F5407F12D0A0F54072013A23
:100C90000ED0A0F54072023A0AD0A0F54072033A95
:100CA00006D0B0F5417F03D0A0F54072053A19D1C6
:100CB00003F0B6BD0C4804F08DBB0C4840680270D0
:100CC0000A480DE00A4840680270094808E00948EF
:100CD00040680270074803E0074840680270064811
:100CE00004F0BEB970470000344B00200C04002013
:100CF000F0030020280400204404002000B58BB03D
:100D0000684600F065F86946054801F091FC02214B
:100D1000034801F00DFC024801F0A2FF0BB000BD3A
:100D200040090020014801F07EBD0000400900207C
:100D300010B5A0F50072FF3A17D0A0F58072FF3A07
:100D400013D00021A0F50072013A14D0A0F5007272
:100D5000023A21D1184C60680170204604F0C0F8B6
:100D6000164890F82A00C0B11DE00A46BDE81040C0
:100D7000134901F085BA134C60680170204604F0F5
:100D8000AFF8114890F82A00002805D12068B0F982
:100D90000A20C1681144C16010BD2068B0F90A2062
:100DA000C1681144C160094C20780028F4D104F0D6
:100DB000DFFA0120207010BD04530020A052002053
:100DC00088500020CC52002074520020C80000201F
:100DD0000021016041608160C160016101224161C7
:100DE000C0E90612C0E908217047000010B5124A98
:100DF000016891420DD1114B00211C46A3F11C0248
:100E000001F09DFC0D4821461C380068FFF726FFC5
:100E100010BD0B4A9142FBD1084B002124331C46E4
:100E2000A3F11C0201F08BFC044821460830006845
:100E3000FFF77EFF10BD000000640040344B00202F
:100E40000068004038B50B46164C0168A14201D13C
:100E5000154904E0154CA14222D1134920310B6001
:100E600000238B60CB6008230B6113881B0A0B7671
:100E700013784B7653881B0A8B769378CB769388BE
:100E80001B0A0B7713794B77D3881B0A8B779279E0
:100E9000CA776B4601F1180201F05CFB002800D014
:100EA000012038BD00640040604B00200068004015
:100EB00038B50B46144C0168A14201D1134904E036
:100EC000134CA1421ED1114920310B6000238B60CD
:100ED000CB6008230B6113780B7653784B769378AD
:100EE0008B76D378CB7613790B7753794B779379CD
:100EF0008B77D279CA776B4601F1180201F02AFB91
:100F0000002800D0012038BD00640040604B002064
:100F1000006800402DE9F05FFE4A2DED068B107849
:100F20009FEDFD1AFD49DFEDFE0ADFF8F883DFF8DB
:100F3000F89346F262179FEDFD9BB0EE008A9FED9D
:100F4000FDAB0B68FD4CDFF8F8A3FE4DD8F80010A0
:100F50004FF0010B002620B1012871D0022870D07B
:100F600078E292F801C09FEDF80AF448BCF1020F54
:100F7000B0F932201CD0EC48BCF1090F006877D0E2
:100F8000BCF1040F71D0BCF1060F0DD0BCF1030F02
:100F90006CD0EB49BCF1050F496868D0BCF1070F74
:100FA0007ED0BCF10A0FFBD026826682A68251E277
:100FB000B1F9060000EE900AF8EEE01A00EE902A71
:100FC000F8EEE00A61EEA00AC0EE801AFDEEE10A3A
:100FD00010EE900A2082B1F9040000EE900AF8EEBB
:100FE000E01A00EE902AF8EEE00A61EEA00AC0EEE8
:100FF000801ABDEEE10A10EE100A6082B1F900001D
:1010000000EE100AB8EEC00AC0EE010A00EE102A87
:10101000B8EEC00A20EE800ABDEEC00A10EE100A3B
:10102000A082216D00208847AE60D8F80000B0F99A
:10103000100010F5257F05D0B0F5257F0CD009E212
:10104000D4E1DAE1B4F93200411C618642F2107158
:10105000884285DB6186FDE1B4F93200411E61867C
:101060000028A4DC6686F5E102E040E09CE0FAE0BE
:1010700033F9031F00EE101AB8EEC00AB1EE400AB1
:10108000BDEEC00A10EE101A2182B3F9021000EE74
:10109000101AB8EEC00AB1EE400ABDEEC00A00E078
:1010A000F0E010EE101A61824FF47A71A1820068AC
:1010B000C08A381A0CF0ADFF53EC192B0CF0D4FF9A
:1010C0000CF0FEFC00EE100A20EE080A10EE100AEA
:1010D0000DF08AFA53EC1A2B0CF0C6FF0CF0F0FC62
:1010E000E061964800F016FC0120216DB9E0B1F9ED
:1010F000062001EE102AB8EEC11A21EE201AC1EE28
:10110000001ABDEEE11A11EE102A2282B1F9041084
:1011100001EE101AB8EEC11A61EE200A80EE801AB4
:10112000BDEEC10A10EE101A61826988A1820068C2
:10113000C08A381A0CF06DFF53EC192B0CF094FF99
:101140000CF0BEFC00EE100A20EE080A10EE100AA9
:101150000DF04AFA53EC1A2B0CF086FF0CF0B0FCA1
:10116000E061764800F0D6FB216D01208847D8F871
:101170000000B0F9100010F5257F03D0B0F5257FF1
:101180000AD067E1B5F90200411C698041F6583187
:101190008842F6DB69805DE1B5F90200411E698095
:1011A0006A498842F6DD55E1B1F9063000EE903A21
:1011B000B8EEE01A00EE902AF8EEE00A61EE200A9E
:1011C00080EE801AFDEEC10A10EE903A2382B1F94A
:1011D000041000EE901AB8EEE01A00EE902AF8EE35
:1011E000E00A61EE200A80EE801ABDEEC10A10EE20
:1011F000101A61820068C08A00EE100AB8EE400A38
:10120000DFED530A534809F001FCBDEEC00A10EEB1
:10121000100AA082D9F800000068C08A381A0CF0C1
:10122000F8FE53EC192B0CF01FFF0CF049FC00EEFC
:10123000100A20EE080A10EE100A0DF0D5F953EC52
:101240001A2B0CF011FF0CF03BFCE0613B4800F066
:1012500061FBD9F800004068807800B9A682216D52
:1012600000208847F6E091F82900042802D191F87F
:101270002A0018B1A68226826682EBE040F26C70EA
:10128000A082F8E791F82920042A02D191F82A10C7
:10129000F1B3A68233F9031F00EE101AB8EEC00AAC
:1012A000B1EE400ABDEEC00A10EE101A2182B3F969
:1012B000021000EE101AB8EEC00AB1EE400ABDEE00
:1012C000C00A10EE101A61820068C08A381A0CF049
:1012D000A0FE53EC192B0CF0C7FE0CF0F1FB00EE56
:1012E000100A20EE080A10EE100A0DF07DF953ECFA
:1012F0001A2B0CF0B9FE0CF0E3FBE0610F4800F094
:1013000009FB216D01208847DAF80400418823E0B9
:1013100035E000003100002000002544E0500020AE
:101320000000FA45140000205003002000000000D7
:101330000000F03E4AD8124DFB2109404801002030
:10134000280200209C010020000025C4A8E4FFFF23
:1013500000C4C246100600200088091A4FF4FA7033
:10136000092901DB2A787AB1632901DB297819B3CD
:10137000297801290AD0022920D0EE606AE0A989E3
:1013800001F6FC01A18285E785F800B029694A1CB5
:101390002A6140F6B832914201D92E612E70296936
:1013A0004FF4FA62B1FBF2F302FB1311B1F57A7F4D
:1013B00000D36948E8604DE00221297029694A1C80
:1013C0002A6141F28832914201D92E612E70296939
:1013D0004FF47A72B1FBF2F302FB1311814202D394
:1013E0005D48C838E6E74FF42F70E3E733F8030FA2
:1013F00020825888608298882BE0B1F9060000EEC0
:10140000100AB8EEC00A20EE200AC0EE011ABDEEA6
:10141000E10A10EE100A2082B1F9040000EE100A71
:10142000B8EEC00A20EE200AC0EE011ABDEEE10AB5
:1014300010EE100A6082B1F9000000EE100AB8EE5A
:10144000C00AC0EE011A21EEA00ABDEEC00A10EEDD
:10145000100AA082DAF8081005228978012901D043
:101460006A7072E0DAF804003C4910F8333F4078C3
:10147000834201D0572815D0834201D041281ED085
:10148000834201D0532825D0834201D044282DD057
:101490006878012808D0022813D0042828D003280F
:1014A0001AD052E085F801B0A888431CAB804FF4F5
:1014B0007A73984217D221826682A38223E00220A7
:1014C0006870A888431CAB80B0F57A7F0BD2268267
:1014D000618217E003206870A888431CAB804FF43A
:1014E0007A7398420CD36A70AE802EE00420687044
:1014F000A888411CA9804FF47A718842F3D2E6E7AC
:1015000023826682A182D9F800000068C08A381A56
:101510000CF07FFD53EC192B0CF0A6FD0CF0D0FA6B
:1015200000EE100A20EE080A10EE100A0DF05CF82A
:1015300053EC1A2B0CF098FD0CF0C2FAE06108484D
:1015400000F0E8F9216D01208847BDEC068BBDE86D
:10155000F05F034800F026BA0CFEFFFF18FCFFFF07
:1015600048010020FFF7D6FC012009F071F8F9E7E7
:1015700008B1012802D1024981F834007047000007
:1015800048010020014981F83000704748010020DF
:101590002DE9F04104462DED028B2E4A2E492F48AD
:1015A00003F099FD2E4A2F492F4803F094FD2F4A4E
:1015B0002F49304803F08FFD2F4A3049304803F05F
:1015C0008AFD304F9FED308ADFED308A002540F6EE
:1015D000B83642F2283800BF05EBC50000EB4000EA
:1015E00007EB8000B0EE481AF0EE680AB2EE040A8B
:1015F00033464246032104F011FB6D1CEDB2042D6D
:10160000EAD3F0EE480A9FED220AB0EE601A0023FA
:10161000324603211F4804F001FB104820601248A5
:1016200060601448A0601648E0601B4842F6E06124
:101630004068001DE0634FF4FA50E08621870021E6
:1016400084F83410322184F830106086BDEC028BAF
:10165000BDE8F08125000020FC030020F0030020FD
:1016600028000020180400200C0400202B0000207B
:1016700034040020280400202E0000205004002004
:10168000440400206004002000000000CDCCCC3ECB
:101690009A99993E100600202802002010B50446B1
:1016A000B0F9200000EE100A2B48F8EEC00A0068DE
:1016B000B0F9020000EE100A2848B8EEC00A08F09F
:1016C000FDFFBDEEC00A10EE100A2085B4F922001D
:1016D00000EE100A2248F8EEC00A0068B0F90200D5
:1016E00000EE100A1D48B8EEC00A6C3008F0E6FFA4
:1016F000BDEEC00A10EE100A6085B4F9240000EEB9
:10170000100A1848F8EEC00A0068B0F9020000EEAE
:10171000100A1248B8EEC00AD83008F0CFFFBDEE6C
:10172000C00A10EE100AA085B4F9260000EE100AD7
:101730000D48F8EEC00A0068B0F9020000EE100A89
:101740000A48B8EEC00A08F0B9FFBDEEC00A10EEB4
:10175000100AE08510BD0000F003002060040020A6
:101760000C0400202804002044040020A4050020CC
:10177000FCB53749B0F92840364EC96B9FED361A93
:10178000B1F90010ADF8004000EE101AB0F92A309F
:10179000ADF80230B8EEC00AB0F92C20ADF8042044
:1017A00010EE105AB0F92E10ADF80610B54201DD5A
:1017B000B0EE410A10EE105AC0EE010A274FBD42AA
:1017C00001DA60EEA00A10EE105A9FED250AB5422C
:1017D00001DA20EE800A002C00DC6442002B00DCE1
:1017E0005B422344002A00DC52421A44002900DCF8
:1017F0004942114400EE901AF8EEE00A80EE201AF9
:10180000F4EEC00AF1EE10FA14DB00214FEA0D02EB
:1018100032F9113000EE103AB8EEC00A20EE010A9B
:10182000BDEEC00A10EE103A22F81130491CC9B2C0
:101830000429EDD3BDF800100185BDF802104185E3
:10184000BDF804108185BDF80610C185FCBD0000FF
:101850004801002000007042000070420000C841B2
:101860000000FA4630B58C18E5180584551A1D4459
:10187000891A458419448184191BC18430BD30B54F
:10188000B0F91030002B01DD194600E05942B0F9E3
:101890001220002A01DD144600E054420D19B0F96F
:1018A0001410002901DD0C4600E04C422C44058F49
:1018B00024B2A5420ADA00EE105AF8EE400A00EE11
:1018C000104AB8EEC01A80EE810A01E0B7EE000AB5
:1018D00000EE903AF8EEE00A60EE800AFDEEE00AD3
:1018E00010EE903A00EE902A0382F8EEE00A60EEE5
:1018F000800AFDEEE00A10EE902A00EE901A428275
:10190000F8EEE00A20EE800ABDEEC00A10EE101AD2
:10191000818230BD70B504462DED028BC569284625
:101920000CF062FE41EC100B05F0BAFE51EC100B0E
:101930000CF0C6F808EE100A28460CF055FE41ECF3
:10194000100B05F049FE51EC100B0CF0B9F800EE4D
:10195000100AB4F91000B4F9121000EE900AF8EE73
:10196000E00A20EE201A00EE901AF8EEE00A08EEE7
:10197000601AFDEEC10A10EE902A00EE900A228253
:10198000F8EEE00A28EE201A00EE901AF8EEE00ACF
:1019900000EE201ABDEEC10A10EE100A6082BDEC06
:1019A000028B70BD7CB50446806803F083FBE06861
:1019B00003F080FB206803F07DFB606803F07AFB96
:1019C000A0684FF40075406881780020A1B1E168FB
:1019D0004968897881B121684968897861B161680D
:1019E0004968897841B1012184F83A102049496851
:1019F0008978012909D001E084F83A00ADF80000A7
:101A0000ADF80200ADF8040022E0B4F91010B4F90A
:101A10001220B4F914302046FFF724FF2046FFF7C8
:101A20002EFF2046FFF73AFE124880688078012892
:101A300016D04FF4FA6060864000E086208DADF845
:101A40000000608DADF80200A08DADF80400E08DBF
:101A5000ADF806006A4629460748FFF7F3F97CBD52
:101A60004FF4FA5060862046FFF782FEE6E700005A
:101A700014000020280200201809002008B10128C5
:101A800002D1024981F8350070470000480100206A
:101A9000324D334C334E344FDFF8D0804FF4804911
:101AA0004FF4005A4FF4006B95F83A0001280AD021
:101AB000002249462E4801F01AFC00BF94F822008B
:101AC000012808D00BE04946294801F009FC6420B0
:101AD00008F0BEFDF2E794F82700012825D0002287
:101AE0005146234801F003FC96F88600012824D0D3
:101AF000002259461E4801F0FAFB00BF97F8220069
:101B0000012822D000224FF48061194801F0EFFB38
:101B1000D8F808008078012803D04FF4FA7008F054
:101B200097FD012008F094FDBEE75146104801F0F2
:101B3000D7FB642008F08CFDD6E759460C4801F02D
:101B4000CFFB642008F084FDD8E74FF4806108489B
:101B500001F0C6FB642008F07BFDD9E748010020B6
:101B60008850002050030020E05000202802002070
:101B7000000802400021014801F00AB9680900206C
:101B8000014801F04DB90000A80B0020014801F008
:101B900047B90000880D0020014801F041B900005C
:101BA000480B0020014801F03BB90000280D00203F
:101BB000014801F035B90000C80C0020014801F0CF
:101BC0002FB90000080C0020014801F029B90000DD
:101BD000680C00202DE9F04F85680024099E802DB7
:101BE00018D0894DC563894D456490F83450012D56
:101BF00015D0012580F8345090F83550012D10D0C3
:101C0000002180F834100224002180F8341020468E
:101C1000BDE8F08F4FF4807141650120F8E70220A4
:101C2000F6E7022580F835500025456505682F68E0
:101C300047F480272F6005682B6103685E60836826
:101C4000402B03682AD099600168CA60714D704EBC
:101C5000704FDFF8BC81DFF8B891DFF8B8A1DFF88A
:101C6000B4B1EA14DFF8A8E10168183630379302FE
:101C7000A9F148090AF1600A0BF1180BAEF1300E18
:101C80004FF0006C41452DD9A94205D0494503D0FC
:101C9000514501D0B14205D1202220E09A6002686E
:101CA000D160D3E759451AD0714518D0594D7835D0
:101CB000A94214D0564D3035A94210D0B9420BD0AC
:101CC000534A183A914207D0524A9032914203D077
:101CD0004F4A4832914201D11A4600E062464C49CF
:101CE0004C392EE0DFF82C8108F1A80841452AD9AB
:101CF000A94205D0494503D0514501D0B14201D197
:101D000020221CE059451AD0714518D0414D783534
:101D1000A94214D03E4D3035A94210D0B9420BD063
:101D20003B4A183A914207D03A4A9032914203D046
:101D3000374A4832914201D11A4600E0624634499E
:101D400050390A605AE0DFF8CC8008F14808414574
:101D50002AD9A94205D0494503D0514501D0B14205
:101D600001D120221CE059451AD0714518D0294DC7
:101D70007835A94214D0264D3035A94210D0B94249
:101D80000BD0234A183A914207D0224A903291420E
:101D900003D01F4A4832914201D11A4600E0624600
:101DA0001C491039CA6029E0A94205D0494503D031
:101DB000514501D0B14201D120221CE059451AD031
:101DC000714518D0134D7835A94214D0104D3035D7
:101DD000A94210D0B9420BD00D4A183A914207D00F
:101DE0000C4A9032914203D0094A4832914201D1C3
:101DF0001A4600E06246074910398A6001680A689D
:101E000042F001020A60FFE6058F0008318F0008EA
:101E1000586402401060024001681823CAB2103AA8
:101E2000B2FBF3F2054B6FF30901032A9B5CC36518
:101E300000D9091D8165084670470000C0E7000809
:101E400010B5014600208B698A6A4FF0C07453B107
:101E5000B3F5005F15D072B1012A0CD0022A0AD066
:101E6000032A09D104E01AB1012A06D0022A03D1BB
:101E7000C96AC90100D5012010BDC96AA142FAD0C2
:101E800010BD002AF7D0012AF2D0022AF3D0032A8B
:101E9000F3D010BD30B50468256825F48025256091
:101EA000046863608368402B036803D0996000680E
:101EB000C26030BD9A600068C16030BD70B590F8F6
:101EC00034500024012D0CD0012580F8345090F8B6
:101ED00035600025012E06D080F8345002242046BB
:101EE00070BD022070BD022680F83560456505682A
:101EF0002E6826F480262E6005686B608368402B70
:101F0000036808D099600168CA600068016841F000
:101F100001010160E3E79A600268D160F5E7000023
:101F200010B50446408B2821B0FBF1F201FB1202F0
:101F3000401C60832068E168142A0068B0F9020040
:101F400000EE100AB8EEC00A02D3DFED0C0A01E081
:101F5000DFED0B0A084608F0B1FBBDEEC00A2168B0
:101F600010EE100A0881608B282806D1A08B401C37
:101F7000A083002060832083207510BD00409C4515
:101F800000409CC510B503F055FEFEF71FFDFFF79E
:101F9000F1FD04F02DFD04F055FD04F07FFD04F08B
:101FA0009BFD04F0B7FDFEF73FFEBDE81040FEF7D5
:101FB000A5BE01680A68D20604D5C968C90601D55C
:101FC0000BF0EEB87047704710B590F82A2000214A
:101FD0000123AAB1012A2AD0032A28D0022A0ED12D
:101FE0001C4802681268D1600068006841611948A5
:101FF0002C3002681268D16000680068416110BD31
:10200000026812685469D268A21A00D5524240F29E
:10201000DC54A24208DB028B541C0483DC2A01D36B
:10202000037510BD818310BD0183017510BD026869
:10203000B0F922401268B2F90220121B00D55242B8
:10204000B2F5FA7FF0DB018B4A1C0283DC29E7D270
:1020500010BD00007452002070470000044A00F5D3
:102060007A701060101D01F57A71016070470000F0
:102070003404004070B50446002044F8741B054643
:1020800044F80C090D4EA060A07720752082608274
:10209000A076E0822083683C06E000BF03F0B4F83D
:1020A00028466D1CB04204D220680068807C00285D
:1020B000F4D120680068C08A206770BDA086010046
:1020C00010B558B1084C491E0BD310F8013B5340D2
:1020D000DBB234F8133083EA1222F4E74FF6FF70D4
:1020E00010BD104610BD00002C09010810B5064CAB
:1020F00004E000BF10F8013B5340E25C491E89B286
:10210000F8D2104610BD00002C08010800F004F8B9
:10211000012008F09DFAF9E72DE9F0472DED028B3B
:1021200002F0ECFF4D4C01274FF00008206840689A
:102130008078012822D084F88680494E30780028A3
:1021400072D17078474D02281BD0DFF81CA19FED9B
:10215000478BDFF8209103281DD006282AD00A28B3
:1021600028D005282ED008282CD004283CD00928B7
:102170003AD0072838D0002857D05BE084F8867022
:10218000DBE746F2621020673448FEF7EDFC334887
:10219000FEF7F8FC4BE0DAF80000B0F900000BF0B5
:1021A00038FF53EC182B0BF05FFF0BF003FF216F90
:1021B00008442067688818B9B9F90000C000206792
:1021C0006F802AE0288810B9B9F9000020672A48F2
:1021D0002F802A490068B0F81500206709688860D8
:1021E0001E4803F091F822E0A88818B9B9F9000058
:1021F000C0002067AF8002F0D3F907462067DAF805
:102200000000B0F900000BF004FF53EC182B0BF0AA
:102210002BFF0BF0CFFE384420671048FEF7A4FCDC
:102220000E48FEF7CDFC02E014E002F0EDFF7078FE
:10223000032808D0A5F802807078042808D009285F
:1022400006D0072804D0A5F804807078052801D0AE
:10225000A5F80080BDEC028BBDE8F087500300209C
:1022600031000020B4010020140000200AD7A37020
:102270003D0AB7BF00000020E0500020D00200203F
:1022800010B50023F1281BD0A0F58070FF383BD09B
:10229000012830D0B0F5807F11D110780002C882BB
:1022A00054782043C882907800020883D478204371
:1022B000088390790875D079487581F8203010BD71
:1022C000107800020880547820430880907800023B
:1022D0004880D4782043488010790002488154799E
:1022E00020434881907900028881D2791043888107
:1022F00081F8203018E0107908725079887490794C
:102300004872D079C87410BD907800028883D47860
:102310002043888310790002C88354792043C883FE
:1023200090798876D079C87681F8253010BD000084
:1023300078B50024009490F83C20012A19D001229D
:1023400080F83C200A6807230568092A13D9EE683B
:102350000A3A02EB420293409E43EE600B788A6891
:102360000A3B03EB43039A400368DD682A43DA60C3
:1023700010E0022078BD2E6902EB420293409E439A
:102380002E610B788A6803EB43039A4003681D694A
:102390002A431A614A681F23072A13D205686E6B05
:1023A000521E02EB820293409E436E630B790A88B1
:1023B0005B1E92B203EB83039A4003685D6B2A4372
:1023C0005A6327E005680D2A12D22E6BD21F02EB4A
:1023D000820293409E432E630B790A88DB1F92B2E0
:1023E00003EB83039A4003681D6B2A431A6311E0D1
:1023F000EE6A0D3A02EB820293409E43EE620B7945
:102400000A880D3B92B203EB83039A400368DD6AAE
:102410002A43DA62164B0568144A9D4206D10D68BC
:10242000122D03D1556845F48005556005689D421D
:1024300018D10B68102B01D0112B13D1536843F422
:1024400000035360096810290CD10A490A4A096837
:10245000B1FBF2F101EB8101490000E0491E00915E
:102460000029FBD180F83C40002078BD00230140CA
:10247000002001406400002040420F0070B50400BD
:102480004FF0000503D0206C002610B107E00120BA
:1024900070BD204600F01CF8666484F83C60206C37
:1024A000C00610D4206C20F4885040F00200206454
:1024B0002046FEF7F7F96664206C20F0020040F039
:1024C0000100206400E0012584F83C60284670BDCE
:1024D00010B586B0044614216846FEF7AFF81149DE
:1024E000206888421CD110480021026842F48072A2
:1024F0000260006800F4807005900B481438026890
:1025000042F004020260006800F00400059001201F
:1025100000900320CDE901016946044800F004FE63
:1025200006B010BD002001404438024000080240BF
:1025300090F82020012A07D0022A05D0416A41F4F0
:102540008021416201207047006842690A4342616C
:1025500000207047F0B590F820500468A468012D61
:1025600005D0022D03D0416A41F480215DE014F0D2
:10257000406F01D1E50055D5C4F30164022C03D9A5
:10258000416A41F4000150E00125A5401D608D68BD
:102590004FF4C0739DB1CE6835434E6845EAC60519
:1025A000066803EB0417F5514FF4C275076805EB95
:1025B00004150E697E51097D012905D009E00E88B8
:1025C000CD6845EA4655EBE701684E5946F48076FA
:1025D0004E511179D579567941EA056195792D04E5
:1025E00045EA062529434FF4C676056806EB04162E
:1025F000A9511178D57841EA0561957852782D0472
:1026000045EA022211434FF4C475026805EB041534
:102610005151006803EB0411425842F0010242504C
:102620000020F0BD416A41F4001141620120F0BD7B
:1026300010B590F82020012A07D0022A05D0416A5F
:1026400041F480214162012010BD3B48D0F80022B6
:1026500042F00102C0F80022D0F8002222F47C529D
:10266000C0F80022D0F800224B6A42EA0322C0F8E8
:1026700000220A7D02F01F0301229A40D0F81C328A
:102680009343C0F81C32CB69B3B9D0F80C329343F2
:10269000C0F80C328C894B6864F31F434C6900EB23
:1026A000C404C4F840320C890B6864F31F434C69BE
:1026B00000EBC404C4F84432CB69012B16D1D0F826
:1026C0000C321343C0F80C320C884B6864F31F4380
:1026D0004C6900EBC404C4F840320C89CB6864F345
:1026E0001F434C6900EBC404C4F844328B69002BCF
:1026F000D0F804320ED01343C0F804320B69002B1B
:10270000D0F8143208D01343C0F81432096A0129F2
:1027100004D008E09343EFE79343F5E7D0F81C12A9
:102720001143C0F81C12D0F8001221F00101C0F8CA
:102730000012002010BD000000640040704730B55A
:1027400090F82040012C05D0022C03D0416A41F4BE
:1027500080215DE00468002955D02469A40754D085
:102760004FF4D874056804EB01142D5915F00405D5
:10277000956005682D594ED0ED08556005682C59B7
:1027800004F00204D4604FF4DA74056804EB011419
:102790002D5905F00F05156105682D59C5F307255D
:1027A000956105682C59240C54614FF4DC7204685F
:1027B00002EB0112A4581C700468A458240A5C702F
:1027C0000468A458240C9C700468A258120EDA7095
:1027D0004FF4DE72046802EB0112A4581C71046805
:1027E000A458240A5C710468A458240C9C710468E1
:1027F000A258120EDA71006881B1016941F020011E
:102800000161002030BDE468A8E7416A41F400118D
:102810004162012030BD6D0D1560AFE7C16841F028
:102820002001C160EDE72DE9F05F05460068002456
:102830004669D0F804908768D0F80CB0D0F810A0A2
:10284000D0F81880F10748D0F90714D00121816031
:10285000B80703D5284600F030FA0CE0780702D517
:102860004FF4006407E0380702D54FF4805402E0CB
:10287000284600F021FAF80516D529684FF4807033
:102880008860B80503D5284600F019FA0CE07805F1
:1028900002D544F4005407E0380502D544F48044DE
:1028A00002E0284600F00AFAF80316D529684FF42A
:1028B00080308860B80303D5284600F002FA0CE0A7
:1028C000780302D544F4004407E0380302D544F409
:1028D000803402E0284600F0F3F9300707D55FEABC
:1028E000CB6004D52968102044F40074C8607007D8
:1028F0004FF0080707D55FEA0B7004D52868C7605A
:10290000284600F099F9B00706D52868C068800706
:1029100002D0284600F092F9700607D55FEACA6037
:1029200004D52968102044F480640861B00607D5F6
:102930005FEA0A7004D528680761284600F08CF920
:10294000F00606D528680069800702D0284600F006
:1029500084F9B00308D55FEAC96005D5296810205D
:102960004860284600F07AF9F00307D55FEA09705D
:1029700004D528684760284600F0A4F9300446D5FD
:102980005FEA497040D5F00504D55FEAC87001D010
:1029900044F00104B00504D55FEA887001D544F025
:1029A0000204700504D55FEA487001D544F00404C0
:1029B000300529D518F0700F26D008F07000402897
:1029C00015D006DC102809D020280AD0302816D1CE
:1029D0000AE050280ED0602811D10EE044F008041F
:1029E0000DE044F010040AE044F0200407E044F055
:1029F000400404E044F0800401E044F4807428685A
:102A0000816921F070018161296804204860002CEF
:102A100005D0686A204368622846FFF78FFEBDE84C
:102A2000F09F70B5040003D094F8200010B104E0CA
:102A3000012070BD204600F081F82068016821F077
:102A40000201016000F058FC0546052604E000F094
:102A500053FC401B0A2811D8206840688007F6D430
:102A60002068016841F00101016000F045FC054665
:102A70000BE000F041FC401B0A2806D9606A40F4D4
:102A80000030606284F82060D2E720684068C007A8
:102A9000EFD0207E0128206801683DD021F0800120
:102AA0000160607E01282068016838D021F0400173
:102AB0000160A07E01282068016833D021F0200148
:102AC0000160E07E0128206801682ED041F01001ED
:102AD0000160207F01282068016829D021F00801C9
:102AE0000160607F01282068016824D021F0040182
:102AF0000160D4E902010843D4E9041211430843F8
:102B00006168491E08432168C86100206062012095
:102B100084F82000002070BD41F08001C0E741F042
:102B20004001C5E741F02001CAE721F01001CFE7DD
:102B300041F00801D4E741F00401D9E7F0B587B0CE
:102B4000044614216846FDF779FD364B3648DFF818
:102B5000D0E01968D4F800C0334A032502260927BB
:102B600010300024491CF44522D11960012907D1F5
:102B7000016841F000710160006800F0007005908C
:102B8000106840F0080010601068CDE9005600F0B1
:102B90000800CDE9047069462448CDE9024500F0FB
:102BA000C3FA00221146142000F062FC142032E027
:102BB000DFF87CE0F44530D1D0F800C04CF0806CF8
:102BC000C0F800C0D0F800C001290CF0806CCDF82E
:102BD00014C0196007D1016841F0007101600068FC
:102BE00000F000700590106840F00200106010685E
:102BF00002AB00F0020005906020CDE9000683E8FA
:102C0000B00069460B4800F08FFA002211464020C0
:102C100000F02EFC402000F01DFC07B0F0BD0000CD
:102C2000006400405400002030380240000C024094
:102C3000006800400004024070470000044A016838
:102C4000914202D0034A914201D1FEF7CFB87047BA
:102C50000064004000680040704770477047000003
:102C600070B5044690F82000012804D0606A40F452
:102C70000020606218E0022084F8200020680168CB
:102C800021F00101016000F037FB05460EE000BFB6
:102C900000F032FB401B0A2808D9606A40F400307B
:102CA0006062052084F82000012070BD2068406823
:102CB000C007EDD1606270BD7047704770477047C4
:102CC00070477047704770B54379012B1AD00126C1
:102CD00046710223037105682C6840F6FE73934029
:102CE0009C43D1E900310B43934023432B6001689F
:102CF0000B68C0249440A3430B600671002141710E
:102D0000084670BD022070BD70B5040003D0207964
:102D1000002510B105E0012070BD6571204600F06E
:102D200007F802202071256101202071002070BD6C
:102D300010B586B0044614216846FDF77FFC1149A2
:102D4000206888421CD110480021026842F00052DD
:102D50000260006800F0005005900B4810380268CF
:102D600042F001020260006800F0010005901020AE
:102D700000900320CDE901016946044800F0D4F930
:102D800006B010BD00740040403802400000024010
:102D900030B54279012A16D0012242710223037113
:102DA00003681D6802FA01F425431D6000290168CB
:102DB0000B680AD00C6803F4802304F46014B3F5A4
:102DC000802F0FD015E0022030BD0C6803F0040303
:102DD00004F03804042B0CD1382C0AD14B6843F092
:102DE000010305E0B4F5601F03D14B6843F0020313
:102DF0004B60027100214171084630BD90F83510DA
:102E0000022903D08021416501207047052180F807
:102E100035100068016821F0010101600020704751
:102E20002DE9F84304464FF00009CDF800906348BF
:102E30004FF41651A56D0068B0FBF1F72E6894F8B9
:102E40005C10082000FA01F131420FD021680A68B5
:102E500052070BD50A6822F004020A6094F85C104D
:102E60008840A860606D40F00100606594F85C10D7
:102E70004FF0010808FA01F0304208D02168496992
:102E8000090604D5A860606D40F00200606594F802
:102E90005C1004208840304208D021680968890706
:102EA00004D5A860606D40F00400606594F85C1083
:102EB00010208840304218D021680968090714D5CD
:102EC000A86020680168490304D50068000308D59C
:102ED000A16C07E00168C90503D4016821F008016D
:102EE0000160216C09B12046884794F85C102020CD
:102EF0008840304231D021680968C9062DD5A860C4
:102F000094F8350005282068016806D0490347D5A4
:102F1000006800031DD4616C1CE021F01601016003
:102F20002068416921F080014161206C08B9A06CE2
:102F300020B12068016821F00801016094F85C105C
:102F40003F208840A86084F8349084F83580216D53
:102F50001FE0E16B09B120468847606D00282BD047
:102F6000606DC00714D0052084F835002068016822
:102F700021F0010101600098401C0090B84203D884
:102F800020680068C007F6D184F8349084F8358052
:102F9000E16C002910D001B02046BDE8F04308479D
:102FA0000168C905D5D4016821F01001016084F8D9
:102FB000349084F83580CCE7BDE8F88364000020C5
:102FC0002DE9F041044600F097F906465CB1002572
:102FD00084F83450022084F835002068016821F01C
:102FE000010101600DE00120BDE8F08100F084F9ED
:102FF000801B052805D920206065032084F8350052
:10300000F2E720680068C007F0D122681168204804
:103010000140D4E901031843D4E90336334318438C
:1030200063691843A3691843E3691843236A184383
:103030000843616A042903D1D4E90B1319430843F7
:10304000106020684069666A20F0070130460E4330
:10305000012704280CD1A06A0643E06A40B120464B
:10306000FEF7EEFE20B14020606584F83570BAE7C7
:10307000206846612046FEF7CFFE94F85C203F2191
:1030800091408160656584F835700020ACE70000F0
:103090003F8010F02DE9F0410446866D90F8340031
:1030A000002501280DD0012084F8340094F83570F3
:1030B0000020012F07D084F8340002252846BDE8FF
:1030C000F0810220FBE7022784F835706065204616
:1030D000FEF7E0FE94F85C103F208840B060206866
:1030E000016841F016010160206C20B12068016880
:1030F00041F0080101602068016841F001010160B0
:10310000DCE7000070B5044600F0F6F80546601CE8
:1031100002D004480078044400F0EEF8401BA042BE
:10312000FAD370BD580000202DE9F84F00224FF06F
:10313000010803254FF00F0E0B6808FA02F4234034
:10314000A3426ED14E68012E05D0022E03D0112E5F
:1031500001D0122E12D186684FEA420C05FA0CF704
:10316000BE43CF6807FA0CF7374387604668A6432B
:103170000C79C4F30014944034434460C66857008B
:1031800005FA07FC8C6826EA0C06BC403443C46090
:103190004C68022C01D0122C13D1D40800EB84040B
:1031A000A346D4F8209054074FEAD46A0EFA0AF6E0
:1031B00029EA06090E6906FA0AF646EA0906CBF874
:1031C000206006680C7926EA0C0604F00304BC4073
:1031D000344304604C68E40065D5364C266846F4F8
:1031E00080462660246822F0030604F4804400949C
:1031F000314C3444A446D4F808489607370F0EFAE9
:1032000007F6B4432D4EB04201D1002624E02C4EE7
:10321000B04201D101261FE02A4EB04202D102265F
:103220001AE040E0284EB04201D1032614E0274EB8
:10323000B04201D104260FE0254EB04201D105264F
:103240000AE0244EB04201D1062605E0224EB042EB
:1032500001D1072600E00826BE402643CCF80868C6
:103260001E4E34684F689C43FF0300D51C433460F6
:103270001A4C241D26684F689E43BF0300D51E4389
:103280002660164E083634684F689C43FF0200D50E
:103290001C433460114E0C3634684F689C43BF02A7
:1032A00000D51C433460521C102AFFF445AFBDE822
:1032B000F88F000044380240003001400000024016
:1032C0000004024000080240000C024000100240CE
:1032D0000014024000180240001C0240003C014063
:1032E000426931EA020200D10904816170470AB1E2
:1032F000816170470904FBE701488068704700005E
:103300005800002070B5040011D021684CF6CC4064
:103310000860216845F255500860D4E90001416019
:103320002168A0688860FFF7E7FF054609E00120F3
:1033300070BD00BFFFF7E0FF401B302801D903201C
:1033400070BD2068C0680028F4D121684AF6AA2020
:103350000860002070BD00684AF6AA2101600020C4
:10336000704700000248816802781144816070470C
:10337000580000200B4810B5016841F4007101604D
:10338000016841F480610160016841F4807101606D
:10339000032000F08DF8002000F006F800F03EF861
:1033A000002010BD003C024010B5014688B000224C
:1033B0001C2000F05DF81C2000F04CF8144800249C
:1033C000016841F001010160006805A900F00100F9
:1033D0000690684600F018F900F036F90D494000F3
:1033E000B0FBF1F10C484FF08042491E026040F200
:1033F000E732C0E90324C0E9011400F099FB10B1E1
:10340000012008B010BD044800F0D0FBF9E700002F
:103410004038024040420F00E80D00200C4882B0C6
:10342000016841F480410160006800F48040009030
:103430000748001F016841F08051016000680022C8
:1034400000F0805000900F21901E02B000F010B8E4
:1034500044380240002809DB00F01F02012191409E
:103460004009800000F1E020C0F800117047000022
:10347000F0B40E4B1B680C46C3F30223C3F10705DF
:10348000042D00D90425191D072901D2002300E0CD
:10349000DB1E012606FA05F1491E214099409E4097
:1034A000761E16403143F0BC03F058BC0CED00E032
:1034B000064900F0070208684FF6FF03184040EA8B
:1034C0000220034A10430860704700000CED00E042
:1034D0000000FA052DE9F0470E46050065D0DFF83B
:1034E0001481D8F80000F7B200F00F00B04207D204
:1034F00088F80070D8F8000000F00F00B04254D1F6
:1035000028683D4C810712D5400703D5206840F458
:10351000E05020602878000703D5206840F4604020
:1035200020602068A96820F0F00008432060287817
:10353000C0072DD0304968680839012812D0022808
:1035400013D0032811D00968890700292DDA2168D2
:1035500021F0030101432160FFF7CEFE814641F2D5
:10356000883A0EE009688903EFE709688901ECE70A
:10357000FFF7C2FEA0EB0901514502D90320BDE8C7
:10358000F0872068696800F00C00B0EB810FEFD184
:10359000D8F80010404601F00F01B14207D907707A
:1035A000006800F00F00B04201D00120E7E7287862
:1035B000400705D52068E96820F4E0500843206002
:1035C0002878000706D52068296920F4604040EA81
:1035D000C100206000F058F82168084AC1F30311C7
:1035E000515CC8400649086006480068FFF7DCFEE9
:1035F0000020C4E7003C024008380240C8E7000849
:10360000640000205C0000200F2202600C4A136856
:1036100003F003034360136803F0F003836013684F
:1036200003F4E053C36012684FF4E05303EAD2029C
:1036300002610448006800F00F0008607047000055
:1036400008380240003C0240044805490068096807
:10365000044AC1F38221515CC840704764000020D5
:1036600008380240D8E7000804480549006809689E
:10367000044AC1F34231515CC840704764000020E5
:1036800008380240D8E70008154810B5006810F067
:103690000C02144813D01449042A0FD0082A0ED162
:1036A0000F4C241F2268236802F03F025B0207D5FB
:1036B0002068C0F38810A0FB010106E0084610BD99
:1036C0002168C1F38811A1FB00010023FCF7A6FECD
:1036D0002168C1F30141491C4900B0FBF1F010BD64
:1036E000083802400024F40040787D012DE9F84FAD
:1036F00004006ED02078DFF83C93C007A9F10405E0
:103700004AD009F104000168C1F38101012908D000
:103710000068C0F3810002280AD1D9F800004002F5
:1037200006D52868800337D560680028E1D033E0EB
:103730006068B0F5803F10D0B0F5A02F286810D099
:1037400020F480302860286820F480202860606899
:10375000A8B1FFF7D1FD06460DE0286840F480309F
:10376000F4E740F480202860F7E700BFFFF7C4FDCE
:10377000801B642873D828688003F7D50CE0FFF716
:10378000BBFD064605E000BFFFF7B6FD801B6428C1
:10379000F0D828688003F7D42078DFF89C8280076F
:1037A0004FF0000A3ED5A348001D016811F00C0F30
:1037B00008D00068C0F3810002280BD1D9F80000BE
:1037C000400207D42868800716D5E068012800D198
:1037D00012E02BE1E068B8B10120C8F80000FFF763
:1037E0008BFD064605E000BFFFF786FD801B022823
:1037F000C0D828688007F7D52868216920F0F8002C
:1038000040EAC10028600DE0C8F800A0FFF774FD91
:10381000064604E0FFF770FD801B02281FD82868C9
:103820008007F7D42078000722D5824E834861694B
:10383000703671B101210160FFF75EFD074604E0BB
:10384000FFF75AFDC01B022809D830688007F7D55A
:103850000EE0C0F800A0FFF74FFD074605E082E04C
:10386000FFF74AFDC01B02287DD830688007F7D4D7
:103870002078400768D5DFF8BCB100270BF13C0B7E
:10388000DBF80000C0000BD4DBF8001041F08051E1
:10389000CBF80010DBF80000012700F0805000900A
:1038A000674E3068C00510D4306840F480703060D6
:1038B000FFF722FD009005E0FFF71EFD0099401A7A
:1038C000022850D83068C005F6D55A4EA0686C362C
:1038D00001280FD00528306810D020F0010030609A
:1038E000306820F004003060A068B8B1FFF704FD34
:1038F00000900FE0306840F00100F4E740F0040071
:103900003060F7E7FFF7F8FC0099411A41F2883080
:10391000814266D830688007F4D50EE0FFF7ECFCF2
:10392000009007E0FFF7E8FC0099411A41F2883067
:10393000814256D830688007F4D42FB1DBF80010EC
:1039400021F08051CBF80010A069C8B33949091D96
:103950000968C1F3810102294AD00228504607D0E4
:10396000C8F8600000E03CE0FFF7C6FC04463BE01E
:103970004746C8F86000FFF7BFFC064605E000BFF9
:10398000FFF7BAFC801B02282BD828688001F7D4E7
:10399000D4E907010843A16A2A4A490802EB014118
:1039A000626A41EA8211084394F82C1040EA0161EE
:1039B000C9F8001001203866FFF79EFC044606E0B7
:1039C00036E000BFFFF798FC001B022809D82868E2
:1039D0008001F7D52CE000BFFFF78EFC001B02280A
:1039E00002D90320BDE8F88F28688001F4D41FE0D5
:1039F0000128F7D0D9F80000E26900F48001914273
:103A000014D1226A00F03F0191420FD147F6C071F4
:103A1000626A0140914209D1A26A00F440319142A8
:103A200004D1E16A00F07060884201D00120D9E73A
:103A30000020D7E70438024000004742800E47428A
:103A4000007000400000FFFF7047704710B590F80D
:103A50003C20012A22D0012280F83C20CA688C68D0
:103A600022F4407222434C6822F4806222430C68A4
:103A700022F4006222430C6922F4805222434C69F2
:103A800022F400522243C969002322F480420A43EF
:103A900001684A6480F83C30002010BD022010BD4F
:103AA00070B590F83C20012A32D0012480F83C40C7
:103AB000022280F83D2003685A689D6822F0700653
:103AC0000A6832435A60134B02689A4214D0B2F12A
:103AD000804F11D0104B9A420ED0104B9A420BD00F
:103AE0000F4B9A4208D00F4B9A4205D00E4B9A4288
:103AF00002D00E4B9A4204D1496825F08003194345
:103B0000916080F83D40002180F83C10084670BD6F
:103B1000022070BD00000140000400400008004089
:103B2000000C00400004014000400140001800402B
:103B300010B5040003D094F83D0010B107E0012057
:103B400010BD002084F83C00204600F00DF8022053
:103B500084F83D00211D206802F04AFC012084F811
:103B60003D00002010BD000008B500680C498842E7
:103B700008D10C48016841F001010160006800F0C3
:103B800001000BE00849884209D10648001F01687E
:103B900041F002010160006800F00200009008BDE1
:103BA0000000014044380240000400400168CA6837
:103BB00042F00102CA600068816801F0070106292D
:103BC00003D0016841F0010101600020704770B529
:103BD000044690F83C00012817D0012584F83C5099
:103BE000022084F83D002068826822F0770222F4E7
:103BF0007F4282600868502830D00DDC20284DD0EC
:103C000005DC98B310283BD148E0022070BD302875
:103C100044D0402834D139E0602828D0702806D01C
:103C2000B0F5805F2CD0B0F5005F29D10AE0CB68F9
:103C3000D1E90121206802F04CFC2068816841F044
:103C4000770109E0CB68D1E90121206802F041FC4D
:103C50002068816841F48041816011E0CA68496848
:103C6000206802F00BFD5021206807E016E0CA68CA
:103C70004968206802F013FD6021206802F033FCDF
:103C800084F83D50002084F83C0070BDCA68496843
:103C9000206802F0F3FC40212068EFE7226801462B
:103CA0001046EBE7704770B50446006801694FF0B5
:103CB0000005C943890715D4C168C943890711D4D0
:103CC000E91E016101202077206880698007204675
:103CD00002D0FFF7E7FF04E000F0DAF8204600F03A
:103CE0005CF9257720680169C943490717D4C16881
:103CF000C943490713D46FF0040101610220207702
:103D00002068806910F4407F204602D0FFF7CAFF88
:103D100004E000F0BDF8204600F03FF92577206868
:103D20000169C943090716D4C168C943090712D4F8
:103D30006FF008010161042020772068C0698007C6
:103D4000204602D0FFF7AEFF04E000F0A1F82046C5
:103D500000F023F9257720680169C943C90617D403
:103D6000C168C943C90613D46FF01001016108206E
:103D700020772068C06910F4407F204602D0FFF70A
:103D800091FF04E000F084F8204600F006F9257762
:103D900020680169C943C90708D1C168C943C90777
:103DA00004D1891E0161204600F01AF920680169DA
:103DB000C943090609D4C168C943090605D46FF08F
:103DC000800101612046FFF73FFE20680169C94379
:103DD000490609D4C168C943490605D46FF04001BA
:103DE0000161204600F003F920680169C943890692
:103DF0000BD4C168C943890607D46FF02001016163
:103E00002046BDE87040FFF720BE70BD10B586B0FB
:103E1000044614216846FCF711FC2368174C002166
:103E200017480222A34211D1036843F01003036034
:103E3000006800F01000059090020090CDE901218B
:103E40000120CDE9031069460E4812E00E4CA34252
:103E500011D1036843F001030360006800F0010022
:103E60000590C0200090CDE90121CDE903126946FB
:103E70000648FFF759F906B010BD000000000140E8
:103E800030380240001002400004004000000240B0
:103E9000704770B5044690F83C000D4601280DD0DF
:103EA000012684F83C60022084F83D0042B1042AD7
:103EB00018D0082A2AD00C2A4DD139E0022070BD32
:103EC000206802F019FB2068816941F008018161D6
:103ED0002068816921F004018161206881692A6973
:103EE000114311E0206802F037FB2068816941F43A
:103EF000006181612068816921F4806181612068AD
:103F000081692A6941EA0221816124E0206802F086
:103F100059FB2068C16941F00801C1612068C1698D
:103F200021F00401C1612068C1692A69114311E0CF
:103F3000206802F07BFB2068C16941F40061C16127
:103F40002068C16921F48061C1612068C1692A6962
:103F500041EA0221C16184F83D60002084F83C0000
:103F600070BD10B5040003D094F83D0010B107E017
:103F7000012010BD002084F83C00204600F00CF821
:103F8000022084F83D00211D206802F031FA012052
:103F900084F83D00002010BD7047704710B50446FE
:103FA0000068012202F088FA0B492068884202D09A
:103FB0000A49884203D1416C41F4004141642068C0
:103FC000816801F00701062903D0016841F0010171
:103FD0000160002010BD000000000140000401400D
:103FE0000068B0F1804F01D1FFF7BCB9704770474E
:103FF0007047000070B5026804461068D1685369C4
:1040000010F00F0F52D003F0010501F490762E430B
:104010005FD0C20705D0CA0503D5E26B42F00102AA
:10402000E263420705D5DA0703D0E26B42F00202F1
:10403000E263820705D5DA0703D0E26B42F004029F
:10404000E263020707D501F020022A4303D0E26BA6
:1040500042F00802E263E26B002A33D0800604D506
:10406000880602D5204602F0A5FB20684069E16B76
:10407000C0F38010090700D428B3204602F083FB68
:104080002068416949061AD5416921F04001416122
:10409000606BA0B11B490165606BFEF7AFFE0028A5
:1040A00010D0606B016DBDE870400847830610D5E5
:1040B0008B060ED52046BDE8704002F07BBB204643
:1040C000FFF796FF70BD2046FFF792FF0020E063E8
:1040D00070BD030606D50B0604D52046BDE870402A
:1040E00002F048BC4006F3D54806F1D5D168204619
:1040F00021F04001D160202184F8391000F04CFA01
:1041000070BD0000F566000870B5040004D094F896
:104110003900002510B106E0012070BD84F8385048
:10412000204600F023F8242084F839002068C16874
:1041300021F40051C160204602F088FB206801692B
:1041400021F4904101612068416921F02A01416117
:104150002068C16841F40051C160E563202084F803
:10416000390084F83A00002070BD00002DE9F04FBE
:1041700087B0054614216846FCF760FAD748DFF897
:1041800058830221D5F800C0D44A103803260123F1
:10419000DFF84CE300248F064FF0080B4FF48069E2
:1041A0004FF4807AC44535D1D2F800C04CF4002CCD
:1041B000C2F800C0126802F400220592026842F0C0
:1041C000010202600068CDE9006100F00100CDE964
:1041D00004B0CDE9023669467046FEF7A5FFC24E2F
:1041E000C0483060C6E90174C6E903497461C6E994
:1041F000064A346230467462FEF7E2FE08B1FDF70B
:104200002BFF6E63002211463420B563FFF730F9AF
:10421000342076E0DFF8D482C44578D1D2F800C0EB
:104220004CF4801CC2F800C0126802F4801205929F
:10423000026842F004020260026802F00402059281
:10424000026842F0080202600068984600F0080028
:1042500005904FF4805000900220CDE90103CDE994
:10426000036B6946A248FEF75FFF0420009002201E
:10427000CDE90108CDE9036B69469E48FEF754FF7E
:10428000DFF86482974908F160084046303902C07F
:10429000BB46E0E802745646E0E803494FF4403775
:1042A00040F8044C80E8D0004046C8F82440FEF7AF
:1042B00087FE08B1FDF7D0FEC5F83480C8F8385045
:1042C000DFF82482874908F1C00840467831E0E8E9
:1042D000021B4021A0E8120210C080E8D000404636
:1042E000C8F82440FEF76CFE08B1FDF7B5FEC5F82E
:1042F0003080002211463520C8F83850FFF7B8F852
:104300003520FFF7A7F807B0BDE8F08FFFE77A4B3D
:104310004FF007089C4536D1704A121D136843F0D0
:1043200010031360126802F010020592026842F056
:1043300001020260006800F0010005904FF4C060C7
:104340008DE8530169467046FEF7EEFE6C4E6B48F1
:104350003060C6E90174C6E903497461C6E9064ADA
:104360004FF48030C6E908043046FEF729FE08B154
:10437000FDF772FE6E63002211462520B563FFF73C
:1043800077F82520BDE75F4B9C454BD1136843F47C
:1043900000331360126802F400320592026842F0A2
:1043A00001020260026802F001020592026842F016
:1043B000080202600068CDF800B000F00800CDE906
:1043C0000480CDE902468B46019169467046FEF7AE
:1043D000ABFE2020CDE9000B02AB694683E850011B
:1043E0004448FEF7A1FE464E3E48603648303060F5
:1043F000C6E90174C6E903497461C6E9064A4FF487
:104400004030C6E908043046FEF7DAFD08B1FDF792
:1044100023FE6E63002211462620B563FFF728F8BD
:1044200026206EE7384B9C457FF46DAF136843F44C
:1044300080231360126802F480220592026842F021
:1044400002020260006800F0020005904FF4406034
:104450008DE8530169462D48FEF766FEDFF8A0801F
:10446000204908F1C00840461831E0E80217402111
:104470004E4652C04FF4003940F81449BB46C0F8CC
:104480002090C0E9064A4046C8F82440FEF798FD4F
:1044900008B1FDF7E1FD13481D4FC5F8308018380D
:1044A000C8F838503860C7E901B4C7E903467C61F1
:1044B000C7E9064AC7E908943846FEF781FD08B106
:1044C000FDF7CAFD6F63002211462720BD63FEF78A
:1044D000CFFF272015E70000004C00404038024085
:1044E0000000024040600240480B002000500040A5
:1044F00000080240000C02400010014040640240ED
:10450000680C0020004400400048004000040240C5
:10451000880D00207047000070B5044690F83900FF
:10452000202830D169B362B394F8380001282AD02A
:10453000012084F838002162A284E2840025E5632A
:10454000212084F83900236B1048D863236B10486E
:104550001864236B0F48D864206B134605652668E2
:10456000206B321DFEF796FD21686FF04000086059
:1045700084F838502068416941F080014161002091
:1045800070BD012070BD022070BD00004F670008A3
:104590007D6700080567000870477047FEE7000068
:1045A000154914480968B0F870008A7B00B2002AE7
:1045B0001FD1097D00291CD110494A6892F82210A8
:1045C00092F82120914214D051B101290BD0022937
:1045D0000CD003290DD142F26211064800F0E2BE70
:1045E00046F26211F9E74AF26211F6E74EF2621101
:1045F000F3E7704750030020E0500020280200201D
:1046000070B50D4C0025C4F8B4520C48016821F077
:1046100040410160016841F080410160C4F8BC5232
:10462000022004F52D7404F061FC012020600220BA
:1046300004F05CFC256070BD008040420004024034
:1046400070B50D4C0025C4F8B4520C48016821F037
:1046500040410160016841F0804101600126C4F8D9
:10466000BC62022004F52D7404F040FC2660022098
:1046700004F03CFC256070BD008040420004024014
:104680002DE9F047814616480024016821F0404199
:10469000016001680160134E254627464FF001086E
:1046A000C6F8B472022004F021FCC6F8B482600699
:1046B000040ED6F83C0208B1641CE4B2012004F0F8
:1046C00015FC6D1CEDB2082DEAD3B9F1000F04D032
:1046D000FFF796FF2046BDE8F087FFF7B1FFF9E747
:1046E00000040240008040422DE9F0410646144893
:1046F000016821F040410160016841F080410160A2
:10470000104C0027C4F8B4723D464FF00108F00980
:10471000C4F8BC027006060E022004F0E7FBC4F8E1
:10472000B482022004F0E2FBC4F8B472022004F068
:10473000DDFB6D1CEDB2082DE9D3BDE8F081000072
:10474000000402400080404270B50D48016821F02D
:1047500040410160016841F080410160094C012045
:10476000C4F8BC02C4F8B402042004F52D7404F0AB
:10477000BDFB0025A560042004F0B8FB256070BDDA
:1047800000040240008040420E4810B5016821F04C
:1047900040410160016841F0804101600A4C002005
:1047A000C4F8B402C4F8BC02042004F52D7404F06B
:1047B0009DFB01202060A060BDE81040042004F0B3
:1047C00095BB0000000402400080404270B51248D2
:1047D0000024016821F040410160016801600F4D33
:1047E0000126C5F8BC62304604F080FBC5F8B4620F
:1047F000012004F07BFB07E0641CE4B2FA2C03D92F
:10480000FFF7C2FF012070BDD5F83C020028F3D1AC
:10481000C5F8B40270BD00000004024000804042B0
:10482000F0B5484A0024A0F54070936806289C80A3
:104830006FD2DFE800F01903376F6E73506803889A
:10484000438050680B8883818B7880F82330B1F8DF
:1048500003308384B1F805300380506810F8333F8B
:104860004370C979017052E050680B8883805068AA
:104870004B88C3818B8803828B7980F8293090F82C
:10488000223080F82130C97980F822102E49096839
:104890004B7A012B3BD1097B012938D1042180F8C7
:1048A000291034E027480B78DFF8A0C0001F284FFC
:1048B000012B02D0022B14D025E05668D1F801302C
:1048C00073611D461F4B1B1F65451B7801DB9B1E3B
:1048D00002E0BD4201DC5B1C0370C87986F832003F
:1048E00011E05368D1F801509D61654502DB4578C0
:1048F000AD1E04E05D69BD4202DC45786D1C45706B
:10490000C87983F832005068B1F80110818190684D
:104910008480F0BD50680968C161F8E750680B7881
:1049200000F82A3F4A7842708A788270CA78C2704A
:104930000A7902714A7942718A798271C979C171A1
:10494000F0BD000028020020140000200000E44117
:104950000000DC41F7EE001A21EE000A31EEC11A28
:1049600001EE200A70470000C14CC24FC24D4FF00B
:1049700001082DED028BBE4801F01EF9287820B108
:10498000BE484068807860B10DE040F678306080C5
:1049900041F65620208041F2EB50A08141F6C870CC
:1049A000608185F80080787806280CD008284FD0E0
:1049B0000A285AD0052879D0002872D0072871D04B
:1049C000022870D0C6E0AD480668B6F9020009F0CA
:1049D00020FB9FEDAB8B53EC182B09F045FB09F046
:1049E000E9FA6188421862809346B6F9000009F03E
:1049F00010FB53EC182B09F037FB09F0DBFA218888
:104A0000421822809246B6F9060009F002FB53ECE8
:104A1000182B09F029FB09F0CDFAA1894218A281CF
:104A20009146B6F9040009F0F4FA53EC182B09F09A
:104A30001BFB09F0BFFA6189014493486181A0F82A
:104A40007AB0A0F878A0A0F88090A0F87E102BE0B3
:104A50008E480068B0F80B10618030F8091F218083
:104A60000189A181C088608174E028896421B0FB3C
:104A7000F1F201FB1201401C2881608860802088CF
:104A8000322906D30A382080A089A08160890A30A3
:104A90008DE00A302080A089A08160890A3886E0F4
:104AA00004E04CE05FE077E0404651E0774890F862
:104AB0002210012938D071480668B6F9020009F0C1
:104AC000A8FA9FED738B53EC182B09F0CDFA09F07F
:104AD00071FAA1890844A081B6F9000009F099FA99
:104AE00053EC182B09F0C0FA09F064FA6189084404
:104AF0006081B6F9060009F08CFA53EC182B09F026
:104B0000B3FA09F057FA618808446080B6F90400E6
:104B100009F07FFA53EC182B09F0A6FA09F04AFACB
:104B2000218808442080BFE70068B0F80B1061803E
:104B300030F8091F21800189A181C08837E0208BCE
:104B40006080E08A2080E08BA081A08B60810020C3
:104B50002072A074B4F90A004FF40051884228DB97
:104B6000A0F5005029E0424802F098F8404801F0D2
:104B70007DF83F4802F0B4F83D4801F091F846480E
:104B80000068B0F57A7F8FD84448007800288BD031
:104B900041F6C870208008E041F2EB50608041F699
:104BA000C870208040F67830A08141F656206081A0
:104BB0007AE7002802DA00F500506081B4F90C2091
:104BC00040F67A50824203DA40F60410824200DC5A
:104BD000A081B4F90000884202DBA0F5005003E098
:104BE000002802DA00F500502080B4F9021041F6E6
:104BF0003800814203DA41F20B20814200DC608000
:104C0000B4F90A0040F2DB52A0F6B341914203D25C
:104C100040F6B240608108E0B5F90410884204DC37
:104C200041F28E22904200DB6181B4F90000B5F9B7
:104C30000210884204DBB0F5F36F01DC218008E04C
:104C400040F20361A0F5F360884202D840F69B5021
:104C500020807878072803D0052801D0A5F80680A1
:104C6000034800F01DF8042005F0F2FC83E6000084
:104C70008850002031000020BE01002014000020D8
:104C8000FCA9F1D24D6280BF50030020E05000200B
:104C90007B14AE47E17A74BFAC0100209C01002078
:104CA00000B5018889B0090A8DF8001001788DF8E7
:104CB0000110418808AB090A8DF8021081788DF83F
:104CC000031041896A46090A8DF80410817A8DF82B
:104CD00005108189090A8DF80610007B8DF8070000
:104CE000F12002900020049005900820069002A96F
:104CF0000248FDF72FFC09B000BD0000400900206C
:104D00002DE9F05F6D4C206806F03CFA206803F056
:104D10005CF9206803F0A4F92668694FF07A357BC6
:104D2000A84204D0022D02D1397849423970A842F4
:104D300004D0012D02D178784042787060686149D2
:104D4000614A84780220614B4FF0000C012C0CD09A
:104D50005F4C84F809C084F813C082F82A0083F8F5
:104D60002A0081F801C0BDE8F09F96F8098001246F
:104D7000DFF860B14FF0030A4FF42579B8F1020F64
:104D800022D00A27B8F1030F51D0B8F1010FEAD1B0
:104D90000524DFF844914FF00708032D63D0012D5F
:104DA0006DD0022DDFD14C7082F82AC083F82AC062
:104DB000B07C03287BD00128D5D1186800684169F0
:104DC000A1F510414161CEE782F82A0083F82A005C
:104DD000327B012A0CD0022A0DD0032AC3D1B87825
:104DE0004870B6F9100058451CD187F802A0BAE700
:104DF00004204870B7E74870B07C032801D0012830
:104E0000B1D181F801C000F0FFF900231A4619461C
:104E1000184600F0CFF81420FEF774F984F31388D5
:104E200001F0ACFF48459ED10920B8709BE7012DE9
:104E300023D0032D03D0022D95D108241BE0062595
:104E40004D70B6F91010494503D182F82A4083F815
:104E50002A40B6F91010594585D100BF82F82A00C2
:104E600083F82A007FE7D9F800506D78012D02D031
:104E7000022D02D00AE04C70F0E74F70EEE7174DBC
:104E80004C706D6895F82950042D02D081F801808E
:104E9000E4E782F82AA083F82AA0D9F80000407835
:104EA000012805D0022805D081F801805BE703E0E6
:104EB0004C7058E74F7056E710687FE714000020E9
:104EC000C80100203100002074520020A0520020B0
:104ED000885000206CFDFFFFE050002028020020D9
:104EE00030B504681C49238811F81C2F22800468FF
:104EF000120222804D7804682A43228004688A784E
:104F00006280046812026280CD7804682A4362805D
:104F100004680A79A28004681202A2804D790468AC
:104F20002A43A28002688979D18002681188C91A4F
:104F300009B25181006801F58052B2F5005F09D9CC
:104F4000002901DD012201E04FF0FF32524201EB66
:104F50004231418130BD00003C4B00204268117855
:104F60004B1C137042685378994205D3002191700D
:104F7000406841780170704701209070704770B5AB
:104F800004460160084615462021FBF757FB002028
:104F90006560A87062681921117062685170208183
:104FA0002168088221680880216848612168C861F9
:104FB00070BD000010B58AB0040A8DF800408DF86D
:104FC0000100080A8DF80200100A8DF804008DF81F
:104FD0000520180A8DF806004FF4007002908DF835
:104FE000031000208DF807300490059008200690EB
:104FF00008AB6A4602A90248FDF7ACFA0AB010BD38
:105000001809002000B589B0020A8DF800208DF83B
:105010000100080A8DF802000F488DF8031008AB54
:10502000017A8DF80410817C8DF80510417A8DF895
:105030000610C07C8DF807004FF40070029000202D
:1050400004900590082006906A4602A90348FDF7DF
:1050500081FA09B000BD00008850002040090020FE
:1050600010B51349036811F81C2F1A800368120247
:105070001A804C78036822431A8003688A785A8021
:10508000036812025A80CC78036822435A8003686E
:105090000A799A80036812029A804C790368224345
:1050A0009A8002688979D18040680021017010BD22
:1050B000184B0020426811784B1C137042685378DB
:1050C000994205D300219170406841780170704782
:1050D00001209070704770B504460160084615467F
:1050E0000E21FBF789FA00206560A870626819211B
:1050F000117062685170208170BD000008484268DC
:1051000011784B1C137042685378994204D3137082
:105110004068002181707047012090707047000046
:10512000D002002010B5DFED210A4FF47A732DED87
:10513000028BB0EE601A9FED1E0A5A0003211D4833
:1051400000F06CFD9FED1C8A1A4841F28834B0EEE5
:10515000001AF0EE480A9FED190A002322460321A7
:105160006C3000F05BFD1348B0EE001AF0EE480A18
:10517000B9EE040A002322460321D83000F04EFD88
:1051800010490F48104A114B81E80D0003688360F5
:10519000B0F90430C3601920107050700020907076
:1051A000C8600861BDEC028B10BD0000000000006B
:1051B0009A9999BF305100206F12833A666666BF94
:1051C000D8030020D00200201C0000201F00002077
:1051D00070B50B4CA121002521736573A573E57390
:1051E0002074000A6074A574E57404F10C0240F2A6
:1051F00041110448FBF75CFEE560256170BD0000CD
:10520000D0020020180900200020FFF7E1BF0000B5
:1052100010B5184C1648216880888880206890ED69
:10522000020AC08AF8EE400A00EE100A1248B8EEF0
:10523000400A05F0EBFBBDEEC00A206880ED030AD2
:105240002068F8EEC00AB0F9040000EE100A0A481F
:10525000B8EEC00A6C3805F031FABDEEC00A21681C
:1052600010EE100A00B20882BDE81040FFF7B0BF90
:1052700000000020D00200209C51002070B51C4886
:105280001D4C2DED028BB0F904501A4890ED008AA8
:105290002068806808F0D4FE9FED180B53EC102BAB
:1052A00008F0E2FE08F00CFC00EE900AB0EE480AAE
:1052B000144805F0E5FABDEEC00A206880ED030A47
:1052C000F8EEC00A00EE105A0E48B8EEC00AD83800
:1052D00005F0F4F9BDEEC00A216810EE100A00B224
:1052E0000882BDEC028BBDE87040FFF771BF000083
:1052F00000000020F0000020D0020020000000008C
:105300000000C03F0852002070B5174C15482168B6
:10531000B0F90450B0F9000091ED020AF8EE400A2D
:1053200000EE100A1148B8EEC00A05F0A9FABDEE69
:10533000C00A206880ED030AF8EEC00A00EE105A99
:105340000A48B8EEC00AD83805F0B8F9BDEEC00A70
:10535000216810EE100A00B20882BDE87040FFF725
:1053600037BF000000000020D002002008520020BB
:1053700070B50A4C8820002520736573A573E5730A
:1053800025746574A574E57404F10C0240F24111B2
:105390000348FBF78DFDE560256170BDD00200205C
:1053A0001809002000680068C08A081A0849B1F985
:1053B000001000EBC10010F5004F02DA00F580305C
:1053C00004E0B0F5004F01DDA0F5803000B2704779
:1053D0000000002010B52E49027800234C68942A62
:1053E00023703BD018DC302A03D0312A01D0322A76
:1053F00011D18B6882781A708B68C2785A708B686A
:1054000002799A708B684279DA708B6882791A71A6
:105410008968C079487110BDA12A01D0A22AFAD1A9
:105420000B6842789A74C2780B6812029A82847868
:1054300022439A8242799A800B6812029A800479F8
:105440000B6822439A80C3790A684FF6FF7101EA1C
:105450000321D18280790143D18210BD0B68C279CA
:105460001A600B6812021A6084790B6822431A6072
:105470000B6812021A6044790B6822431A600B68A9
:1054800012021A600968007902430A6010BD000028
:10549000D002002070B50546FFF756F90F4C207872
:1054A0004006000EFFF720F9FFF790F92846FFF7B6
:1054B0001BF9FFF78BF9FFF747F92078012101EB82
:1054C0004000C0B2FFF710F9FFF780F90020FFF7A6
:1054D000D7F80446FFF758F9204670BD4401002074
:1054E0002DE9F04116460D460746FFF72DF9134CFE
:1054F00020784006000EFFF7F7F8FFF767F9384607
:10550000FFF7F2F8FFF762F9FFF71EF920780121A3
:1055100001EB4000C0B2FFF7E7F8FFF757F90024AE
:1055200006E00120FFF7ACF8641C05F8010BE4B2BB
:10553000B442F6D3BDE8F041FFF726B9440100209C
:105540007FB50024154800940194029412490394F5
:1055500001604FF48031C0E901140461047680F8E1
:1055600020400F49C0E90A140125C561C46080F8D4
:1055700030404561FCF782FF08B1FCF76DFD0A2061
:10558000CDE90005694602940448FCF7D1FE0028E5
:1055900001D0FCF761FD7FBD00200140D008002054
:1055A0000100000F104810B50E4901600321416051
:1055B00000214FF400228160C0E903124FF4401231
:1055C0004261017641768176C1760177012141778A
:1055D000FDF727FA002803D0BDE81040FCF73CBDDA
:1055E00010BD00000064004018090020104810B5EC
:1055F0000E4901600321416000214FF400228160C7
:10560000C0E903124FF4401242610176417681767F
:10561000C176017701214177FDF703FA002803D015
:10562000BDE81040FCF718BD10BD00000068004048
:10563000400900201CB500240C4900940A4801943C
:1056400008600846FDF760FB08B1FCF705FD022085
:10565000CDE90040002269460448FDF734FB0028EC
:1056600001D0FCF7F9FC1CBD007400406809002063
:10567000254808B5016841F400110160016801F492
:1056800000110091016841F480010160006800226E
:1056900000F48000009011460B20FDF7E9FE0B207E
:1056A000FDF7D8FE002211460C20FDF7E1FE0C208C
:1056B000FDF7D0FE002211460D20FDF7D9FE0D208A
:1056C000FDF7C8FE002211460E20FDF7D1FE0E2088
:1056D000FDF7C0FE002211461020FDF7C9FE102084
:1056E000FDF7B8FE002211462F20FDF7C1FE2F2046
:1056F000FDF7B0FE002211463A20FDF7B9FEBDE8E5
:1057000008403A20FDF7A6BE3038024010B5B8B0C8
:105710001C222C496846FAF73DFF0021684604F038
:10572000A3FF294C27491C2220601C3107A8FAF747
:1057300031FF002107A804F097FF224960601C2276
:1057400038310EA8FAF726FF00210EA804F08CFFCE
:105750001C49A0601C22543115A8FAF71BFF002138
:1057600015A804F081FF1749E0601C2270311CA8C5
:10577000FAF710FF00211CA804F076FF1149206100
:105780001C228C3123A8FAF705FF002123A804F07E
:105790006BFF0C4960611C22A8312AA8FAF7FAFEB7
:1057A00000212AA804F060FF0649A0611C22C43130
:1057B00031A8FAF7EFFE002131A804F055FFE061AF
:1057C00038B010BDE0E60008340000202DE9F04FAD
:1057D00087B014216846FAF731FF43480024016876
:1057E00041F004010160016801F0040105910168C4
:1057F00041F080010160016801F0800105910168BC
:1058000041F001010160016801F0010105910168A9
:1058100041F010010160016801F01001059101687B
:1058200041F002010160016801F002010591016887
:1058300041F0080101600068DFF8B09000F0080056
:105840004FF4D8450590012229464846FDF74FFD03
:10585000002208214846FDF74AFDDFF894A0002207
:1058600024215046FDF743FDDFF888B04FF4204770
:10587000012239465846FDF73AFD4FF400780122DF
:1058800041461D48FDF733FD00950125CDE9015442
:10589000694648460394FDF747FC08200326CDE9F6
:1058A0000005CDE9024669464846FDF73DFC242047
:1058B000CDE90005CDE9024669465046FDF734FCC6
:1058C00000970396CDE9015469465846FDF72CFC34
:1058D000CDF80080CDE90154694607480394FDF7EF
:1058E00023FC07B0BDE8F08F3038024000080240CA
:1058F0000000024000040240000C0240094810B5BC
:10590000074901600021416040F6FF718160FDF7A9
:10591000F9FC002803D0BDE81040FCF79DBB10BD8A
:10592000003000407C09002010B596B000240F9490
:1059300010941194129413941C2108A81494FAF74B
:105940007DFE20216846FAF779FE29482749016043
:1059500040F61F51C0E9011440F2E731C0E90314D9
:1059600044618461FEF7E4F808B1FCF775FB4FF47D
:1059700080500F900FA91E48FEF729F908B1FCF7D7
:105980006BFB1B48FEF7EDFA08B1FCF765FB1394BF
:1059900013A917481494FEF783F808B1FCF75CFBD1
:1059A0006020CDE908040A940B940C940D94042211
:1059B00008A90F480E94FEF76CFA08B1FCF74CFBEF
:1059C00000944FF40050CDE90440029401940394F4
:1059D000694607480794FEF739F808B1FCF73CFB25
:1059E0000348FEF713FA16B010BD00000000014096
:1059F0008809002010B58EB00024079408940994FB
:105A00000A940B941C2168460C94FAF717FE22485E
:105A1000204901605321C0E9011440F6C311C0E9D7
:105A200003148461FEF784F808B1FCF715FB4FF40A
:105A30008050079007A91848FEF7C9F808B1FCF78D
:105A40000BFB1548FEF78DFA08B1FCF705FB0B942C
:105A50000BA911480C94FEF723F808B1FCF7FCFAE7
:105A60006020CDE900040294002269460A480494AB
:105A7000FEF70FFA08B1FCF7EFFA04226946064870
:105A8000FEF707FA08B1FCF7E7FA0348FEF7BEF99C
:105A90000EB010BD00040040C80900200C4810B52D
:105AA0000A4901604FF4E1314160002181600C221C
:105AB000C160C0E904128161C161FEF725FB0028C5
:105AC00003D0BDE81040FCF7C7BA10BD004C004041
:105AD000080A00200C4810B50A4901604FF4E13172
