:020000040800F2
:10000000405E0020310300081D4F0008B53C000889
:100010007D490008890B0008AD5B00080000000066
:100020000000000000000000000000007102000855
:10003000FB17000800000000CD0200086D53000807
:100040004B0300084B0300084B0300084B03000858
:100050004B0300084B0300084B0300084B03000848
:100060004B0300084B0300084B030008B5130008BE
:10007000C1130008CD130008D91300084B03000872
:10008000E51300084B0300084B0300084B0300086E
:10009000B50B00084B0300084B0300084B03000896
:1000A0004B0300084B0300084B0300084B030008F8
:1000B000415400084B0300084B0300084B030008A1
:1000C0004B0300084B0300084B0300084B030008D8
:1000D0004B030008355A0008895A0008E15A000805
:1000E0004B0300084B0300084B0300084B030008B8
:1000F0004B0300084B0300084B030008F1130008F2
:100100004B0300084B0300084B0300084B03000897
:1001100021570008395700084B0300084B0300081B
:100120004B0300084B030008FD1300084B030008B5
:100130004B0300084B0300084B0300084B03000867
:10014000610C00084B0300084B0300084B03000838
:100150004B0300084B0300084B0300084B03000847
:100160004B0300084B0300084B0300084B03000837
:100170004B0300084B0300084B030008000000007D
:100180004B0300084B03000800F002F800F060F891
:100190000AA090E8000C82448344AAF10107DA45E2
:1001A00001D100F055F8AFF2090EBAE80F0013F0D4
:1001B000010F18BFFB1A43F001031847501201004A
:1001C000701201000A444FF0000C10F8013B13F0CC
:1001D000070408BF10F8014B1D1108BF10F8015BA0
:1001E000641E05D010F8016B641E01F8016BF9D193
:1001F00013F0080F1EBF10F8014BAD1C0C1B09D1EA
:100200006D1E58BF01F801CBFAD505E014F8016B5B
:1002100001F8016B6D1EF9D59142D6D370470000ED
:100220000023002400250026103A28BF78C1FBD8FF
:10023000520728BF30C148BF0B6070471FB50EF092
:1002400078FD9DE8030000F03FFA1FBD10B510BD1A
:1002500000F0A6FA1146FFF7F1FF09F0E3FD00F008
:10026000C4FA03B4FFF7F2FF03BC00F0F5FA000094
:100270002C4B19680868B0E8F04F80F30988BFF389
:100280006F8F4FF0000080F311887047000000006E
:1002900008480068006880F308884FF0000080F389
:1002A000148862B661B6BFF34F8FBFF36F8F00DF64
:1002B00000BF00BF08ED00E0DFF80C00016841F46A
:1002C00070010160704700BF88ED00E0EFF3098026
:1002D000BFF36F8F134B1A681EF0100F08BF20ED8D
:1002E000108A20E9F04F106009B44FF0500080F3FD
:1002F0001188BFF34F8FBFF36F8F0DF0AFFB4FF03F
:10030000000080F3118809BC19680868B0E8F04F54
:100310001EF0100F08BFB0EC108A80F30988BFF3FD
:100320006F8F704760000020EFF30580704700007A
:100330000948804709480047FEE7FEE7FEE7FEE779
:10034000FEE7FEE7FEE7FEE7FEE7FEE704480549B5
:10035000054A064B70470000255400088901000833
:1003600040580020405E0020405A0020405A0020A3
:1003700070B5064600F08CF9056806F10B0020F018
:100380000704B4429CBF002070BD2B466A68BAB116
:100390001068A04210D304F1080188423CBF5068A5
:1003A000586007D35168101941601168091B01603A
:1003B00058601460101D70BD13465268002AE7D1C2
:1003C0002146284600F06CF90028DED170BD70B5DA
:1003D0000446051F00F05CF90068002C14BF446857
:1003E00070BD002C18BFAC423CBF20466468F8D3F7
:1003F00001680A18AA4218BF456003D12A68054659
:100400001144016028684119A1421CBF6C6070BD95
:100410006168696021680844286070BD53EA020C75
:1004200000F069802DE9F04B4FF00006002B1FBF54
:10043000B3FA83F503FA05F424FA05F65E4012BF19
:100440001643B2FA82F502FA05F4C5F120051EBF83
:1004500022FA05FC44EA0C04203556EA044C4FEA23
:10046000144418BF641C4FF000084FF0000990427C
:1004700071EB030C39D3002919BFB1FA81F701FAE6
:1004800007F6B0FA80F700FA07F6C7F120071EBF9B
:1004900020FA07FC46EA0C062037B6FBF4FCA7EB73
:1004A0000507103F07F01F0BCBF120060CFA0BFBE2
:1004B0002CFA06F644BFB3460026202FA4BF5E46A2
:1004C0004FF0000B5BEA060C08BF4FF0010B19EB75
:1004D0000B09ABFB027C48EB0608C01B06FB02CCF9
:1004E0000BFB03CC71EB0C01C1E70B460246414606
:1004F0004846BDE8F08B13B54FF000004FF0000107
:10050000AFF30080BDE81C407047032A40F2308002
:1005100010F0030C00F0158011F8013BBCF1020F44
:10052000624498BF11F801CB00F8013B38BF11F8C5
:10053000013BA2F1040298BF00F801CB38BF00F8DC
:10054000013B11F0030300F02580083AC0F0088059
:1005500051F8043B083A51F804CBA0E80810F5E73D
:10056000121D5CBF51F8043B40F8043BAFF3008020
:10057000D20724BF11F8013B11F801CB48BF11F895
:10058000012B24BF00F8013B00F801CB48BF00F865
:10059000012B704710B5203AC0F00B80B1E818501D
:1005A000203AA0E81850B1E81850A0E81850BFF45D
:1005B000F5AF5FEA027C24BFB1E81850A0E81850FC
:1005C00044BF18C918C0BDE810405FEA827C24BF50
:1005D00051F8043B40F8043B08BF7047D20728BFDE
:1005E00031F8023B48BF11F8012B28BF20F8023B2D
:1005F00048BF00F8012B70474FF000020429C0F0FB
:10060000128010F0030C00F01B80CCF1040CBCF144
:10061000020F18BF00F8012BA8BF20F8022BA1EB96
:100620000C0100F00DB85FEAC17C24BF00F8012B7B
:1006300000F8012B48BF00F8012B70474FF0000273
:1006400000B5134694469646203922BFA0E80C50C8
:10065000A0E80C50B1F12001BFF4F7AF090728BFA3
:10066000A0E80C5048BF0CC05DF804EB890028BF1F
:1006700040F8042B08BF704748BF20F8022B11F048
:10068000804F18BF00F8012B7047704770477047C4
:1006900000487047E4570020704770477047704724
:1006A00038B504460A4600206946AFF300800028AA
:1006B00008BF38BD02460099204600F04FF80120DF
:1006C00038BD012000F064B8F8B5AFF300800546EE
:1006D00000200C46102000BF0646A819A0420DD9E4
:1006E000324669460020AFF30080070008BF00F0E3
:1006F0004FF80098A04218BF0546C419FFF7C8FF7D
:1007000005600746F01D20F007004619284600F056
:100710000AF8B44208BFF8BDA21B31463868BDE8EC
:10072000F84000F01BB800210160C0E901107047DB
:100730001020704710B500F00DF8006810BD10B51E
:10074000044600F007F8046010BD00000048704740
:10075000DC57002000487047DC5700200346406803
:100760008C46002818BF88423CBF03464068F8D337
:1007700018681844884207D00CF1030020F00700E5
:10078000001D411A521A0146081D0A60FFF71FBEDC
:1007900010B500F039F8BDE8104000F02FB87047F0
:1007A0007546FFF7D3FFAE4605006946534620F075
:1007B0000700854618B020B5FFF7C8FDBDE820400A
:1007C0004FF000064FF000074FF000084FF0000B0D
:1007D00021F00701AC46ACE8C009ACE8C009ACE8C0
:1007E000C009ACE8C0098D46704710B50446AFF3A8
:1007F00000802046BDE81040FFF733BD002801D03F
:1008000000F02AB87047000010B5012805D000217B
:1008100003A000F027F8012010BD09A1F8E70000AF
:1008200053494752544D454D3A204F7574206F66D9
:100830002068656170206D656D6F72790000000041
:100840003A2048656170206D656D6F727920636F25
:10085000727275707465640001491820ABBEFEE7C2
:100860002600020070B505460C460A2000E06D1C0B
:1008700000F011F835B128780028F8D102E0641CA6
:1008800000F009F814B120780028F8D1BDE87040D4
:100890000A20AFF3008008B569468DF800000320F8
:1008A000ABBE08BD464910B54A6822F440324A60E2
:1008B0004A6843681A434A6001684A6822F48072B1
:1008C0004A6001684A68036942EA03224A60016893
:1008D0004A6822F040724A6001684A6883681A4395
:1008E0004A6001688A6822F400628A6001688A6846
:1008F000C3681A438A60816A6FF07062D1420168EE
:100900008A6822F070628A6001688A680CD0836A03
:100910001A438A6001688A6822F040528A6001683E
:100920008A68C36A1A4301E022F040528A60016873
:100930008A6822F002028A6001688A68037E42EABD
:1009400043028A6090F82010002901684A680FD09D
:1009500042F400624A6001684A6822F460424A60D8
:1009600001684A68174C436A04EB43331A4301E0B9
:1009700022F400624A600168CA6A22F47002CA6204
:100980000168CA6A838B104C04EB03531A43CA6292
:1009900001688A6822F400728A6001688A6890F8A7
:1009A000303042EA43228A6001688A6822F4806219
:1009B0008A6001688A68406942EA8020886010BDC8
:1009C0000023014000E0FFFF0000F0FF704700003F
:1009D00030B50C4605000CD0022C0AD90548A11EE2
:1009E0000288284600F060FF291901F8020D000A6C
:1009F000487030BDDA01002030B50C4605000AD041
:100A0000022C08D9601E81B2FF22284600F062FF46
:100A1000291901F8010C30BD2DE9FE4F1546DDE91D
:100A20000C9A0E4607460C221C466946104603F0F7
:100A30001FFCBDF80080BDF802C0BDF80430BDF851
:100A40000620BDF80810BDF80A00A4F80080A9F837
:100A500000C0AAF800303A8031802880BDE8FE8FBF
:100A600038B5194806F06CFF06F0DEFB164806F0B4
:100A70009FFB044606F0D8FB24BB01208DF8000044
:100A80000146114A684606F0E9FF06F0CDFB0E4824
:100A900004F004FC00208DF800000B4A0121684698
:100AA00006F0DCFF06F0C0FB074804F0CDFB022097
:100AB0008DF80000044A0121684606F0CFFF044685
:100AC00006F0B2FB204638BD085000201CB51F4977
:100AD0001F48CDE900011F4B1F4A20492048FFF75E
:100AE0009BFF204900230C461A46A01C09F0D8FBA6
:100AF000B4F90400B6EE001A00EE100A1648F8EE3B
:100B0000C00AB0F9000000EE100AB8EEC00A03F007
:100B100025FABDEEC00AB6EE001A10EE100AA0804B
:100B2000B4F9060000EE100A0C48F8EEC00AB0F95D
:100B3000000000EE100AB8EEC00A03F00FFABDEE96
:100B4000C00A10EE100AE0801CBD00000A00002060
:100B50000800002006000020040000200200002001
:100B6000000000207C020020FFF7B0FF03F036FAFF
:100B7000044804F083FA08F03DFF012009F030FE3C
:100B8000F2E700000C000020FEE7000000B58BB08B
:100B9000684600F0C1F86946054801F0F9F80221FD
:100BA000034801F075F8024801F00AFC0BB000BDE3
:100BB00000090020014801F0E6B90000000900200A
:100BC000A0F58072413A14D00022A0F50073023BD8
:100BD00012D0A0F50073013B13D0A0F50073033BC6
:100BE00014D0B0F5017F16D030281AD1084607F08E
:100BF00073B90C4804F0D6B80B48406802700A4834
:100C00000DE00A4840680270084808E0084840685B
:100C10000270074803E0074840680270054803F087
:100C20006FBF70471C4B0020F4030020D803002046
:100C3000100400202C04002000B58BB0684600F0A2
:100C40006BF86946054801F0A3F80221034801F05A
:100C50001FF8024801F0B4FB0BB000BD28090020CA
:100C6000014801F090B900002809002010B5A0F556
:100C70000072FF3A13D0A0F58072FF3A0FD0002225
:100C8000A0F50073013B10D0A0F50073023B1ED00D
:100C900030281BD1BDE81040084607F01DB90A46B0
:100CA000BDE81040164900F09BBE164C606802700B
:100CB000204603F065FE144890F82A00002805D16C
:100CC0002068B0F90A20C1681144C16010BD0F4C02
:100CD00060680270204603F053FE0D4890F82A0029
:100CE00028B92068B0F90A20C1681144C160094CD4
:100CF00020780028EAD104F03BF80120207010BDD4
:100D00007050002040530020E8520020785300200B
:100D100014530020C0000020002101604160816068
:100D2000C160016101224161C0E90612C0E90821E8
:100D30007047000010B5124A016891420DD1114B65
:100D400000211C46A3F11C0201F0A9F80D48214620
:100D50001C380068FFF734FF10BD0B4A9142FBD1ED
:100D6000084B002124331C46A3F11C0201F097F824
:100D70000448214608300068FFF778FF10BD0000E6
:100D8000006400401C4B00200068004038B50B4652
:100D9000164C0168A14201D1154904E0154CA1424D
:100DA00022D1134920310B6000238B60CB600823D4
:100DB0000B6113881B0A0B7613784B7653881B0A3A
:100DC0008B769378CB7693881B0A0B7713794B77C6
:100DD000D3881B0A8B779279CA776B4601F1180288
:100DE00000F068FF002800D0012038BD00640040FA
:100DF000484B00200068004038B50B46144C016891
:100E0000A14201D1134904E0134CA1421ED1114962
:100E100020310B6000238B60CB6008230B611378BB
:100E20000B7653784B7693788B76D378CB76137991
:100E30000B7753794B7793798B77D279CA776B4657
:100E400001F1180200F036FF002800D0012038BD63
:100E500000640040484B00200068004007F086F81E
:100E6000012009F0BDFCF9E708B1012802D10249CF
:100E700081F834007047000040010020014981F8EA
:100E8000300070474001002090F83A204FF4007382
:100E9000012A04D10B4A52689278012A09D0002015
:100EA000088048808880C8800A4619460648FFF7AF
:100EB0006DBF028D0A80428D4A80828D8A80C08DEE
:100EC000F1E700000C0000200009002010B50446E6
:100ED000806803F03FFEE06803F03CFE206803F00A
:100EE00039FE606803F036FEA0684068807880B103
:100EF000E0684068807860B120684068807840B1E0
:100F000060684068807820B15FF0010084F83A00A2
:100F100010BD0020FAE700002DE9F04104462DED58
:100F2000028B2D4A2D492E4803F025FE2D4A2E49CD
:100F30002E4803F020FE2E4A2E492F4803F01BFEB8
:100F40002E4A2F492F4803F016FE2F4F9FED2F8A70
:100F5000DFED2F8A002540F6B83843F2C82600BFDF
:100F600005EBC50000EB400007EB8000B0EE481A2F
:100F7000F0EE680AB2EE080A43463246032104F056
:100F800013F86D1CEDB2042DEAD3F0EE480A9FED84
:100F9000210AB0EE601A0023424603211E4804F0E5
:100FA00003F80F482060114860601348A06015489E
:100FB000E0601A4800214068001DE06342F22830DA
:100FC000E086268784F83410322184F83010608659
:100FD000BDEC028BBDE8F0811D000020E403002081
:100FE000D80300202000002000040020F40300208B
:100FF000230000201C0400201004002026000020F4
:10100000380400202C0400204804002000000000C8
:10101000CDCCCC3E9A99993EF805002010020020D4
:1010200010B50446B0F9200000EE100A2B48F8EE87
:10103000C00A0068B0F9020000EE100A2848B8EEB5
:10104000C00A09F003FCBDEEC00A10EE100A2085AC
:10105000B4F9220000EE100A2248F8EEC00A006837
:10106000B0F9020000EE100A1D48B8EEC00A6C305C
:1010700009F0ECFBBDEEC00A10EE100A6085B4F971
:10108000240000EE100A1848F8EEC00A0068B0F913
:10109000020000EE100A1248B8EEC00AD83009F07B
:1010A000D5FBBDEEC00A10EE100AA085B4F92600EB
:1010B00000EE100A0D48F8EEC00A0068B0F9020010
:1010C00000EE100A0A48B8EEC00A09F0BFFBBDEEF8
:1010D000C00A10EE100AE08510BD0000D803002001
:1010E00048040020F4030020100400202C040020F9
:1010F0008C050020FCB53E4989688978012905D016
:101100004FF4FA6141864900C186FCBD4FF4FA51A3
:1011100041863849B0F92840374EC96B9FED371AE0
:10112000B1F90010ADF8004000EE101AB0F92A3005
:10113000ADF80230B8EEC00AB0F92C20ADF80420AA
:1011400010EE105AB0F92E10ADF80610B54201DDC0
:10115000B0EE410A10EE105AC0EE010A284FBD420F
:1011600001DA60EEA00A10EE105A9FED260AB54291
:1011700001DA20EE800A002C00DC6442002B00DC47
:101180005B422344002A00DC52421A44002900DC5E
:101190004942114400EE901AF8EEE00A80EE201A5F
:1011A000F4EEC00AF1EE10FA14DB00214FEA0D0252
:1011B00032F9113000EE103AB8EEC00A20EE010A02
:1011C000BDEEC00A10EE103A22F81130491CC9B227
:1011D0000429EDD3BDF800100185BDF8021041854A
:1011E000BDF804108185BDF80610C185FCBD000066
:1011F00010020020400100200000704200007042F8
:101200000000C84100A00C4730B58C18E5180584D3
:10121000551A1D44891A458419448184191BC184B7
:1012200030BD30B5B0F91030002B01DD194600E0BB
:101230005942B0F91220002A01DD144600E0544260
:101240000D19B0F91410002901DD0C4600E04C42E4
:101250002C44058F24B2A5420ADA00EE105AF8EEAB
:10126000400A00EE104AB8EEC01A80EE810A01E092
:10127000B7EE000A00EE903AF8EEE00A60EE800A5F
:10128000FDEEE00A10EE903A00EE902A0382F8EEAE
:10129000E00A60EE800AFDEEE00A10EE902A00EE11
:1012A000901A4282F8EEE00A20EE800ABDEEC00AF3
:1012B00010EE101A818230BD70B504462DED028B00
:1012C000C56928460DF0C4FC41EC100B05F03CFA52
:1012D00051EC100B0CF028FF08EE100A28460DF018
:1012E000B7FC41EC100B05F0CBF951EC100B0CF0F6
:1012F0001BFF00EE100AB4F91000B4F9121000EE52
:10130000900AF8EEE00A20EE201A00EE901AF8EEAD
:10131000E00A08EE601AFDEEC10A10EE902A00EE17
:10132000900A2282F8EEE00A28EE201A00EE901AC7
:10133000F8EEE00A00EE201ABDEEC10A10EE100A27
:101340006082BDEC028B70BD2DE9FC410446B0F912
:101350001070B0F91260B0F91450FFF7B7FD2B46CA
:10136000324639462046FFF74FFF2046FFF759FF28
:101370002046FFF755FE2046FFF7BCFE6946204693
:10138000FFF782FDBDE8FC8108B1012802D10249C6
:1013900081F8350070470000400100200CF046FC49
:1013A000012009F01DFAF9E70021014801F0A0B879
:1013B00050090020014801F0E3B80000900B002024
:1013C000014801F0DDB80000700D0020014801F077
:1013D000D7B80000300B0020014801F0D1B8000060
:1013E000100D0020014801F0CBB80000B00C002027
:1013F000014801F0C5B80000F00B0020014801F0E1
:10140000BFB80000500C00202DE9F04F8568002483
:10141000099E802D18D0894DC563894D456490F88B
:101420003450012D15D0012580F8345090F83550F6
:10143000012D10D0002180F834100224002180F802
:1014400034102046BDE8F08F4FF4807141650120D3
:10145000F8E70220F6E7022580F8355000254565BB
:1014600005682F6847F480272F6005682B610368A3
:101470005E608368402B03682AD099600168CA6067
:10148000714D704E704FDFF8BC81DFF8B891DFF816
:10149000B8A1DFF8B4B1EA14DFF8A8E101681836A2
:1014A00030379302A9F148090AF1600A0BF1180BD1
:1014B000AEF1300E4FF0006C41452DD9A94205D058
:1014C000494503D0514501D0B14205D1202220E049
:1014D0009A600268D160D3E759451AD0714518D097
:1014E000594D7835A94214D0564D3035A94210D007
:1014F000B9420BD0534A183A914207D0524A90321F
:10150000914203D04F4A4832914201D11A4600E03D
:1015100062464C494C392EE0DFF82C8108F1A808CE
:1015200041452AD9A94205D0494503D0514501D0AA
:10153000B14201D120221CE059451AD0714518D082
:10154000414D7835A94214D03E4D3035A94210D0D6
:10155000B9420BD03B4A183A914207D03A4A9032EE
:10156000914203D0374A4832914201D11A4600E0F5
:101570006246344950390A605AE0DFF8CC8008F1FD
:10158000480841452AD9A94205D0494503D05145CB
:1015900001D0B14201D120221CE059451AD0714539
:1015A00018D0294D7835A94214D0264D3035A9429E
:1015B00010D0B9420BD0234A183A914207D0224AA0
:1015C0009032914203D01F4A4832914201D11A46CB
:1015D00000E062461C491039CA6029E0A94205D0E2
:1015E000494503D0514501D0B14201D120221CE030
:1015F00059451AD0714518D0134D7835A94214D0E9
:10160000104D3035A94210D0B9420BD00D4A183ACE
:10161000914207D00C4A9032914203D0094A483295
:10162000914201D11A4600E06246074910398A60AA
:1016300001680A6842F001020A60FFE6218800089A
:101640004D88000858640240106002400168182369
:10165000CAB2103AB2FBF3F2054B6FF30901032A49
:101660009B5CC36500D9091D816508467047000071
:1016700028EE000810B5014600208B698A6A4FF0F9
:10168000C07453B1B3F5005F15D072B1012A0CD00C
:10169000022A0AD0032A09D104E01AB1012A06D08D
:1016A000022A03D1C96AC90100D5012010BDC96A47
:1016B000A142FAD010BD002AF7D0012AF2D0022AA6
:1016C000F3D0032AF3D010BD30B50468256825F4A3
:1016D00080252560046863608368402B036803D01D
:1016E00099600068C26030BD9A600068C16030BD1A
:1016F00070B590F834500024012D0CD0012580F8ED
:10170000345090F835600025012E06D080F8345012
:101710000224204670BD022070BD022680F835608C
:10172000456505682E6826F480262E6005686B6086
:101730008368402B036808D099600168CA6000681C
:10174000016841F001010160E3E79A600268D1603D
:10175000F5E7000010B50446408B3221B0FBF1F2F2
:1017600001FB1202401C60832068E168192A0068AE
:10177000B0F9020000EE100AB8EEC00A02D3DFEDA5
:101780000C0A01E0DFED0B0A084609F05FF8BDEE38
:10179000C00A216810EE100A0881608B322806D139
:1017A000A08B401CA083002060832083207510BD87
:1017B00000409C4500409CC510B503F001FCFFF7BC
:1017C00005F9FFF7F1FD04F041F904F069F904F0BF
:1017D00093F904F0AFF904F0CBF9FFF7D7F9BDE8BE
:1017E0001040FFF729BA01680A68D20604D5C96813
:1017F000C90601D50BF036BF7047704710B590F899
:101800002A2000210123AAB1012A2AD0032A28D0A4
:10181000022A0ED11C4802681268D1600068006874
:10182000416119482C3002681268D1600068006874
:10183000416110BD026812685469D268A21A00D5CD
:10184000524240F2DC54A24208DB028B541C048357
:101850008C2A01D3037510BD818310BD01830175EE
:1018600010BD0268B0F922401268B2F90220121BC2
:1018700000D55242B2F5FA7FF0DB018B4A1C02839D
:101880008C29E7D210BD0000E8520020704700000C
:10189000044A00F57A701060101D01F57A7101603C
:1018A000704700003404004010B558B1084C491E80
:1018B0000BD310F8013B5340DBB234F8133083EA0A
:1018C0001222F4E74FF6FF7010BD104610BD000065
:1018D000940F010810B5064C04E000BF10F8013B5E
:1018E0005340E25C491E89B2F8D2104610BD000098
:1018F000940E010807F06CFF012008F071FFF9E772
:10190000016FB1F5803F02DBA1F5803103E00029D2
:1019100002DC01F5803101677047000010B5044614
:1019200003F082F994F88600012804D10848406841
:101930008078012803D0BDE8104003F0DFB90549E5
:10194000206F09688860BDE8104003F027B90000E7
:101950000C0000202403002010B5044603F064F9B5
:1019600094F88600012804D108484068807801284E
:1019700003D0BDE8104003F0C1B90549206F0968E4
:101980008860BDE8104003F0BDB900000C000020E5
:101990002403002070B50446002044F8741B05465B
:1019A00044F80C090D4EA060A0772075208260825B
:1019B000A076E0822083683C06E000BF03F09EF939
:1019C00028466D1CB04204D220680068807C002844
:1019D000F4D120680068C08A206770BDA08601002D
:1019E00010B50023F1281BD0A0F58070FF383BD044
:1019F000012830D0B0F5807F11D110780002C88264
:101A000054782043C882907800020883D478204319
:101A1000088390790875D079487581F8203010BD19
:101A200010780002088054782043088090780002E3
:101A30004880D47820434880107900024881547946
:101A400020434881907900028881D27910438881AF
:101A500081F8203018E010790872507988749079F4
:101A60004872D079C87410BD907800028883D47809
:101A70002043888310790002C88354792043C883A7
:101A800090798876D079C87681F8253010BD00002D
:101A900078B50024009490F83C20012A19D0012246
:101AA00080F83C200A6807230568092A13D9EE68E4
:101AB0000A3A02EB420293409E43EE600B788A683A
:101AC0000A3B03EB43039A400368DD682A43DA606C
:101AD00010E0022078BD2E6902EB420293409E4343
:101AE0002E610B788A6803EB43039A4003681D69F3
:101AF0002A431A614A681F23072A13D205686E6BAE
:101B0000521E02EB820293409E436E630B790A8859
:101B10005B1E92B203EB83039A4003685D6B2A431A
:101B20005A6327E005680D2A12D22E6BD21F02EBF2
:101B3000820293409E432E630B790A88DB1F92B288
:101B400003EB83039A4003681D6B2A431A6311E079
:101B5000EE6A0D3A02EB820293409E43EE620B79ED
:101B60000A880D3B92B203EB83039A400368DD6A57
:101B70002A43DA62164B0568144A9D4206D10D6865
:101B8000122D03D1556845F48005556005689D42C6
:101B900018D10B68102B01D0112B13D1536843F4CB
:101BA00000035360096810290CD10A490A4A0968E0
:101BB000B1FBF2F101EB8101490000E0491E009107
:101BC0000029FBD180F83C40002078BD0023014073
:101BD000002001405C00002040420F0070B504006E
:101BE0004FF0000503D0206C002610B107E0012063
:101BF00070BD204600F01CF8666484F83C60206CE0
:101C0000C00610D4206C20F4885040F002002064FC
:101C10002046FEF747FE6664206C20F0020040F08C
:101C20000100206400E0012584F83C60284670BD76
:101C300010B586B0044614216846FEF7FFFC114932
:101C4000206888421CD110480021026842F480724A
:101C50000260006800F4807005900B481438026838
:101C600042F004020260006800F0040005900120C8
:101C700000900320CDE901016946044800F004FE0C
:101C800006B010BD00200140443802400008024068
:101C900090F82020012A07D0022A05D0416A41F499
:101CA0008021416201207047006842690A43426115
:101CB00000207047F0B590F820500468A468012D0A
:101CC00005D0022D03D0416A41F480215DE014F07B
:101CD000406F01D1E50055D5C4F30164022C03D94E
:101CE000416A41F4000150E00125A5401D608D6866
:101CF0004FF4C0739DB1CE6835434E6845EAC605C2
:101D0000066803EB0417F5514FF4C275076805EB3D
:101D100004150E697E51097D012905D009E00E8860
:101D2000CD6845EA4655EBE701684E5946F48076A2
:101D30004E511179D579567941EA056195792D048D
:101D400045EA062529434FF4C676056806EB0416D6
:101D5000A9511178D57841EA0561957852782D041A
:101D600045EA022211434FF4C475026805EB0415DD
:101D70005151006803EB0411425842F001024250F5
:101D80000020F0BD416A41F4001141620120F0BD24
:101D900010B590F82020012A07D0022A05D0416A08
:101DA00041F480214162012010BD3B48D0F800225F
:101DB00042F00102C0F80022D0F8002222F47C5246
:101DC000C0F80022D0F800224B6A42EA0322C0F891
:101DD00000220A7D02F01F0301229A40D0F81C3233
:101DE0009343C0F81C32CB69B3B9D0F80C3293439B
:101DF000C0F80C328C894B6864F31F434C6900EBCC
:101E0000C404C4F840320C890B6864F31F434C6966
:101E100000EBC404C4F84432CB69012B16D1D0F8CE
:101E20000C321343C0F80C320C884B6864F31F4328
:101E30004C6900EBC404C4F840320C89CB6864F3ED
:101E40001F434C6900EBC404C4F844328B69002B77
:101E5000D0F804320ED01343C0F804320B69002BC3
:101E6000D0F8143208D01343C0F81432096A01299B
:101E700004D008E09343EFE79343F5E7D0F81C1252
:101E80001143C0F81C12D0F8001221F00101C0F873
:101E90000012002010BD000000640040704730B503
:101EA00090F82040012C05D0022C03D0416A41F467
:101EB00080215DE00468002955D02469A40754D02E
:101EC0004FF4D874056804EB01142D5915F004057E
:101ED000956005682D594ED0ED08556005682C5960
:101EE00004F00204D4604FF4DA74056804EB0114C2
:101EF0002D5905F00F05156105682D59C5F3072506
:101F0000956105682C59240C54614FF4DC72046807
:101F100002EB0112A4581C700468A458240A5C70D7
:101F20000468A458240C9C700468A258120EDA703D
:101F30004FF4DE72046802EB0112A4581C710468AD
:101F4000A458240A5C710468A458240C9C71046889
:101F5000A258120EDA71006881B1016941F02001C6
:101F60000161002030BDE468A8E7416A41F4001136
:101F70004162012030BD6D0D1560AFE7C16841F0D1
:101F80002001C160EDE72DE9F05F054600680024FF
:101F90004669D0F804908768D0F80CB0D0F810A04B
:101FA000D0F81880F10748D0F90714D001218160DA
:101FB000B80703D5284600F030FA0CE0780702D5C0
:101FC0004FF4006407E0380702D54FF4805402E074
:101FD000284600F021FAF80516D529684FF48070DC
:101FE0008860B80503D5284600F019FA0CE078059A
:101FF00002D544F4005407E0380502D544F4804487
:1020000002E0284600F00AFAF80316D529684FF4D2
:1020100080308860B80303D5284600F002FA0CE04F
:10202000780302D544F4004407E0380302D544F4B1
:10203000803402E0284600F0F3F9300707D55FEA64
:10204000CB6004D52968102044F40074C860700780
:102050004FF0080707D55FEA0B7004D52868C76002
:10206000284600F099F9B00706D52868C0688007AF
:1020700002D0284600F092F9700607D55FEACA60E0
:1020800004D52968102044F480640861B00607D59F
:102090005FEA0A7004D528680761284600F08CF9C9
:1020A000F00606D528680069800702D0284600F0AF
:1020B00084F9B00308D55FEAC96005D52968102006
:1020C0004860284600F07AF9F00307D55FEA097006
:1020D00004D528684760284600F0A4F9300446D5A6
:1020E0005FEA497040D5F00504D55FEAC87001D0B9
:1020F00044F00104B00504D55FEA887001D544F0CE
:102100000204700504D55FEA487001D544F0040468
:10211000300529D518F0700F26D008F0700040283F
:1021200015D006DC102809D020280AD0302816D176
:102130000AE050280ED0602811D10EE044F00804C7
:102140000DE044F010040AE044F0200407E044F0FD
:10215000400404E044F0800401E044F48074286802
:10216000816921F070018161296804204860002C98
:1021700005D0686A204368622846FFF78FFEBDE8F5
:10218000F09F70B5040003D094F8200010B104E073
:10219000012070BD204600F081F82068016821F020
:1021A0000201016000F058FC0546052604E000F03D
:1021B00053FC401B0A2811D8206840688007F6D4D9
:1021C0002068016841F00101016000F045FC05460E
:1021D0000BE000F041FC401B0A2806D9606A40F47D
:1021E0000030606284F82060D2E720684068C00751
:1021F000EFD0207E0128206801683DD021F08001C9
:102200000160607E01282068016838D021F040011B
:102210000160A07E01282068016833D021F02001F0
:102220000160E07E0128206801682ED041F0100195
:102230000160207F01282068016829D021F0080171
:102240000160607F01282068016824D021F004012A
:102250000160D4E902010843D4E9041211430843A0
:102260006168491E08432168C8610020606201203E
:1022700084F82000002070BD41F08001C0E741F0EB
:102280004001C5E741F02001CAE721F01001CFE786
:1022900041F00801D4E741F00401D9E7F0B587B077
:1022A000044614216846FEF7C9F9364B3648DFF874
:1022B000D0E01968D4F800C0334A03250226092764
:1022C00010300024491CF44522D11960012907D19E
:1022D000016841F000710160006800F00070059035
:1022E000106840F0080010601068CDE9005600F05A
:1022F0000800CDE9047069462448CDE9024500F0A4
:10230000C3FA00221146142000F03EFC142032E0F3
:10231000DFF87CE0F44530D1D0F800C04CF0806CA0
:10232000C0F800C0D0F800C001290CF0806CCDF8D6
:1023300014C0196007D1016841F0007101600068A4
:1023400000F000700590106840F002001060106806
:1023500002AB00F0020005906020CDE9000683E8A2
:10236000B00069460B4800F08FFA00221146402069
:1023700000F00AFC402000F0F9FB07B0F0BD0000BF
:10238000006400404C00002030380240000C024045
:10239000006800400004024070470000044A0168E1
:1023A000914202D0034A914201D1FEF7C3BC70476B
:1023B00000640040006800407047704770470000AC
:1023C00070B5044690F82000012804D0606A40F4FB
:1023D0000020606218E0022084F820002068016874
:1023E00021F00101016000F037FB05460EE000BF5F
:1023F00000F032FB401B0A2808D9606A40F4003024
:102400006062052084F82000012070BD20684068CB
:10241000C007EDD1606270BD70477047704770476C
:1024200070477047704770B54379012B1AD0012669
:1024300046710223037105682C6840F6FE739340D1
:102440009C43D1E900310B43934023432B60016847
:102450000B68C0249440A3430B60067100214171B6
:10246000084670BD022070BD70B5040003D020790D
:10247000002510B105E0012070BD6571204600F017
:1024800007F802202071256101202071002070BD15
:1024900010B586B0044614216846FEF7CFF81149FE
:1024A000206888421CD110480021026842F0005286
:1024B0000260006800F0005005900B481038026878
:1024C00042F001020260006800F001000590102057
:1024D00000900320CDE901016946044800F0D4F9D9
:1024E00006B010BD007400404038024000000240B9
:1024F00030B54279012A16D00122427102230371BC
:1025000003681D6802FA01F425431D600029016873
:102510000B680AD00C6803F4802304F46014B3F54C
:10252000802F0FD015E0022030BD0C6803F00403AB
:1025300004F03804042B0CD1382C0AD14B6843F03A
:10254000010305E0B4F5601F03D14B6843F00203BB
:102550004B60027100214171084630BD90F8351082
:10256000022903D08021416501207047052180F8B0
:1025700035100068016821F00101016000207047FA
:102580002DE9F84304464FF00009CDF80090634868
:102590004FF41651A56D0068B0FBF1F72E6894F862
:1025A0005C10082000FA01F131420FD021680A685E
:1025B00052070BD50A6822F004020A6094F85C10F6
:1025C0008840A860606D40F00100606594F85C1080
:1025D0004FF0010808FA01F0304208D0216849693B
:1025E000090604D5A860606D40F00200606594F8AB
:1025F0005C1004208840304208D0216809688907AF
:1026000004D5A860606D40F00400606594F85C102B
:1026100010208840304218D021680968090714D575
:10262000A86020680168490304D50068000308D544
:10263000A16C07E00168C90503D4016821F0080115
:102640000160216C09B12046884794F85C10202075
:102650008840304231D021680968C9062DD5A8606C
:1026600094F8350005282068016806D0490347D54D
:10267000006800031DD4616C1CE021F016010160AC
:102680002068416921F080014161206C08B9A06C8B
:1026900020B12068016821F00801016094F85C1005
:1026A0003F208840A86084F8349084F83580216DFC
:1026B0001FE0E16B09B120468847606D00282BD0F0
:1026C000606DC00714D0052084F8350020680168CB
:1026D00021F0010101600098401C0090B84203D82D
:1026E00020680068C007F6D184F8349084F83580FB
:1026F000E16C002910D001B02046BDE8F043084746
:102700000168C905D5D4016821F01001016084F881
:10271000349084F83580CCE7BDE8F8835C00002075
:102720002DE9F041044600F097F906465CB100251A
:1027300084F83450022084F835002068016821F0C4
:10274000010101600DE00120BDE8F08100F084F995
:10275000801B052805D920206065032084F83500FA
:10276000F2E720680068C007F0D1226811682048AD
:102770000140D4E901031843D4E903363343184335
:1027800063691843A3691843E3691843236A18432C
:102790000843616A042903D1D4E90B1319430843A0
:1027A000106020684069666A20F0070130460E43D9
:1027B000012704280CD1A06A0643E06A40B12046F4
:1027C000FEF758FF20B14020606584F83570BAE705
:1027D000206846612046FEF739FF94F85C203F21CF
:1027E00091408160656584F835700020ACE7000099
:1027F0003F8010F02DE9F0410446866D90F83400DA
:10280000002501280DD0012084F8340094F835709B
:102810000020012F07D084F8340002252846BDE8A7
:10282000F0810220FBE7022784F8357060652046BE
:10283000FEF74AFF94F85C103F208840B0602068A3
:10284000016841F016010160206C20B12068016828
:1028500041F0080101602068016841F00101016058
:10286000DCE7000070B5044600F0F6F80546601C91
:1028700002D004480078044400F0EEF8401BA04267
:10288000FAD370BD500000202DE9F84F00224FF020
:10289000010803254FF00F0E0B6808FA02F42340DD
:1028A000A3426ED14E68012E05D0022E03D0112E08
:1028B00001D0122E12D186684FEA420C05FA0CF7AD
:1028C000BE43CF6807FA0CF7374387604668A643D4
:1028D0000C79C4F30014944034434460C668570034
:1028E00005FA07FC8C6826EA0C06BC403443C46039
:1028F0004C68022C01D0122C13D1D40800EB8404B4
:10290000A346D4F8209054074FEAD46A0EFA0AF688
:1029100029EA06090E6906FA0AF646EA0906CBF81C
:10292000206006680C7926EA0C0604F00304BC401B
:10293000344304604C68E40065D5364C266846F4A0
:1029400080462660246822F0030604F48044009444
:10295000314C3444A446D4F808489607370F0EFA91
:1029600007F6B4432D4EB04201D1002624E02C4E90
:10297000B04201D101261FE02A4EB04202D1022608
:102980001AE040E0284EB04201D1032614E0274E61
:10299000B04201D104260FE0254EB04201D10526F8
:1029A0000AE0244EB04201D1062605E0224EB04294
:1029B00001D1072600E00826BE402643CCF808686F
:1029C0001E4E34684F689C43FF0300D51C4334609F
:1029D0001A4C241D26684F689E43BF0300D51E4332
:1029E0002660164E083634684F689C43FF0200D5B7
:1029F0001C433460114E0C3634684F689C43BF0250
:102A000000D51C433460521C102AFFF445AFBDE8CA
:102A1000F88F0000443802400030014000000240BE
:102A20000004024000080240000C02400010024076
:102A30000014024000180240001C0240003C01400B
:102A4000426931EA020200D10904816170470AB18A
:102A5000816170470904FBE7014880687047000006
:102A6000500000200148007870470000500000200E
:102A700000684AF6AA210160002070470248816878
:102A80000278114481607047500000200B4810B557
:102A9000016841F400710160016841F480610160E6
:102AA000016841F480710160032000F08DF800207E
:102AB00000F006F800F03EF8002010BD003C024097
:102AC00010B5014688B000221C2000F05DF81C20E3
:102AD00000F04CF814480024016841F00101016045
:102AE000006805A900F001000690684600F018F99A
:102AF00000F036F90D494000B0FBF1F10C484FF001
:102B00008042491E026040F2E732C0E90324C0E976
:102B1000011400F099FB10B1012008B010BD044869
:102B200000F0D0FBF9E700004038024040420F00BF
:102B3000D00D00200C4882B0016841F48041016052
:102B4000006800F4804000900748001F016841F0D1
:102B5000805101600068002200F0805000900F2139
:102B6000901E02B000F010B844380240002809DB83
:102B700000F01F02012191404009800000F1E02097
:102B8000C0F8001170470000F0B40E4B1B680C46F3
:102B9000C3F30223C3F10705042D00D90425191D31
:102BA000072901D2002300E0DB1E012606FA05F109
:102BB000491E214099409E40761E16403143F0BC8C
:102BC00003F020B90CED00E0064900F007020868A8
:102BD0004FF6FF03184040EA0220034A1043086002
:102BE000704700000CED00E00000FA052DE9F04709
:102BF0000E46050065D0DFF81481D8F80000F7B262
:102C000000F00F00B04207D288F80070D8F800003A
:102C100000F00F00B04254D128683D4C810712D516
:102C2000400703D5206840F4E05020602878000772
:102C300003D5206840F4604020602068A96820F037
:102C4000F000084320602878C0072DD0304968681C
:102C50000839012812D0022813D0032811D009689E
:102C6000890700292DDA216821F003010143216041
:102C7000FFF7F2FE814641F2883A0EE009688903C7
:102C8000EFE709688901ECE7FFF7E6FEA0EB090131
:102C9000514502D90320BDE8F0872068696800F03B
:102CA0000C00B0EB810FEFD1D8F80010404601F0D6
:102CB0000F01B14207D90770006800F00F00B04261
:102CC00001D00120E7E72878400705D52068E968AA
:102CD00020F4E050084320602878000706D52068DB
:102CE000296920F4604040EAC100206000F058F8F3
:102CF0002168084AC1F30311515CC84006490860C5
:102D000006480068FFF7DCFE0020C4E7003C0240F4
:102D10000838024030EE00085C000020540000201B
:102D20000F2202600C4A136803F003034360136828
:102D300003F0F0038360136803F4E053C360126888
:102D40004FF4E05303EAD20202610448006800F045
:102D50000F0008607047000008380240003C024045
:102D60000448054900680968044AC1F38221515C9E
:102D7000C84070475C0000200838024040EE000860
:102D80000448054900680968044AC1F34231515CAE
:102D9000C84070475C0000200838024040EE000840
:102DA000154810B5006810F00C02144813D01449EF
:102DB000042A0FD0082A0ED10F4C241F2268236842
:102DC00002F03F025B0207D52068C0F38810A0FB29
:102DD000010106E0084610BD2168C1F38811A1FB7E
:102DE00000010023FDF71AFB2168C1F30141491CD2
:102DF0004900B0FBF1F010BD083802400024F40097
:102E000040787D012DE9F84F04006ED02078DFF87E
:102E10003C93C007A9F104054AD009F104000168F8
:102E2000C1F38101012908D00068C0F381000228A4
:102E30000AD1D9F80000400206D52868800337D5AA
:102E400060680028E1D033E06068B0F5803F10D0C2
:102E5000B0F5A02F286810D020F4803028602868B2
:102E600020F4802028606068A8B1FFF7F5FD0646D1
:102E70000DE0286840F48030F4E740F480202860BA
:102E8000F7E700BFFFF7E8FD801B642873D82868C8
:102E90008003F7D50CE0FFF7DFFD064605E000BF35
:102EA000FFF7DAFD801B6428F0D828688003F7D488
:102EB0002078DFF89C8280074FF0000A3ED5A348B7
:102EC000001D016811F00C0F08D00068C0F38100EC
:102ED00002280BD1D9F80000400207D428688007E7
:102EE00016D5E068012800D112E02BE1E068B8B106
:102EF0000120C8F80000FFF7AFFD064605E000BF5F
:102F0000FFF7AAFD801B0228C0D828688007F7D5E4
:102F10002868216920F0F80040EAC10028600DE02F
:102F2000C8F800A0FFF798FD064604E0FFF794FDFF
:102F3000801B02281FD828688007F7D42078000754
:102F400022D5824E83486169703671B101210160DA
:102F5000FFF782FD074604E0FFF77EFDC01B022855
:102F600009D830688007F7D50EE0C0F800A0FFF759
:102F700073FD074605E082E0FFF76EFDC01B0228E7
:102F80007DD830688007F7D42078400768D5DFF80F
:102F9000BCB100270BF13C0BDBF80000C0000BD4E8
:102FA000DBF8001041F08051CBF80010DBF8000096
:102FB000012700F080500090674E3068C00510D4A3
:102FC000306840F480703060FFF746FD009005E007
:102FD000FFF742FD0099401A022850D83068C0051A
:102FE000F6D55A4EA0686C3601280FD005283068F7
:102FF00010D020F001003060306820F00400306014
:10300000A068B8B1FFF728FD00900FE0306840F0ED
:103010000100F4E740F004003060F7E7FFF71CFD23
:103020000099411A41F28830814266D830688007A1
:10303000F4D50EE0FFF710FD009007E0FFF70CFD60
:103040000099411A41F28830814256D83068800791
:10305000F4D42FB1DBF8001021F08051CBF8001030
:10306000A069C8B33949091D0968C1F38101022962
:103070004AD00228504607D0C8F8600000E03CE083
:10308000FFF7EAFC04463BE04746C8F86000FFF75C
:10309000E3FC064605E000BFFFF7DEFC801B0228CC
:1030A0002BD828688001F7D4D4E907010843A16A26
:1030B0002A4A490802EB0141626A41EA8211084347
:1030C00094F82C1040EA0161C9F80010012038661C
:1030D000FFF7C2FC044606E036E000BFFFF7BCFC89
:1030E000001B022809D828688001F7D52CE000BF12
:1030F000FFF7B2FC001B022802D90320BDE8F88FBD
:1031000028688001F4D41FE00128F7D0D9F8000026
:10311000E26900F48001914214D1226A00F03F017B
:1031200091420FD147F6C071626A0140914209D1C4
:10313000A26A00F44031914204D1E16A00F070606B
:10314000884201D00120D9E70020D7E704380240A7
:1031500000004742800E4742007000400000FFFF21
:103160007047704710B590F83C20012A22D0012208
:1031700080F83C20CA688C6822F4407222434C6874
:1031800022F4806222430C6822F4006222430C691C
:1031900022F4805222434C6922F400522243C9692E
:1031A000002322F480420A4301684A6480F83C30DC
:1031B000002010BD022010BD70B590F83C20012AFF
:1031C00032D0012480F83C40022280F83D20036880
:1031D0005A689D6822F070060A6832435A60134BA1
:1031E00002689A4214D0B2F1804F11D0104B9A422B
:1031F0000ED0104B9A420BD00F4B9A4208D00F4B77
:103200009A4205D00E4B9A4202D00E4B9A4204D1FC
:10321000496825F080031943916080F83D40002102
:1032200080F83C10084670BD022070BD00000140CF
:103230000004004000080040000C00400004014071
:10324000004001400018004010B5040003D094F87D
:103250003D0010B107E0012010BD002084F83C00C3
:10326000204600F00DF8022084F83D00211D206862
:1032700002F0ECF8012084F83D00002010BD0000B1
:1032800008B500680C49884208D10C48016841F033
:1032900001010160006800F001000BE0084988426C
:1032A00009D10648001F016841F002010160006871
:1032B00000F00200009008BD0000014044380240C8
:1032C000000400400168CA6842F00102CA60006858
:1032D000816801F00701062903D0016841F001016E
:1032E00001600020704770B5044690F83C0001284A
:1032F00017D0012584F83C50022084F83D00206856
:10330000826822F0770222F47F42826008685028A7
:1033100030D00DDC20284DD005DC98B310283BD1EF
:1033200048E0022070BD302844D0402834D139E034
:10333000602828D0702806D0B0F5805F2CD0B0F57A
:10334000005F29D10AE0CB68D1E90121206802F0B1
:10335000EEF82068816841F0770109E0CB68D1E997
:103360000121206802F0E3F82068816841F480417F
:10337000816011E0CA684968206802F0ADF9502107
:10338000206807E016E0CA684968206802F0B5F9CD
:103390006021206802F0D5F884F83D50002084F8C0
:1033A0003C0070BDCA684968206802F095F9402168
:1033B0002068EFE7226801461046EBE7704770B5DA
:1033C0000446006801694FF00005C943890715D418
:1033D000C168C943890711D4E91E01610120207722
:1033E000206880698007204602D0FFF7E7FF04E0ED
:1033F00000F0DAF8204600F05CF9257720680169D2
:10340000C943490717D4C168C943490713D46FF0AA
:1034100004010161022020772068806910F4407F58
:10342000204602D0FFF7CAFF04E000F0BDF82046B6
:1034300000F03FF9257720680169C943090716D4D0
:10344000C168C943090712D46FF008010161042063
:1034500020772068C0698007204602D0FFF7AEFFC2
:1034600004E000F0A1F8204600F023F92577206859
:103470000169C943C90617D4C168C943C90613D431
:103480006FF010010161082020772068C06910F4F6
:10349000407F204602D0FFF791FF04E000F084F85F
:1034A000204600F006F9257720680169C943C9075D
:1034B00008D1C168C943C90704D1891E01612046EA
:1034C00000F01AF920680169C943090609D4C168E6
:1034D000C943090605D46FF0800101612046FFF75A
:1034E0003FFE20680169C943490609D4C168C94340
:1034F000490605D46FF040010161204600F003F950
:1035000020680169C94389060BD4C168C94389068B
:1035100007D46FF0200101612046BDE87040FFF73D
:1035200020BE70BD10B586B0044614216846FDF774
:1035300085F82368174C002117480222A34211D1B5
:10354000036843F010030360006800F0100005906A
:1035500090020090CDE901210120CDE903106946D8
:103560000E4812E00E4CA34211D1036843F0010350
:103570000360006800F001000590C0200090CDE9D4
:103580000121CDE9031269460648FFF77DF906B02F
:1035900010BD000000000140303802400010024021
:1035A0000004004000000240704770B5044690F8E7
:1035B0003C000D4601280DD0012684F83C60022015
:1035C00084F83D0042B1042A18D0082A2AD00C2AD7
:1035D0004DD139E0022070BD206801F0BBFF2068AA
:1035E000816941F0080181612068816921F004014D
:1035F0008161206881692A69114311E0206801F026
:10360000D9FF2068816941F4006181612068816986
:1036100021F480618161206881692A6941EA02217F
:10362000816124E0206801F0FBFF2068C16941F05E
:103630000801C1612068C16921F00401C1612068ED
:10364000C1692A69114311E0206802F01DF8206861
:10365000C16941F40061C1612068C16921F48061E0
:10366000C1612068C1692A6941EA0221C16184F807
:103670003D60002084F83C0070BD10B5040003D00C
:1036800094F83D0010B107E0012010BD002084F83F
:103690003C00204600F00CF8022084F83D00211D7B
:1036A000206801F0D3FE012084F83D00002010BD09
:1036B0007047704710B504460068012201F02AFFE8
:1036C0000B492068884202D00A49884203D1416CE4
:1036D00041F4004141642068816801F00701062936
:1036E00003D0016841F001010160002010BD00001D
:1036F00000000140000401400068B0F1804F01D19A
:10370000FFF7BCB9704770477047000070B502689A
:1037100004461068D168536910F00F0F52D003F0BF
:10372000010501F490762E435FD0C20705D0CA058B
:1037300003D5E26B42F00102E263420705D5DA07E6
:1037400003D0E26B42F00202E263820705D5DA079A
:1037500003D0E26B42F00402E263020707D501F0F6
:1037600020022A4303D0E26B42F00802E263E26BDC
:10377000002A33D0800604D5880602D5204602F000
:1037800047F820684069E16BC0F38010090700D456
:1037900028B3204602F025F82068416949061AD569
:1037A000416921F040014161606BA0B11B49016595
:1037B000606BFEF7D3FE002810D0606B016DBDE892
:1037C00070400847830610D58B060ED52046BDE80D
:1037D000704002F01DB82046FFF796FF70BD2046EE
:1037E000FFF792FF0020E06370BD030606D50B06CD
:1037F00004D52046BDE8704002F0EAB84006F3D593
:103800004806F1D5D168204621F04001D160202141
:1038100084F8391000F04CFA70BD000051570008D0
:1038200070B5040004D094F83900002510B106E00A
:10383000012070BD84F83850204600F023F8242081
:1038400084F839002068C16821F40051C160204625
:1038500002F02AF82068016921F490410161206892
:10386000416921F02A0141612068C16841F4005199
:10387000C160E563202084F8390084F83A00002014
:1038800070BD00002DE9F04F87B005461421684651
:10389000FCF7D4FED748DFF858830221D5F800C0E2
:1038A000D44A103803260123DFF84CE300248F06A6
:1038B0004FF0080B4FF480694FF4807AC44535D13E
:1038C000D2F800C04CF4002CC2F800C0126802F418
:1038D00000220592026842F0010202600068CDE910
:1038E000006100F00100CDE904B0CDE9023669467F
:1038F0007046FEF7C9FFC24EC0483060C6E9017489
:10390000C6E903497461C6E9064A34623046746206
:10391000FEF706FF08B1FDF7B9FF6E6300221146FE
:103920003420B563FFF730F9342076E0DFF8D48235
:10393000C44578D1D2F800C04CF4801CC2F800C055
:10394000126802F480120592026842F004020260DA
:10395000026802F004020592026842F00802026066
:103960000068984600F0080005904FF480500090E1
:103970000220CDE90103CDE9036B6946A248FEF7B9
:1039800083FF042000900220CDE90108CDE9036BFC
:1039900069469E48FEF778FFDFF86482974908F190
:1039A00060084046303902C0BB46E0E80274564623
:1039B000E0E803494FF4403740F8044C80E8D00079
:1039C0004046C8F82440FEF7ABFE08B1FDF75EFFA5
:1039D000C5F83480C8F83850DFF82482874908F1E8
:1039E000C00840467831E0E8021B4021A0E81202FE
:1039F00010C080E8D0004046C8F82440FEF790FE92
:103A000008B1FDF743FFC5F830800022114635208C
:103A1000C8F83850FFF7B8F83520FFF7A7F807B017
:103A2000BDE8F08FFFE77A4B4FF007089C4536D191
:103A3000704A121D136843F010031360126802F0FD
:103A400010020592026842F001020260006800F074
:103A5000010005904FF4C0608DE85301694670463F
:103A6000FEF712FF6C4E6B483060C6E90174C6E980
:103A700003497461C6E9064A4FF48030C6E9080478
:103A80003046FEF74DFE08B1FDF700FF6E630022E1
:103A900011462520B563FFF777F82520BDE75F4B7A
:103AA0009C454BD1136843F400331360126802F451
:103AB00000320592026842F001020260026802F0E0
:103AC00001020592026842F0080202600068CDF827
:103AD00000B000F00800CDE90480CDE902468B4635
:103AE000019169467046FEF7CFFE2020CDE9000B1C
:103AF00002AB694683E850014448FEF7C5FE464ED6
:103B00003E48603648303060C6E90174C6E9034972
:103B10007461C6E9064A4FF44030C6E908043046ED
:103B2000FEF7FEFD08B1FDF7B1FE6E6300221146FF
:103B30002620B563FFF728F826206EE7384B9C4512
:103B40007FF46DAF136843F480231360126802F4AE
:103B500080220592026842F002020260006800F0D2
:103B6000020005904FF440608DE8530169462D48EE
:103B7000FEF78AFEDFF8A080204908F1C008404621
:103B80001831E0E8021740214E4652C04FF4003988
:103B900040F81449BB46C0F82090C0E9064A4046A8
:103BA000C8F82440FEF7BCFD08B1FDF76FFE1348CE
:103BB0001D4FC5F830801838C8F838503860C7E94C
:103BC00001B4C7E903467C61C7E9064AC7E908941E
:103BD0003846FEF7A5FD08B1FDF758FE6F630022D9
:103BE00011462720BD63FEF7CFFF272015E7000011
:103BF000004C00404038024000000240406002405B
:103C0000300B00200050004000080240000C024031
:103C10000010014040640240500C0020004400406D
:103C20000048004000040240700D00207047000072
:103C300070B5044690F83900202830D169B362B3DA
:103C400094F8380001282AD0012084F83800216235
:103C5000A284E2840025E563212084F83900236BE7
:103C60001048D863236B10481864236B0F48D8643E
:103C7000206B134605652668206B321DFEF7BAFDE2
:103C800021686FF04000086084F83850206841696E
:103C900041F080014161002070BD012070BD022013
:103CA00070BD0000AB570008D957000861570008E5
:103CB00070477047012080F31388BFF34F8F05488A
:103CC0000168054A01F4E06111430160BFF34F8FC1
:103CD00000BFFDE70CED00E00400FA0515491448AB
:103CE0000968B0F870008A7B00B2002A1FD1097DF4
:103CF00000291CD110494A6892F8221092F821201C
:103D0000914214D051B101290BD002290CD00329C2
:103D10000DD142F27061064800F06CBA46F2706153
:103D2000F9E74AF27061F6E74EF27061F3E7704727
:103D300038030020D45000201002002070B50D4C34
:103D40000025C4F8B4520C48016821F040410160DC
:103D5000016841F080410160C4F8BC52022004F5C2
:103D60002D7404F051FD01202060022004F04CFD70
:103D7000256070BD008040420004024070B50D4CCB
:103D80000025C4F8B4520C48016821F0404101609C
:103D9000016841F0804101600126C4F8BC62022044
:103DA00004F52D7404F030FD2660022004F02CFD93
:103DB000256070BD00804042000402402DE9F047BC
:103DC000814616480024016821F0404101600168E5
:103DD0000160134E254627464FF00108C6F8B4721D
:103DE000022004F011FDC6F8B4826006040ED6F875
:103DF0003C0208B1641CE4B2012004F005FD6D1C16
:103E0000EDB2082DEAD3B9F1000F04D0FFF796FF09
:103E10002046BDE8F087FFF7B1FFF9E70004024054
:103E2000008040422DE9F04106461448016821F027
:103E300040410160016841F080410160104C002761
:103E4000C4F8B4723D464FF00108F009C4F8BC0252
:103E50007006060E022004F0D7FCC4F8B4820220DB
:103E600004F0D2FCC4F8B472022004F0CDFC6D1C46
:103E7000EDB2082DE9D3BDE8F08100000004024056
:103E80000080404270B50D48016821F0404101605A
:103E9000016841F080410160094C0120C4F8BC0276
:103EA000C4F8B402042004F52D7404F0ADFC002520
:103EB000A560042004F0A8FC256070BD0004024049
:103EC000008040420E4810B5016821F04041016079
:103ED000016841F0804101600A4C0020C4F8B4023E
:103EE000C4F8BC02042004F52D7404F08DFC0120FC
:103EF0002060A060BDE81040042004F085BC0000F4
:103F0000000402400080404270B51248002401685D
:103F100021F040410160016801600F4D0126C5F8A4
:103F2000BC62304604F070FCC5F8B462012004F0B5
:103F30006BFC07E0641CE4B2FA2C03D9FFF7C2FF64
:103F4000012070BDD5F83C020028F3D1C5F8B402B9
:103F500070BD00000004024000804042F7EE001AED
:103F600021EE000A31EEC11A01EE200A704705F079
:103F7000ABFF042006F034FCF9E7000000B501882F
:103F800089B0090A8DF8001001788DF80110418878
:103F900008AB090A8DF8021081788DF80310418969
:103FA0006A46090A8DF80410817A8DF80510818916
:103FB000090A8DF80610007B8DF80700F1200290A9
:103FC0000020049005900820069002A90248FDF701
:103FD00071FE09B000BD0000280900202DE9F05F46
:103FE0006D4C206807F096F9206803F042F82068CD
:103FF00003F08AF82668694FF07A357BA84204D02E
:10400000022D02D1397849423970A84204D0012DDD
:1040100002D178784042787060686149614A84785A
:104020000220614B4FF0000C012C0CD05F4C84F847
:1040300009C084F813C082F82A0083F82A0081F8A6
:1040400001C0BDE8F09F96F809800124DFF860B157
:104050004FF0030A4FF42579B8F1020F22D00A2756
:10406000B8F1030F51D0B8F1010FEAD10524DFF800
:1040700044914FF00708032D63D0012D6DD0022D20
:10408000DFD14C7082F82AC083F82AC0B07C0328A4
:104090007BD00128D5D1186800684169A1F510418D
:1040A0004161CEE782F82A0083F82A00327B012A98
:1040B0000CD0022A0DD0032AC3D1B8784870B6F9C3
:1040C000100058451CD187F802A0BAE704204870B8
:1040D000B7E74870B07C032801D00128B1D181F83E
:1040E00001C000F00BFE00231A461946184600F0E6
:1040F000B1FC1420FEF7B6FB84F3138801F092FEA6
:1041000048459ED10920B8709BE7012D23D0032D8F
:1041100003D0022D95D108241BE006254D70B6F979
:104120001010494503D182F82A4083F82A40B6F995
:104130001010594585D100BF82F82A0083F82A0063
:104140007FE7D9F800506D78012D02D0022D02D002
:104150000AE04C70F0E74F70EEE7174D4C706D6859
:1041600095F82950042D02D081F80180E4E782F807
:104170002AA083F82AA0D9F800004078012805D0A9
:10418000022805D081F801805BE703E04C7058E716
:104190004F7056E710687FE70C000020DC0100201C
:1041A00029000020E8520020145300207050002005
:1041B0006CFDFFFFD45000201002002070B50B4CA6
:1041C000A121002521736573A573E5732074000A8E
:1041D0006074A574E57404F10C0240F241110448C6
:1041E000FCF70AFEE560256170BD00002403002095
:1041F0000009002000680068C08A081A0849B1F95F
:10420000001000EBC10010F5004F02DA00F580301D
:1042100004E0B0F5004F01DDA0F5803000B270473A
:104220007C02002070B50546FFF72CFE0F4C20786D
:104230004006000EFFF7F6FDFFF766FE2846FFF783
:10424000F1FDFFF761FEFFF71DFE2078012101EB74
:104250004000C0B2FFF7E6FDFFF756FE0020FFF773
:10426000ADFD0446FFF72EFE204670BD3C01002048
:104270002DE9F04116460D460746FFF703FE134CA5
:1042800020784006000EFFF7CDFDFFF73DFE3846D3
:10429000FFF7C8FDFFF738FEFFF7F4FD2078012196
:1042A00001EB4000C0B2FFF7BDFDFFF72DFE00247B
:1042B00006E00120FFF782FD641C05F8010BE4B263
:1042C000B442F6D3BDE8F041FFF7FCBD3C0100204D
:1042D0007FB5002415480094019402941249039478
:1042E00001604FF48031C0E901140461047680F864
:1042F00020400F49C0E90A140125C561C46080F857
:1043000030404561FDF76AFC08B1FDF7BFFA0A20AD
:10431000CDE90005694602940448FDF7B9FB002881
:1043200001D0FDF7B3FA7FBD00200140B80800209E
:104330000100000F104810B50E49016003214160D3
:1043400000214FF400228160C0E903124FF44012B3
:104350004261017641768176C1760177012141770C
:10436000FDF70FFF002803D0BDE81040FDF78EBA1F
:1043700010BD00000064004000090020104810B586
:104380000E4901600321416000214FF40022816049
:10439000C0E903124FF44012426101764176817602
:1043A000C176017701214177FDF7EBFE002803D0AC
:1043B000BDE81040FDF76ABA10BD0000006800407B
:1043C000280900201CB500240C4900940A480194D7
:1043D00008600846FEF748F808B1FDF757FA0220D2
:1043E000CDE90040002269460448FEF71CF8002889
:1043F00001D0FDF74BFA1CBD0074004050090020AD
:10440000254808B5016841F400110160016801F414
:1044100000110091016841F48001016000680022F0
:1044200000F48000009011460B20FEF7ADFB0B203E
:10443000FEF79CFB002211460C20FEF7A5FB0C208A
:10444000FEF794FB002211460D20FEF79DFB0D2088
:10445000FEF78CFB002211460E20FEF795FB0E2086
:10446000FEF784FB002211461020FEF78DFB102082
:10447000FEF77CFB002211462F20FEF785FB2F2044
:10448000FEF774FB002211463A20FEF77DFBBDE8E3
:1044900008403A20FEF76ABB3038024010B5B8B089
:1044A0001C222C496846FCF775F80021684606F086
:1044B000A3F9294C27491C2220601C3107A8FCF7CE
:1044C00069F8002107A806F097F9224960601C22CC
:1044D00038310EA8FCF75EF800210EA806F08CF922
:1044E0001C49A0601C22543115A8FCF753F8002188
:1044F00015A806F081F91749E0601C2270311CA84C
:10450000FCF748F800211CA806F076F91149206153
:104510001C228C3123A8FCF73DF8002123A806F0CB
:104520006BF90C4960611C22A8312AA8FCF732F80B
:1045300000212AA806F060F90649A0611C22C431B6
:1045400031A8FCF727F8002131A806F055F9E06101
:1045500038B010BD48ED00082C0000202DE9F04FC8
:1045600087B014216846FCF769F8434800240168C5
:1045700041F004010160016801F004010591016846
:1045800041F080010160016801F08001059101683E
:1045900041F001010160016801F00101059101682C
:1045A00041F010010160016801F0100105910168FE
:1045B00041F002010160016801F00201059101680A
:1045C00041F0080101600068DFF8B09000F00800D9
:1045D0004FF4D8450590012229464846FEF737FAA0
:1045E000002208214846FEF732FADFF894A00022A4
:1045F00024215046FEF72BFADFF888B04FF420470D
:10460000012239465846FEF722FA4FF4007801227B
:1046100041461D48FEF71BFA00950125CDE90154DE
:10462000694648460394FEF72FF908200326CDE992
:104630000005CDE9024669464846FEF725F92420E3
:10464000CDE90005CDE9024669465046FEF71CF962
:1046500000970396CDE9015469465846FEF714F9D0
:10466000CDF80080CDE90154694607480394FEF770
:104670000BF907B0BDE8F08F303802400008024067
:104680000000024000040240000C024010B596B049
:1046900000240F9410941194129413941C2108A8D0
:1046A0001494FBF7CBFF20216846FBF7C7FF29488E
:1046B0002749016040F61F51C0E9011440F2E7317B
:1046C000C0E9031444618461FEF7BEFD08B1FDF743
:1046D000DDF84FF480500F900FA91E48FEF703FE3F
:1046E00008B1FDF7D3F81B48FEF7C7FF08B1FDF787
:1046F000CDF8139413A917481494FEF75DFD08B183
:10470000FDF7C4F86020CDE908040A940B940C94DA
:104710000D94042208A90F480E94FEF746FF08B135
:10472000FDF7B4F800944FF40050CDE90440029432
:1047300001940394694607480794FEF713FD08B1F6
:10474000FDF7A4F80348FEF7EDFE16B010BD00001B
:10475000000001407009002010B58EB000240794BD
:10476000089409940A940B941C2168460C94FBF756
:1047700065FF2248204901605321C0E9011440F639
:10478000C311C0E903148461FEF75EFD08B1FDF7B3
:104790007DF84FF48050079007A91848FEF7A3FD55
:1047A00008B1FDF773F81548FEF767FF08B1FDF78C
:1047B0006DF80B940BA911480C94FEF7FDFC08B1A1
:1047C000FDF764F86020CDE90004029400226946F8
:1047D0000A480494FEF7E9FE08B1FDF757F80422F1
:1047E00069460648FEF7E1FE08B1FDF74FF80348B9
:1047F000FEF798FE0EB010BD00040040B009002086
:104800000C4810B50A4901604FF4E13141600021C4
:1048100081600C22C160C0E904128161C161FEF7B0
:10482000FFFF002803D0BDE81040FDF72FB810BDF2
:10483000004C0040F00900200C4810B50A49016006
:104840004FF4E1314160002181600C22C160C0E978
:1048500004128161C161FEF7E3FF002803D0BDE8C7
:104860001040FDF713B810BD00500040300A002082
:104870000C4810B50A4901604FF4E1214160002164
:1048800081600C22C160C0E904128161C161FEF740
:10489000C7FF002803D0BDE81040FCF7F7BF10BDEC
:1048A00000100140700A00200C4810B50A49016050
:1048B0000B494160002181600C22C160C0E90412F3
:1048C0008161C161FEF7ACFF002803D0BDE8104054
:1048D000FCF7DCBF10BD000000440040B00A00201F
:1048E000A08601000C4810B50A4901604FF4E1218F
:1048F0004160002181600C22C160C0E90412816125
:10490000C161FEF78DFF002803D0BDE81040FCF721
:10491000BDBF10BD00480040F00A002030B590F83F
:10492000201019234A1C80F8202000220124192974
:1049300004D380F8222080F8203001E080F8224063
:1049400090F825104D1C80F82550192904D380F8C3
:10495000272080F8253030BD80F8274030BD002169
:1049600020F8081B192220F8061C4180818002765D
:104970004276817642778277C1777047FEE7000002
:1049800030B504681C49238811F81C2F2280046864
:10499000120222804D7804682A43228004688A78B3
:1049A0006280046812026280CD7804682A436280C3
:1049B00004680A79A28004681202A2804D79046812
:1049C0002A43A28002688979D18002681188C91AB5
:1049D00009B25181006801F58052B2F5005F09D932
:1049E000002901DD012201E04FF0FF32524201EBCC
:1049F0004231418130BD0000244B002042681178D3
:104A00004B1C137042685378994205D30021917072
:104A1000406841780170704701209070704770B510
:104A200004460160084615462021FBF707FE0020DA
:104A30006560A870626819211170626851702081E8
:104A40002168088221680880216848612168C8615E
:104A500070BD000010B58AB0040A8DF800408DF8D2
:104A60000100080A8DF80200100A8DF804008DF884
:104A70000520180A8DF806004FF4007002908DF89A
:104A8000031000208DF80730049005900820069050
:104A900008AB6A4602A90248FDF70CF90AB010BD3E
:104AA0000009002000B589B0020A8DF800208DF8B9
:104AB0000100080A8DF802000F488DF8031008ABBA
:104AC000017A8DF80410817C8DF80510417A8DF8FB
:104AD0000610C07C8DF807004FF400700290002093
:104AE00004900590082006906A4602A90348FDF745
:104AF000E1F809B000BD0000705000202809002036
:104B000010B51349036811F81C2F1A8003681202AC
:104B10001A804C78036822431A8003688A785A8086
:104B2000036812025A80CC78036822435A800368D3
:104B30000A799A80036812029A804C7903682243AA
:104B40009A8002688979D18040680021017010BD87
:104B5000004B0020426811784B1C13704268537858
:104B6000994205D3002191704068417801707047E7
:104B700001209070704770B50446016008461546E4
:104B80000E21FBF739FD00206560A87062681921CD
:104B9000117062685170208170BD000070B51C48B2
:104BA0001D4C2DED028BB0F904501A4890ED008A8F
:104BB0002068806809F078FD9FED180B53EC102BEE
:104BC00009F086FD09F0B0FA00EE900AB0EE480A4E
:104BD000144805F01DFFBDEEC00A206880ED030AF1
:104BE000F8EEC00A00EE105A0E48B8EEC00AD838E7
:104BF00005F02CFEBDEEC00A216810EE100A00B2CE
:104C00000882BDEC028BBDE87040FFF7D7BA000008
:104C10007C020020E80000202403002000000000A7
:104C20000000C03F7C5200200848426811784B1CAD
:104C3000137042685378994204D31370406800217E
:104C4000817070470120907070470000240300209D
:104C500010B5DFED210A4FF47A732DED028BB0EE23
:104C6000601A9FED1E0A5A0003211D4800F09CF9AE
:104C70009FED1C8A1A4841F28834B0EE001AF0EE1B
:104C8000480A9FED190A0023224603216C3000F0E8
:104C90008BF91348B0EE001AF0EE480AB9EE040A98
:104CA000002322460321D83000F07EF910490F4836
:104CB000104A114B81E80D0003688360B0F904309D
:104CC000C36019201070507000209070C860086197
:104CD000BDEC028B10BD0000000000009A9999BF46
:104CE000A45100206F12833A666666BFC00300209D
:104CF0002403002014000020170000200020FFF7EC
:104D00005DBA000010B5184C16482168808888806C
:104D1000206890ED020AC08AF8EE400A00EE100A00
:104D20001248B8EE400A05F039FFBDEEC00A20680F
:104D300080ED030A2068F8EEC00AB0F9040000EE26
:104D4000100A0A48B8EEC00A6C3805F07FFDBDEEC7
:104D5000C00A216810EE100A00B20882BDE81040B7
:104D6000FFF72CBA7C020020240300201052002000
:104D700070B50A4C8820002520736573A573E57310
:104D800025746574A574E57404F10C0240F24111B8
:104D90000348FCF731F8E560256170BD240300206D
:104DA0000009002010B52E49027800234C68942A8F
:104DB00023703BD018DC302A03D0312A01D0322AAC
:104DC00011D18B6882781A708B68C2785A708B68A0
:104DD00002799A708B684279DA708B6882791A71DD
:104DE0008968C079487110BDA12A01D0A22AFAD1E0
:104DF0000B6842789A74C2780B6812029A8284789F
:104E000022439A8242799A800B6812029A8004792E
:104E10000B6822439A80C3790A684FF6FF7101EA52
:104E20000321D18280790143D18210BD0B68C27900
:104E30001A600B6812021A6084790B6822431A60A8
:104E40000B6812021A6044790B6822431A600B68DF
:104E500012021A600968007902430A6010BD00005E
:104E60002403002070B5174C15482168B0F9045090
:104E7000B0F9000091ED020AF8EE400A00EE100AC7
:104E80001148B8EEC00A05F0C3FDBDEEC00A2068A7
:104E900080ED030AF8EEC00A00EE105A0A48B8EE98
:104EA000C00AD83805F0D2FCBDEEC00A216810EE69
:104EB000100A00B20882BDE87040FFF77FB9000019
:104EC0007C020020240300207C52002010B5104CEE
:104ED000FBF7C6FDB4F900104A1C228064290FDBE1
:104EE000012080F31388BFF34F8F0A4801680A4AF4
:104EF00001F4E06111430160BFF34F8F00BFFDE794
:104F00000028E5D1BDE810404FF4FA60FDF7AABCD7
:104F1000C80000200CED00E00400FA057047000016
:104F200010B504460078A5280BD10321204600F0D7
:104F30005DFE012805D11921204600F039FE012827
:104F400001D0002010BD192221461648FBF7DDFADA
:104F5000144840F6B8314A42B0F903308B4202DBC4
:104F6000A0F8031003E0934201DCA0F80320B0F99D
:104F700005308B4202DBA0F8051003E0934201DC10
:104F8000A0F80520427B9621962A01D3A0F80510AF
:104F9000C27C962A00D3C17402490020383188842B
:104FA000012010BD2051002030B4034C4466034C56
:104FB000846630BC05F0CEBE55AD000863AD000878
:104FC00010B500210948FEF775FB04210748FEF7DC
:104FD00071FB00210846FCF75BFC04210448FEF746
:104FE00069FB04490020886310BD0000B00900205F
:104FF000700900200000014010B50F4AB0F90210FE
:1050000041F63804B2F90830E31A994201DD002371
:1050100007E0B2F90A3041F20B242344994201DA45
:1050200001235370527822B1012A01D1C91D418058
:1050300010BDC91FFBE70000B00100200E4AB0F907
:105040000C10B2F90430A3F67A535B42994201DDA9
:10505000002306E0B2F9063003F60413994201DAA0
:1050600001231370127822B1012A01D1C91D818157
:105070007047C91FFBE70000B001002041680A88A3
:10508000521C12B20A8041681E2A05DB00228A7077
:1050900040681E210180704701208870704710B55C
:1050A0000446B0F9220000EE100A2068F8EEC00AAB
:1050B0000068B0F9020000EE100A2069B8EEC00ADC
:1050C00005F0C4FBBDEEC00A216810EE100A08818D
:1050D00010BD00002DE9F0475649554AA1F11800CE
:1050E0002DED028BFFF79BFC9FED538A514840F654
:1050F000B83642F24867B0EE481AF0EE480AB1EE10
:105100000C0A33463A4603215830FFF74DFF494811
:105110004FF47A784FF4FA59B0EE481AF0EE480A94
:10512000B6EE000A43464A460321C430FFF73CFF6F
:10513000B0EE481AF0EE480AB2EE0E0A33463A468E
:1051400003213E48FFF730FFDFED3D8A3B4841F247
:10515000883AB0EE481AF0EE680AB2EE000A5346FA
:105160003A4603216C38FFF71FFF3248002470389D
:1051700000F1C80180F8284041606C3181606C31D9
:10518000C1606C31016100F1580101600225284ABB
:1051900080F82A50D21C50319030FFF740FC27484D
:1051A000B0EE481AF0EE480AB1EE0C0A33463A4621
:1051B00003216C30FFF7F8FE2048B0EE481AF0EEFD
:1051C000480AB6EE000A43464A460321D830FFF7A4
:1051D000EBFEB0EE481AF0EE480AB2EE0E0A334685
:1051E0003A4603211748FFF7DFFE1648B0EE481A8B
:1051F000F0EE680AB2EE000A53463A4603216C38D4
:10520000FFF7D2FE0B48443800F5137180F82840B0
:1052100041606C3181606C31C1606C31016100F1C1
:105220006401016080F82A50BDEC028BBDE8F08774
:10523000DF0100205853002000000000F45400203B
:105240000AD7233CA456002070B58EB00646002530
:1052500002468DF800500121684602F0D1F801F0B5
:10526000E3FF32460121042002F08AFB044601F0EC
:10527000DBFF84B90C208DF8020002208DF80300BA
:1052800001208DF805508DF804000146324668462D
:1052900002F080FC04460EB0204670BD70B58EB0A2
:1052A0000124064602468DF800402146684602F079
:1052B000A7F801F0B9FF32460221042002F060FB9A
:1052C000054601F0B1FF95B90C208DF802000020D1
:1052D0008DF8060002208DF803008DF807408DF848
:1052E000044032460121684602F054FC05460EB0E7
:1052F000284670BD07F0E4FF0348FDF7B9FB052021
:1053000005F06EFAF6E700006409002010B50446C7
:105310000068006890ED050AF8EEC00A90ED030AF7
:10532000A068B8EEC00A05F091FABDEEC00A10EE12
:10533000100A00B2608400EE100A2068F8EEC00A7D
:105340000068B0F9020000EE100A6068B8EEC00A0A
:1053500005F07CFABDEEC00A216810EE100A088143
:1053600010BD10B5012005F03BFAFBE710B5502049
:1053700080F31188BFF34F8FBFF36F8F08F002FEE9
:1053800018B104494FF080500860002080F3118864
:1053900010BD000004ED00E030B593B03021684648
:1053A000FBF74CF914210CA8FBF748F91B48002522
:1053B000016841F080510160006800F08050119058
:1053C0001748016841F4804101600068022400F43C
:1053D00080401190092000904FF48030019001200E
:1053E000CDE9050480050790192008904FF4A870B6
:1053F000CDE9090404200B906846FDF703FD0CA9D4
:105400000F2081E831004FF4A0500F90E00210907F
:1054100005210CA8FDF7EAFB13B030BD403802406F
:10542000007000400548016841F4700101600349C3
:105430004FF00060803908607047000088ED00E0A0
:105440000148FDF7BCBF0000D00D0020F0B5026898
:10545000254C264D264E274F274B4FF0804CA0421F
:1054600009D0604507D0A84205D0B04203D0B84269
:1054700001D0984204D122F0700E4A6842EA0E022E
:10548000A0421BD0604519D0A84217D0B04215D019
:10549000B84213D0984211D0184DA8420ED0184DE2
:1054A000A8420BD0174DA84208D0174DA84205D0EE
:1054B000164DA84202D0164DA84203D122F44075E1
:1054C000CA682A434D6922F080022A4302608A6832
:1054D000C2620A688262A04201D0984201D1096981
:1054E000016301214161F0BD000001400004004062
:1054F00000080040000C0040000401400040014052
:10550000004401400048014000180040001C0040D9
:105510000020004010B501F01F030121046A9940EA
:105520008C430462016A9A401143016210BD10B5B8
:10553000846842EA032224F47F440A4322438260BF
:1055400010BD826822F070020A4342F007018160B8
:1055500070470000F0B5026A22F001020262036A9D
:1055600042688469124E24F073050C682C4323F0C2
:1055700002058B682B430D4DA84201D0B04205D1E6
:1055800023F00807CB683B4323F00403A84201D073
:10559000B04205D14D6922F4407215438A692A430D
:1055A00042608461496841630362F0BD00000140CC
:1055B00000040140F0B5026A22F010020262026AA1
:1055C000436884690D6824F4E64444EA05248D6840
:1055D00022F0200242EA05120F4D104EA84201D0DF
:1055E000B04206D1CF6822F0800242EA071222F0D0
:1055F0004002A84201D0B04207D14D6923F4406374
:1056000043EA85038D6943EA850343608461496801
:1056100081630262F0BD000000000140000401400F
:10562000F0B5026A22F480720262026A4368C469B9
:1056300022F4007224F073050C68124E2C438D681E
:1056400042EA05220E4DA84201D0B04206D1CF68F1
:1056500022F4006242EA072222F48062A84201D0CA
:10566000B04207D14D6923F4405343EA05138D69D5
:1056700043EA05134360C4614968C1630262F0BD37
:10568000000001400004014030B5026A22F480525B
:105690000262046A4268C3690D6823F4E64343EA80
:1056A00005238D6824F4005444EA0534084DA842CB
:1056B00002D0084DA84204D14D6922F4804242EA4A
:1056C00085124260C36149680164046230BD000014
:1056D000000001400004014010B5036A046A24F090
:1056E00001040462846924F0F00444EA021423F003
:1056F0000A020A438461026210BD10B5036A23F0F6
:10570000100303628369046A23F4704343EA02329C
:1057100024F0A00343EA01118261016210BD000080
:1057200010B50448FDF7F2FFBDE810400148FCF752
:105730005AB80000F009002010B50448FDF7E6FF54
:10574000BDE810400148FCF74EB80000300A0020C8
:1057500010B5806B0021C185C184FDF7D5FF10BD58
:1057600070B5846B2068406994F83910C0F3C0109C
:105770000025212904D118B1E584204600F03FF826
:105780002068406994F83A10C0F38010222904D1AF
:1057900018B1E585204600F024F8E06B40F01000D9
:1057A000E0632046FDF7B0FF70BD10B50146806B89
:1057B00009680968C9050CD40021C18401684A69D7
:1057C00022F080024A610068C16841F04001C16076
:1057D00010BDFEF76DFA10BD10B5806BFEF769FACB
:1057E00010BD0168CA6822F49072CA6001684A69F3
:1057F00022F001024A61202180F83A1070470168C6
:10580000CA6822F0C002CA60202180F839107047AF
:1058100010B590F83A10222901D0022010BD8168FD
:10582000B1F5805F11D00169002901681FD0496876
:1058300001F07F03816A4A1C82620B70C18D491E90
:105840000904090CC18518D02BE00269816A002A7D
:105850000268526805D0D2B20A80816A491C81620E
:10586000ECE7C2F308020A80816A891CF7E74A68FC
:10587000816A4B1C83620A70E0E70168CA6822F003
:105880002002CA600168CA6822F48072CA60016896
:105890004A6922F001024A61202180F83A10FEF79D
:1058A000C5F9002010BD00002DE9F0410446006854
:1058B0000169E26821F44051114301612169A06846
:1058C000E26908436169114308432168CA6849F2E3
:1058D0000C639A430243CA6020684169A26921F4BB
:1058E000407111434161E069192764253226B0F502
:1058F000004F354A354920684FF0000806D08842ED
:1059000001D0904236D1FDF73BFA35E0884201D014
:10591000904202D1FDF734FA01E0FDF721FA616807
:105920004A18A0FB070148EB0803FAF777FD014688
:10593000B0FBF5F00201B1FBF5F06FF0180358432E
:1059400001EB800006EBC000B0FBF5F000F0F800C2
:1059500002EB4002B1FBF5F0584301EB800006EB8F
:10596000C000B0FBF5F000F007002168104488602B
:10597000BDE8F081FDF7F4F961688B0F8A00A0FBA8
:105980000701FAF74BFD0146B0FBF5F06FF0180286
:10599000504301EB800006EB0010B0FBF5F000F087
:1059A000F002B1FBF5F002EB0012B1FBF5F06FF085
:1059B0001803584301EB800006EB0010B0FBF5F034
:1059C00000F00F00D1E7000000140140001001407A
:1059D00090F83910212901D0022070478168B1F573
:1059E000805F016A0BD04A1C02620268097851602C
:1059F000C18C491E0904090CC1840ED017E0098826
:105A00000268C1F30801516001690029016A02D0EE
:105A1000491C0162ECE7891CFBE70168CA6822F0B7
:105A20008002CA600068C16841F04001C160002086
:105A30007047000010B50448FDF768FEBDE810404F
:105A40000148FBF7D0BE0000700A00200B4882B06E
:105A500001680A684A680092CA6842F01002CA6087
:105A600001684A6942F040024A610168406B4FF4A4
:105A7000AF73034A091D02B0FBF73ABE700A00205B
:105A8000884B0020FFF74CBA10B50448FDF73EFEE6
:105A9000BDE810400148FBF7A6BE0000B00A002098
:105AA0000C4808B501680A684A680092CA6842F062
:105AB0001002CA6001684A6942F040024A6112213C
:105AC00000910168044B406BA3F11802091DFBF71C
:105AD0009BFC08BDB00A0020FE4C0020704700006F
