:020000040800F2
:100000002865002061020008CB5900082D45000832
:10001000C9590008C9100008B169000800000000B3
:10002000000000000000000000000000A101000826
:10003000B31D000800000000FD01000895600008E5
:100040007B0200087B0200087B0200087B0200089C
:100050007B0200087B0200087B0200087B0200088C
:100060007B0200087B0200087B020008851800085C
:100070007B020008911800089D1800087B02000808
:10008000A91800087B0200087B0200087B02000818
:10009000F51000087B0200087B0200087B020008C4
:1000A0007B0200087B0200087B0200087B0200083C
:1000B000656100087B0200087B0200087B020008E3
:1000C0007B0200087B0200087B0200087B0200081C
:1000D0007B02000851670008A56700081568000842
:1000E0007B0200087B0200087B0200087B020008FC
:1000F0007B0200087B0200087B0200087B020008EC
:100100007B0200087B0200087B0200087B020008DB
:10011000456400085D6400087B0200087B0200085B
:100120007B0200087B020008B51800087B0200086B
:100130007B0200087B0200087B0200087B020008AB
:10014000291100087B0200087B0200087B020008DE
:100150007B0200087B0200087B0200087B0200088B
:100160007B0200087B0200087B0200087B0200087B
:100170007B0200087B0200087B02000800000000F0
:100180007B0200087B020008DFF810D000F094FB2F
:1001900000480047F9B00008AFF300802865002050
:1001A0002C4B19680868B0E8F04F80F30988BFF35A
:1001B0006F8F4FF0000080F311887047000000003F
:1001C00008480068006880F308884FF0000080F35A
:1001D000148862B661B6BFF34F8FBFF36F8F00DF35
:1001E00000BF00BF08ED00E0DFF80C00016841F43B
:1001F00070010160704700BF88ED00E0EFF30980F7
:10020000BFF36F8F134B1A681EF0100F08BF20ED5D
:10021000108A20E9F04F106009B44FF0500080F3CD
:100220001188BFF34F8FBFF36F8F0EF08BFB4FF032
:10023000000080F3118809BC19680868B0E8F04F25
:100240001EF0100F08BFB0EC108A80F30988BFF3CE
:100250006F8F704758050020EFF30580704700004E
:100260000648804706480047FEE7FEE7FEE7FEE750
:10027000FEE7FEE7FEE7FEE7FEE7FEE7496100086E
:10028000890100082DE9F05F0546002092469B4653
:1002900088460646814640241BE02846414647469C
:1002A000224600F0CBF953465A46C01A914110D36A
:1002B00011461846224600F0B2F92D1A67EB0108E4
:1002C0004F4622460120002100F0A9F917EB000952
:1002D0004E41201EA4F10104DFDC484631462A4687
:1002E0004346BDE8F09F40EA01039B0703D009E0C5
:1002F00008C9121F08C0042AFAD203E011F8013B12
:1003000000F8013B521EF9D27047D2B201E000F86A
:10031000012B491EFBD270470022F6E710B51346A9
:100320000A4604461946FFF7F0FF204610BD2DE9A6
:10033000FE4F804681EA0300C00F0C46009021F07A
:10034000004123F00045B8EB0200A94105D2404628
:10035000214690461C460B46024623F000401043BF
:1003600047D0270DC7F30A00C3F30A510290401A81
:10037000019040286BDAC3F3130040F4801B00980F
:10038000924620B10023D2EB030A63EB0B0B0198DA
:100390005946C0F14002504600F041F906460D466C
:1003A00050465946019A00F059F910EB0800614196
:1003B000002487EA115284EAE7731A4340D0009A76
:1003C00062B3019A012A4FEA075215DC001B61EB68
:1003D00002014FF0004202EA0752CDE90042001C40
:1003E00041F5801132462B4600F090F903B0BDE88C
:1003F000F08F40462146F9E7001B61EB0201001C2B
:1004000041F5801300185B412018A2F5001747EB57
:10041000030140EAD570B6196D4111E06D084FEA4D
:10042000360645EAC0754FEA0752001B61EB020130
:10043000001C41F5801149084FEA30000019514174
:1004400032462B4603B0BDE8F04F00F050B900989B
:10045000012240000023D0EB020263EBE07300981E
:1004600021464FEAE074B8EB000061EB0401E9E7D4
:1004700083F000435BE781F0004158E72DE9FE4F30
:1004800081EA030404F0004421F0004100944FF09D
:10049000000B23F0004350EA01045ED052EA03044B
:1004A0005BD0C3F30A54C1F30A552C44A4F2F334CD
:1004B0000194A0FB0254C1F3130141F48011C3F372
:1004C000130343F4801301FB024400FB034E840A30
:1004D000970A44EA815447EA8357A4FB07680295C8
:1004E0008D0A05FB07854FEA932C04FB0C54270566
:1004F000029D4FEA065847EA1637B5EB08056EEB42
:10050000070C870E920E47EA811742EA8312A7FB77
:100510000201B6EB0B0164EB00042B0D43EA0C3334
:100520005E1844EB1C50DA465146E7FB0201C5F366
:1005300013044FEA0B3343EA14534FEA0432019C8D
:1005400043EA0603A4F10C040294009CCDE900B434
:1005500000F0DCF803B0BDE8F08F00200146F9E7B9
:100560000EB5C10F80EAE0700844CA07002140F2CE
:1005700033438DE80E000A460B4600F0C7F803B07F
:1005800000BD70B5C1F30A5201F000450024C1F36B
:10059000130140F2FF3341F480119A4201DA002046
:1005A00070BD40F233439A42A2F2334203DC52421E
:1005B00000F044F800E090402C43F1D0404270BD80
:1005C00000F0004230F000400AD0C10D01F560712A
:1005D000C0F3160042EA0151C208400711437047B8
:1005E00000200146704701F0004330B421F0004183
:1005F00050EA010206D00A0DA2F56072C1F31301A0
:10060000002A02DC30BC00207047440F44EAC104D9
:10061000C100E01830BC00EBC25000F031B8202A15
:1006200004DB203A00FA02F1002070479140C2F149
:10063000200320FA03F3194390407047202A04DB7B
:10064000203A21FA02F00021704721FA02F3D0404B
:10065000C2F120029140084319467047202A06DB68
:10066000CB17203A41FA02F043EAE07306E041FA80
:1006700002F3D040C2F1200291400843194670476E
:100680000029A8BF7047401C490008BF20F00100A6
:10069000704710B4B0FA80FC00FA0CF050EA010484
:1006A00004BF10BC704749B1CCF1200421FA04F416
:1006B00011FA0CF118BF012121430843A3EB0C01EF
:1006C000CB1D4FEA00614FEA102042BF002010BC52
:1006D000704700EBC35010440029A4BF10BC704702
:1006E000401C490008BF20F0010010BC704710B545
:1006F000141E73F1000408DA401C41F10001921845
:100700005B411A4301D120F0010010BD2DE9F04DED
:1007100092469B4611B1B1FA81F202E0B0FA80F242
:1007200020329046FFF77BFF04460F4640EA0A005E
:1007300041EA0B0153465A46084313D0114653EA87
:10074000010019D0C8F140025046FFF777FF054677
:100750000E46504659464246FFF761FF084305D012
:10076000012004E020463946BDE8F08D0020054315
:1007700046EAE0762C4337430A986305E40AA0EB87
:1007800008000022FD0A44EA47540A3002D500203E
:100790000146E9E7010510196941DDE9084500193D
:1007A0006941BDE8F04DA2E72DE9F04D81EA03046F
:1007B00004F0004B21F0004514464FF0000A23F0EE
:1007C000004150EA050220D054EA01021DD0C5F3D1
:1007D0000A570246C5F31303C1F31300C1F30A56C7
:1007E00040F4801543F48013A7EB0608101BD6468F
:1007F00008F2FD3873EB050002D308F1010801E0AF
:1008000092185B41B8F1000F03DA00200146BDE801
:10081000F08D00204FF48011064684460EE0171B31
:1008200073EB050705D3121B63EB050306434CEA84
:10083000010C49084FEA300092185B4150EA010769
:10084000EDD152EA030012D082EA040083EA0501E6
:10085000084305D0101BAB4106D20122002306E05D
:1008600000224FF0004302E06FF0010253101AEB38
:1008700006004CEB085110EB0A0041EB0B01BDE800
:10088000F04DFFF734BF000030B5041E71F10004D5
:1008900004DB4FF00044404264EB0101141E73F18D
:1008A000000405DB1C464FF00043524263EB040397
:1008B0008B4208BF824230BD064C074D06E0E0681F
:1008C00040F0010394E8070098471034AC42F6D397
:1008D000FFF75EFCA0150108C01501082DE9F04DD9
:1008E00000231A461B1A8A4103DB00200146BDE89B
:1008F000F08DC1F30A52C1F3130141F480154FF09A
:10090000000BD10702D100186D41521E002704468A
:1009100040F2FF11384601EB620A3E46804602462D
:1009200000204FF48011FFF789FEC2197141BB18F6
:1009300046EB0100B4EB030C75EB000C04D3E41A96
:1009400065EB000517460E46241908F101006D41BC
:1009500080463428E3DDF91946EB0600091BA8415F
:1009600003D24FF0FF32134601E0002213461BEB87
:10097000070046EB0A51BDE8F04DFFF7B8BE0EB5D3
:1009800040F2334102910021CDE900110A460B46A5
:10099000FFF7BCFE03B000BD70B58C1810F8015B0A
:1009A00015F0070301D110F8013B2A1106D110F808
:1009B000012B03E010F8016B01F8016B5B1EF9D10C
:1009C0002B0705D40023521E0DD401F8013BFAE792
:1009D00010F8013BCB1A921C03E013F8015B01F8FD
:1009E000015B521EF9D5A142D8D3002070BD7047DB
:1009F000464910B54A6822F440324A604A68436862
:100A00001A434A6001684A6822F480724A600168A9
:100A10004A68036942EA03224A6001684A6822F090
:100A200040724A6001684A6883681A434A600168F4
:100A30008A6822F400628A6001688A68C3681A437F
:100A40008A60816A6FF07062D14201688A6822F020
:100A500070628A6001688A680CD0836A1A438A606F
:100A600001688A6822F040528A6001688A68C36A15
:100A70001A4301E022F040528A6001688A6822F03D
:100A800002028A6001688A68037E42EA43028A6041
:100A900090F82010002901684A680FD042F40062E3
:100AA0004A6001684A6822F460424A6001684A6804
:100AB000174C436A04EB43331A4301E022F400620B
:100AC0004A600168CA6A22F47002CA620168CA6A8E
:100AD000838B104C04EB03531A43CA6201688A6883
:100AE00022F400728A6001688A6890F8303042EA25
:100AF00043228A6001688A6822F480628A60016801
:100B00008A68406942EA8020886010BD0023014065
:100B100000E0FFFF0000F0FF30B50C4605000CD0F0
:100B2000022C0AD90548A11E0288284601F0ECF9DA
:100B3000291901F8020D000A487030BD7C0400201C
:100B400030B50C4605000AD0022C08D9601E81B2CF
:100B5000FF22284601F0EEF9291901F8010C30BDF9
:100B60002DE9F04116462DED0A8B0F468046B3F96C
:100B70000030DDE9131000EE103ADDE91152F8EE15
:100B8000C00AFE4CDDF840C0C4ED0E0ABCF90030CE
:100B900000EE103AB8EEC00A84ED0F0AB5F9003045
:100BA000032593FBF5F31BB203EB430300EE103A6E
:100BB000B8EEC00A84ED100AB2F9002000EE102A47
:100BC000B8EEC01A84ED111AB1F9001000EE101A37
:100BD000B8EEC00A84ED120AB0F9000021EE000A56
:100BE00001EE900AF8EEE11AC4ED131A20EE210A84
:100BF000B5EEC00AF1EE10FA7DD0E14D297B9FEDF4
:100C0000E18AFDEEE00AB0EE480A10EE900A00B26A
:100C10000AF044FA84ED0E0AD4ED0F0A297BB0EEF7
:100C2000480AFDEEE00A10EE900A00B20AF036FA29
:100C300084ED0F0AD4ED100A297BB0EE480AFDEED0
:100C4000E00A10EE900A00B20AF028FA94ED0E1AAB
:100C5000DFEDCD0A21EE201A20EE200A84ED0E1AD7
:100C600094ED0F1A21EE201A84ED0F1A84ED100A6C
:100C7000D4ED110A297BB0EE000AFDEEE00A10EE79
:100C8000900A00B20AF01EFA84ED110AD4ED120A9D
:100C9000297BB0EE000AFDEEE00A10EE900A00B2E9
:100CA0000AF010FA84ED120AD4ED130A297BB0EE93
:100CB000000AFDEEE00A10EE900A00B20AF002FA15
:100CC000F0EE400AC4ED130A94ED110A94ED121AE5
:100CD00020EE000A01EE010A00EEA00A0AF048F830
:100CE00084ED070AD4ED110A60EE802AC4ED112AC2
:100CF000D4ED120A00E05CE160EE804AB0EE008ABA
:100D0000C4ED124AD4ED130A20EE803A84ED133A72
:100D100094ED040AD4ED060AD4ED031A94ED051AF5
:100D200020EE202A01EEC12A22EE084A21EE802A76
:100D300084ED084A01EE202A22EE085A21EEA12A6B
:100D400084ED095A00EE402A01EE412A00EEA02A65
:100D500084ED0A2A64EE823A43EE453A23EE043AE1
:100D600002EEC23A62EE852AC4ED0B3A44EEC42A82
:100D700084ED0C3AC4ED0D2A94ED142A94ED015A39
:100D800003EE852A84ED142A94ED154A03EE054AF4
:100D900084ED154AD4ED164A42EE854AC4ED164A52
:100DA000D4ED0E5A94ED005A45EE235A35EE822AC0
:100DB00084ED0E2AD4ED0F3A45EE033A33EE843A31
:100DC00020EE424A84ED0F3AD4ED103A01EE434A48
:100DD00061EE835A45EE223AB0EE615A73EEA42AD0
:100DE00061EE824AC4ED102AC4ED171A41EE224A80
:100DF00084ED180A00EEE24A84ED191AC4ED1A0ACD
:100E0000D4ED023A40EEC34A40EE625A04EE235A51
:100E1000B0EE404A04EEA34A40EE825A84ED035AF3
:100E200084ED044A61EEA21AF0EE414A45EEA34A6F
:100E300040EE031A25EE050AC4ED054A04EE040A45
:100E400041EE421A04EEA40A41EEA30AC4ED060ADA
:100E500000EEA00A09F08CFF84ED070AD4ED030A26
:100E600020EE80BA84ED03BAD4ED040A60EE808AE5
:100E7000C4ED048AD4ED050A20EE809A84ED059A2B
:100E8000D4ED060A60EE809A2BEE0B0AC4ED069AAA
:100E900008EEE80A09EE490A09EEA90A10EE100A5E
:100EA000FFF78EFB29EE080A6BEE080A41EC1A0BDD
:100EB00020EE290A00EEA80A10EE100AFFF780FBC8
:100EC00041EC100BB0EE4A1AF0EE6A1A06F048F93F
:100ED0009FED2EBB51EC100B53EC1B2BFFF7CEFA02
:100EE000FFF781FB386094ED040AD4ED060A94ED17
:100EF000051A20EE080A20EE200AD4ED030A60EE5F
:100F0000880A00EEC10A10EE100AFFF759FB41EC07
:100F1000100B05F009FE9FED1F1B51EC100B53EC5D
:100F2000112BFFF7ABFAFFF75EFBC8F8000094ED5A
:100F300003CAD4ED048AD4ED05AA2CEE0C0A94ED74
:100F400006AA08EEA80A0AEEEA0A0AEE4A0A10EE13
:100F5000100AFFF735FB28EEAA0A41EC190B0CEE3C
:100F60000A0A20EE080A10EE100AFFF729FB41ECEE
:100F7000100BB0EE491AF0EE691A0FE014000020D1
:100F8000380D00200000FA44728A8E3C0000006098
:100F900066A64C400000006066A64CC006F0E0F873
:100FA00053EC1B2B51EC100BFFF768FAFFF71BFB00
:100FB00030600020BDEC0A8BBDE8F0812DE9F047E0
:100FC000804691460F46122004F02AF90446132069
:100FD00004F026F944EA0026142004F021F904461E
:100FE000152004F01DF944EA0025162004F018F934
:100FF0000446172004F014F9A8F8006044EA002021
:101000003D80A9F80000BDE8F0872DE9FE4F1546A8
:10101000DDE90C9A0E4607460C221C46694610462E
:1010200004F024F9BDF80080BDF802C0BDF804301A
:10103000BDF80620BDF80810BDF80A00A4F800802D
:10104000A9F800C0AAF800303A8031802880BDE8B5
:10105000FE8F000038B5194807F0F8FA06F06AFF6D
:10106000164806F02BFF044606F064FF24BB01205F
:101070008DF800000146114A684607F075FB06F03E
:1010800059FF0E4804F03AFF00208DF800000B4A8B
:101090000121684607F068FB06F04CFF074804F0A2
:1010A00003FF02208DF80000044A0121684607F082
:1010B0005BFB044606F03EFF204638BD380D00209D
:1010C00001200AF0B3FBFBE7FEE7000000B58BB0A0
:1010D000684600F0FEF86946054801F0BBF80221B9
:1010E000034801F037F8024801F0BEFB0BB000BD29
:1010F0003C1C0020014801F0A8B900003C1C002065
:1011000000B58BB0684600F0E4F86946054801F088
:10111000A1F80221034801F01DF8024801F0A4FBE8
:101120000BB000BD641C0020014801F08EB9000026
:10113000641C0020008840BA7047408840BA00B262
:101140007047808840BA00B270478079704713B505
:10115000012201A900F00EF81CBD08B50A0A8DF89D
:1011600000208DF801100222694600F003F808BD46
:10117000AFF300802DE9F0410446407815460E4655
:1011800028B1012825D1144AA168106808E0124A44
:101190001C3AF9E703688B4201D118B106E0806977
:1011A0000028F7D12146104600F050F8227B58B1B4
:1011B000002107E05318082B06D2775C0344491C32
:1011C0001F71C9B2A942F5D3E18982898A4200D947
:1011D0008181BDE8F08100002C07002008B50A0ECF
:1011E0008DF800200A0C8DF801200A0A8DF80220E3
:1011F0008DF8031004226946FFF7BCFF08BD00000C
:101200002DE9F04105001AD00E4C0F4F287E002822
:1012100015D0284600F08CF8064609F0EDFF206056
:101220003968401A606009F0E7FFE168401AA06081
:1012300009F0E2FFE060304600F048F9E6E7BDE87B
:10124000F081000000000020700400202DE9F04132
:1012500005680F4604460026F5B10FB91CE00546A7
:10126000A8690028FBD11C200AF082FEA861B96899
:101270000160A969F8898881A86906610020011DBB
:10128000AA69401CC0B256540828F8D3A8698661E0
:10129000A8694461A86917E01C200AF069FE206073
:1012A000B96801602168F88988812068066100209A
:1012B000011D2268401CC0B256540828F8D320688B
:1012C00086612068446120682179491C2171BDE84C
:1012D000F0810021016041608160C16001610122F3
:1012E0004161C0E90612C0E90821704770B50500E8
:1012F0004FF0000618D02879B0B12C6812E000BF7A
:1013000009F07AFF2169411AA08900EB4002C2EB83
:10131000C010B1EBC00F04D32146284600F01FF8DF
:101320000126A469002CEBD1304670BD00F0ACB8AA
:1013300010B5002288B1017E79B1D0F808200021D3
:1013400000EB8103491CDC68C9B29C600329F7D318
:1013500000214161017E491E0176104610BD012227
:1013600050B149B1037E042B06D200EB8302916099
:10137000017E491C01760022104670472DE9F0419C
:1013800040F20224344A0168651E661C91423ED137
:10139000324B0021A3F11C0200F0E3FF2F48002193
:1013A0001C380068A04204D12D48406801702C48C8
:1013B00029E0A84204D12B4840680170294822E066
:1013C000B04204D128484068017027481BE0B0F5BE
:1013D000017F14D0A0F50072063A0BD0A0F5007280
:1013E000053A37D12148406801702048BDE8F041F6
:1013F00003F0DCBE1E48406801701D48F6E71D483A
:10140000406801701B48BDE8F04103F021BE1A4A54
:1014100091421FD1114B002124339846A3F11C02A5
:1014200000F09FFF0D4F08373868B04203D11348D2
:1014300003F038FD08E0A84201D1114802E0A042C3
:1014400002D1104803F03EFE41463868BDE8F04145
:1014500005F05ABABDE8F08100640040640700203E
:10146000F40E0020C80E0020200F00209C0F00204A
:10147000D00F00204C0F002000680040EC15002029
:10148000541600202816002000B5034687B09A683D
:1014900000920022012002920392082204925A78BC
:1014A00052B1012A06D10A46064806AB694600BF7A
:1014B00000F062FE07B000BD0A4606AB694602486E
:1014C000F6E70000641C00203C1C002030B587B00B
:1014D00004004FF0010521D00DF058F9206800906C
:1014E000002002900390082004900E496069884211
:1014F00004D106AB221D69460B4807E009491C319F
:10150000884206D106AB221D6946084800F034FE29
:10151000054609F071FE20610DF058F907B0284624
:1015200030BD0000100700203C1C0020641C00207F
:1015300002200AF07BF9FBE710B500F004F8BDE8E3
:10154000104000F037B800B500F004F85DF804EB87
:1015500000F0CEB803480178034809B1012900D151
:1015600001707047680400204802002030B50F4821
:101570000F49046862680A6043685A684A60826872
:1015800055688D60C5686868C86001F11000C56065
:101590000460C0E9013210302168016019684160BF
:1015A000116881602968C16030BD00001C04002002
:1015B000A00D00202DE9F04100211A4800F082F82A
:1015C0000221184800F07EF80121164800F07AF850
:1015D0000321144800F076F8134F124E0024A7F1AF
:1015E000100500BF57F82400007E50B155F82400C4
:1015F000002182699047641C14F0FF04F2D0BDE81A
:10160000F08104EB4400C0EB441006EB800090ED49
:101610001C0ABDEEC00A10EE100A81B255F8240073
:101620008269E7E74C020020B00D00202DE9F0416F
:101630000E462DED028B074600249FED0B8A0CE031
:1016400004EB4400C0EB441007EB800528460AF089
:10165000D5FA641C85ED1C8AE4B2B442F0D3BDEC2B
:10166000028BBDE8F0810000000000002DE9F04190
:10167000114D00242DED028B26469FED108A104F50
:1016800004EB4400C0EB441005EB8000314680EDD4
:101690001C8A57F8240082699047641CE4B2042C29
:1016A000EED304210448FFF7C1FFBDEC028BBDE877
:1016B000F041FFF748BF00004C020020000000008E
:1016C000A00D002010B501EB4102C2EB411100EB6F
:1016D0008104204694EC020A30EE600A84ED020A8E
:1016E0000CF0FCFD94ED0A0A84ED1C0A10BD704755
:1016F00013480168B1F9021000EE101A1149B8EE52
:10170000C00A81ED010A4268B2F9022000EE102AF7
:10171000B8EEC00A81ED1E0A8268B2F9022000EE1E
:10172000102AB8EEC00A81ED3B0AC068B0F9020089
:1017300000EE100AB8EEC00A81ED580A70470000AA
:10174000C00D00204C020020014988637047000052
:10175000000001402B492C4A9FED2C1AB1F86A1069
:1017600000EE101AB8EE400A10EE101A914201DD98
:10177000B0EE410A10EE101AC0EE010A244B994255
:1017800001DA60EEA00A10EE101A9FED220A9142D3
:1017900001DA20EE800AB0F90020002A00DC524273
:1017A000B0F90210002900DC49420A44B0F90410E3
:1017B000002900DC49420A44B0F90610002900DC87
:1017C0004942114400EE901AF8EEE00A80EE201A29
:1017D000F4EEC00AF1EE10FA12DB002130F911200C
:1017E00000EE102AB8EEC00A20EE010ABDEEC00AD3
:1017F00010EE102A20F81120491CC9B20429EDD39B
:1018000070470000E60500200000704200007042B2
:101810000000C8410000FA460021014801F0BEB8AE
:101820008C1C002070B504461248134D0168B1F8B5
:101830006C1061830068B0F84F00A08309388142C2
:1018400014DB2068DFED0D0A0068B0F9020000EE3D
:10185000100A0B48B8EEC00A0AF01EF8BDEEC00A26
:10186000216810EE100A0881012000E00020E870D5
:1018700070BD0000A8060020D80500200000000070
:1018800008190020014801F013B90000E41E0020EF
:10189000014801F00DB90000841E0020014801F04C
:1018A00007B90000C4200020014801F001B9000080
:1018B00064200020014801F0FBB80000A41F0020B4
:1018C0002DE9F04F85680024099E802D18D0894DA0
:1018D000C563894D456490F83450012D15D001251C
:1018E00080F8345090F83550012D10D0002180F848
:1018F00034100224002180F834102046BDE8F08F17
:101900004FF4807141650120F8E70220F6E70225D7
:1019100080F835500025456505682F6847F4802715
:101920002F6005682B6103685E608368402B036845
:101930002AD099600168CA60714D704E704FDFF80F
:10194000BC81DFF8B891DFF8B8A1DFF8B4B1EA14D0
:10195000DFF8A8E10168183630379302A9F1480989
:101960000AF1600A0BF1180BAEF1300E4FF0006C6B
:1019700041452DD9A94205D0494503D0514501D053
:10198000B14205D1202220E09A600268D160D3E7FD
:1019900059451AD0714518D0594D7835A94214D0FF
:1019A000564D3035A94210D0B9420BD0534A183A9F
:1019B000914207D0524A9032914203D04F4A483266
:1019C000914201D11A4600E062464C494C392EE062
:1019D000DFF82C8108F1A80841452AD9A94205D091
:1019E000494503D0514501D0B14201D120221CE02C
:1019F00059451AD0714518D0414D7835A94214D0B7
:101A00003E4D3035A94210D0B9420BD03B4A183A6E
:101A1000914207D03A4A9032914203D0374A483235
:101A2000914201D11A4600E06246344950390A60B9
:101A30005AE0DFF8CC8008F1480841452AD9A9428C
:101A400005D0494503D0514501D0B14201D12022F2
:101A50001CE059451AD0714518D0294D7835A94256
:101A600014D0264D3035A94210D0B9420BD0234AAC
:101A7000183A914207D0224A9032914203D01F4A2D
:101A80004832914201D11A4600E062461C491039A1
:101A9000CA6029E0A94205D0494503D0514501D08B
:101AA000B14201D120221CE059451AD0714518D00D
:101AB000134D7835A94214D0104D3035A94210D0BD
:101AC000B9420BD00D4A183A914207D00C4A9032D5
:101AD000914203D0094A4832914201D11A4600E0AE
:101AE0006246074910398A6001680A6842F00102BB
:101AF0000A60FFE6C5930008F193000858640240AD
:101B00001060024001681823CAB2103AB2FBF3F227
:101B1000054B6FF30901032A9B5CC36500D9091DBE
:101B200081650846704700005813010810B501464A
:101B300000208B698A6A4FF0C07453B1B3F5005F1F
:101B400015D072B1012A0CD0022A0AD0032A09D179
:101B500004E01AB1012A06D0022A03D1C96AC901D8
:101B600000D5012010BDC96AA142FAD010BD002ADB
:101B7000F7D0012AF2D0022AF3D0032AF3D010BD05
:101B800030B50468256825F4802525600468636005
:101B90008368402B036803D099600068C26030BD41
:101BA0009A600068C16030BD70B590F83450002470
:101BB000012D0CD0012580F8345090F835600025B7
:101BC000012E06D080F834500224204670BD022039
:101BD00070BD022680F83560456505682E6826F4DC
:101BE00080262E6005686B608368402B036808D0F0
:101BF00099600168CA600068016841F001010160F4
:101C0000E3E79A600268D160F5E7000070B504462A
:101C1000017B00223748012531B9374991F9141069
:101C2000022901D0C9B135E0417861B12168096864
:101C3000B1F902106431C82905D8617B05291ED28B
:101C4000491C617326E0216841F204030968B1F977
:101C50000210D9421EDC62731AE0216809684E69DD
:101C6000CB68991B002901DD0B4600E0F31A41F215
:101C70008836B34208DB218BB1F57A7F01D38570BA
:101C800008E0491C218305E0B1F1004F02D1228315
:101C90008270E282B4F91200404200EE100A6068DD
:101CA000F8EEC00A0068B0F9020000EE100A13480E
:101CB000B8EEC00A09F0F0FDBDEEC00A616810EE92
:101CC000100A0881B4F9120000EE100AA068F8EEBC
:101CD000C00A0068B0F9020000EE100A0848B8EE29
:101CE000C00A09F0D9FDBDEEC00AA16810EE100AC5
:101CF000088170BDD8050020900E002080160020BD
:101D0000EC16002070B50446C08A4FF41675B0FB7F
:101D1000F5F105FB1101401CE0822068B1F5967FCA
:101D20000068B0F9020000EE100AB8EEC00A02D353
:101D3000DFED0B0A01E0DFED0B0A0B4809F0ACFD0B
:101D4000BDEEC00A216810EE100A0881E08AA842A0
:101D500004D10649002088706073E08270BD0000E5
:101D600000006144000061C49C180020D8050020D8
:101D700010B503F00BFFFEF73AFEFFF74DFD04F040
:101D8000F3FC04F01BFD04F051FD04F081FD04F0B0
:101D90009DFDFFF79BF9BDE81040FFF7B1B9016861
:101DA0000A68D20604D5C968C90601D50CF0CABBB9
:101DB00070477047F0B5404890F847100A2945D25F
:101DC0000122A0F89C200222A0F89E200322A0F865
:101DD000A0200422A0F8A2200522A0F8A42040F20E
:101DE00001170622A0F8A6207E1C0722A0F8A82032
:101DF000751C6C1CA0F8AA70A0F8AC60631CA0F85D
:101E0000AE50A0F8B0405A1CA0F8B230A0F8B420F0
:101E100001290CD002290DD003290ED004290FD09E
:101E2000052910D0062901D1A0F8B620F0BDA0F8F0
:101E3000B670F0BDA0F8B660F0BDA0F8B650F0BD29
:101E4000A0F8B640F0BDA0F8B630F0BD6522A0F80D
:101E50009C206622A0F89E206722A0F8A02068227D
:101E6000A0F8A2206922A0F8A42040F265176A22F7
:101E7000A0F8A6207E1C6B22A0F8A820751C6C1C64
:101E8000A0F8AA70A0F8AC60631CA0F8AE50A0F84F
:101E9000B0405A1CA0F8B230A0F8B4206529C6D0D2
:101EA0006629C7D06729C8D06829C9D06929CAD08E
:101EB0006A29B9D0F0BD0000E60500207047000097
:101EC000044A00F57A701060101D01F57A71016006
:101ED0007047000034040040084C094D094808F0E0
:101EE0009EFA0023B4F90810B5F908001A4603F069
:101EF00035F9012009F09AFCF0E70000D00F00202E
:101F00009C0F0020B004002010B558B1084C491EA9
:101F10000BD310F8013B5340DBB234F8133083EAA3
:101F20001222F4E74FF6FF7010BD104610BD0000FE
:101F3000D010010810B5064C04E000BF10F8013BBA
:101F40005340E25C491E89B2F8D2104610BD000031
:101F5000D00F010878B50024009490F83C20012AA5
:101F600019D0012280F83C200A6807230568092A55
:101F700013D9EE680A3A02EB420293409E43EE60A8
:101F80000B788A680A3B03EB43039A400368DD68D9
:101F90002A43DA6010E0022078BD2E6902EB42028B
:101FA00093409E432E610B788A6803EB43039A406B
:101FB00003681D692A431A614A681F23072A13D23E
:101FC00005686E6B521E02EB820293409E436E6365
:101FD0000B790A885B1E92B203EB83039A40036875
:101FE0005D6B2A435A6327E005680D2A12D22E6BD7
:101FF000D21F02EB820293409E432E630B790A8824
:10200000DB1F92B203EB83039A4003681D6B2A43E4
:102010001A6311E0EE6A0D3A02EB820293409E438E
:10202000EE620B790A880D3B92B203EB83039A4070
:102030000368DD6A2A43DA62164B0568144A9D423A
:1020400006D10D68122D03D1556845F48005556001
:1020500005689D4218D10B68102B01D0112B13D1AC
:10206000536843F400035360096810290CD10A49EE
:102070000A4A0968B1FBF2F101EB8101490000E075
:10208000491E00910029FBD180F83C40002078BD1A
:1020900000230140002001404805002040420F007D
:1020A00070B504004FF0000503D0206C002610B17D
:1020B00007E0012070BD204600F01CF8666484F83B
:1020C0003C60206CC00610D4206C20F4885040F096
:1020D000020020642046FEF78BFC6664206C20F032
:1020E000020040F00100206400E0012584F83C601B
:1020F000284670BD10B586B0044614216846FEF728
:102100000BF91149206888421CD11048002102684F
:1021100042F480720260006800F4807005900B4801
:102120001438026842F004020260006800F0040003
:102130000590012000900320CDE901016946044883
:1021400000F028FE06B010BD0020014044380240D7
:102150000008024090F82020012A07D0022A05D06A
:10216000416A41F480214162012070470068426960
:102170000A43426100207047F0B590F8205004688F
:10218000A468012D05D0022D03D0416A41F48021BD
:102190005DE014F0406F01D1E50055D5C4F3016452
:1021A000022C03D9416A41F4000150E00125A54009
:1021B0001D608D684FF4C0739DB1CE6835434E6885
:1021C00045EAC605066803EB0417F5514FF4C275DE
:1021D000076805EB04150E697E51097D012905D0BC
:1021E00009E00E88CD6845EA4655EBE701684E598F
:1021F00046F480764E511179D579567941EA0561D8
:1022000095792D0445EA062529434FF4C6760568DD
:1022100006EB0416A9511178D57841EA0561957845
:1022200052782D0445EA022211434FF4C475026826
:1022300005EB04155151006803EB0411425842F0BC
:10224000010242500020F0BD416A41F40011416298
:102250000120F0BD10B590F82020012A07D0022AF5
:1022600005D0416A41F480214162012010BD3B4804
:10227000D0F8002242F00102C0F80022D0F800227B
:1022800022F47C52C0F80022D0F800224B6A42EAC5
:102290000322C0F800220A7D02F01F0301229A40A7
:1022A000D0F81C329343C0F81C32CB69B3B9D0F8D4
:1022B0000C329343C0F80C328C894B6864F31F4393
:1022C0004C6900EBC404C4F840320C890B6864F319
:1022D0001F434C6900EBC404C4F84432CB69012BA2
:1022E00016D1D0F80C321343C0F80C320C884B686E
:1022F00064F31F434C6900EBC404C4F840320C89FA
:10230000CB6864F31F434C6900EBC404C4F8443247
:102310008B69002BD0F804320ED01343C0F804327E
:102320000B69002BD0F8143208D01343C0F81432D4
:10233000096A012904D008E09343EFE79343F5E7E6
:10234000D0F81C121143C0F81C12D0F8001221F072
:102350000101C0F80012002010BD00000064004020
:10236000704730B590F82040012C05D0022C03D0E6
:10237000416A41F480215DE00468002955D0246958
:10238000A40754D04FF4D874056804EB01142D59F8
:1023900015F00405956005682D594ED0ED0855607F
:1023A00005682C5904F00204D4604FF4DA7405680F
:1023B00004EB01142D5905F00F05156105682D5921
:1023C000C5F30725956105682C59240C54614FF419
:1023D000DC72046802EB0112A4581C700468A45853
:1023E000240A5C700468A458240C9C700468A258E9
:1023F000120EDA704FF4DE72046802EB0112A45878
:102400001C710468A458240A5C710468A458240C44
:102410009C710468A258120EDA71006881B10169DA
:1024200041F020010161002030BDE468A8E7416A65
:1024300041F400114162012030BD6D0D1560AFE720
:10244000C16841F02001C160EDE72DE9F05F05466C
:10245000006800244669D0F804908768D0F80CB072
:10246000D0F810A0D0F81880F10748D0F90714D0A0
:1024700001218160B80703D5284600F022FA0CE05C
:10248000780702D54FF4006407E0380702D54FF40F
:10249000805402E0284600F013FAF80516D52968A2
:1024A0004FF480708860B80503D5284600F00BFA19
:1024B0000CE0780502D544F4005407E0380502D555
:1024C00044F4804402E0284600F0FCF9F80316D5F5
:1024D00029684FF480308860B80303D5284600F09F
:1024E000F4F90CE0780302D544F4004407E0380323
:1024F00002D544F4803402E0284600F0E5F93007C4
:1025000007D55FEACB6004D52968102044F4007435
:10251000C86070074FF0080707D55FEA0B7004D555
:102520002868C760284600F099F9B00706D52868E2
:10253000C068800702D0284600F091F9700607D5E0
:102540005FEACA6004D52968102044F480640861F9
:10255000B00607D55FEA0A7004D5286807612846E7
:1025600000F07FF9F00606D528680069800702D0E0
:10257000284600F077F9B00308D55FEAC96005D5B1
:10258000296810204860284600F06DF9F00307D54F
:102590005FEA097004D528684760284600F096F97C
:1025A000300446D55FEA497040D5F00504D55FEAAE
:1025B000C87001D044F00104B00504D55FEA88700A
:1025C00001D544F00204700504D55FEA487001D5D6
:1025D00044F00404300529D518F0700F26D008F017
:1025E0007000402815D006DC102809D020280AD019
:1025F000302816D10AE050280ED0602811D10EE004
:1026000044F008040DE044F010040AE044F0200413
:1026100007E044F0400404E044F0800401E044F4A6
:1026200080742868816921F0700181612968042023
:102630004860002C05D0686A204368622846FFF78E
:102640008FFEBDE8F09F70B5040003D094F8200021
:1026500010B104E0012070BD204600F081F8206830
:10266000016841F00101016000F09AFC0546052671
:1026700004E000F095FC401B0A2811D8206840684F
:10268000C007F6D02068016821F00201016000F067
:1026900087FC05460BE000F083FC401B0A2806D9A6
:1026A000606A40F40030606284F82060D2E72068FD
:1026B00040688007EFD4207E0128206801683DD063
:1026C00021F080010160607E01282068016838D017
:1026D00021F040010160A07E01282068016833D00C
:1026E00021F020010160E07E0128206801682ED0E1
:1026F00041F010010160207F01282068016829D085
:1027000021F008010160607F01282068016824D061
:1027100021F004010160D4E902010843D4E9041264
:10272000114308436168491E08432168C8610020BD
:102730006062012084F82000002070BD41F080011B
:10274000C0E741F04001C5E741F02001CAE721F0B0
:102750001001CFE741F00801D4E741F00401D9E7C7
:10276000F0B587B0044614216846FDF7D5FD364B19
:102770003648DFF8D0E01968D4F800C0334A0325A2
:102780000226092710300024491CF44522D1196083
:10279000012907D1016841F000710160006800F073
:1027A00000700590106840F0080010601068CDE9D6
:1027B000005600F00800CDE9047069462448CDE9D0
:1027C000024500F0E7FA00220521142000F098FCF1
:1027D000142032E0DFF87CE0F44530D1D0F800C0BE
:1027E0004CF0806CC0F800C0D0F800C001290CF09B
:1027F000806CCDF814C0196007D1016841F00071F8
:102800000160006800F000700590106840F0020060
:102810001060106802AB00F0020005906020CDE966
:10282000000683E8B00069460B4800F0B3FA0022C6
:102830000521402000F064FC402000F053FC07B06C
:10284000F0BD000000640040440500203038024024
:10285000000C024000680040000402407047FEF790
:102860008DBD70477047704770B5044690F82000E2
:10287000012804D0606A40F40020606218E0022061
:1028800084F820002068016821F00101016000F057
:1028900087FB05460EE000BF00F082FB401B0A28C4
:1028A00008D9606A40F400306062052084F8200096
:1028B000012070BD20684068C007EDD1606270BD26
:1028C000704770477047704770477047704770B5E2
:1028D0004379012B1CD00126467102230371056840
:1028E0002B6802F0100440F6FE72A2409343D1E937
:1028F00000210A43A2401A432A6001680A68C023E3
:10290000A3409A430A60067100214171084670BDD8
:10291000022070BD70B5040003D02079002510B1ED
:1029200005E0012070BD6571204600F007F8022027
:102930002071256101202071002070BD10B586B086
:10294000044614216846FDF7E7FC114920688842D7
:102950001CD110480021026842F000520260006859
:1029600000F0005005900B481038026842F0010258
:102970000260006800F00100059010200090032024
:10298000CDE901016946044800F004FA06B010BD23
:1029900000740040403802400000024070B54279A7
:1029A000012A1ED0012242710223037104682668A5
:1029B00001F0100302FA03F52E4326600029016896
:1029C00011D00C6804F470153C249C40A54203D13E
:1029D0004B6843F002034B600271002141710846CD
:1029E00070BD022070BD0B68C3F383030F2BF3D1BE
:1029F0004B6843F00103EEE72DE9F0410446876D93
:102A000000F0CEFA064694F835000025022806D0DC
:102A10008020606584F834500120BDE8F081206892
:102A2000016821F0160101602068416921F08001F0
:102A30004161206C08B9A06C20B12068016821F0C8
:102A4000080101602068016821F0010101600CE0CB
:102A500000F0A6FA801B052807D920206065032016
:102A600084F8350084F83450D7E720680068C00740
:102A7000EED194F85C103F208840B860012084F8C3
:102A8000350084F834500020C7E790F8351002294B
:102A900003D08021416501207047052180F8351061
:102AA0000068016821F0010101600020704700000A
:102AB0002DE9F84304464FF00009CDF80090634833
:102AC0004FF41651A56D0068B0FBF1F72E6894F82D
:102AD0005C10082000FA01F131420FD021680A6829
:102AE00052070BD50A6822F004020A6094F85C10C1
:102AF0008840A860606D40F00100606594F85C104B
:102B00004FF0010808FA01F0304208D02168496905
:102B1000090604D5A860606D40F00200606594F875
:102B20005C1004208840304208D021680968890779
:102B300004D5A860606D40F00400606594F85C10F6
:102B400010208840304218D021680968090714D540
:102B5000A86020680168490304D50068000308D50F
:102B6000A16C07E00168C90503D4016821F00801E0
:102B70000160216C09B12046884794F85C10202040
:102B80008840304231D021680968C9062DD5A86037
:102B900094F8350005282068016806D0490347D518
:102BA000006800031DD4616C1CE021F01601016077
:102BB0002068416921F080014161206C08B9A06C56
:102BC00020B12068016821F00801016094F85C10D0
:102BD0003F208840A86084F8358084F83490216DC7
:102BE0001FE0E16B09B120468847606D00282BD0BB
:102BF000606DC00714D0052084F835002068016896
:102C000021F0010101600098401C0090B84203D8F7
:102C100020680068C007F6D184F8358084F83490C5
:102C2000E16C002910D001B02046BDE8F043084710
:102C30000168C905D5D4016821F01001016084F84C
:102C4000358084F83490CCE7BDE8F883480500204F
:102C50002DE9F041044600F0A3F906465CB10220DC
:102C600084F83500002584F834502068016821F08C
:102C7000010101600DE00120BDE8F08100F090F954
:102C8000801B052805D920206065032084F83500C5
:102C9000F2E720680068C007F0D122681168204878
:102CA0000140D4E901031843D4E903363343184300
:102CB00063691843A3691843E3691843236A1843F7
:102CC0000843616A042903D1D4E90B13194308436B
:102CD000106020684069666A20F0070130460E43A4
:102CE000012704280CD1A06A0643E06A40B12046BF
:102CF000FEF71CFF20B14020606584F83570BAE70C
:102D0000206846612046FEF7FDFE94F85C203F21D6
:102D100091408160656584F835700020ACE7000063
:102D20003F8010F02DE9F0410446866D90F83400A4
:102D3000002501280DD0012084F8340094F8357066
:102D40000020012F07D084F8340002252846BDE872
:102D5000F0810220FBE7022784F835706065204689
:102D6000FEF70EFF94F85C103F208840B0602068AA
:102D7000016841F016010160206C20B120680168F3
:102D800041F0080101602068016841F00101016023
:102D9000DCE700002DE9F84FDFF8BCA10022012597
:102DA00003264FF00F090AF1040BAAF1040E00BF2D
:102DB0000B6805FA02F42340A34270D10F7907F0A3
:102DC0000307012F01D0022F16D187684FEA42086E
:102DD00006FA08FC27EA0C07D1F80CC00CFA08FC2C
:102DE0004CEA070CC0F808C04768A7430C79C4F345
:102DF000001494403C4344600C79E443A4070AD097
:102E0000C4684FEA420C06FA0CF7BC438F6807FA15
:102E10000CF72743C7600C7904F00304022C12D18D
:102E2000D40800EB840CDCF820405707FF0E09FAA9
:102E300007F824EA0804D1F8108008FA07F848EAED
:102E40000408CCF8208004684FEA420C06FA0CF71C
:102E5000BC430F7907F0030707FA0CF72743076015
:102E60004C6814F4403F70D03C4C276847F48047CE
:102E70002760246822F0030704F480440094384C4F
:102E800007EB040CDCF8084897074FEA177809FAB3
:102E900008F7BC43334FB84202D1002724E054E086
:102EA000314FB84201D101271EE0304FB84201D165
:102EB000022719E02E4FB84201D1032714E02D4F0D
:102EC000B84201D104270FE02B4FB84201D10527AA
:102ED0000AE02A4FB84201D1062705E0284FB84240
:102EE00001D1072700E0082707FA08F72743CCF8A5
:102EF0000878DAF800405746D1F804C09C435FEAEE
:102F0000CC2C00D51C433C60DBF800405F46D1F878
:102F100004C09C435FEA8C2C00D51C433C60DEF867
:102F200000407746D1F804C09C435FEA8C3C00D552
:102F30001C433C60084F083F3C68D1F804C09C43E8
:102F40005FEACC3C00D51C433C60521C102AFFF4C5
:102F50002FAFBDE8F88F0000083C01404438024024
:102F6000003001400000024000040240000802401E
:102F7000000C024000100240001402400018024001
:102F8000001C0240426921EA02030A4043EA02416E
:102F9000816170470AB1816170470904FBE7000055
:102FA00001488068704700004C050020094801680E
:102FB000094A1278114401604FF08041496A006863
:102FC00000EB4002C2EBC01001EBC00003490860F7
:102FD00070470000540500204C0500201000002020
:102FE0000B4810B5016841F400710160016841F4BB
:102FF00080610160016841F480710160032000F08C
:103000009FF8002000F006F800F050F8002010BDF6
:10301000003C024030B50546204887B000240168D6
:1030200041F001010160006806A900F00100009074
:1030300001A800F031F90498B0B100F04DF940005A
:1030400017494FF08042B0FBF1F11648491E02606B
:1030500040F2E732C0E90324C0E90114846100F0C2
:10306000B7FB040003D015E000F036F9E8E70D489F
:1030700000F0FEFB04000DD11C2000F033F8102DF1
:1030800007D2002229461C2000F03AF806480560C5
:1030900000E0012407B0204630BD00004038024067
:1030A00040420F0084210020500500200C4882B0CF
:1030B000016841F480410160006800F480400090A4
:1030C0000748001F016841F080510160006800223C
:1030D00000F0805000900F21901E02B000F010B858
:1030E00044380240002809DB00F01F020121914012
:1030F0004009800000F1E020C0F800117047000096
:10310000F0B40E4B1B680C46C3F30223C3F1070552
:10311000042D00D90425191D072901D2002300E040
:10312000DB1E012606FA05F1491E214099409E400A
:10313000761E16403143F0BC03F0D1BC0CED00E02C
:10314000064900F0070208684FF6FF03184040EAFE
:103150000220034A10430860704700000CED00E0B5
:103160000000FA052DE9F0470E46050065D0DFF8AE
:103170001481D8F80000F7B200F00700B04207D27F
:1031800088F80070D8F8000000F00700B04254D171
:1031900028683D4C810712D5400703D5206840F4CC
:1031A000E05020602878000703D5206840F4604094
:1031B00020602068A96820F0F0000843206028788B
:1031C000C0072DD0304968680839012812D002287C
:1031D00013D0032811D00968890700292DDA216846
:1031E00021F0030101432160FFF7DAFE814641F23D
:1031F000883A0EE009688903EFE709688901ECE77E
:10320000FFF7CEFEA0EB0901514502D90320BDE82E
:10321000F0872068696800F00C00B0EB810FEFD1F7
:10322000D8F80010404601F00701B14207D90770F5
:10323000006800F00700B04201D00120E7E72878DD
:10324000400705D52068E96820F4E0500843206075
:103250002878000706D52068296920F4604040EAF4
:10326000C100206000F058F82168084AC1F303113A
:10327000515CC8400649086006480068FFF7CAFE6E
:103280000020C4E7003C0240083802404013010817
:1032900048050020500500200F2202600C4A1368E8
:1032A00003F003034360136803F0F00383601368C3
:1032B00003F4E053C36012684FF4E05303EAD20210
:1032C00002610448006800F00700086070470000D1
:1032D00008380240003C024004480549006809687B
:1032E000044AC1F38221515CC84070474805002060
:1032F000083802405013010804480549006809686D
:10330000044AC1F34231515CC8407047480500206F
:103310000838024050130108154810B5006810F035
:103320000C02144813D01449042A0FD0082A0ED1D5
:103330000F4C241F2268236802F03F025B0207D56E
:103340002068C0F38810A0FB010106E0084610BD0C
:103350002168C1F38811A1FB00010023FCF792FF53
:103360002168C1F30141491C4900B0FBF1F010BDD7
:10337000083802400024F40040787D012DE9F84F20
:1033800004006ED02078DFF84C93C007A9F1040543
:103390004AD009F104000168C1F38101012908D074
:1033A0000068C0F3810002280AD1D9F80000400269
:1033B00006D52868800337D560680028E1D033E05F
:1033C0006068B0F5803F10D0B0F5A02F286810D00D
:1033D00020F480302860286820F48020286060680D
:1033E000A8B1FFF7DDFD06460DE0286840F4803007
:1033F000F4E740F480202860F7E700BFFFF7D0FD36
:10340000801B642873D828688003F7D50CE0FFF789
:10341000C7FD064605E000BFFFF7C2FD801B64281C
:10342000F0D828688003F7D42078DFF8AC828007D2
:103430004FF0000A3ED5A748001D016811F00C0F9F
:1034400008D00068C0F3810002280BD1D9F8000031
:10345000400207D42868800716D5E068012800D10B
:1034600012E033E1E068B8B10120C8F80000FFF7CE
:1034700097FD064605E000BFFFF792FD801B02287E
:10348000C0D828688007F7D52868216920F0F8009F
:1034900040EAC10028600DE0C8F800A0FFF780FDF9
:1034A000064604E0FFF77CFD801B02281FD8286831
:1034B0008007F7D42078000722D5864F87486169B6
:1034C000703771B101210160FFF76AFD064604E023
:1034D000FFF766FD801B022809D838688007F7D5FA
:1034E0000EE0C0F800A0FFF75BFD064605E082E0B5
:1034F000FFF756FD801B02287DD838688007F7D477
:103500002078400768D5DFF8CCB100270BF13C0BE1
:10351000DBF80000C0000BD4DBF8001041F0805154
:10352000CBF80010DBF80000012700F0805000907D
:103530006B4E3068C00510D4306840F48070306045
:10354000FFF72EFD009005E0FFF72AFD0099401AD5
:10355000022850D83068C005F6D55E4EA0686C369B
:1035600001280FD00528306810D020F0010030600D
:10357000306820F004003060A068B8B1FFF710FD9B
:1035800000900FE0306840F00100F4E740F00400E4
:103590003060F7E7FFF704FD0099411A41F28830E7
:1035A000814266D830688007F4D50EE0FFF7F8FC5A
:1035B000009007E0FFF7F4FC0099411A41F28830CF
:1035C000814256D830688007F4D42FB1DBF8001060
:1035D00021F08051CBF80010A069C8B33D49091D06
:1035E0000968C1F3810102294AD00228504607D058
:1035F000C8F8600000E03CE0FFF7D2FC04463BE086
:103600004746C8F86000FFF7CBFC064605E000BF60
:10361000FFF7C6FC801B02282BD828688001F7D44E
:10362000D4E907010843A16A2E4A490802EB014187
:10363000626A41EA8211084394F82C1040EA016161
:10364000C9F8001001203866FFF7AAFC044606E01E
:103650003EE000BFFFF7A4FC001B022809D8286841
:103660008001F7D534E000BFFFF79AFC001B022869
:1036700002D90320BDE8F88F28688001F4D427E040
:103680000128F7D0D9F80000E26900F480019142E6
:103690001CD1226A00F03F01914217D147F6C07158
:1036A000626A0140B1EB821F10D1A26A4FF0FF3372
:1036B00000F4403103EB5202B1EB024F06D194F813
:1036C0002C1000F07060B0EB016F01D00120D1E749
:1036D0000020CFE70438024000004742800E4742F6
:1036E000007000400000FFFF7047704710B590F871
:1036F0003C20012A22D0012280F83C20CA688C6834
:1037000022F4407222434C6822F4806222430C6807
:1037100022F4006222430C6922F4805222434C6955
:1037200022F400522243C969002322F480420A4352
:1037300001684A6480F83C30002010BD022010BDB2
:1037400070B590F83C20012A32D0012480F83C402A
:10375000022280F83D2003685A689D6822F07006B6
:103760000A6832435A60134B02689A4214D0B2F18D
:10377000804F11D0104B9A420ED0104B9A420BD072
:103780000F4B9A4208D00F4B9A4205D00E4B9A42EB
:1037900002D00E4B9A4204D1496825F080031943A8
:1037A000916080F83D40002180F83C10084670BDD3
:1037B000022070BD000001400004004000080040ED
:1037C000000C00400004014000400140001800408F
:1037D00010B5040003D094F83D0010B107E00120BB
:1037E00010BD002084F83C00204600F01FF80220A5
:1037F00084F83D00211D206802F0BAFC012084F805
:10380000460084F83E0084F83F0084F8400084F8C5
:10381000410084F8420084F8430084F8440084F8AE
:10382000450084F83D00002010BD000008B5006888
:103830000C49884208D10C48016841F0010101603F
:10384000006800F001000BE00849884209D10648F1
:10385000001F016841F002010160006800F00200F1
:10386000009008BD000001404438024000040040C0
:1038700090F83D10012901D001207047022180F805
:103880003D100168CA6842F00102CA60006811492F
:10389000884214D0B0F1804F11D00F4988420ED029
:1038A0000E4988420BD00E49884208D00D49884203
:1038B00005D00D49884202D00C49884204D1816864
:1038C00001F00701062903D0016841F00101016000
:1038D0000020704700000140000400400008004044
:1038E000000C00400004014000400140001800406E
:1038F00070B5044690F83C000025012817D0012639
:1039000084F83C60022084F83D002068826822F040
:10391000770222F47F4282600868502838D00DDC9C
:1039200020284FD005DC90B3102811D14AE00220A6
:1039300070BD302846D040280AD13BE060282FD007
:1039400070280DD0B0F5805F03D0B0F5005F12D0C5
:10395000012584F83D60002084F83C00284670BDB5
:10396000CB68D1E90121206802F073FC20688168EE
:1039700041F0770109E0CB68D1E90121206802F02C
:1039800068FC2068816841F480418160E1E719E0CA
:10399000CA684968206802F031FD5021206806E0BD
:1039A000CA684968206802F03AFD6021206802F088
:1039B0005AFCCEE7CA684968206802F01FFD402122
:1039C0002068F4E7226801461046F0E7704770B5BA
:1039D0000446006801694FF00005C943890715D402
:1039E000C168C943890711D4E91E0161012020770C
:1039F000206880698007204602D0FFF7E7FF04E0D7
:103A000000F0DAF8204600F06CF9257720680169AB
:103A1000C943490717D4C168C943490713D46FF094
:103A200004010161022020772068806910F4407F42
:103A3000204602D0FFF7CAFF04E000F0BDF82046A0
:103A400000F04FF9257720680169C943090716D4AA
:103A5000C168C943090712D46FF00801016104204D
:103A600020772068C0698007204602D0FFF7AEFFAC
:103A700004E000F0A1F8204600F033F92577206833
:103A80000169C943C90617D4C168C943C90613D41B
:103A90006FF010010161082020772068C06910F4E0
:103AA000407F204602D0FFF791FF04E000F084F849
:103AB000204600F016F9257720680169C943C90737
:103AC00008D1C168C943C90704D1891E01612046D4
:103AD00000F06CF920680169C943090609D4C1687E
:103AE000C943090605D46FF0800101612046FFF744
:103AF000FBFD20680169C943490609D4C168C9436F
:103B0000490605D46FF040010161204600F055F9E7
:103B100020680169C94389060BD4C168C943890675
:103B200007D46FF0200101612046BDE87040FFF727
:103B3000DCBD70BD10B586B0044614216846FCF7A4
:103B4000EBFB2368174C002117480222A34211D136
:103B5000036843F010030360006800F01000059054
:103B600090020090CDE901210120CDE903106946C2
:103B70000E4812E00E4CA34211D1036843F001033A
:103B80000360006800F001000590C0200090CDE9BE
:103B90000121CDE9031269460648FFF7FBF806B09C
:103BA00010BD00000000014030380240001002400B
:103BB0000004004000000240704770B5044690F8D1
:103BC0003C0000260D4601280FD0012084F83C005F
:103BD0006AB1042A1DD0082A2FD00C2A3FD0012612
:103BE000002084F83C00304670BD022070BD206883
:103BF00002F042FB2068816941F008018161206880
:103C0000816921F004018161206881692A69114379
:103C100011E0206802F060FB2068816941F40061D6
:103C200081612068816921F48061816120688169F6
:103C30002A6941EA02218161D2E7206802F082FB11
:103C40002068C16941F00801C1612068C16921F0A3
:103C50000401C1612068C1692A69114311E020682B
:103C600002F0A4FB2068C16941F40061C1612068D1
:103C7000C16921F48061C1612068C1692A6941EA92
:103C80000221C161ACE710B5040003D094F83D00F7
:103C900010B107E0012010BD002084F83C00204650
:103CA00000F01EF8022084F83D00211D206802F07B
:103CB0005FFA012084F8460084F83E0084F83F0053
:103CC00084F8400084F8410084F8420084F84300FE
:103CD00084F8440084F8450084F83D00002010BDBD
:103CE0007047704710B50446022249B104290ED02E
:103CF000082913D094F84100012816D0012010BDE6
:103D000094F83E000128F9D184F83E200FE094F8A1
:103D10003F000128F2D184F83F2008E094F84000E9
:103D20000128EBD184F8402001E084F841200122F1
:103D3000206802F081FA16492068164A884201D0AC
:103D4000904203D1436C43F40043436420688842AB
:103D500013D0B0F1804F10D00F4988420DD00F49D9
:103D600088420AD00E49884207D0904205D00D49BA
:103D7000884202D00C49884204D1816801F00701D1
:103D8000062903D0016841F001010160002010BD47
:103D90000000014000040140000400400008004011
:103DA000000C004000400140001800400068B0F1E5
:103DB000804F01D1FFF7FAB87047704770477047DE
:103DC000F8B5016804460868CA684B6910F00F0F1F
:103DD0004FF0000559D003F0010602F49077374305
:103DE00065D0C10705D0D10503D5216C41F0010193
:103DF0002164410705D5D90703D0216C41F00201A8
:103E00002164810705D5D90703D0216C41F0040155
:103E10002164010707D502F02001314303D0216C52
:103E200041F008012164216C00293AD0800604D5B4
:103E3000900602D5204602F0A5FB20684069216C5F
:103E4000C0F38010090700D460B3204602F065FB80
:103E500020684069400621D52068143050E8001FD2
:103E600021F0400140E80012002AF5D1A06BA8B172
:103E70006C490165A06BFEF708FE002811D0A06B0D
:103E8000016D01B0BDE8F040084783060FD59306E9
:103E90000DD52046BDE8F84002F074BB2046FFF780
:103EA0008EFFF8BD2046FFF78AFF2564F8BD266B1C
:103EB0002023012E79D1C60677D5D60675D5086898
:103EC000486800904869400640D5A16B0868406882
:103ED0000004000CEAD0A28D8242E7D9E085C869CF
:103EE000B0F5807F2DD020680C3050E8001F21F401
:103EF000807140E80012002AF5D12068143050E8A3
:103F0000001F21F0010140E80012002AF5D12068CD
:103F1000143050E8001F21F0400140E80012002A50
:103F2000F5D184F83E30256320680C3050E8001F3E
:103F300021F0100140E80012002AF5D1A06BFEF735
:103F40005BFDA08DE18D401A81B229E0A08DE18D4D
:103F5000401A81B2E08D0028A8D00029A6D02068A0
:103F60000C3050E8002F22F4907240E80026002E1A
:103F7000F5D12068143050E8002F22F0010240E80B
:103F80000026002EF5D184F83E30256320680C30E1
:103F900050E8002F22F0100240E80023002BF5D15A
:103FA0002046FFF70BFFF8BDFFE705062BD51506EA
:103FB00029D594F83D002128F5D1A068B0F5805F9F
:103FC00001D12069B0B1206A411C216221680078CA
:103FD0004860E08C401E0004000CE084E3D12068BF
:103FE000C16821F08001C1602068C16841F04001D2
:103FF000C160D8E7206A0088C0F308004860206AE2
:10400000801C2062E5E74006CDD55006CBD5CA68B6
:10401000204622F04002CA6084F83D3000F084FA65
:10402000C1E700007564000870B5040004D094F87E
:104030003D00002510B106E0012070BD84F83C5021
:10404000204600F023F8242084F83D002068C16851
:1040500021F40051C160204602F0F4FA20680169A1
:1040600021F4904101612068416921F02A014161F8
:104070002068C16841F40051C1602564202084F8A3
:104080003D0084F83E00002070BD00002DE9F04F97
:1040900087B0044614216846FCF73EF9F048DFF883
:1040A000BC8310380222D4F800C0ED4B0321DFF8A6
:1040B000B4E3002597060615C44540D1D3F800C0E7
:1040C0004CF4002CC3F800C01B6803F400230593D4
:1040D000036843F001030360006800F001000590ED
:1040E0000120CDE90201CDE90012082004906946C3
:1040F0007046FEF74FFEDFF87483DB494046C8F890
:104100000010C0E90175C0E90356C8F81450C8F89A
:104110001850C8F81C50C8F82050C8F82450FEF7B2
:1041200097FD08B1FDF7CAFEC4F8388000220521CA
:104130003420C8F83840FEF7E3FF34207AE0DFF897
:1041400030834FF480794FF0400BC44578D1D3F8D9
:1041500000C000254CF4801CC3F800C01B6803F4A9
:1041600080130593036843F004030360036803F0BE
:1041700004030593036843F008030360006888465E
:1041800000F0080005904FF48050CDE900020120B6
:10419000CDE902010820049092466946B548FEF731
:1041A000F9FD0420CDE9000A0120CDE9020808202C
:1041B00004906946B048FEF7EDFDDFF8B082AA49E9
:1041C00008F1600830394046C8F80010C0E90175B0
:1041D000C0E90356BA464FF44037C8F82070C8F813
:1041E0001450C8E90659C8F82450FEF731FD08B14B
:1041F000FDF764FE9D4D9C48C4F83880C03578308A
:10420000C8F8384085E8010C0020C5E9030668615C
:10421000A861C5E9070768622846FEF719FD08B1DD
:10422000FDF74CFE6563002205213520AC63FEF7E7
:1042300067FF3520FEF756FF07B0BDE8F08FFFE7B8
:10424000DFF838824FF0070AC4455AD1844BA8469C
:104250001B1DD3F800C04CF0100CC3F800C01B6845
:1042600003F010030593036843F001030360006843
:10427000CDE9025100F0010005904FF4C060CDE996
:104280000002CDF810A069467046FEF783FDDFF806
:10429000F4A17B495046CAF80010C0E90175C0E995
:1042A0000356CAF81450C0E906594FF40039CAE958
:1042B0000895FEF7CDFC08B1FDF700FE714D704882
:1042C000C4F838A060357830CAF8384085E88108ED
:1042D000C5E90386C5F81480C5F81880C5E90789C3
:1042E0002846C5F82480FEF7B3FC08B1FDF7E6FDCB
:1042F0006563002205212520AC63FEF701FF252020
:1043000098E7DFF88481C44543D1D3F800C04CF46A
:10431000003CC3F800C01B6803F400330593036836
:1043200043F0010303600068CDE9025100F0010091
:1043300005900C20CDE90002CDF810A0694670462A
:10434000FEF728FDDFF83C81474908F1C0084831F5
:104350004046C8F80010C0E90175C0E90356C8F826
:1043600014504FF44031C8F81850C8E90791C8F804
:104370002450FEF76DFC08B1FDF7A0FDC4F83880AD
:10438000002205212620C8F83840FEF7B9FE262075
:1043900050E7DFF8F880C4457FF44EAFD3F800C093
:1043A0004CF4802CC3F800C01B6803F480230593F1
:1043B000036843F0020303600068CDE9025100F096
:1043C000020005904FF44060CDE90002CDF810A046
:1043D00069462F48FEF7DEFCDFF8B88022494046E8
:1043E000BA46C0E90356C8F814501831C8F8185036
:1043F00088E8020C4FF40037C8E90757C8F8245082
:10440000FEF726FC08B1FDF759FDC4F83480C8F862
:104410003840DFF88080144908F1600818394046B8
:10442000C8F80010C0E901A5C0E90356C8F820701B
:10443000C8F81450C8E90659C8F82450FEF708FC1B
:1044400008B1FDF73BFDC4F8388000220521272084
:10445000C8F83840FEF754FE2720EBE6004C004039
:10446000403802400000024040600240841E0020AC
:104470000050004000080240000C024000100140C3
:1044800040640240A41F0020004400400048004057
:1044900000040240C42000207047000070B50446AC
:1044A00090F83D00202836D191B38AB394F83C00AF
:1044B000012830D0012084F83C002162A284E284EB
:1044C00000252564212084F83D00636B1348D863E0
:1044D000636B13481864636B1248D864606B1346AF
:1044E00005652668606B321DFEF71CFC21686FF0C5
:1044F0004000086084F83C502068143050E8001FE9
:1045000041F0800140E80012002AF5D1002070BD82
:10451000FFE70120FBE70220F9E70000CF64000875
:10452000116500088564000870477047FEE70000C9
:1045300070B50D4C0025C4F8B4520C48016821F048
:1045400040410160016841F080410160C4F8BC5203
:10455000022004F52D7404F029FF012020600220C0
:1045600004F024FF256070BD00804042000402403A
:1045700070B50D4C0025C4F8B4520C48016821F008
:1045800040410160016841F0804101600126C4F8AA
:10459000BC62022004F52D7404F008FF266002209E
:1045A00004F004FF256070BD00804042000402401A
:1045B0002DE9F047814616480024016821F040416A
:1045C000016001680160134E254627464FF001083F
:1045D000C6F8B472022004F0E9FEC6F8B4826006A0
:1045E000040ED6F83C0208B1641CE4B2012004F0C9
:1045F000DDFE6D1CEDB2082DEAD3B9F1000F04D039
:10460000FFF796FF2046BDE8F087FFF7B1FFF9E717
:1046100000040240008040422DE9F0410646144863
:10462000016821F040410160016841F08041016072
:10463000104C0027C4F8B4723D464FF00108F00951
:10464000C4F8BC027006060E022004F0AFFEC4F8E7
:10465000B482022004F0AAFEC4F8B472022004F06E
:10466000A5FE6D1CEDB2082DE9D3BDE8F081000078
:10467000000402400080404270B50D48016821F0FE
:1046800040410160016841F080410160094C012016
:10469000C4F8BC02C4F8B402042004F52D7404F07C
:1046A00085FE0025A560042004F080FE256070BD15
:1046B00000040240008040420E4810B5016821F01D
:1046C00040410160016841F0804101600A4C0020D6
:1046D000C4F8B402C4F8BC02042004F52D7404F03C
:1046E00065FE01202060A060BDE81040042004F0B9
:1046F0005DBE0000000402400080404270B51248D8
:104700000024016821F040410160016801600F4D03
:104710000126C5F8BC62304604F048FEC5F8B46214
:10472000012004F043FE07E0641CE4B2FA2C03D934
:10473000FFF7C2FF012070BDD5F83C020028F3D17D
:10474000C5F8B40270BD0000000402400080404281
:10475000064804F012FA00F015F809F093FD0AF08B
:104760001FF9052007F062F8F2E70000DC0D0020D9
:10477000F7EE001A21EE000A31EEC11A01EE200A0E
:10478000704700002DE9F04FFB4900262DED028B0C
:1047900081B00868F94D4FF00108427A012A02D130
:1047A000027B032A19D0AE718B460C4607F094FDAC
:1047B000206803F0E4FA206803F02CFBF04C02229E
:1047C000E078002872D0A879DFF8B893052338B1D3
:1047D00001284AD06E71E67000E285F80680E3E7B2
:1047E000DBF80060717A022904D0032904D0012982
:1047F00023D026E06A7124E0B6F91010B1F5167FD7
:1048000018DBE14A0421697152694FF4FA61918021
:10481000D9F804201268B2F90020342A03DD41F2ED
:1048200034039A4203DBFF2289F8242009E089F847
:10483000248006E00321697103E0317B022900D165
:104840006B71DBF80010CA7A087B824204D0022820
:1048500002D163785B426370824204D0012802D1A6
:10486000A2785242A270C872B8E1DBF8000090F85A
:104870005D70042F03D190F86370042F17D090F867
:104880008170DFF808A3042F21D0032F22D090F8E5
:104890006F70042F29D0032F2BD090F85770042F5E
:1048A0002AD0C37E042B29D06BB32EE088E16E7131
:1048B00088F31388BFF34F8FB5480168B54A01F4F8
:1048C000E06111430160BFF34F8F00BFFDE76A71E4
:1048D0002E812EE08AF81E606A79042A02D1032212
:1048E0006A712E8189F8256015E003226A712E8194
:1048F00034E089F825800EE06B7111E0E37A23B192
:104900008AF8142007E0227B1AB99AF81420022AA8
:1049100001D18AF814806A79022A0AD0032A1DD0AC
:1049200090F8501094F90420914201D001297DD0D3
:104930009AE090F8741094F90820914208D0012967
:1049400006D19AF81E203AB15FF000028AF81E20C4
:1049500090F8740020728AE00122F7E790F8262090
:1049600094F906309A4207D0012A05D1D9F82020BF
:10497000538A03F50063538290F82620A27190F8C1
:10498000322094F907309A4207D0012A05D1D9F88C
:1049900020305A8AA2F500625A8290F83220E271E1
:1049A00090F8680094F9052090420CD001280AD1B3
:1049B000D9F82020508A00F580505082724884F83F
:1049C000008040698680DBF8007097F868006071AD
:1049D000B87E94F90A1088421DD001281BD16E4878
:1049E0000078C0B96D480078A8B9E07A98B18AF823
:1049F0001460DAF80000016800914869FBF7B0FD27
:104A00009FED671B53EC112BFBF732FDFBF7B9FD54
:104A1000009948612673B87EA07297F8740094F9E3
:104A20000810884207D0012805D100E019E0E07A9B
:104A300068B10020E07297F87400207297F838008F
:104A400094F90910884208D0012802D005E001201D
:104A5000F0E7607B80F00100607397F838006072C7
:104A600005E02989491C298190F85000207120789F
:104A700001280BD1D9F82000B0F912104A48B0F93A
:104A80000000081A3230642800D82670207B60B9F4
:104A9000DAF8000000684269C168881A002800DC62
:104AA000501A142801DC84F80C80D9F8041099F805
:104AB000252034260968534206EB8323B1F9001000
:104AC000994205DD41F2340303EB8222914203DB7C
:104AD000FF2189F8241001E089F82480DBF8000028
:104AE00090F85100032802D06879042876D1042078
:104AF000687129890320B1FBF0F200FB121020B18C
:104B0000012808D0022869D108E01F484FF47A61D3
:104B10004069818062E04FF4FA6029E0206940F248
:104B20001451B0FBF1F201FB1201490000EE101A22
:104B3000DFED1E0A401CB8EE400A206120EE200A7C
:104B400010EE100AFBF73CFD41EC100B02F06CFC80
:104B50009FED171B51EC100B53EC112BFBF78EFC48
:104B60009FED151B53EC112BFBF7E1FBFBF709FD48
:104B700005494969888031E0A8040020D00D002053
:104B8000C4050020B0040020DC0D0020900E0020A1
:104B90000CED00E00400FA05DA050020DB0500203A
:104BA0000000000070FFE14000050020C3F5484010
:104BB0000000000000709740000000000058AB406B
:104BC000DBF80000407A022801D0012805D184F8E2
:104BD0000380A879C8B3032068716E711C484169CD
:104BE0008847DBF800009FED1B8A5C46B0F9140093
:104BF000B0EE481A00EE100ADBF80400F8EEC00A26
:104C0000C0ED010ADBF80000B0F9160000EE100A52
:104C1000DBF80400B8EEC00A80ED020A90ED030A4A
:104C2000FFF7A6FD6068B0EE481A80ED030AD0EDEC
:104C3000020A90ED040AFFF79BFD606880ED040A0C
:104C400001B0BDEC028BBDE8F08FFFE76A71C4E7ED
:104C5000A8060020CDCCCC3D2DE9F0416C4904469E
:104C60006B484F796D4990F806800122694D6A4E74
:104C7000002091F90230DFF8A8C1B8F1000F12D07E
:104C8000B8F1010F75D1022F7BD0002F7ED0654D7A
:104C90004FF2600695F9005075436582002B6BD08A
:104CA000012B6AD0A8E057B15A4D022F95F9006048
:104CB000594D95F9005018D0032F35D13DE02073A0
:104CC00023681B689861608223681B685861327092
:104CD0002A700A7022681268108222681268D060F6
:104CE0008888401C8880E6201CE0227388468BB9A7
:104CF00098F90000A8420DD0206807687869FBF792
:104D00002FFC9FED491B53EC112BFBF7B1FBFBF77D
:104D100038FC786188F80050012E02D1A07F01286C
:104D20002DD13220FCF710FD41480068017BC17293
:104D3000BDE8F0413F4800F073BF022727739BB9DD
:104D4000012D0DD0236841F204051B68C3F818C07B
:104D500023681B68B3F90230EB4205DB4A7003E0BD
:104D60002268126890614870012E07D0A4F812C022
:104D700005E04BE005E009E023E03AE060827120C5
:104D8000D0E760822168096888612EE0207323687B
:104D90001B689861608223681B68586123681B68E0
:104DA000D86032702A700A702268126810822268F5
:104DB000126810808888401C8880E620FCF7C4FCBC
:104DC0001AE023681B68B3F90250654500DB4A709E
:104DD00094F914204AB1012A02D0022A05D102E036
:104DE0009861487001E0C3F818C0124800F018FF3D
:104DF00002E01048FCF786FFA07F012804D0712054
:104E0000BDE8F041FCF7A0BC3220F9E7BDE8F08135
:104E1000D00D0020C5050020C6050020D8050020C3
:104E200060F0FFFFCF0500200000000070FFE140B0
:104E3000A8040020900E0020DFF85080144E0127B7
:104E4000DFF85090144C00257168B1F900001E285D
:104E500009DB306845728D70677088F800502078E3
:104E6000012805D00EE0401C0880A9F800502770EA
:104E70006078012806D16570084805F0EDFA084809
:104E800003F090FE022006F0D1FCDDE7C70500200C
:104E9000A8040020DC05002018050020B004002034
:104EA000DC0D002070B504683149B4F9003011F808
:104EB0001C2F22800468120222804D7804682A4345
:104EC000228004688A786280046812026280CD7849
:104ED00004682A43628004680A79A2800468120286
:104EE000A2804D7904682A43A280026889794FF430
:104EF0000054D1801F494FF0FF320D7B012D01D0AE
:104F0000097DC1B905682988C91A09B2698101F505
:104F100080560568A64208D9002901DD012600E077
:104F20001646764201EB463169810168B1F90A60A3
:104F3000CD683544CD6010490978002916D0056840
:104F40002988C91A09B2698101F580550368A5420B
:104F500006D9002900DD0122524201EB423159817C
:104F60000068B0F90A20C1691144C16170BD000038
:104F70006C070020900E0020DA05002070B5044672
:104F80000160084615462021FBF7C6F90020656040
:104F9000A8706268192111706268517020812168BF
:104FA000088221680880216848612168C86170BD55
:104FB00010B58AB0040A8DF800408DF80100080A87
:104FC0008DF80200100A8DF804008DF80520180AEB
:104FD0008DF806004FF4007002908DF80310002049
:104FE0008DF80730049005900820069008AB6A46BB
:104FF00002A90248FDF7C0F80AB010BD3C1C002011
:1050000010B58AB0040A8DF800408DF80100080A36
:105010008DF80200100A8DF804008DF80520180A9A
:105020008DF806004FF4007002908DF803100020F8
:105030008DF80730049005900820069008AB6A466A
:1050400002A90248FDF798F80AB010BD641C0020C0
:1050500010B51B4A036812F81C1F19800368090267
:105060001980547803682143198003689178598026
:1050700004680B026380D478016823434B80036883
:105080001179998003680C029C80537901681C4354
:105090008C8091790268D1800168B1F90000B1F982
:1050A0000A20831AB3F5805F07DBA3F5FD500028C3
:1050B00001DCC3F5FD50888110BD101AFBE700002C
:1050C0004807002010B51B4A036812F81C1F1980FE
:1050D0000368090219805478036821431980036822
:1050E0009178598004680B026380D4780168234367
:1050F0004B8003681179998003680C029C80537976
:1051000001681C438C8091790268D1800168B1F9F3
:105110000000B1F90A20831AB3F5805F07DBA3F51D
:10512000FD50002801DCC3F5FD50888110BD101A28
:10513000FBE700006C07002070B5044601600846DC
:1051400015460E21FBF7E8F800206560A87062683C
:105150001921117062685170208170BD10B58AB03C
:10516000040A8DF800408DF80100080A8DF802004D
:10517000100A8DF804008DF80520180A8DF8060035
:1051800040F2FF1002908DF8031000208DF80730D8
:10519000049005900820069008AB6A4602A90248D0
:1051A000FCF7EAFF0AB010BD3C1C002010B5124904
:1051B000036811F81C2F1A80036812021A804C78B9
:1051C000036822431A8003688A785A8003681202AF
:1051D0005A80CC78036822435A8003680A799A80FF
:1051E000036812029A804C79036822439A8000680F
:1051F0008979C18010BD00004807002070B50446C1
:105200000160084615461821FBF786F80020656006
:10521000A87062681921117062685170208170BD98
:1052200070B50546FFF728FA0F4C20784006000EAF
:10523000FFF7F2F9FFF762FA2846FFF7EDF9FFF7FB
:105240005DFAFFF719FA2078012101EB4000C0B2A6
:10525000FFF7E2F9FFF752FA0020FFF7A9F9044639
:10526000FFF72AFA204670BD800000202DE9F041AA
:1052700016460D460746FFF7FFF9134C2078400607
:10528000000EFFF7C9F9FFF739FA3846FFF7C4F9FE
:10529000FFF734FAFFF7F0F92078012101EB400025
:1052A000C0B2FFF7B9F9FFF729FA002406E00120A0
:1052B000FFF77EF9641C05F8010BE4B2B442F6D3A3
:1052C000BDE8F041FFF7F8B9800000207FB5002469
:1052D00015480094019402941249039401604FF41C
:1052E0008031C0E901140461047680F820400F4940
:1052F000C0E90A140125C561C46080F830404561E9
:10530000FCF7CEFE08B1FCF7D9FD0A20CDE9000577
:10531000694602940448FCF71DFE002801D0FCF702
:10532000CDFD7FBD00200140F41B00200100000FD7
:10533000104810B50E4901600321416000214FF46F
:1053400000228160C0E903124FF4401242610176ED
:1053500041768176C176017701214177FDF773F9B6
:10536000002803D0BDE81040FCF7A8BD10BD000028
:10537000006400403C1C0020104810B50E4901603C
:105380000321416000214FF400228160C0E9031233
:105390004FF440124261017641768176C176017701
:1053A00001214177FDF74FF9002803D0BDE81040F7
:1053B000FCF784BD10BD000000680040641C0020A4
:1053C0001CB500240C4900940A4801940860084662
:1053D000FDF7A0FA08B1FCF771FD0220CDE900400D
:1053E000002269460448FDF772FA002801D0FCF754
:1053F00065FD1CBD007400408C1C0020294808B5C8
:10540000016841F400110160016801F4001100918C
:10541000016841F4800101600068002200F480000E
:10542000009005210B20FDF76BFE0B20FDF75AFEC7
:10543000002205210C20FDF763FE0C20FDF752FE33
:10544000002205210D20FDF75BFE0D20FDF74AFE31
:10545000002205210E20FDF753FE0E20FDF742FE2F
:10546000002205211020FDF74BFE1020FDF73AFE2B
:10547000002205212F20FDF743FE2F20FDF732FEED
:10548000002205213A20FDF73BFE3A20FDF72AFED7
:10549000002205214620FDF733FEBDE808404620E6
:1054A000FDF720BE3038024010B59EB01C223849AE
:1054B00002A8FAF718FF002102A806F0C3F9354C3C
:1054C00033491C22E0611C3109A8FAF70CFF0021C6
:1054D00009A806F0B7F92E4920621C22383110A81D
:1054E000FAF701FF002110A806F0ACF92849606224
:1054F0001C22543117A8FAF7F6FE002117A806F06F
:10550000A1F9A06204F1080108208401CDE900019D
:105510000023224620A1254809F05EFB1D490720F3
:10552000091DCDE900010023224621A1234809F0ED
:1055300053FB184906200C31CDE900010023224617
:105540001FA1224809F048FB124905201031CDE97E
:1055500000016400002322461DA1204809F03CFB05
:105560000C4903201431CDE90001002322461CA17F
:105570001E4809F031FB074904201831CDE900012C
:10558000002322461AA11E4809F026FB1EB010BDBA
:10559000D0120108180500204D4F4E49544F525F5C
:1055A0004D4F544F525F5461736B0000394E0008E9
:1055B0004B414C5F5461736B000000005147000881
:1055C0005049445F5461736B00000000CD590008DE
:1055D00047494D5F5461736B00000000D91E0008FD
:1055E000424D495F5461736B00000000C110000818
:1055F0004341525F4D4F44455F5461736B0000005F
:10560000311500082DE9F04F87B014216846FAF7EC
:1056100083FE43480024016841F0040101600168F1
:1056200001F004010591016841F080010160016809
:1056300001F080010591016841F0010101600168FC
:1056400001F001010591016841F01001016001685C
:1056500001F010010591016841F00201016001684B
:1056600001F002010591016841F008010160006844
:10567000DFF8B09000F008004FF4D8450590012203
:1056800029464846FDF786FC002208214846FDF7DA
:1056900081FCDFF894A0002224215046FDF77AFC1B
:1056A000DFF888B04FF42047012239465846FDF70D
:1056B00071FC4FF40078012241461D48FDF76AFC59
:1056C00000950125CDE90154694648460394FDF74C
:1056D00061FB08200326CDE90005CDE902466946B5
:1056E0004846FDF757FB2420CDE90005CDE90246E9
:1056F00069465046FDF74EFB00970396CDE90154ED
:1057000069465846FDF746FBCDF80080CDE90154C7
:10571000694607480394FDF73DFB07B0BDE8F08FED
:1057200030380240000802400000024000040240FD
:10573000000C024010B596B000240F941094119400
:10574000129413941C2108A81494FAF7E5FD202163
:105750006846FAF7E1FD29482749016040F61F51E4
:10576000C0E9011440F2E731C0E9031444618461E7
:10577000FEF72EF808B1FCF7A1FB4FF480500F9014
:105780000FA91E48FEF7B4F808B1FCF797FB1B48B9
:10579000FEF779FA08B1FCF791FB139413A91748A7
:1057A0001494FDF7CDFF08B1FCF788FB6020CDE92C
:1057B00008040A940B940C940D94042208A90F4831
:1057C0000E94FEF7FAF908B1FCF778FB00944FF459
:1057D0000050CDE9044002940194039469460748BF
:1057E0000794FDF783FF08B1FCF768FB0348FEF759
:1057F000A1F916B010BD000000000140A01C00205F
:1058000010B58EB000240794089409940A940B9460
:105810001C2168460C94FAF77FFD2248204901605C
:105820005321C0E9011440F6C311C0E90314846197
:10583000FDF7CEFF08B1FCF741FB4FF48050079015
:1058400007A91848FEF754F808B1FCF737FB1548CC
:10585000FEF719FA08B1FCF731FB0B940BA91148BC
:105860000C94FDF76DFF08B1FCF728FB6020CDE933
:1058700000040294002269460A480494FEF79DF948
:1058800008B1FCF71BFB042269460648FEF795F9B0
:1058900008B1FCF713FB0348FEF74CF90EB010BD3E
:1058A00000040040E81C00200C4810B50A490160C3
:1058B0004FF4E1314160002181600C22C160C0E9F8
:1058C00004128161C161FEF7AFFB002803D0BDE87F
:1058D0001040FCF7F3BA10BD004C0040301D002012
:1058E0000C4810B50A4901604FF4E13141600021D4
:1058F00081600C22C160C0E904128161C161FEF7C0
:1059000093FB002803D0BDE81040FCF7D7BA10BDC8
:1059100000500040741D00200C4810B50A49016079
:105920004FF4E1314160002181600C22C160C0E987
:1059300004128161C161FEF777FB002803D0BDE846
:105940001040FCF7BBBA10BD00100140B81D00208C
:105950000D4810B50B4901600C49416000214FF41E
:1059600080628160C0E903120422C0E90521C1619F
:10597000FEF75AFB002803D0BDE81040FCF79EBAA2
:1059800010BD000000440040FC1D0020A086010066
:105990000C4810B50A4901604FF4E1314160002123
:1059A00081600C22C160C0E904128161C161FEF70F
:1059B0003BFB002803D0BDE81040FCF77FBA10BDC8
:1059C00000480040401E0020FEE770472DED028B8E
:1059D0005D4E5E4FDFF87881DFF878919FED5E8A4B
:1059E0005E4C5F4DDFF87CA1DFF87CB17068807899
:1059F00001284AD084ED0D8A7868807801285AD031
:105A000084ED0D8AD8F80410897801296AD084EDD4
:105A10000D8A00BFD9F80410897801297CD084ED63
:105A20000D8A00231A464E49A81C05F09FFCB5F9C3
:105A30000400B6EE001A00EE100ABAF90000F8EE03
:105A4000C00A00EE100AB8EEC00AFEF791FEBDEEE5
:105A5000C00AB6EE001A10EE100AA880B5F90600CA
:105A600000EE100ABBF90000F8EEC00A00EE100AC2
:105A7000B8EEC00AFEF77CFEBDEEC00A10EE100ABA
:105A8000E880012005F0D2FEB0E73068B0F90810D8
:105A9000B0F9020000EE101AF8EEC00A00EE100A8B
:105AA0003248B8EEC00A05F0F7FEBDEEC00A10EEAF
:105AB000100A3081A0E73868B0F90810B0F9020088
:105AC00000EE101AF8EEC00A00EE100A2748B8EEF1
:105AD000C00A6C3005F0E0FEBDEEC00A10EE100A00
