:020000040800F2
:1000000018040020D9000008B50B00080D0B0008EB
:1000100000000000000000000000000000000000E0
:10002000000000000000000000000000B90B000804
:100030000000000000000000B70B0008BB0B000828
:10004000EB00000800000000EB000008EB000008D7
:10005000EB00000869010008EB00000873010008CC
:1000600000000000EB000008EB000008EB000008B7
:10007000EB000008EB000008EB00000800000000A7
:10008000EB0000080000000000000000EB0000088A
:1000900000000000EB000008EB000008EB00000887
:1000A000EB000008EB000008EB000008EB00000884
:1000B000EB0000080000000000000000000000004D
:1000C0000448854600F03EF800480047950C0008BB
:1000D000C046C04618040020044880470448004732
:1000E000FEE7FEE7FEE7FEE7FEE7FEE72D0C000871
:1000F000C100000830B50B46014600202022012433
:1001000009E00D46D5409D4205D31D469540491B4B
:100110002546954040191546521E002DF1DC30BD94
:10012000D2B201E00270401C491EFBD2704700228F
:10013000F6E710B513460A4604461946FFF7F0FFE6
:10014000204610BD064C0125064E05E0E36807CCAD
:100150002B430C3C98471034B442F7D3FFF7B4FF5D
:10016000B40F0008D40F000810B5022000F034F8D6
:1001700010BD10B5402000F02FF8802000F02CF8C2
:100180000120400200F028F810BD72B6FEE7000022
:1001900070B5044600F0F4F80546601C02D004482F
:1001A0000078241800F0ECF8401BA042FAD370BD90
:1001B00004000020C21F0749FF3AFA3A01D1012288
:1001C0000A60802801D100220A60402801D1022063
:1001D000086070470000002070B50446074DE868CD
:1001E000204203D0EC60204600F00AF82869204243
:1001F00003D02C612046FFF7DDFF70BD00180240E0
:10020000022807D105490868012804D0022801D135
:100210000420086070470320086070470000002039
:10022000F0B500228FE0012797403B40002B7DD0A6
:100230000C79A407A40F012C01D0022C10D18568E1
:1002400054000326A640B543CE68A6402E438660E0
:100250004468BC430D79ED06ED0F9540254345609C
:100260000C79E443A40708D0C56854000326A640CF
:10027000B5438E68A6402E43C6600C79A407A40F30
:10028000022C0CD1D408A40027183D6A5407E40EB0
:100290000F26A640B5430E69A6402E433E62056870
:1002A00054000326A640B5430E79B607B60FA64004
:1002B0002E4306604C68A403A40F43D09508254C38
:1002C000AD002F193D6E9407E40E0F26A640B543EE
:1002D00005263607B04201D100260FE01E4EB0427F
:1002E00001D101260AE01D4EB04201D1022605E0EF
:1002F0001B4EB04201D1032600E00526A6402E4346
:10030000144D3E662C689C434E68F60200D51C4393
:100310002C606C689C434E68B60200D51C436C6030
:100320000C4D80356C689C434E6800E00AE0B603D3
:1003300000D51C436C602C689C434E68F60300D5C6
:100340001C432C60521C0B681C46D44000D06AE74A
:10035000F0BD0000001802400004005000080050EA
:10036000000C00500069084201D0012070470020B5
:100370007047002A01D08161704781627047000098
:10038000014880687047000004000020024881682E
:1003900002788918816070470400002010B500249D
:1003A00007480168821511430160032000F00AF834
:1003B000002801D0012401E000F02CF8204610BDF7
:1003C0000020024070B505460024104E3178002907
:1003D00019D07D20C000FFF78DFE01460C48006853
:1003E000FFF788FE00F07AFB002801D001240BE023
:1003F000042D06D200222946501E00F02DF875600B
:1004000002E0012400E00124204670BD0400002029
:100410001000002008B5094801680122114301605D
:1004200000681040009005484038C26B01040A4340
:10043000C263C06B0840009008BD0000401002403D
:10044000002805DBC106C90E01208840014908606B
:100450007047000000E100E010B500F0E9FB10BDBE
:1004600010B50F4C216803225202914301432160D1
:10047000C11FFF39FA390ED10A48062100684843E6
:100480000949FFF737FE401C02E0002805D0401E56
:1004900061694905F9D4002010BD032010BD00009A
:1004A000007000401000002040420F00F8B50446E4
:1004B0000D46002C0FD0544800684007400FA8425A
:1004C00018D2514F3868C008C00028433860FFF781
:1004D00057FF064609E00120F8BDFFF751FF811BD9
:1004E0004A48814201D90320F8BD38684007400FCF
:1004F000A842F2D12068464E81070DD5400704D5A9
:10050000B068072109030843B060B0680F210902F1
:100510008843A1680843B0602078C0073BD060687A
:1005200001280CD002280FD0002812D038494031C1
:10053000032813D0C969890715D40120F8BD316893
:10054000890310D40120F8BD316889010BD4012042
:10055000F8BD3168490506D40120F8BD096A89074C
:1005600001D40120F8BDB168C908C9000143B160D8
:10057000FFF706FF074607E0FFF702FFC11B23480E
:10058000814201D90320F8BDB06838210840616874
:10059000C9008842F0D11C4801684907490FA942A7
:1005A00016D90168C908C90029430160FFF7E8FEB0
:1005B000074607E0FFF7E4FEC11B1448814201D95A
:1005C0000320F8BD104800684007400FA842F1D151
:1005D0002078400706D5B168072000038143E06812
:1005E0000143B16000F01CF8B1683C228909114058
:1005F000084A515CC906C90EC84007490860074847
:100600000068FFF7DFFEF8BD0020024088130000FD
:1006100000100240740F00081000002008000020A5
:1006200010B5244CA068244A8006400F16D0A0685C
:100630008006410F501001290FD0A1688906490F8B
:10064000022914D0A0688006400F04282CD0A0688E
:100650008006400F03282AD0002010BD2068012109
:100660008004400F81401046FFF744FD10BDE16853
:100670008B079B0FE1684906490F491C032B0CD0DF
:100680001046FFF737FDE1684904490E4843E16829
:10069000490F491CFFF72EFD10BDFFF72BFDE16848
:1006A0004904490E4843F2E70120C00310BD7D20F4
:1006B000000210BD001002400024F400FEB5044604
:1006C000002C0DD020783827C007F94E002851D0D3
:1006D000B0683840F1688907890F102802D003E01C
:1006E0000120FEBD03290AD0082808D00121606836
:1006F000090488420BD13068084330601AE0306842
:10070000800337D56068002834D10120FEBD052361
:1007100001221B049204984206D1306810433060D5
:1007200030680843306005E03068884330603068E6
:1007300090433060606800280ED0FFF721FE054628
:1007400006E0FFF71DFE401B642801D90320FEBD13
:1007500030688003F5D50DE0FFF712FE054606E090
:10076000FFF70EFE401B642801D90320FEBD306850
:100770008003F5D4207880076DD5B0683840F168E3
:100780008A07920F0721C902102801D1022A12D02C
:10079000002810D0E06800284AD0306888432169DA
:1007A000084330603168FF20013001433160FFF7BA
:1007B000E7FD054630E03268520502D5E268002ABE
:1007C0000AD072687F231B029A4363691B021A4393
:1007D0007260002802D010E00120FEBD306888431E
:1007E000216908433060306801218004400F814056
:1007F000B048FFF77FFCB0490860B0480068FFF7D9
:10080000E1FD002827D00120FEBDFFF7B9FD401B08
:10081000022801D90320FEBD30684005F5D5716876
:100820007F2000028143606900020143716012E091
:100830003168FF20013081433160FFF7A1FD05469B
:1008400006E0FFF79DFD401B022801D90320FEBDF5
:1008500030684005F5D42078994D000734D5B0684C
:100860008006400F03280AD0A06900281AD0286A01
:10087000012108432862FFF783FD07460EE0286A3E
:10088000800721D5A06900281ED10120FEBDFFF7F9
:1008900077FDC01B022801D90320FEBD286A80070E
:1008A000F5D511E0286A400840002862FFF768FD8E
:1008B000074606E0FFF764FDC01B022801D90320AC
:1008C000FEBD286A8007F5D42078400775D5002042
:1008D0000190B0688006400F042818D0F06BC0006B
:1008E00009D4F16B012000070143F163F16B014072
:1008F00000910120019073480168C9051AD401686C
:10090000821511430160FFF73BFD07460EE0E869E1
:10091000800752D5A06800284FD10120FEBDFFF707
:100920002FFDC01B022801D90320FEBD65480068C9
:10093000C005F4D5A068012810D00421052812D0E4
:10094000E86940084000E861E8698843E861A06818
:1009500000281CD0FFF714FD074614E0E8690121C8
:100960000843E861F3E7E8690843E861E8690121C1
:100970000843E861EBE7FFF703FDC11B52488142E2
:1009800001D90320FEBDE8698007F4D50EE0FFF72A
:10099000F7FC074607E0FFF7F3FCC11B4A4881421A
:1009A00001D90320FEBDE8698007F4D4019801282D
:1009B00003D1F16B00078143F163E069002845D062
:1009C000B1688906490F022950D001273F06022845
:1009D00006D03068B8433060FFF7D2FC04463DE0F3
:1009E0003068B8433060FFF7CBFC054606E0FFF700
:1009F000C7FC401B022801D90320FEBD30688001DE
:100A0000F5D4616A206AA26A0843E16A12021143BE
:100A10000843216B0843F1682C4A11400843F060F9
:100A2000306838433060F068012109070843F060FE
:100A3000FFF7A6FC044606E0FFF7A2FC001B022815
:100A400001D90320FEBD30688001F5D544E0FFF7F1
:100A500097FC001B022801D90320FEBD30688001ED
:100A6000F5D4F0681A490840F06035E0012831D02B
:100A7000F068226A8107890F914216D17021626A5B
:100A80000140914211D17F21A26A09020140120264
:100A900091420AD11F214904E26A0140914204D1E6
:100AA000400F216B4007884216D00120FEBD000098
:100AB000001002400024F400100000200800002074
:100AC0004010024000700040881300008C80C11F5D
:100AD000FCFFFEEF0120E9E70020E7E710B5094938
:100AE000401E884201D9012010BD074C60610321DE
:100AF000081F00F09DF80020A06107202061002061
:100B000010BD0000FFFFFF0000E000E0FEE7000076
:100B1000F0B587B0142102A8FFF709FB1E48416B0E
:100B2000022421434163416B21400191416B012625
:100B300031434163406B3040019005273F0700225D
:100B400018213846FFF715FC0B2080010290212068
:100B5000000403900025049502A91048FFF760FBEC
:100B60000294112000040390049502A93846FFF76F
:100B700057FB1820029003960494059502A9384665
:100B8000FFF74EFB002211460520FFF765FC05200C
:100B9000FFF756FC07B0F0BD001002400004005003
:100BA00010B5002211460720FFF756FC0720FFF77B
:100BB00047FC10BDFEE77047704710B5FFF7E6FB36
:100BC00010BD30B591B0342104A8FFF7B0FA00246D
:100BD000009401940294039401204002FFF740FC2A
:100BE00002250495E80107900894402009900B9590
:100BF0000C950D9408200E9080030F900003109028
:100C000004A8FFF75BFD002801D0FFF7BEFA07201C
:100C1000009001950294039402216846FFF746FC78
:100C2000002801D0FFF7B1FA11B030BD70470000C5
:100C30008307FF22DB0E9A408907090E994000289E
:100C400008DB830809489B001818036893430B438B
:100C5000036070470007000F0838830804489B00B2
:100C60001818C36993430B43C361704700E400E065
:100C700000ED00E002E008C8121F08C1002AFAD106
:100C800070477047002001E001C1121F002AFBD10C
:100C900070470000FFF782FBFFF793FFFFF738FF75
:100CA000FFF77EFF0524B14EB14D240728680028C8
:100CB00009D1002208212046FFF75BFB002210210A
:100CC0002046FFF756FB2868012809D10122082198
:100CD0002046FFF74EFB002210212046FFF749FB7C
:100CE0002868022809D1002208212046FFF741FB8D
:100CF000012210212046FFF73CFB286803282BD156
:100D0000002208212046FFF734FB00221021204654
:100D1000FFF72FFB6420FFF73BFA01220821204652
:100D2000FFF727FB6420FFF733FA00220821204653
:100D3000FFF71FFB6420FFF72BFA01220821204652
:100D4000FFF717FB6420FFF723FA00220821204653
:100D5000FFF70FFB01202860286804282BD1002210
:100D600008212046FFF705FB002210212046FFF74F
:100D700000FB6420FFF70CFA012210212046FFF748
:100D8000F8FA6420FFF704FA002210212046FFF74A
:100D9000F0FA6420FFF7FCF9012210212046FFF74A
:100DA000E8FA6420FFF7F4F9002210212046FFF74B
:100DB000E0FA02202860286805287DD10122102150
:100DC0002046FFF7D6FA3220FFF7E2F90022102181
:100DD0002046FFF7CEFA3220FFF7DAF90122082188
:100DE0002046FFF7C6FA3220FFF7D2F90022082189
:100DF0002046FFF7BEFA3220FFF7CAF90122102180
:100E00002046FFF7B6FA3220FFF7C2F90022102180
:100E10002046FFF7AEFA3220FFF7BAF90122082187
:100E20002046FFF7A6FA3220FFF7B2F90022082188
:100E30002046FFF79EFA3220FFF7AAF9012210217F
:100E40002046FFF796FA3220FFF7A2F90022102180
:100E50002046FFF78EFA3220FFF79AF90122082187
:100E60002046FFF786FA3220FFF792F90022082188
:100E70002046FFF77EFA3220FFF78AF9012210217F
:100E80002046FFF776FA3220FFF782F90022102180
:100E90002046FFF76EFA3220FFF77AF90122082187
:100EA0002046FFF766FA3220FFF772F90022082188
:100EB0002046FFF75EFA00E044E03220FFF768F9D1
:100EC000012210212046FFF754FA3220FFF760F983
:100ED000002210212046FFF74CFA3220FFF758F984
:100EE000012208212046FFF744FA3220FFF750F98B
:100EF000002208212046FFF73CFA3220FFF748F98C
:100F0000012210212046FFF734FA3220FFF740F982
:100F1000002210212046FFF72CFA3220FFF738F983
:100F2000012208212046FFF724FA3220FFF730F98A
:100F3000002208212046FFF71CFA3220FFF728F98B
:100F40000020286040213046FFF70CFA002800D02E
:100F5000ACE6012149023046FFF704FA0028F7D138
:100F600028680528F4D0052028609FE6000400507A
:100F70000000002000000000000000000000000051
:100F80000000000000000000000000000000000061
:100F9000000000000100000002000000030000004B
:100FA0000400000006000000070000000800000028
:100FB00009000000D40F0008000000201400000009
:100FC000740C0008E80F000814000020040400005E
:100FD000840C000800000000010000000400000074
:080FE000000000000024F400F1
:04000005080000C12E
:00000001FF
