:020000040800F2
:1000000028500020E9020008BF2E0008012C00083B
:10001000BD2E000811060008C534000800000000CD
:10002000000000000000000000000000290200089D
:10003000310B00080000000085020008D12E0008E6
:100040000303000803030008030300080303000878
:100050000303000803030008030300080303000868
:1000600003030008030300080303000871070008E6
:100070007D07000889070008030300080303000840
:1000800095070008030300080303000803030008A2
:100090003D060008030300080303000803030008EB
:1000A0000303000803030008030300080303000818
:1000B000A92F000803030008030300080303000836
:1000C00003030008030300080303000803030008F8
:1000D000030300084D330008A1330008F93300087A
:1000E00003030008030300080303000803030008D8
:1000F000030300080303000803030008A107000826
:1001000003030008030300080303000803030008B7
:100110008130000899300008030300080303000839
:100120000303000803030008AD07000803030008E9
:100130000303000803030008030300080303000887
:1001400081060008030300080303000803030008F6
:100150000303000803030008B907000803030008AD
:100160000303000803030008030300080303000857
:100170000303000803030008030300080000000055
:10018000030300080303000800F002F800F03CF845
:100190000AA090E8000C82448344AAF10107DA45E2
:1001A00001D100F031F8AFF2090EBAE80F0013F0F8
:1001B000010F18BFFB1A43F0010318474C49000018
:1001C0006C490000103A24BF78C878C1FAD85207A9
:1001D00024BF30C830C144BF04680C6070470000C1
:1001E0000023002400250026103A28BF78C1FBD840
:1001F000520728BF30C148BF0B6070471FB504F0DD
:1002000099FA1FBD10B510BD00F0CDF91146FFF7EA
:10021000F5FF03F0EFFA00F0EBF903B4FFF7F2FF9C
:1002200003BC00F0EFF900002C4B19680868B0E837
:10023000F04F80F30988BFF36F8F4FF0000080F319
:10024000118870470000000008480068006880F3CB
:1002500008884FF0000080F3148862B661B6BFF3DF
:100260004F8FBFF36F8F00DF00BF00BF08ED00E0CE
:10027000DFF80C00016841F470010160704700BFB5
:1002800088ED00E0EFF30980BFF36F8F134B1A681E
:100290001EF0100F08BF20ED108A20E9F04F10600B
:1002A00009B44FF0500080F31188BFF34F8FBFF3B4
:1002B0006F8F04F057F84FF0000080F3118809BCED
:1002C00019680868B0E8F04F1EF0100F08BFB0ECD6
:1002D000108A80F30988BFF36F8F70477C0000207D
:1002E000EFF3058070470000094880470948004740
:1002F000FEE7FEE7FEE7FEE7FEE7FEE7FEE7FEE7D6
:10030000FEE7FEE704480549054A064B7047000032
:10031000992F000889010008284A00202850002051
:10032000284C0020284C002053EA020C00F0698081
:100330002DE9F04B4FF00006002B1FBFB3FA83F5F9
:1003400003FA05F424FA05F65E4012BF1643B2FA2A
:1003500082F502FA05F4C5F120051EBF22FA05FC5C
:1003600044EA0C04203556EA044C4FEA144418BF02
:10037000641C4FF000084FF00009904271EB030C31
:1003800039D3002919BFB1FA81F701FA07F6B0FA9B
:1003900080F700FA07F6C7F120071EBF20FA07FC16
:1003A00046EA0C062037B6FBF4FCA7EB0507103F26
:1003B00007F01F0BCBF120060CFA0BFB2CFA06F60C
:1003C00044BFB3460026202FA4BF5E464FF0000B6B
:1003D0005BEA060C08BF4FF0010B19EB0B09ABFBF6
:1003E000027C48EB0608C01B06FB02CC0BFB03CCCF
:1003F00071EB0C01C1E70B46024641464846BDE899
:10040000F08B13B54FF000004FF00001AFF3008008
:10041000BDE81C407047032A40F2308010F0030C06
:1004200000F0158011F8013BBCF1020F624498BF47
:1004300011F801CB00F8013B38BF11F8013BA2F1E4
:10044000040298BF00F801CB38BF00F8013B11F05F
:10045000030300F02580083AC0F0088051F8043BFF
:10046000083A51F804CBA0E80810F5E7121D5CBF6C
:1004700051F8043B40F8043BAFF30080D20724BF9F
:1004800011F8013B11F801CB48BF11F8012B24BF33
:1004900000F8013B00F801CB48BF00F8012B704782
:1004A00010B5203AC0F00B80B1E81850203AA0E80F
:1004B0001850B1E81850A0E81850BFF4F5AF5FEA43
:1004C000027C24BFB1E81850A0E8185044BF18C9F6
:1004D00018C0BDE810405FEA827C24BF51F8043B9D
:1004E00040F8043B08BF7047D20728BF31F8023BF1
:1004F00048BF11F8012B28BF20F8023B48BF00F885
:10050000012B70474FF000020429C0F0128010F058
:10051000030C00F01B80CCF1040CBCF1020F18BFDF
:1005200000F8012BA8BF20F8022BA1EB0C0100F072
:100530000DB85FEAC17C24BF00F8012B00F8012B45
:1005400048BF00F8012B70474FF0000200B513467A
:1005500094469646203922BFA0E80C50A0E80C50E3
:10056000B1F12001BFF4F7AF090728BFA0E80C5094
:1005700048BF0CC05DF804EB890028BF40F8042B8D
:1005800008BF704748BF20F8022B11F0804F18BFFA
:1005900000F8012B7047704770477047004870475C
:1005A000C849002070477546FFF7F8FFAE460500C2
:1005B0006946534620F00700854618B020B5FFF77E
:1005C000A1FEBDE820404FF000064FF000074FF0BD
:1005D00000084FF0000B21F00701AC46ACE8C00961
:1005E000ACE8C009ACE8C009ACE8C0098D4670476A
:1005F00010B50446AFF300802046BDE81040FFF779
:100600000CBE000001491820ABBEFEE72600020028
:10061000FEE7000000B58BB0684600F039F8694687
:10062000054800F043FB0221034800F0ABFA024802
:1006300000F0E7FE0BB000BDE4000020014800F030
:1006400080BC0000E40000207047302802D108463A
:1006500002F0C2BF7047000000B58BB0684600F0E2
:1006600017F86946054800F021FB0221034800F015
:1006700089FA024800F0C5FE0BB000BD0C01002055
:10068000014800F05EBC00000C010020FFF7DDBF58
:100690000021016041608160C1600161012241610E
:1006A000C0E90612C0E908217047000010B5124ADF
:1006B000016891420DD1114B00211C46A3F11C028F
:1006C00000F089FB0D4821461C380068FFF7BCFF8D
:1006D00010BD0B4A9142FBD1084B002124331C462C
:1006E000A3F11C0200F077FB0448214608300068A3
:1006F000FFF7CCFF10BD000000640040E0070020C1
:100700000068004038B50B46144C0168A14201D185
:10071000134904E0134CA1421ED1114920310B6052
:1007200000238B60CB6008230B6113780B76537822
:100730004B7693788B76D378CB7613790B77537986
:100740004B7793798B77D279CA776B4601F1180290
:1007500000F02AFA002800D0012038BD00640040D3
:100760000C08002000680040012003F0F4F8FBE7CB
:10077000014800F0E3BE0000E8020020014800F05C
:10078000DDBE0000C8040020014800F0D7BE000014
:1007900088020020014800F0D1BE0000680400205B
:1007A000014800F0CBBE000048030020014800F0E3
:1007B000C5BE0000A8030020014800F0BFBE000035
:1007C000080400202DE9F04F85680024099E802D43
:1007D00018D0894DC563894D456490F83450012D7A
:1007E00015D0012580F8345090F83550012D10D0E7
:1007F000002180F834100224002180F834102046B3
:10080000BDE8F08F4FF4807141650120F8E70220C8
:10081000F6E7022580F835500025456505682F6804
:1008200047F480272F6005682B6103685E6083684A
:10083000402B03682AD099600168CA60714D704EE0
:10084000704FDFF8BC81DFF8B891DFF8B8A1DFF8AE
:10085000B4B1EA14DFF8A8E1016818363037930222
:10086000A9F148090AF1600A0BF1180BAEF1300E3C
:100870004FF0006C41452DD9A94205D0494503D020
:10088000514501D0B14205D1202220E09A60026892
:10089000D160D3E759451AD0714518D0594D7835F4
:1008A000A94214D0564D3035A94210D0B9420BD0D0
:1008B000534A183A914207D0524A9032914203D09B
:1008C0004F4A4832914201D11A4600E062464C49F3
:1008D0004C392EE0DFF82C8108F1A80841452AD9CF
:1008E000A94205D0494503D0514501D0B14201D1BB
:1008F00020221CE059451AD0714518D0414D783559
:10090000A94214D03E4D3035A94210D0B9420BD087
:100910003B4A183A914207D03A4A9032914203D06A
:10092000374A4832914201D11A4600E062463449C2
:1009300050390A605AE0DFF8CC8008F14808414598
:100940002AD9A94205D0494503D0514501D0B14229
:1009500001D120221CE059451AD0714518D0294DEB
:100960007835A94214D0264D3035A94210D0B9426D
:100970000BD0234A183A914207D0224A9032914232
:1009800003D01F4A4832914201D11A4600E0624624
:100990001C491039CA6029E0A94205D0494503D055
:1009A000514501D0B14201D120221CE059451AD055
:1009B000714518D0134D7835A94214D0104D3035FB
:1009C000A94210D0B9420BD00D4A183A914207D033
:1009D0000C4A9032914203D0094A4832914201D1E7
:1009E0001A4600E06246074910398A6001680A68C1
:1009F00042F001020A60FFE62D3600084136000889
:100A0000586402401060024001680A4BCAB2103AB2
:100A1000A3FB02321209084B9B5CC365032A04D96D
:100A20006FF30901091D816502E06FF3090181651A
:100A3000806D7047ABAAAAAAC84A000801460020E8
:100A40008A6A8B69002B0FD0B3F5005F1DD08AB383
:100A5000012A30D0022A2ED0032A04D1C96A11F00B
:100A6000807F00D0012070471AB1012A07D0022AE6
:100A7000F9D1C96A11F0807FF5D001207047C96AA9
:100A8000B1F1C07FFAD1012070475AB1012A0BD0D1
:100A9000022A07D0032AF7D1C96AB1F1C07FF3D186
:100AA0000120704701207047C96A11F0807FFAD099
:100AB00001207047FFE70120704770B590F834506F
:100AC0000024012D0CD0012580F8345090F83560B9
:100AD0000025012E06D080F834500224204670BD37
:100AE000022070BD022680F83560456505682E68D5
:100AF00026F480262E6005686B608368402B0368AF
:100B000008D099600168CA600068016841F001017D
:100B10000160E3E79A600268D160F5E701680A685E
:100B2000D20604D5C968C90601D503F09DB970473E
:100B3000704772B6FEE7000010B558B1084C491E68
:100B40000BD310F8013B5340DBB234F8133083EA87
:100B50001222F4E74FF6FF7010BD104610BD0000E2
:100B6000C847000810B5064C04E000BF10F8013B70
:100B70005340E25C491E89B2F8D2104610BD000015
:100B8000C849000890F82020012A07D0022A05D081
:100B9000416A41F480214162012070470068426946
:100BA000114341610020704770B490F82040D0F8A4
:100BB00000C0DCF808C0012C08D0022C06D0416A25
:100BC00041F48021416270BC012070470CF08064C8
:100BD0000CF000652C4302D11CF0805F5FD0CCF399
:100BE000016CBCF1020F06D9416A41F40001416277
:100BF00070BC01207047012404FA0CF41C608B685F
:100C00004FF4C0749BB1CD6804EB0C162B434D68B8
:100C100043EAC5030568AB514FF4C273066803EBA2
:100C20000C130D69F550097D012909D00DE00D88DF
:100C3000CB6804EB0C1643EA45530568AB51EBE770
:100C40000168CD5845F48075CD501179D379557927
:100C500041EA036193791B0443EA052319434FF4E6
:100C6000C675036805EB0C1559511178D37841EA24
:100C70000361937852781B0443EA022211434FF434
:100C8000C473026803EB0C13D150016804EB0C1021
:100C90000A5842F001020A5070BC00207047416AB5
:100CA00041F40011416270BC0120704790F820208F
:100CB000012A07D0022A05D0416A41F4802141620D
:100CC000012070474248D0F8002242F00102C0F8EB
:100CD0000022D0F8002222F47C52C0F80022D0F882
:100CE00000224B6A42EA0322C0F800220A7D012357
:100CF00002F01F0203FA02F2D0F81C329343C0F84C
:100D00001C32CB69D3B9D0F80C329343C0F80C3203
:100D1000B1F80CC04B686CF31F43D1F814C000EB62
:100D2000CC0CCCF84032B1F808C00B686CF31F4310
:100D3000D1F814C000EBCC0CCCF84432CB69012BB9
:100D40001AD1D0F80C321343C0F80C32B1F800C0FD
:100D50004B686CF31F43D1F814C000EBCC0CCCF8FB
:100D60004032B1F808C0CB686CF31F43D1F814C00F
:100D700000EBCC0CCCF844328B697BB1D0F8043258
:100D80001343C0F804320B6973B1D0F81432134323
:100D9000C0F81432096A01290CD010E0D0F80432EE
:100DA0009343C0F80432EEE7D0F814329343C0F80E
:100DB0001432EFE7D0F81C121143C0F81C12D0F81F
:100DC000001221F00101C0F800120020704700005D
:100DD00000640040704710B490F820C0BCF1010FCF
:100DE00009D0BCF1020F06D0416A41F48021416272
:100DF00010BC0120704739B1D0F800C0DCF810C039
:100E00001CF0030F7DD006E0D0F800C0DCF80CC069
:100E10001CF0030F7BD04FF4D87C04680CEB011C52
:100E200054F80C4004F004049460002C7DD0046855
:100E300054F80C40E4085460046854F80CC00CF0FA
:100E4000020CC2F80CC04FF4DA7C04680CEB011CF5
:100E500054F80C4004F00F041461046854F80C407A
:100E6000C4F307249461046854F80CC04FEA1C4C86
:100E7000C2F814C04FF4DC72D0F800C002EB0112CB
:100E80005CF802C083F800C0D0F800C05CF802C073
:100E90004FEA1C2C83F801C0D0F800C05CF802C0F7
:100EA0004FEA1C4C83F802C0D0F800C05CF8022066
:100EB000120EDA704FF4DE72D0F800C002EB0112AD
:100EC0005CF802C083F804C0D0F800C05CF802C02F
:100ED0004FEA1C2C83F805C0D0F800C05CF802C0B3
:100EE0004FEA1C4C83F806C0D0F800C05CF8022022
:100EF000120EDA71F9B10068016941F02001016157
:100F000002E00BE003E010E010BC00207047416AF3
:100F100041F40011416210BC01207047416A41F464
:100F20000011416210BC01207047046854F80C4065
:100F3000640D146080E70068C16841F02001C16061
:100F4000DEE72DE9F05F0546002428684669D0F801
:100F500004908768D0F80CA0D0F810B0D0F81880B2
:100F600016F0010F54D017F0010F17D00121816046
:100F700017F0020F03D0284600F076FA0EE017F0C3
:100F8000040F02D04FF4006408E017F0080F02D0FD
:100F90004FF4805402E0284600F065FA17F4807F91
:100FA00019D029684FF48070886017F4007F03D04F
:100FB000284600F05BFA0EE017F4806F02D044F48C
:100FC000005408E017F4006F02D044F4804402E0BB
:100FD000284600F04AFA17F4803F19D029684FF4E8
:100FE0008030886017F4003F03D0284600F040FAB4
:100FF0000EE017F4802F02D044F4004408E017F408
:10100000002F02D044F4803402E0284600F02FFA8A
:1010100016F0080F07D01AF0100F04D044F4007433
:1010200029681020C86016F0040F4FF0080707D099
:101030001AF0080F04D02868C760284600F0CEF9DF
:1010400016F0020F07D02868C06810F0030F02D016
:10105000284600F0C5F916F0400F07D01BF0100F1E
:1010600004D044F4806429681020086116F0200F31
:1010700007D01BF0080F04D028680761284600F04D
:10108000BDF916F0100F07D02868006910F0030FA3
:1010900002D0284600F0B3F916F4003F08D019F04A
:1010A000100F05D0296810204860284600F0A8F9E4
:1010B00016F4803F07D019F0080F04D02868476065
:1010C000284600F0D6F916F4004F4AD019F0040F64
:1010D00044D016F4807F04D018F0010F01D044F002
:1010E000010416F4007F04D018F0020F01D044F080
:1010F000020416F4806F04D018F0040F01D044F0FD
:10110000040416F4006F29D018F0700F26D008F0F0
:101110007000402815D006DC102809D020280AD0FD
:10112000302816D10AE050280ED0602811D10EE0E8
:1011300044F008040DE044F010040AE044F02004F8
:1011400007E044F0400404E044F0800401E044F48B
:1011500080742868816921F0700181612968042008
:101160004860002C05D0686A204368622846FFF773
:1011700031FEBDE8F09F70B50446002C03D094F812
:10118000200010B104E0012070BD204600F0A8F856
:101190002068016841F00101016000F05BFC054638
:1011A000206840684FF0050610F0010F11D100F0E3
:1011B00051FC401B0A2807D9606A40F40030606285
:1011C00084F82060012070BD2068406810F0010F95
:1011D000EDD02068016821F00201016000F03AFCC6
:1011E00005462068406810F0020F11D000F032FC74
:1011F000401B0A2807D9606A40F40030606284F816
:101200002060012070BD2068406810F0020FEDD111
:10121000207E01283FD02068016821F08001016014
:10122000607E01283DD02068016821F04001016006
:10123000A07E01283BD02068016821F020010160D8
:10124000E07E012839D02068016841F0100101607A
:10125000207F012837D02068016821F00801016053
:10126000607F012835D02068016821F00401016009
:10127000E168A06862690843216911430843616815
:10128000491E08432168C86100206062012084F87B
:101290002000002070BD2068016841F080010160DD
:1012A000BEE72068016841F040010160C0E72068A6
:1012B000016841F020010160C2E72068016821F067
:1012C00010010160C4E72068016841F00801016075
:1012D000C6E72068016841F004010160C8E700002A
:1012E000F0B587B0044614216846FFF72DF9364B58
:1012F0003648DFF8D0E01968D4F800C0334A032537
:101300000226092710300024491CF44522D1196017
:10131000012907D1016841F000710160006800F007
:1013200000700590106840F0080010601068CDE96A
:10133000005600F00800CDE9047069462448CDE964
:10134000024500F067FA00220521142000F00EFC8F
:10135000142032E0DFF87CE0F44530D1D0F800C052
:101360004CF0806CC0F800C0D0F800C001290CF02F
:10137000806CCDF814C0196007D1016841F000718C
:101380000160006800F000700590106840F00200F5
:101390001060106802AB00F0020005906020CDE9FB
:1013A000000683E8B00069460B4800F033FA0022DB
:1013B0000521402000F0DAFB402000F0C9FB07B017
:1013C000F0BD0000006400401000002030380240F2
:1013D000000C02400068004000040240704700001A
:1013E000044A0168914202D0034A914201D1FFF7B9
:1013F0005DB9704700640040006800407047704766
:10140000704770B5044694F82000012805D0606A42
:1014100040F400206062012070BD022084F82000AA
:101420002068016821F00101016000F013FB05460E
:101430002068406810F0010F12D000F00BFB401B39
:101440000A2808D9606A40F400306062052084F8F8
:101450002000012070BD2068406810F0010FECD121
:101460000020606270BD70477047704770477047DA
:10147000704770472DE9F0410446A66D00F0EAFA86
:10148000054694F835000027022806D080206065C4
:1014900084F834700120BDE8F0812068016821F0F3
:1014A000160101602068416921F080014161206CD2
:1014B00008B9A06C20B12068016821F00801016022
:1014C0002068016821F0010101602068006810F0C7
:1014D000010F12D000F0BEFA401B052808D92020C9
:1014E0006065032084F8350084F83470BDE8F0812D
:1014F0002068006810F0010FECD194F85C003F21E7
:1015000001FA00F0B060012084F8350084F83470EE
:101510000020BDE8F08190F83510022903D0802129
:10152000416501207047052180F835100068016889
:1015300021F0010101600020704700002DE9F8430F
:1015400004464FF00008CDF8008076484FF416515D
:101550000068B0FBF1F7A56D2E6894F85C000821D7
:1015600001FA00F0304211D02068026812F0040F36
:101570000CD0026822F00402026094F85C0001FAC8
:1015800000F0A860606D40F00100606594F85C00B8
:101590004FF0010909FA00F0304209D02168496989
:1015A00011F0800F04D0A860606D40F0020060650B
:1015B00094F85C1004208840304209D02168096802
:1015C00011F0020F04D0A860606D40F00400606567
:1015D00094F85C1010208840304224D021680968BB
:1015E00011F0080F1FD0A8602068016811F4802F47
:1015F0000DD0006810F4002F04D0A16C99B12046E2
:10160000884710E0216C71B1204688470BE00168E3
:1016100011F4807F03D1016821F008010160216C81
:1016200009B12046884794F85C1020208840304259
:1016300051D02168096811F0100F4CD0A86094F8BF
:10164000350005280DD02068016811F4802F32D0B4
:10165000006810F4002F29D0E16B59B32046884769
:1016600039E02068016821F01601016020684169B5
:1016700021F080014161206C08B9A06C20B1206884
:10168000016821F00801016094F85C003F2101FA33
:1016900000F0A86084F8359084F83480216D00292A
:1016A0003ED001B02046BDE8F0430847616C09B167
:1016B000204688470FE0016811F4807F07D1016858
:1016C00021F01001016084F8359084F83480E16BDA
:1016D00009B120468847606D002821D0606D10F068
:1016E000010F15D0052084F835002068016821F02D
:1016F000010101600098401C0090B84204D82068A5
:10170000006810F0010FF5D184F8359084F834802A
:10171000E16C002904D001B02046BDE8F043084741
:10172000BDE8F883140000202DE9F041044600F0E4
:1017300091F90546DCB1022084F83500002684F8D2
:1017400034602068016821F00101016020680068B0
:1017500010F0010F13D000F07DF9401B052809D9C6
:1017600020206065032084F83500BDE8F081012069
:10177000BDE8F0812068006810F0010FEBD121680E
:101780000868234A1040A3686268D4F810C01A435E
:10179000E36843EA0C031A4363691A43A3691A43D3
:1017A000E3691A43236A1A431043626A042A03D185
:1017B000236BE26A1A43104308602068406920F0F6
:1017C0000701606A40EA0105012704280ED1A06ADA
:1017D0000543E06A50B12046FFF730F930B14020B0
:1017E000606584F835700120BDE8F08120684561AE
:1017F0002046FFF709F994F85C103F2202FA01F144
:101800008160666584F835700020BDE8F0810000D5
:101810003F8010F02DE9F84F0022DFF81492DFF836
:1018200014A2DFF814B24FF0010E03274FF00F0897
:101830000EFA02FC0B6803EA0C0363457DD10C79B8
:1018400004F00304012C01D0022C14D1856854004B
:1018500007FA04F6B543CE6806FA04F42C43846014
:10186000446824EA0C0C0C79C4F30014944044EA54
:101870000C0CC0F804C0D1F804C037EA0C0C0CD032
:10188000C4684FEA420C07FA0CF5AC438D6805FAC0
:101890000CFC4CEA040CC0F80CC091F804C00CF02D
:1018A000030CBCF1020F12D14FEAD20C00EB8C04F6
:1018B000256A4FEA427C4FEADC6C08FA0CF6B54325
:1018C0000E6906FA0CFC4CEA050CC4F820C004684A
:1018D0004FEA420C07FA0CF5AC430D7905F003050D
:1018E00005FA0CFC4CEA040CC0F800C0D1F804C0A6
:1018F0001CF4403F7DD0D9F800C04CF4804CC9F8AE
:1019000000C0D9F800C00CF4804CCDF800C022F023
:10191000030C0CF1804505F59835D5F808C89407F7
:10192000240F08FA04F62CEA0606A0F1804CBCF558
:10193000003C64D0A0F1804C00E05AE0BCF5013CD2
:1019400060D0A0F1804CBCF5023C5ED0A0F1804C90
:10195000BCF5033C5CD0A0F1804CBCF5043C5AD0F3
:10196000A0F1804CBCF5053C58D0A0F1804CBCF5F2
:10197000063C56D0A0F1804CBCF5073C54D04FF04B
:10198000080C0CFA04FC4CEA060CC5F808C8DAF896
:1019900000C02CEA030C4C6814F4803F01D04CEAE0
:1019A000030CCAF800C0254CD4F800C02CEA030C84
:1019B0004D6815F4003F01D04CEA030CC4F800C098
:1019C000DBF800C02CEA030C4C6814F4801F01D033
:1019D0004CEA030CCBF800C0194CD4F800C02CEA38
:1019E000030C4D6815F4001F01D04CEA030CC4F839
:1019F00000C0521C102AFFF41BAFBDE8F88F4FF057
:101A0000000CBEE74FF0010CBBE74FF0020CB8E74B
:101A10004FF0030CB5E74FF0040CB2E74FF0050CA4
:101A2000AFE74FF0060CACE74FF0070CA9E700005A
:101A300044380240003C0140083C0140043C014065
:101A40000C3C0140002A01D081617047090481618A
:101A50007047000001488068704700007000002057
:101A6000024881680278114481607047700000204C
:101A700010B50B48016841F400710160016841F440
:101A800080610160016841F480710160032000F011
:101A9000A1F80F2000F006F800F03EF8002010BD7D
:101AA000003C024010B5014688B000221C2000F026
:101AB0005DF81C2000F04CF814480024016841F047
:101AC00001010160006805A900F001000690684668
:101AD00000F050F900F072F90D494000B0FBF1F14F
:101AE0000C484FF08042491E026040F2E732C0E9E4
:101AF0000324C0E9011400F0FCFB10B1012008B080
:101B000010BD044800F024FCF9E700004038024012
:101B100040420F007C0700200C4882B0016841F46D
:101B200080410160006800F4804000900748001F79
:101B3000016841F0805101600068002200F080508F
:101B400000900F21901E02B000F010B844380240FF
:101B500000280ADB00F01F01012202FA01F140090E
:101B6000800000F1E020C0F80011704710B4184B5D
:101B70001B68C3F30223C3F1070CBCF1040F01D9A6
:101B80004FF0040C1C1D072C01D2002300E0DB1ECB
:101B9000012404FA0CFCACF1010C0CEA010199409F
:101BA00004FA03F35B1E1A401143002806DB00F120
:101BB000E020090180F8001410BC704700F00F000D
:101BC00000F1E020090180F8141D10BC70470000EE
:101BD0000CED00E000F00700064A11684FF6FF0325
:101BE000194041EA002040F0FD7040F08060106034
:101BF000704700000CED00E02DE9F04704460D466B
:101C0000002C13D0DFF85491D9F80000EFB200F0A7
:101C10000700A8420DD289F80070D9F8000000F042
:101C20000700A84205D00120BDE8F0870120BDE8EB
:101C3000F08720684A4E10F0020F14D010F0040F05
:101C400003D0306840F4E0503060207810F0080F86
:101C500003D0306840F4604030603068A16820F004
:101C6000F00008433060207810F0010F3ED060682B
:101C70003C49012808D002280DD003280BD0096860
:101C800011F0020F28D00AE0096811F4003F06D1D4
:101C90000120BDE8F087096811F0007F19D0316894
:101CA00021F0030108433060FFF7D4FE804630681E
:101CB000616800F00C00B0EB810F17D041F2883A58
:101CC000FFF7C8FEA0EB0800504508D90320BDE887
:101CD000F0870120BDE8F0870120BDE8F08730687B
:101CE000616800F00C00B0EB810FE9D1D9F8000079
:101CF00000F00700A8420AD989F80070D9F800005E
:101D000000F00700A84202D00120BDE8F08720784B
:101D100010F0040F05D03068E16820F4E05008436B
:101D20003060207810F0080F06D03068216920F468
:101D3000604040EAC100306000F060F831680A4A53
:101D4000C1F30311515CC8400849086008480068A5
:101D5000FFF7A8FE0020BDE8F0870000003C02402D
:101D60000838024000380240B04700081400002044
:101D7000740000200F2202600B4A136803F0030373
:101D80004360136803F0F0038360136803F4E053C7
:101D9000C360126802F46042D2080261034800681E
:101DA00000F007000860704708380240003C02401D
:101DB00001480068704700001400002000B5FFF7DC
:101DC000F7FF04490968044AC1F38221515CC84005
:101DD00000BD000008380240C047000800B5FFF70A
:101DE000E7FF04490968044AC1F34231515CC84025
:101DF00000BD000008380240C047000810B5174871
:101E0000006810F00C01164816D0164B042912D0A9
:101E1000082911D1144C216801F03F02216811F406
:101E2000800F0AD02068C0F38810A0FB03010023B4
:101E3000FEF77AFA09E0184610BD21680023C1F3C5
:101E40008811A1FB0001FEF76FFA2168C1F301417F
:101E5000491C4900B0FBF1F010BD000008380240F9
:101E60000024F40040787D01043802402DE9F84F49
:101E70000446002C12D02078FB4E10F0010FA6F182
:101E8000040563D0301D016801F00C0104290CD059
:101E9000006800F00C00082803D010E00120BDE825
:101EA000F88F306810F4800F09D0286810F4003FD4
:101EB0004CD06068002849D10120BDE8F88F6068E7
:101EC000B0F5803F14D0B0F5A02F16D0286820F4CC
:101ED00080302860286820F480202860606810B373
:101EE000FFF7B8FD0746286810F4003F0ED02DE03C
:101EF000286840F480302860F0E7286840F48020AB
:101F00002860286840F480302860E7E7FFF7A2FDEA
:101F1000C01B642802D90320BDE8F88F286810F49C
:101F2000003FF3D012E0FFF795FD0746286810F454
:101F3000003F0BD0FFF78EFDC01B642802D90320A1
:101F4000BDE8F88F286810F4003FF3D12078C74F20
:101F500010F0020F4FF0000957D0C548016811F08A
:101F60000C0F14D0006800F00C00082803D1306872
:101F700010F4800F0BD0E06880B301203860FFF7C9
:101F800069FD8046286810F0020F12D01EE0286814
:101F900010F0020F05D0E068012802D00120BDE852
:101FA000F88F2868216920F0F80040EAC100286015
:101FB0002BE0FFF74FFDA0EB0800022802D9032019
:101FC000BDE8F88F286810F0020FF2D02868216968
:101FD00020F0F80040EAC100286016E0FFE7C7F8EB
:101FE0000090FFF737FD8046286810F0020F0CD0F4
:101FF000FFF730FDA0EB0800022802D90320BDE85E
:10200000F88F286810F0020FF2D1207810F0080F36
:1020100035D09848DFF860A26169C1B10121016043
:10202000FFF718FD8046DAF8000010F0020F26D105
:10203000FFF710FDA0EB0800022802D90320BDE83D
:10204000F88FDAF8000010F0020FF1D017E0C0F8B6
:102050000090FFF7FFFC8046DAF8000010F0020F56
:102060000DD0FFF7F7FCA0EB0800022802D90320EF
:10207000BDE8F88FDAF8000010F0020FF1D12078F7
:1020800010F0040F71D04FF000087C48006810F089
:10209000805F0AD17948016841F080510160006891
:1020A00000F0805000904FF00108DFF8D4B1DBF869
:1020B000000010F4807F1BD1DBF8000040F480703A
:1020C000CBF80000FFF7C6FC8246DBF8000010F4F6
:1020D000807F0DD1FFF7BEFCA0EB0A00022802D9D9
:1020E0000320BDE8F88FDBF8000010F4807FF1D00A
:1020F000A068DFF890B1012818D005281DD0DBF8C2
:10210000000020F00100CBF80000DBF8000020F018
:102110000400CBF80000A06840B3FFF79BFC8246A8
:10212000DBF8000010F0020F14D03EE0DBF80000F6
:1021300040F00100CBF80000EDE7DBF8000040F0D4
:102140000400CBF80000DBF8000040F00100CBF801
:102150000000E0E7FFF77EFCA0EB0A0141F28830C7
:10216000814204D90320BDE8F88F26E005E0DBF8C2
:10217000000010F0020FEDD017E0FFF76BFC824675
:10218000DBF8000010F0020F0FD0FFF763FCA0EBAC
:102190000A0141F28830814202D90320BDE8F88F5C
:1021A000DBF8000010F0020FEFD1B8F1010F04D1FD
:1021B0003248016821F080510160A069F0B32C49D8
:1021C00009684FF0FF3801F00C01082966D0022899
:1021D00010D0C7F86090FFF73DFC0446286810F067
:1021E000007F2BD0FFF736FC001B022851D90320BB
:1021F000BDE8F88FC7F86090FFF72CFC814628688F
:1022000010F0007F0CD0FFF725FCA0EB090002289E
:1022100002D90320BDE8F88F286810F0007FF2D1C2
:10222000216AE069A26A0843616A08EB52028901E7
:1022300041EA0241084394F82C1000E055E040EADE
:102240000160306001203866FFF704FC044628680E
:1022500010F0007F49D1FFF7FDFB001B022813D9C6
:102260000320BDE8F88F0000043802400000474218
:1022700008380240800E474274380240403802401D
:102280000070004070380240286810F0007FE2D0F3
:102290002BE0286810F0007FA4D126E0012822D08E
:1022A0003068E26900F4800191421AD1226A00F09C
:1022B0003F01914215D147F6C071626A0140B1EB0E
:1022C000821F0ED1A26A00F4403108EB5202B1EB3A
:1022D000024F06D194F82C1000F07060B0EB016F43
:1022E00003D00120BDE70120BBE70020B9E770471C
:1022F000704710B50446002C03D094F83D0010B18F
:1023000007E0012010BD002084F83C00204600F0CA
:102310001EF8022084F83D00211D206800F04AFECE
:10232000012084F8460084F83E0084F83F0084F8D9
:10233000400084F8410084F8420084F8430084F8A7
:10234000440084F8450084F83D00002010BD70472B
:1023500090F83D10012901D001207047022180F83A
:102360003D100168CA6842F00102CA600068A0F12D
:102370008041B1F5803126D0B0F1804F23D0A0F15B
:102380008041B1F580611ED0A0F18041B1F50061BE
:1023900019D0A0F18041B1F5406114D0A0F1804185
:1023A000B1F582310FD0A0F18041B1F5A0310AD052
:1023B000A0F18041B1F5C05105D0016841F00101A3
:1023C000016000207047816801F007010629F8D0FC
:1023D000016841F001010160F3E7704770B5044600
:1023E000206801694FF0000511F0020F17D0C16895
:1023F00011F0020F13D0E91E01610120207720683F
:10240000806910F0030F03D02046FFF7E6FF05E0D8
:10241000204600F09DF8204600F09BF825772068C4
:10242000016911F0040F18D0C16811F0040F14D025
:102430006FF004010161022020772068806910F4A8
:10244000407F03D02046FFF7C8FF05E0204600F09C
:102450007FF8204600F07DF825772068016911F0AB
:10246000080F18D0C16811F0080F14D06FF00801E0
:102470000161042020772068C06910F0030F03D0A9
:102480002046FFF7AAFF05E0204600F061F820464D
:1024900000F05FF825772068016911F0100F18D05F
:1024A000C16811F0100F14D06FF010010161082005
:1024B00020772068C06910F4407F03D02046FFF7E2
:1024C0008CFF05E0204600F043F8204600F041F87C
:1024D00025772068016911F0010F09D0C16811F05A
:1024E000010F05D06FF001010161204600F032F8C4
:1024F0002068016911F0800F09D0C16811F0800FC8
:1025000005D06FF0800101612046FFF7F0FE2068E2
:10251000016911F0400F09D0C16811F0400F05D0DA
:102520006FF040010161204600F01BF8206801694E
:1025300011F0200F0BD0C16811F0200F07D06FF001
:10254000200101612046BDE87040FFF7D1BE70BD9B
:10255000704770470068B0F1804F01D1FFF780BA33
:102560007047704770477047F8B504462268106896
:10257000D168536900F00F0CBCF1000F0AD110F0C4
:10258000200F07D011F0200F04D02046BDE8F840FE
:1025900000F0CABD0025BCF1000F75D003F0010C9E
:1025A00001F490765CEA06066ED010F0010F06D0BA
:1025B00011F4807F03D0226C42F00102226410F0FB
:1025C000040F06D013F0010F03D0226C42F0020278
:1025D000226410F0020F06D013F0010F03D0226C1A
:1025E00042F00402226410F0080F08D001F020022B
:1025F00052EA0C0203D0226C42F008022264226CE0
:10260000002A35D010F0200F05D011F0200F02D095
:10261000204600F089FD20684069C0F38010216CDD
:1026200011F0080F00D148B3204600F049FD2068A2
:10263000406910F0400F1CD02068143050E8001F93
:1026400021F0400140E80012002AF5D1A06B60B1F2
:102650005C490165A06BFEF75EFF002808D0A06B07
:10266000016D01B0BDE8F04008472046FFF77BFF51
:10267000F8BD2046FFF777FFF8BD05E0FFE72046ED
:10268000FFF771FF2564F8BD236B012B7ED110F09D
:10269000100F7BD011F0100F7ED0106850680090A2
:1026A00050694FF0200310F0400F43D0A16B086831
:1026B000406880B20028E6D0A28D8242E3D9E0854E
:1026C000C869B0F5807F2DD020680C3050E8001F1D
:1026D00021F4807140E80012002AF5D120681430FE
:1026E00050E8001F21F0010140E80012002AF5D156
:1026F0002068143050E8001F21F0400140E800122B
:10270000002AF5D184F83E30256320680C3050E86B
:10271000001F21F0100140E80012002AF5D1A06B43
:10272000FEF7A8FEA08DE18D401A81B22046FFF78A
:1027300019FFF8BDA08DE18D401A81B2E08D00280F
:10274000F7D00029F5D020680C3050E8002F22F493
:10275000907240E8002CBCF1000FF4D120681430D6
:1027600050E8002F22F0010240E8002CBCF1000FDD
:10277000F4D184F83E30256320680C3050E8002FF7
:1027800022F0100240E80023002B00E004E0F3D127
:102790002046FFF7E7FEF8BD10F0800F07D011F0DC
:1027A000800F04D02046BDE8F84000F09FBD10F037
:1027B000400FF0D011F0400FEDD02046BDE8F840BA
:1027C00000F0A5BCB130000870B50446002C04D060
:1027D00094F83D00002510B106E0012070BD84F89A
:1027E0003C50204600F022F8242084F83D00206868
:1027F000C16821F40051C160204600F0F9FC206856
:10280000016921F4904101612068416921F02A01A8
:1028100041612068C16841F40051C16025642020F5
:1028200084F83D0084F83E00002070BD2DE9F04F93
:1028300087B0054614216846FDF786FEDD48DFF8BF
:10284000708310380222D5F800C0DA4B0321DFF87C
:1028500068B30024960607154FF0080E4FF48079F0
:10286000C4453BD1D3F800C04CF4002CC3F800C0E1
:102870001B6803F400230593036843F0010303601E
:10288000006800F0010005908DE81600CDE9031EF8
:1028900069465846FEF7BEFFDFF82483C749404625
:1028A000C8F80010C0E90164C0E90347C8F8144043
:1028B000C0E90649C8F82040C8F82440FEF734FFB4
:1028C00008B1FEF736F9C5F838800022052134201A
:1028D000C8F83850FFF74AF9342076E0DFF8E48290
:1028E000C44578D1D3F800C0A3464CF4801CC3F88B
:1028F00000C01B6803F480130593036843F00403CE
:102900000360036803F004030593036843F00803BE
:1029100003600068924600F0080005904FF4805074
:10292000CDE900020320CDE90240F0466946CDF82A
:1029300010E0A548FEF76EFF0420CDE9000A032051
:10294000CDE902406946CDF81080A048FEF762FF4D
:102950009A49DFF87C8230394046C8F80010C0E957
:102960000164C0E90347C8F81440C0E90649C8F843
:102970002040C8F82440FEF7D7FE08B1FEF7D9F88A
:102980008E48944CC5F838807830C8F83850C4E97F
:1029900000064020A060C4E903B7C4F814B0C4F82E
:1029A00018B0C4F81CB0C4F820B02046C4F824B055
:1029B000FEF7BAFE08B1FEF7BCF86C6300220521F1
:1029C0003520A563FFF7D2F83520FFF7C1F807B02F
:1029D000BDE8F08FFFE7DFF800824FF0070AC4453B
:1029E0005BD1744BA0461B1DD3F800C04CF0100CFB
:1029F000C3F800C01B6803F010030593036843F09D
:102A0000010303600068CDE9024100F00100059078
:102A10004FF4C060CDE90002CDF810A069465846D9
:102A2000FEF7F8FEDFF8B8A16C495046CAF800106E
:102A3000C0E90164C0E90347CAF81440C0E9064987
:102A40004FF44039CAE90894FEF76EFE08B1FEF76C
:102A500070F86248634CC5F838A07830CAF838502E
:102A6000C4E900064020A060C4E90387C4F81480CC
:102A7000C4F81880C4E907892046C4F82480FEF70A
:102A800053FE08B1FEF755F86C630022052125209E
:102A9000A563FFF76BF8252097E7DFF84C81C44565
:102AA0003FD1D3F800C04CF4003CC3F800C01B6811
:102AB00003F400330593036843F0010303600068E7
:102AC000CDE9024100F0010005900C20CDE90002A3
:102AD000CDF810A069465846FEF79CFE3749DFF84E
:102AE0000C8148314046C8F80010C0E90164C0E9D3
:102AF0000347C8F81440C0E90649C8F82040C8F8A0
:102B00002440FEF711FE08B1FEF713F8C5F838802F
:102B1000002205212620C8F83850FFF727F8262084
:102B200053E7DFF8CC80C4457FF451AFD3F800C041
:102B30004CF4802CC3F800C01B6803F48023059379
:102B4000036843F0020303600068CDE9024100F02E
:102B5000020005904FF44060CDE90002CDF810A0CE
:102B600069462448FEF756FE1449DFF88C80183970
:102B70004046C8F80010C0E90164C0E90347C8F83E
:102B80001440C0E90649C8F82040C8F82440FEF7C0
:102B9000CBFD08B1FDF7CDFFC5F838800022052137
:102BA0002720C8F83850FEF7E1FF27200DE7000086
:102BB000004C0040403802400000024040600240AB
:102BC000880200200050004000080240000C024033
:102BD000E802002048030020001001404064024049
:102BE000A8030020080400200044004068040020DE
:102BF0000048004000040240C804002070477047AD
:102C0000FEE74FF47A74204600F0A5FEFBE70000D3
:102C10000F4810B50D4901600321416000214FF4B8
:102C200000228160C0E903124FF440124261017634
:102C300041768176C176017701214177FEF79BFAD3
:102C4000002801D072B6FEE710BD0000006400400D
:102C5000E40000200F4810B50D49016003214160D8
:102C600000214FF400228160C0E903124FF44012AA
:102C70004261017641768176C17601770121417703
:102C8000FEF779FA002801D072B6FEE710BD000009
:102C9000006800400C010020254808B5016841F497
:102CA00000110160016801F400110091016841F414
:102CB000800101600068002200F48000009005217E
:102CC0000B20FEF753FF0B20FEF742FF00220521E9
:102CD0000C20FEF74BFF0C20FEF73AFF00220521E7
:102CE0000D20FEF743FF0D20FEF732FF00220521E5
:102CF0001020FEF73BFF1020FEF72AFF00220521DF
:102D00002F20FEF733FF2F20FEF722FF00220521A0
:102D10003A20FEF72BFF3A20FEF71AFF002205218A
:102D20004620FEF723FFBDE808404620FEF710BF0F
:102D3000303802402DE9F04F87B014216846FDF786
:102D400003FC58480024016841F004010160016857
:102D500001F004010591016841F080010160016802
:102D600001F080010591016841F0010101600168F5
:102D700001F001010591016841F002010160016863
:102D800001F002010591016841F010010160016844
:102D900001F010010591016841F00801016000682F
:102DA000DFF804B100F00800059001224FF4D04193
:102DB0005846FEF747FEDFF8F4900022012148460E
:102DC000FEF740FE4FF42047012239464846FEF701
:102DD00039FEDFF8DCA04FF400780022414650466F
:102DE000FEF730FE00224FF480615846FEF72AFEBF
:102DF0004FF4D84000900126CDE901646946584659
:102E00000394FEF707FDC02000900225CDE9015490
:102E100069462848CDE90345FEF7FCFC0096CDE95C
:102E20000164694648460394FEF7F4FCCDE900547A
:102E3000694648460294FEF7EDFC38110090CDE952
:102E40000154CDE9034669461B48FEF7E3FCCDE992
:102E500000760327CDE9024769464846FEF7DAFCCB
:102E6000CDF80080CDE90164694650460394FEF731
:102E7000D1FC4FF470400090CDE9015469465046B2
:102E8000CDE90345FEF7C6FC4FF470700090CDE924
:102E90000154CDE9034769465846FEF7BBFC07B02D
:102EA000BDE8F08F303802400008024000040240C4
:102EB000000C02400000024000100240FEE7FEE766
:102EC000012000F048FDFBE7012000F044FDFBE796
:102ED00010B5502080F31188BFF34F8FBFF36F8F71
:102EE00001F058FB18B104494FF0805008600020F1
:102EF00080F3118810BD000004ED00E030B593B000
:102F000030216846FDF720FB14210CA8FDF71CFBBF
:102F10001F480025016841F080510160006800F001
:102F2000805011901B48016841F4804101600068A5
:102F3000022400F480401190092000904FF480306A
:102F400001900120CDE90504800507901920089023
:102F50004FF4A870CDE9090404200B906846FEF7F1
:102F600085FF08B172B6FEE70CA90F2081E8310099
:102F70004FF4A0500F904FF48050109005210CA8F2
:102F8000FEF73AFE002801D072B6FEE713B030BD5E
:102F900040380240007000400248016841F470016E
:102FA0000160704788ED00E00148FFF717BA0000A4
:102FB0007C070020F0B402682C4B2D4C2D4D2E4E7A
:102FC000DFF8B8C098420AD0B0F1804F07D0A042D5
:102FD00005D0A84203D0B04201D0604503D122F011
:102FE00070024F683A43984228D0B0F1804F25D004
:102FF000A04223D0A84221D0B0421FD060451DD0AE
:10300000A0F18044B4F5A03418D0A0F18044B4F508
:10301000A23413D0A0F18044B4F5A4340ED0A0F1B2
:103020008044B4F5C05409D0A0F18044B4F5E05414
:1030300004D0A0F18044B4F5005403D122F44072CE
:10304000CC6822434C6922F08002224302608A68E5
:10305000C2620A688262984201D0604501D1096962
:10306000016301214161F0BC704700000000014094
:103070000004004000080040000C00400004014033
:1030800010B50448FDF74AFDBDE810400148FFF7C0
:103090006BBA00003401002010B50448FDF73EFD76
:1030A000BDE810400148FFF75FBA0000780100203A
:1030B00010B5806B0021C185C184FFF754FA10BDA3
:1030C00001680C3151E8002F22F4907241E800238E
:1030D000002BF5D10168143151E8002F22F00102D4
:1030E00041E80023002BF5D1016B012909D10168CA
:1030F0000C3151E8002F22F0100241E80023002B90
:10310000F5D1202180F83E1000210163704710B5F1
:103110000168CA6822F04002CA60202180F83D1090
:10312000FFF76DFD002010BD08B590F83E10222974
:1031300001D0022008BD8268B2F5805F01D101692B
:1031400029B1816AB2F5805F1DD052B10BE0816A6E
:1031500002685268C2F308020A80816A891C81628F
:1031600009E002697AB10268526802F07F020A70CF
:10317000816A491C8162C18D491E0904090CC185FF
:1031800005D0002008BD026852680A70F0E70168A7
:10319000CA6822F02002CA600168CA6822F48072FC
:1031A000CA6001684A6922F001024A61202180F860
:1031B0003E10016B012903D0FFF720FD002008BD60
:1031C0000021016301680C3151E8002F22F0100248
:1031D00041E80023002BF5D101680A6812F0100FB6
:1031E00002D00A6849680091818DFFF7BBF9E5E7D5
:1031F0002DE9F041044620680169E26821F440515C
:10320000114301612169A068E269084361691143C2
:1032100001432068C26822F4037222F4144211436D
:10322000C16020684169A26921F440711143416184
:103230002068A0F18041B1F588312ED0A0F1804105
:10324000B1F58A3129D0FEF7B9FD8446E169002045
:103250001927254D3226B1F5004F22D06068830F23
:103260008200ACFB0701FDF75FF80146A5FB0020DB
:1032700040097A42424301EB820106EB0111A5FBB2
:103280000121490901F0F00202EB001001F00F01E9
:10329000084421688860BDE8F081FEF79FFD844600
:1032A000D4E761684A1840EB0003ACFB0701FDF767
:1032B0003BF80346A5FB0010410918460A016FF0D0
:1032C0001803594300EB810006EBC000A5FB00107A
:1032D000400900F0F80102EB410100F0070008444A
:1032E00021688860BDE8F0811F85EB5190F83D10A2
:1032F000212901D0022070478168B1F5805F01D19A
:10330000016961B1016A4A1C026202680978516070
:10331000C18C491E0904090CC1840AD013E0016A5A
:1033200002680988C1F308015160016A891C0162C1
:10333000EEE70168CA6822F08002CA600068C168CE
:1033400041F04001C16000207047000010B5044802
:10335000FDF7E4FBBDE810400148FFF705B90000A8
:10336000BC0100200B4882B001680A684A680092DC
:10337000CA6842F01002CA6001684A6942F040021D
:103380004A610168806B4FF4AF73034A091D02B0B4
:10339000FDF793BBBC0100204C08002070470000E3
:1033A00010B50448FDF7BAFBBDE810400148FFF72F
:1033B000DBB80000000200200C4808B501680A686C
:1033C0004A680092CA6842F01002CA6001684A69FD
:1033D00042F040024A61122100910168044B806B67
:1033E000A3F11802091DFDF7EDF908BD0002002048
:1033F000C20900207047000010B50448FDF78EFB9D
:10340000BDE810400148FFF7AFB8000044020020BB
:103410000B4882B001680A684A680092CA6842F0A4
:103420001002CA6001684A6942F040024A610168BC
:10343000806BC823034A091D02B0FDF73EBB0000A4
:1034400044020020DA090020704700000B4882B0D7
:1034500001680A684A680092CA6842F01002CA60AD
:1034600001684A6942F040024A610168806BC823E2
:10347000034A091D02B0FDF720BB00003401002003
:10348000A20A0020704700000B4882B001680A6859
:103490004A680092CA6842F01002CA6001684A692C
:1034A00042F040024A610168806BC823034A091D4B
:1034B00002B0FDF702BB0000780100206A0B00207B
:1034C00000F0ECB8FEE7000030B50C46050014D063
:1034D000022C12D90A48A11E02882846FDF72CFBAF
:1034E0002919C2B211F8023C9A4206D111F8011C06
:1034F000B1EB102F01D1012030BD002030BD000004
:103500004800002030B50C4605000ED0022C0CD926
:10351000601E81B2FF222846FDF724FB291911F80D
:10352000011C814201D1012030BD002030BD0000CE
:103530000A4801680A48B1F83B20130A0370427038
:1035400031F8332F130A8370C27049880A0A027156
:10355000417102462E210348FDF7D4B86C000020CB
:103560004A0000200C010020174882B00068018E3C
:1035700016480A0A027041704FF49671090A817068
:103580002C21C1709621ADF800100022027141710A
:103590000F480178012901D0002004E0407801287B
:1035A0000ED04FF44070ADF800000848BDF8001090
:1035B0000838064AC1812F21064802B0FDF7A2B89B
:1035C0004FF4E060EFE700006C00002052000020A4
:1035D0006A0000200C01002070B50346114D0088E0
:1035E0006E4240BA00B2DFED0E0AB3EE0E0A2A4672
:1035F000314600F040F80C4CFBEE040A2A4684EDFC
:10360000000A5888B3EE040A40BA00B2314600F00E
:1036100032F884ED010A988840BA208170BD00001C
:10362000000000000083FFFF340C002000680168E8
:1036300041F4002101600148FFF7DCBEAA09002027
:103640000068016821F4002101600148FFF7D2BE43
:10365000C209002010B5FCF7DDFFFCF7FDFFFFF706
:1036600081FEFFF7A9FEFFF7D3FEFFF7EFFEBDE8EF
:103670001040FFF709BF801A01EE100A881AF8EE11
:10368000C11A01EE100AB8EEC12A81EE821A70EE5C
:10369000601AB0EE600A01EE210A704770B5044668
:1036A000002C2BD0164D21782868A5290170286898
:1036B0001FD1D4F80110C0F8021005212046FFF7F1
:1036C00021FF012815D128684088093086B231468B
:1036D0002046FFF7F9FE012805D1B4F80500A880BF
:1036E000E11D00F00FF828684188E01D08440088BB
:1036F000E880A05DA52801D13444D1E770BD000069
:103700005C00002070B5394D0C4640F206222B6853
:10371000A0F20621904260D017DC40F20122A0F214
:103720000121904242D004DC012829D0032826D16F
:1037300019E001292ED0022921D12146BDE870408F
:1037400003F14A001022FCF766BE01293AD0022993
:1037500047D0032911D0FD2911D103F163000F22B5
:103760002146FCF758FE2868202221467230FCF7DB
:1037700052FEBDE8704000F033BC2068186070BD98
:1037800020881881A07898721A7A19490423012098
:10379000487070BD03F1330010222146FCF73BFE58
:1037A000FFF7C6FEBDE8704000F0FCBB03F1180057
:1037B0001B222146FCF72FFEFFF7D6FEBDE8704026
:1037C00000F0CABB206843F8430FA0889880A07916
:1037D0009871BDE8704000F061BC207883F85A0011
:1037E00070BD2088A3F8920070BD00006C0000201E
:1037F0006A0000209CB0FEF73BF9FFF77FFBFFF764
:1038000099FAFFF727FAFFF747FAFFF701FA454859
:1038100043494FF4E13600240160C0E901640C25FE
:10382000C460C0E904458461C461FEF7CDFF08B1FE
:1038300072B6FEE73B483C4944300160C0E9016490
:10384000C460C0E904458461C461FEF7BDFF08B1EE
:1038500072B6FEE73348354988300160C0E901643B
:10386000C460C0E904458461C461FEF7ADFF08B1DE
:1038700072B6FEE72B482E49CC3001602D49C0E9D5
:1038800001144FF48061C0E90341C0E90554C461EB
:10389000FEF79AFF08B172B6FEE728482649016094
:1038A000C0E90164C460C0E904458461C461FEF7F5
:1038B0008BFF08B172B6FEE7FFF7CCFE00F04AF8C6
:1038C0001C221F496846FCF7EBFD0021684600F00A
:1038D0004FF81C4C1A491C2220601C3107A8FCF729
:1038E000DFFD002107A800F043F8154960601C22A5
:1038F00038310EA8FCF7D4FD00210EA800F038F8EE
:103900000F49A0601C22543115A8FCF7C9FD002105
:1039100015A800F02DF8E06000F025F8FEE70000A3
:10392000004C0040340100200050004000100140D5
:1039300000440040A08601000048004044020020EE
:1039400040470008000000200021842800D0C11C4E
:1039500008467047704710B5002800D1012000F0DC
:103960008DFC002010BD10B500F0B0FC002010BD93
:1039700030B585B004460D466169B4F908000029E8
:1039800010D0A16971B1FFF7DFFF6269A1690192EF
:10399000029100902B4622692168606800F0CAFD00
:1039A000049010E0FFF7D0FF04A901910090208A55
:1039B0002B4682B22168606800F086FD012802D0A3
:1039C00005B0002030BD049805B030BD2DE9F041B0
:1039D00004460F46194EF5683068001D00F080FB64
:1039E00048B93068012190F82C0001FA00F03169E3
:1039F00021EA00003061B4F1FF3F07D137B13068F0
:103A0000BDE8F041011D0E4800F0B1BB2C44306808
:103A10004460AC4206D23068011DB06BBDE8F04195
:103A200000F08ABB3068011D706B00F085FBB06A46
:103A3000844200D2B462BDE8F08100007C00002026
:103A4000B40D002070B5044600F09EFB1C4DA86824
:103A5000401CA860286810B1686938B10CE02C607F
:103A6000A868012808D100F0EDF805E02868E16AAF
:103A7000C06A884200D82C60686A401C6862E06AAC
:103A800001212A698140114329610E4900EB800020
:103A900001EB8000211D00F06AFB00F095FB6869D6
:103AA00000280CD02868E16AC06A884207D206491B
:103AB0004FF080500860BFF34F8FBFF36F8F70BD22
:103AC0007C000020D80C002004ED00E070B50D4C07
:103AD0006068002815D00C4E00F056FBF068C568F1
:103AE000281D00F0FDFAA068401EA0606068401E1E
:103AF000606000F069FB284600F008F86068002864
:103B0000EAD170BD7C000020A00D002010B5044655
:103B100094F8511000290BD0012911D0022914D09A
:103B2000502080F31188BFF34F8FBFF36F8FFEE7F4
:103B3000206B00F05FFB2046BDE8104000F05ABB50
:103B40002046BDE8104000F055BB10BD4FF4705149
:103B5000104810F0070F06D0C01D20F007000D49D7
:103B6000411AC1F570510C4A1060002353600144A2
:103B7000083921F00701183A11604B600B600B1AED
:103B8000436001604068906050604FF000405061B9
:103B900070470000C80D0020D0000020074E4FF0F5
:103BA0008054074DFFF792FF30680128FAD92C6046
:103BB000BFF34F8FBFF36F8FF4E70000D80C0020E6
:103BC00004ED00E02DE9F0478146099E089D0A9C1E
:103BD0009A46521E206B00EB820020F00708002757
:103BE00000290CD0002023180A5C83F834200A5CDA
:103BF00012B1401C1028F6D384F8437001E084F819
:103C00003470072D00D30625E5626564A764201D86
:103C100000F08FFA04F1180000F08BFA2461C5F16E
:103C20000700A0616462E76484F850705246494618
:103C3000404600F003F92060002E00D03460BDE85B
:103C4000F087000070B500240F4D04EB840005EBF5
:103C5000800000F063FA641C072CF6D30B4800F0D8
:103C60005DFA0B4800F05AFA0A4800F057FA0A4881
:103C700000F054FA094800F051FA09480349416339
:103C80001431816370BD0000D80C0020640D002049
:103C9000780D00208C0D0020A00D0020B40D002018
:103CA0007C00002010B4144900E011460A688242EA
:103CB000FBD34B6803EB010C844503D140681844E7
:103CC000486008460C68D0F804C00CEB0003A3421F
:103CD0000CD10A4B1B689A4206D05268624442607B
:103CE0000A681268026002E0036000E0026081423C
:103CF00000D0086010BC7047D0000020B800002041
:103D00000749486B0068002805D0486BC068C06848
:103D10004068886270474FF0FF308862704700004B
:103D20007C0000200A484068B0F1FF3F07D05020D7
:103D300080F31188BFF34F8FBFF36F8FFEE75020E2
:103D400080F31188BFF34F8FBFF36F8FFEE7000042
:103D5000D80000202DE9F0410546002600F0FAFACF
:103D6000344F386808B9FFF7F1FE7869054251D140
:103D70009DB1083515F0070F0FD005F00700C0F111
:103D80000800054415F0070F07D0502080F3118874
:103D9000BFF34F8FBFF36F8FFEE7002D3AD07868E7
:103DA000854237D824490846046801E02146044684
:103DB0006068A84202D220680028F7D1386884429F
:103DC00028D0086800F10806206808606068411B78
:103DD00010290FD9601910F0070F07D0502080F379
:103DE0001188BFF34F8FBFF36F8FFEE741606560AF
:103DF000FFF758FF61687868401A7860BA689042A7
:103E000000D2B86078690843606000202060F868DC
:103E1000401CF86000F028FC16F0070F07D0502077
:103E200080F31188BFF34F8FBFF36F8FFEE73046EB
:103E3000BDE8F081B8000020D0000020001F4FF046
:103E400080730360001F21F001010160001F05491C
:103E5000016014380260001F6FF002010160203819
:103E600070470000253D000838B504460068016829
:103E700040680090304884420CD1A06B0068016813
:103E800021F0010101602D48FFF788FA4FF4AF716E
:103E90002A484DE02A4884421CD1A06B0068016882
:103EA00021F001010160A06B01684A68062A06D171
:103EB0000968090301D5416C00E0C16B8847A16B1B
:103EC000182009684860A06B0068016841F0010192
:103ED000016038BD1B4884420BD1A06B00680168AB
:103EE00021F0010101601848FFF7AEFAC821164819
:103EF0001EE0164884420DD1A06B0068016821F0D5
:103F0000010101601048C830FFF7BCFA0E48C82113
:103F1000C8300DE00E488442DBD1A06B0068016818
:103F200021F0010101600B48FFF7CAFAC8210948D6
:103F3000FCF7E8FAC7E70000BC0100204C080020AD
:103F40000002002044020020DA0900203401002091
:103F5000780100206A0B00200F481049006801F129
:103F60000803828D0A81027E072A02D06B2A02D0C2
:103F700003E0002200E001229A70028E21F80B2F4C
:103F8000428B4A8090F86F000871044A40F2013178
:103F900008320348FCF7B6BB6C0000201800002074
:103FA000E40000200B4801680B4831F83B2F0280E9
:103FB0004A8842808A88828011F8332C12098271E3
:103FC000C97F024601F00F01C1714FF440710348EF
:103FD000FCF798BB6C00002018000020E4000020D3
:103FE0002B48052201682B480B7E072B02D06B2B38
:103FF00021D047E0B1F88E30B3FBF2F30370B1F893
:104000007E30B3FBF2F34370B1F88230B3FBF2F3CE
:104010008370B1F88630B3FBF2F3C370B1F8883027
:10402000B3FBF2F30371B1F88A30B3FBF2F34371DF
:10403000B1F88C301FE0B1F88E30B3FBF2F30370AF
:10404000B1F87E30B3FBF2F34370B1F87230B3FBDA
:10405000F2F38370B1F87630B3FBF2F3C370B1F8CA
:104060007830B3FBF2F30371B1F87A30B3FBF2F3BB
:104070004371B1F87C30B3FBF2F383714989B1FB32
:10408000F2F1C171034A40F205310348FCF73ABB33
:104090006C00002040000020E40000200D480E4984
:1040A000006890F844200A74D0F84620C1F8112026
:1040B000428CA1F81520B0F892000521B0FBF1F078
:1040C000054910310A46C87140F202310348FCF735
:1040D00019BB00006C00002018000020E400002044
:1040E0000169436882689A60836842685A604A68D6
:1040F000824201D182684A60002202610868401E43
:104100000860086870470000034B036003F1540027
:1041100008608020106070472805002000F1080129
:1041200041604FF0FF328260C16001610021016097
:10413000704700210161704710B4D1F800C0BCF194
:10414000FF3F02D000F1080202E0026904E01A46D3
:1041500053681C686445FAD953684B6099608A605B
:10416000516008610168491C016010BC70474268D9
:104170004A6093688B609368596091600861016838
:10418000491C016070470000502080F31188BFF384
:104190004F8FBFF36F8F0A494868401C4860012861
:1041A0000CD10848006810F0FF0F07D0502080F3B2
:1041B0001188BFF34F8FBFF36F8FFEE7704700008A
:1041C000D800002004ED00E009494868002806D026
:1041D000401E4860002801D180F3118870475020AC
:1041E00080F31188BFF34F8FBFF36F8FFEE700009E
:1041F000D800002070B500282AD0A0F10804154D81
:1042000060686969084207D1502080F31188BFF3C4
:104210004F8FBFF36F8FFEE722683AB1502080F3D3
:104220001188BFF34F8FBFF36F8FFEE78843606045
:1042300000F090F860686968084468602046FFF7FD
:1042400031FD2869401C2861BDE8704000F00CBABF
:1042500070BD0000B80000204FF0E0200021016197
:10426000816105494FF47A720968B1FBF2F1491E88
:1042700041610721016170471400002010B502461A
:104280000020002A12D00F48006B38B1502080F374
:104290001188BFF34F8FBFF36F8FFEE700F05AF81E
:1042A00000211046FFF792FB00F0DEF9002807D14D
:1042B00005494FF080500860BFF34F8FBFF36F8FF9
:1042C00010BD00007C00002004ED00E010B586B0B9
:1042D00000240594049403AA04A905A8FFF714FF79
:1042E00005980499019102900023009415A11748A4
:1042F000039A00F01FF91649C86208B1012000E0D6
:10430000002001280AD0B0F1FF3F19D1502080F3DE
:104310001188BFF34F8FBFF36F8FFEE7502080F3FC
:104320001188BFF34F8FBFF36F8F4FF0FF3088625C
:1043300001204861CC6006B0BDE8104000F042B8F2
:1043400006B010BD49444C45000000009D3B0008EC
:104350007C0000200248016B491C0163704700008B
:104360007C000020154A106B002802D00120D0618B
:1043700070470020D0611069B0FA80F0C0F11F00D2
:104380000F4900EB800051F8203073B101EB800041
:1043900041684968416000F10803994201D14968C8
:1043A00041604068C06810607047502080F31188F9
:1043B000BFF34F8FBFF36F8FFEE700007C0000203C
:1043C000D80C002010B582B038480168384A9142B4
:1043D00007D1502080F31188BFF34F8FBFF36F8F49
:1043E000FEE700683349884207D1502080F31188E6
:1043F000BFF34F8FBFF36F8FFEE72F49087801900F
:10440000FF200870087800909DF800009DF80020BB
:1044100000F0F000904207D0502080F31188BFF3E5
:104420004F8FBFF36F8FFEE79DF80000234C00F025
:10443000500020700720A0609DF8000010F0800F51
:104440000BD0A068401EA0609DF8000040000090C6
:104450009DF8000010F0800FF3D1A068032807D06A
:10446000502080F31188BFF34F8FBFF36F8FFEE7AB
:104470004FF44070A060019808701148016841F441
:1044800070010160016841F070410160FFF7E4FED6
:1044900000206060FBF7ECFE0A48016841F04041F3
:1044A0000160FBF7D1FE02B0002010BD00ED00E07E
:1044B00071C20F4170C20F4100E400E0D80000203B
:1044C00020ED00E034EF00E02DE9F04F85B08146AB
:1044D0000F9F0E9E8A4690469B464FEA8800FFF744
:1044E00039FC054628000AD05420FFF733FC044667
:1044F0000CB1256304E02846FFF77CFE00E00024B1
:104500009CB1002084F8510003905B46424651461E
:104510000197009602944846FFF754FB2046FFF7A8
:1045200091FA05B00120BDE8F08F05B04FF0FF30E3
:10453000BDE8F08F70B586B00646DDF828C00C9C4B
:104540000B98002816D0ECB1542504952063022066
:1045500084F85100002005AD0390CDF800C001950E
:1045600002943046FFF72EFB2046FFF76BFA0598C2
:1045700006B070BD502080F31188BFF34F8FBFF39A
:104580006F8FFEE7502080F31188BFF34F8FBFF38A
:104590006F8FFEE72DE9F0470026314F386B00287A
:1045A00005D0B869401CB8613046BDE8F087F868AE
:1045B000451CFD609DB9786B006838B1502080F3D0
:1045C0001188BFF34F8FBFF36F8FFEE7786BB96B26
:1045D0007963B863386A401C3862FFF791FBB86AA8
:1045E000DFF8808085420FD34FF00109786B0068B7
:1045F00038B1786BC068C4686068854212D2B8620E
:1046000002E04FF0FF30B8623868C06A00EB80000B
:1046100058F82000012800D90126F8690028C3D0E5
:104620000126C1E7201DFFF75BFDA06A18B104F168
:104630001800FFF755FDE16A3A6909FA01F01043E5
:10464000386101EB810008EB8000211DFFF78FFD31
:10465000E06A3968C96A8842C8D30126C6E7000003
:104660007C000020D80C00202DE9F0470024A04653
:104670002D4D286B002807D0FFF786FD286B401EC4
:104680002863286B40B149E0502080F31188BFF3C4
:104690004F8FBFF36F8FFEE7A86800283ED0234FEF
:1046A0003868012600B3A7F1B409F868C46804F1BA
:1046B0001800FFF715FD201DFFF712FDE06A2A69BB
:1046C00006FA00F11143296100EB800009EB80003C
:1046D000211DFFF74CFDE06A2968C96A884200D3B2
:1046E000EE6138680028E0D10CB1FFF709FBAC6936
:1046F00044B1FFF74FFF00B1EE61641E002CF8D10A
:104700000020A861E86948B14FF0010808494FF05E
:1047100080500860BFF34F8FBFF36F8FFFF754FDDA
:104720004046BDE8F08700007C0000208C0D002092
:1047300004ED00E04FF04070E1EE100A7047000019
:10474000EC4A0008C92E000800000000000000002C
:10475000800000000000000000000000D04A0008B7
:10476000C12E00080200000000000000000400004C
:104770000000000000000000E04A0008690700088F
:104780000100000000000000000400000000000024
:1047900000000000F84A0008032C00080100000097
:1047A0000000000000010000000000000000000008
:1047B00000000000000000000102030406070809D1
:1047C00000000000010203040000891112239B3243
:1047D0002446AD573665BF74488CC19D5AAFD3BED1
:1047E0006CCAE5DB7EE9F7F88110080193331A22E1
:1047F000A5562C47B7753E64C99C408DDBBF52AEB1
:10480000EDDA64CBFFF976E802218B3010029913C0
:104810002667AF763444BD554AADC3BC588ED19F90
:104820006EEBE7FA7CC8F5D983310A2091121803A0
:10483000A7772E66B5543C45CBBD42ACD99E508F70
:10484000EFFB66EAFDD874C904428D5316619F7070
:104850002004A9153227BB364CCEC5DF5EEDD7FC50
:104860006888E1997AABF3BA85520C4397711E6060
:10487000A1142805B3373A26CDDE44CFDFFD56EC30
:10488000E9986089FBBB72AA06638F7214409D5140
:104890002225AB343006B9174EEFC7FE5CCCD5DD10
:1048A0006AA9E3B8788AF19B87730E6295501C4120
:1048B000A3352A24B1163807CFFF46EEDDDC54CDF0
:1048C000EBB962A8F99A708B088481951AA793B600
:1048D0002CC2A5D33EE1B7F04008C919522BDB3AF0
:1048E000644EED5F766DFF7C899400859BB712A6C0
:1048F000ADD224C3BFF136E0C1184809D33B5A2AD0
:10490000E55E6C4FF77D7E6C0AA583B4188691979F
:104910002EE3A7F23CC0B5D14229CB38500AD91BAF
:10492000666FEF7E744CFD5D8BB502A4999610877F
:10493000AFF326E2BDD034C1C3394A28D11A580B8F
:10494000E77F6E6EF55C7C4D0CC685D71EE597F44F
:104950002880A1913AA3B3B2444ACD5B5669DF786F
:10496000600CE91D722FFB3E8DD604C79FF516E43F
:10497000A9902081BBB332A2C55A4C4BD7795E684F
:10498000E11C680DF33F7A2E0EE787F61CC495D51F
:104990002AA1A3B03882B193466BCF7A5448DD592F
:1049A000622DEB3C700EF91F8FF706E69DD414C5FF
:1049B000ABB122A0B9923083C77B4E6AD5585C490F
:1049C000E33D6A2CF11E780F005EBCE2613FDD839F
:1049D000C29C7E20A3FD1F419DC3217FFCA2401EDF
:1049E0005F01E3BD3E6082DC237D9FC1421CFEA0CF
:1049F000E1BF5D0380DE3C62BEE0025CDF81633DBF
:104A00007C22C09E1D43A1FF4618FAA427799BC5AE
:104A100084DA3866E5BB5907DB856739BAE406589E
:104A20001947A5FB7826C49A653BD987045AB8E68E
:104A3000A7F91B45C6987A24F8A6441A99C7257B7E
:104A40003A6486D85B05E7B98CD2306EEDB3510F6E
:104A50004E10F2AC2F7193CD114FADF3702ECC925E
:104A6000D38D6F31B2EC0E50AFF1134DCE90722C4E
:104A70006D33D18F0C52B0EE326C8ED0530DEFB13E
:104A8000F0AE4C1291CF2D73CA947628ABF517492E
:104A90000856B4EA6937D58B5709EBB536688AD41E
:104AA00095CB2977F4AA4816E9B7550B88D6346A0E
:104AB0002B7597C94A14F6A8742AC896154BA9F7FE
:104AC000B6E80A54D7896B35000610160006101692
:104AD0005265616C74696D655461736B0000000010
:104AE000436F6E74726F6C5461736B0064656661C2
:104AF000756C745461736B00696E74657261637474
:104B0000696F6E7461736B00284B00080000002011
:104B1000E4000000C40100080C4C0008E400002080
:104B2000444F0000E0010008000000000000000009
:104B30000000000000000000000000000024F4005D
:104B40000000000000000000000000000000000065
:104B50000000000000000000000000000000000055
:104B60000000000000000000000000000000000045
:104B7000FFFF000000000000000000000000000037
:104B800000000000640000200000000000000000A1
:104B900000000000400C0020010000001000000098
:104BA0000000000000000000000000000000000005
:104BB00000000000000000000000000000000000F5
:104BC00000000000000000000000000000000000E5
:104BD00000000000000000000000000000000000D5
:104BE00000000000000000000000000000000000C5
:104BF00000000000000000000000000000000000B5
:0C4C000000000000AAAAAAAA0000000000
:040000050800018965
:00000001FF
